:100000000C9486000C94A7000C94A7000C94A700F5
:100010000C94A7000C94A7000C94A7000C94A700C4
:100020000C94A7000C94A7000C94A7000C94A700B4
:100030000C94A7000C94A7000C94A7000C94A700A4
:100040000C94A7000C94A7000C94A7000C94A70094
:100050000C94A7000C94A7000C94A7000C94A70084
:100060000C94A7000C94A7000C94A7000C94A70074
:100070000C94A7000C94A7000C94A7000C94A70064
:100080000C94A7000C94A7000C94A7000C94A70054
:100090000C94A7000C94A7000C94A7000C94A70044
:1000A0000C94A7000C94A7000C9490070C94A70044
:1000B0000C94A7000C94A7000C94A7000C94A70024
:1000C0000C94A7000C94A7000C94A7000C94A70014
:1000D0000C94A7000C94A7000C94A7000C94A70004
:1000E0000C94A7000C942B080C9453070C944D0807
:1000F0000C949A060C94F6000C94BF000C94CA0061
:100100000C94A9000C94C0000C94B80011241FBEDC
:10011000CFEFD1E2DEBFCDBF00E00CBF13E0A0E027
:10012000B2E0E2EAFAE100E00BBF02C007900D92F4
:10013000A43EB107D9F726E1A4EEB3E001C01D92B9
:10014000A234B207E1F70E94350A0C944F0D0C94CB
:100150000000CF93C82F8A3019F48DE00E94A900C7
:100160008091C00085FFFCCFC093C600CF91089559
:100170008091C00087FFFCCF8091C6000895FFCF1B
:100180002FEF87EA91E6215080409040E1F700C0D0
:100190000000F6CF8091E8039091E903892B29F1C3
:1001A000F894E091EC03F091ED03808191819F93AD
:1001B0008F938DE192E09F938F930E94640A8091C8
:1001C000EC039091ED03FC01E85FFE4F23E030E08B
:1001D000318320838C5F9E4FFC01118210820F902F
:1001E0000F900F900F900C94010908950C94CA0081
:1001F0008091F8039091F903009789F0FC01E95E82
:10020000FE4F208131813093F9032093F803232B93
:1002100021F41092FB031092FA03118210820895C8
:10022000FC0180819181892B51F4718360837383F8
:100230006283695E7E4FFB01118210820895A28164
:10024000B381A95EBE4F6D937C93738362830895DF
:100250001092C50087E68093C400E0ECF0E0808156
:100260008D7F808386E08093C20088E18093C10007
:100270000895E091EC03F091ED03E55EFE4F80817F
:1002800091810895E091EC03F091ED0380819181DB
:1002900008959C01E8E0F4E090E080E04081518125
:1002A0004217530741F00196ED5DFE4F80319105F5
:1002B000A9F78FEF9FEF0895F8949F938F9383E3AF
:1002C00092E09F938F930E94640A0F900F900F907B
:1002D0000F90FFCFBC01FC01808191810197409775
:1002E00020F085E090E00E945C01EC5FFE4F808191
:1002F0009181029721F481E090E091838083FB015A
:10030000E75EFE4F808191818130910531F0039746
:1003100039F484E094E00C9410018CEF93E0FBCF6F
:100320000895CF93DF93FC01408151814115510520
:1003300021F48AE090E00E945C01DA01A95EBE4FE0
:100340002D913C9111974617570781F431832083F3
:100350001D921C9280819181892B11F4138212824B
:10036000DF91CF910895A901292F382F211531054B
:1003700089F3D901A95EBE4F9C9111968C9111977A
:100380002617370781F7EA01C95EDE4F9883898314
:100390001D921C928281938182179307D9F6538311
:1003A0004283D8CFCF93DF93FC01C081D1812097C6
:1003B00059F0FE01EC5FFE4F208131812130310583
:1003C00039F4BE010E949101CE01DF91CF910895D1
:1003D000C95EDE4F0990D881C02DE9CF5F926F9240
:1003E0007F928F929F92AF92BF92CF92DF92EF92C5
:1003F000FF920F931F93CF93DF938091E40390912B
:10040000E50301969093E5038093E40320910404AF
:100410003091050450E040E02115310509F0ACC0F1
:100420005F934F939F938F938EE492E09F938F936C
:100430000E94640A80910004909101040F900F9033
:100440000F900F900F900F9030E020E0009709F090
:100450009BC03F932F938091E5038F938091E4039A
:100460008F9389E692E09F938F930E94640A809114
:10047000FC039091FD030F900F900F900F900F9041
:100480000F9030E020E0009709F086C03F932F9353
:100490008091E5038F938091E4038F9386E892E047
:1004A0009F938F930E94640A0F900F900F900F906C
:1004B0000F900F908EEB682E82E0782E84E094E00F
:1004C0000E94D2019093ED038093EC03009709F40E
:1004D0006BC02091E4033091E5032F5F3F4F3093D1
:1004E000E5032093E403FC01808191819F938F9326
:1004F0003F932F938DE992E09F938F930E94640A1C
:100500000F900F900F900F900F900F90E091EC03D1
:10051000F091ED0382819381909339168093381680
:10052000208131819F938F933F932F938EE293E0AD
:100530009F938F930E94640AE091EC03F091ED0386
:10054000EC5FFE4F82E090E0918380830F900F90EC
:100550000F900F900F900F90DF91CF911F910F91FF
:10056000FF90EF90DF90CF90BF90AF909F908F90D3
:100570007F906F905F9008954F5F5F4F295E3E4F71
:10058000D9012D913C9148CF2F5F3F4F895E9E4FFF
:10059000FC01808191815ACF2F5F3F4F895E9E4F32
:1005A000DC018D919C916FCFC0910004D09101042A
:1005B00010E000E0F12CE12C209749F422E0E21653
:1005C000F10408F45AC081E090E00E945C0120919F
:1005D000E4033091E5032F5F3F4F3093E503209311
:1005E000E403E091E603F091E7035E018FEDA81AC2
:1005F0008EEFB80AD5018D909C906E01B1EECB1AAA
:10060000BEEFDB0AD6014C9111965C90CF018819A0
:100610009909642F752D0E94500A9F938F935F92C2
:100620004F939F928F92FF93EF933F932F937F92DD
:100630006F920E94640A8091E6039091E703F501AE
:1006400020813181821B930BD6016D917C910E9498
:10065000500AEDB7FEB73C960FB6F894FEBF0FBE3A
:10066000EDBF892B21F4FFEFEF1AFF0A8E01C95E5F
:10067000DE4F0990D881C02D9FCFEA94EF2819F161
:100680001092ED031092EC038CEF93E00E94D201E4
:100690009093ED038093EC03009709F40FCF209122
:1006A000E4033091E5032F5F3F4F3093E503209340
:1006B000E403FC01808191819F938F933F932F935B
:1006C00081E193E019CF1093ED030093EC03011542
:1006D0001105D1F28091E4039091E5030196909386
:1006E000E5038093E403D8012D913C913F932F9330
:1006F0009F938F938EEE92E0FFCEF8941092A0001D
:10070000E1EAF0E0108280818860808380818460EB
:10071000808381E792E09093A9008093A800E2E7AC
:10072000F0E08081826080831092A5001092A40086
:1007300078940895FC0180819181009721F48AE0EA
:1007400090E00C94780A895E9E4FF4CFFC013496B9
:1007500020E031E0DF01A9011D9241505040E1F756
:10076000E150FF4F2AEC30E02083319730833197FE
:1007700010823197608331977083319710829C018A
:1007800025523F4FDC0113963C932E9312973896D7
:1007900060837183329611821082349620EF33E0A9
:1007A00031832083329724EF33E0318320833496E2
:1007B000118210823296118210823296118210823A
:1007C000329610823196118210822091EE03309180
:1007D000EF032F5F3F4F3093EF032093EE033296EA
:1007E00011821082739721E030E0318320830C94D2
:1007F0006A01EF92FF920F931F93CF93DF931092B2
:10080000EF031092EE031092E9031092E8031092A6
:10081000EB031092EA03E091EC03F091ED0381E128
:1008200090E091838083109205041092040410924A
:100830000704109206041092010410920004109212
:100840000304109202041092FD031092FC03109214
:10085000FF031092FE031092F9031092F803109216
:10086000FB031092FA03C8E0D4E010E000E083E25A
:10087000E82EFF24F394BE01FE01C70111920197F7
:10088000E9F7FE01EC5FFE4F118210820F5F1F4FF0
:1008900019830883CD5DDE4F7396D183C08388EFC3
:1008A00093E00E9410010031110529F7DF91CF91EB
:1008B0001F910F91FF90EF9008958091E803909120
:1008C000E903892B09F04AC08091EE039091EF0370
:1008D000892B09F443C0F8948EE393E00E947E0ACA
:1008E00081E090E09093E9038093E8030E94EE0199
:1008F000E091EC03F091ED03DF01A85FBE4F11968C
:100900001C921E928281938190933916809338169F
:100910000E94AC088091EC039091ED032091381671
:1009200030913916FC0133832283E85FFE4F20812A
:1009300031812230310529F02330310529F0232B74
:1009400049F40E946A01D2CF8C5F9E4FFC01118254
:100950001082CCCF83E090E00E945C010895EF927A
:10096000FF920F931F93CF93DF938C017B018091B4
:10097000EE039091EF03409771F18091F80390910D
:10098000F903892B41F18091E8039091E903892BC8
:1009900009F0F8940E94F800EC01FC01E75EFE4FBC
:1009A00083E090E0918380833296F182E082B80107
:1009B000CE010E94A6038091E8039091E903892B60
:1009C00009F0789488819981DF91CF911F910F91DF
:1009D000FF90EF90089590E080E0F6CFEF92FF92C5
:1009E0000F931F93CF93DF938C017B018091EE03D4
:1009F0009091EF03409771F18091F8039091F90382
:100A0000892B41F18091E8039091E903892B09F04A
:100A1000F8940E94F800EC01FC01E75EFE4F81E0D3
:100A200090E0918380833296F182E082B801CE011A
:100A30000E94A6038091E8039091E903892B09F0B5
:100A4000789488819981DF91CF911F910F91FF90C8
:100A5000EF90089590E080E0F6CF8F929F92AF9252
:100A6000BF92CF92DF92EF92FF920F931F93CF939B
:100A7000DF93EC015B017A0169018091EE039091B3
:100A8000EF03409709F444C08091F8039091F90373
:100A9000892B09F43DC08091E8039091E903892BEB
:100AA00009F0F8940E94F8004C01FC01E75EFE4F4B
:100AB00082E090E0918380833296B182A082329668
:100AC000D182C0823296F182E08232961183008315
:100AD000BE01C4010E94A603B40180E094E00E941C
:100AE00010018091E8039091E903892B09F0789433
:100AF000F40180819181DF91CF911F910F91FF903F
:100B0000EF90DF90CF90BF90AF909F908F9008951F
:100B100090E080E0F0CF8091E8039091E903892B89
:100B200069F0F894E091EC03F091ED03E85FFE4F7B
:100B300082E090E0918380830C9401090895CF9323
:100B4000DF93FC01C081D181209751F0DE01AC5EC2
:100B5000BE4F9C91962341F0BE01CF010E949101AE
:100B6000CE01DF91CF910895C95EDE4F0990D88103
:100B7000C02DEACFBF92CF92DF92EF92FF920F93F8
:100B80001F93CF93DF93B62E7A0101976C0180916A
:100B9000E4039091E50301969093E5038093E403C9
:100BA000E091EC03F091ED03EC5FFE4F80819181C9
:100BB0008130910509F487C008F488C0029709F0D4
:100BC00088C08BE593E00E947E0A83E291E0C89E94
:100BD000E001C99ED00DD89ED00D1124C85FDB4F17
:100BE00089818F9388818F938091E5038F93809182
:100BF000E4038F9386E793E09F938F930E94640AA8
:100C00000F900F900F900F900F900F90CC5FDE4FD2
:100C1000888199818130910509F45EC008F45FC034
:100C2000029709F05FC08BE593E00E947E0AC091B5
:100C3000EC03D091ED0383E291E0C89E8001C99E50
:100C4000100DD89E100D1124085F1B4FD801AC5F0A
:100C5000BE4F8D919C911197AE014C5F5E4F0497F2
:100C600009F043C028813981C801825F9E4FFC0191
:100C700031832083F701208131810296FC01318389
:100C800020830496FC01B08285E090E0FA01918314
:100C9000808381E090E08D939C93F801E45FFE4FA8
:100CA000BE01808191810E941001C8010E946A01E9
:100CB000DF91CF911F910F91FF90EF90DF90CF9038
:100CC000BF900C948B0583E693E07DCF89E693E09B
:100CD0007ACF8EE693E077CF83E693E0A6CF89E6DE
:100CE00093E0A3CF8EE693E0A0CF83E090E0FA01FB
:100CF00091838083F801E65FFE4FBE018081918180
:100D00000E94100188819981FE01E25FFE4F91836C
:100D10008083F70180819181FE01E05FFE4F918326
:100D200080833496B082CB5EDE4F81E090E0998381
:100D30008883BECFCF93DF931F921F92CDB7DEB7CC
:100D400081E390E09A838983AE014F5F5F4F61E654
:100D500082E090E00E94BA050F900F90DF91CF9152
:100D600008950F931F93CF93DF93682FC091EC03E7
:100D7000D091ED03FE01E65FFE4F808191810E94DC
:100D80009F058C010097A9F4CC5FDE4F84E090E0D2
:100D9000998388830E948B05E091EC03F091ED0329
:100DA000E25FFE4F80819181DF91CF911F910F9182
:100DB0000895FC01EC5FFE4F85E090E09183808315
:100DC000FE01E45FFE4F80819181B8010E94100115
:100DD000F80180819181FE01E25FFE4F9183808363
:100DE000F801E05FFE4F20813181FE01E05FFE4FA0
:100DF00031832083F801EC5EFE4F2081CC5EDE4F14
:100E00002883D2CF0F931F93CF93DF93EB018C01F5
:100E10000150110983E291E0089FB001099F700D14
:100E2000189F700D1124685F7B4FE091EC03F091E7
:100E3000ED03E45FFE4FA081B1818D919C910097FD
:100E400029F4DF91CF911F910F91089568177907C9
:100E500021F0895E9E4FDC01F0CF808191810E945C
:100E6000910123E231E0029FC001039F900D129F88
:100E7000900D1124885F9B4FFC01EE5EFE4FD183E5
:100E8000C083339623E030E0318320838C5F9E4F14
:100E900021E030E0FC0131832083DF91CF911F916D
:100EA0000F910C948B05CF93DF931F921F92CDB7B8
:100EB000DEB781E090E09A838983BE016F5F7F4F48
:100EC00081E60E94B1066EE570E00E9402070F9075
:100ED0000F90DF91CF910895DC011197E3E2F1E0EB
:100EE000AE9F9001AF9F300DBE9F300D1124285F43
:100EF0003B4FF901EC5FFE4F0190F081E02D3497FC
:100F000069F4F901E25FFE4F918380833296518349
:100F100040832C5E3E4FF901608308950C948B054D
:100F20001F920F920FB60F9211240BB60F922F93B0
:100F30003F934F935F936F937F938F939F93AF9361
:100F4000BF93EF93FF938091E6039091E70301969F
:100F50009093E7038093E6038091E4039091E50387
:100F600001969093E5038093E403E091EC03F09104
:100F7000ED0342815381208131815F934F933F93F1
:100F80002F939F938F9382E993E09F938F930E9477
:100F9000640A8091E8039091E9032DB73EB7285F7A
:100FA0003F4F0FB6F8943EBF0FBE2DBF892BA9F05F
:100FB0008091EC039091ED03FC01E75EFE4F2081F0
:100FC00031812330310549F0719722E030E03183DF
:100FD00020830E946A010E94EE01FF91EF91BF9170
:100FE000AF919F918F917F916F915F914F913F91C1
:100FF0002F910F900BBE0F900FBE0F901F90189562
:10100000F894E091EC03F091ED03808191819F933E
:101010008F9381EC93E09F938F930E94640A78945E
:101020000F900F900F900F900C94CA00CF93DF9306
:101030001F921F92CDB7DEB71A821982AE014F5FA1
:101040005F4F61E082E090E00E94BA050F900F9040
:10105000DF91CF9108950E941608FDCFCF93DF93C3
:101060001F921F92CDB7DEB71A821982BE016F5F41
:101070007F4F8FEF0E94B1069F938F938EEC93E08A
:101080009F938F930E94640A0F900F900F900F9080
:101090000F900F90DF91CF9108950E942E08FDCF01
:1010A0000F931F9361E070E086EF90E00E94AF0421
:1010B00061E070E086EF90E00E94AF0410E000E095
:1010C00021E030E044E050E061E070E08FEB90E040
:1010D0000E942D0501E010E021E030E044E050E006
:1010E00061E070E080EC90E00E942D0561E070E02E
:1010F0008FEB90E00E94EE0461E070E08FEB90E0F7
:101100001F910F910C94EE0461E070E08AE996E083
:101110000E94AF0461E070E083E597E00C94AF04B7
:10112000CF93DF93D0E0C0E0BE018FEB90E00E9450
:10113000EE042196C431D105B9F7DF91CF9108951E
:1011400061E070E08BE298E00E94AF0461E070E043
:101150008DE498E00C94AF040F921F922F923F926F
:101160004F925F926F927F928F929F92AF92BF92B7
:10117000CF92DF92EF92FF920F931F932F933F93A3
:101180004F935F936F937F938F939F93AF93BF938F
:10119000CF93DF93EF93FF930FB70F930CB70F939A
:1011A000EDB7FEB7E0933A16F0933B16E091381690
:1011B000F0913916EDBFFEBF0F910CBF0F910FBF1D
:1011C000FF91EF91DF91CF91BF91AF919F918F915F
:1011D0007F916F915F914F913F912F911F910F914F
:1011E000FF90EF90DF90CF90BF90AF909F908F9047
:1011F0007F906F905F904F903F902F901F900F9037
:1012000018950F921F922F923F924F925F926F927A
:101210007F928F929F92AF92BF92CF92DF92EF9286
:10122000FF920F931F932F933F934F935F936F936F
:101230007F938F939F93AF93BF93CF93DF93EF935E
:10124000FF930FB70F930CB70F93EDB7FEB7E09373
:101250003816F0933916E0913A16F0913B16EDBF2F
:10126000FEBF0F910CBF0F910FBFFF91EF91DF9168
:10127000CF91BF91AF919F918F917F916F915F912E
:101280004F913F912F911F910F91FF90EF90DF9021
:10129000CF90BF90AF909F908F907F906F905F9016
:1012A0004F903F902F901F900F90089590910201C2
:1012B0009F7E9093020187FF05C09091020190618B
:1012C0009093020190910201977F9093020186FF13
:1012D00005C090910201986090930201739885FD7A
:1012E000739AA59884FDA59A8091020180648093E9
:1012F000020185E08A95F1F70000809102018F7B61
:10130000809302010895CF93C82F809102018F7DB1
:10131000809302018C2F0E9456098C2F8295807F2A
:101320000E94560987EC90E00197F1F700C0000099
:10133000C43030F0C03810F0C0931C02CF91089533
:101340008FE39FE10197F1F700C00000C0E8F4CF00
:10135000CF93C82F809102018062809302018C2F6D
:101360000E9456098C2F8295807F0E94560987EC37
:1013700090E00197F1F700C0000080911C028F5FA0
:1013800080931C02803931F0803D31F480E8CF91A8
:101390000C94830980ECFBCFCF910895CF93DF931A
:1013A000EC018991811103C0DF91CF9108950E94D2
:1013B000A809F7CFCF93C82FC15010F4CF9108954B
:1013C00080E20E94A809F8CF9D9A6B9AE1E0F1E0D3
:1013D0008081886080838081806180838081806259
:1013E0008083808180648083E2E0F1E080818F7B74
:1013F000808380818F7D80838FE59AEE0197F1F75E
:1014000000C0000080E30E9456098FE090E401973D
:10141000F1F700C0000080E30E9456098FE891E0D8
:101420000197F1F700C0000080E30E94560987ECA5
:1014300090E00197F1F700C0000080E20E94560999
:1014400087EC90E00197F1F700C0000088E20E946D
:10145000830988E00E94830981E00E94830986E075
:101460000E9483098CE00C9483090E942801ECE31C
:10147000F6E18EE092E09383828380E092E09183B4
:101480008083F89483E884B90E94F9030E9450088D
:101490000E947D0378940E945D048FEF9FEF089572
:1014A000AA1BBB1B51E107C0AA1FBB1FA617B7078A
:1014B00010F0A61BB70B881F991F5A95A9F78095A6
:1014C0009095BC01CD010895CF93DF93CDB7DEB7E2
:1014D000AE014A5F5F4FFA0161917191AF01809156
:1014E0003E1690913F160E94A90ADF91CF91089570
:1014F00060913E1670913F160C94C10C0F931F9390
:10150000CF93DF93E0913E16F0913F162381EC01DB
:1015100010E000E021FD08C00FEF1FEF14C0199587
:10152000892B11F00FEF1FEF899160913E1670919A
:101530003F16DB011896ED91FC918111F0CF8AE006
:101540001995892B49F7C801DF91CF911F910F9110
:1015500008952F923F924F925F926F927F928F9257
:101560009F92AF92BF92CF92DF92EF92FF920F9332
:101570001F93CF93DF9300D000D000D01F921F9213
:10158000CDB7DEB77C013B018A01FC0117821682D0
:10159000838181FFDDC1CE0101965C01F70193815A
:1015A000F30193FD859193FF81913F01882309F415
:1015B00053C1853239F493FD859193FF81913F01A9
:1015C000853229F4B70190E00E94C10CE7CF912C3D
:1015D000212C312CFFE1F31538F08B3211F190F40E
:1015E000803209F1833229F137FC3CC020ED280F0D
:1015F0002A3050F536FE20C08AE0989E200D112436
:10160000922E06C08D3291F0803371F7689430F8D5
:10161000F30193FD859193FF81913F018111DACF11
:1016200021C0689431F8689432F8F2CF689433F8A6
:10163000EFCF689434F8ECCFEAE02E9E200D112411
:10164000222E689435F8E4CF8E3229F436FC04C19A
:10165000689436F8DDCF8C3619F4689437F8D8CF13
:101660008836B1F2982F9F7D95549330E0F0833601
:10167000A1F18337C1F1833509F063C02801F2E09D
:101680004F0E511CF801C080D180692D70E036FCEE
:1016900002C06FEF7FEFC6010E94AB0C4C01689453
:1016A00037F882010AC00C5F1F4FFFE3F9838824DB
:1016B0008394912C6501E89437F833FE2DC0522CA9
:1016C0008114910471F5552009F468CFB70180E2C7
:1016D00090E00E94C10C5A94F6CFF8018081898372
:1016E0000E5F1F4FE4CF2801F2E04F0E511CF801AE
:1016F000C080D180692D70E036FC02C06FEF7FEFB3
:10170000C6010E94B60C4C018201D5CFB70180E220
:1017100090E00E94C10C2A942814190409F0B0F733
:10172000CECFF60137FC859137FE81916F01B7016D
:1017300090E00E94C10C51105A94F1E08F1A910868
:10174000BFCF843619F0893609F077C0F80137FE2B
:101750006BC060817181828193810C5F1F4FF32D7B
:10176000FF763F2E97FF09C0909580957095619503
:101770007F4F8F4F9F4F689437F82AE030E0A501E4
:101780000E94F10CC82ECA188C2C432C36FE0CC0BB
:10179000E89440F8C91440F434FE05C032FC03C09C
:1017A000F32DFE7E4F2E892C44FEAAC0FE01EC0DC7
:1017B000F11D8081803309F09CC0242D297E422EAA
:1017C000842D8870582E43FCAAC040FEA4C09C2CD7
:1017D000821418F42C0C922C981844FEA6C0B70161
:1017E00080E390E00E94C10C42FE09C088E790E0CF
:1017F00041FE02C088E590E0B7010E94C10CC91407
:1018000008F49FC0CA94D12C9FEFC91AD90ACA0CF8
:10181000DB1CF60182916F01B70190E00E94C10CC0
:10182000AC14BD04B1F74FCF60817181072E000C5D
:10183000880B990B0E5F1F4F92CFD32CE894D4F8EE
:101840002AE030E08537E1F1232D297FD22E8F3633
:10185000A9F1F0F4883551F1F701868197812B9633
:101860000FB6F894DEBF0FBECDBFDF91CF911F91B1
:101870000F91FF90EF90DF90CF90BF90AF909F902F
:101880008F907F906F905F904F903F902F90089532
:10189000803749F0883701F7D4FE02C06894D2F847
:1018A00020E130E00DC06894D4F8F6CF34FE03C0D8
:1018B000822F8660D82E20E132E002C028E030E09E
:1018C000F801D7FE0FC060817181828193810C5F26
:1018D0001F4FA5010E94F10CC82ECA183D2CE89498
:1018E00037F852CF6081718190E080E00E5F1F4F2A
:1018F000F0CF42FC02C0839463CF8394839460CF83
:10190000842D867809F45CCFF6CFB70180E290E0B1
:101910000E94C10C83948214C0F3512C5ECF522CD0
:101920005818821408F459CFF8CF842D867809F41A
:1019300066CF8BE241FE80E247FC8DE2B70190E08A
:101940005CCFB70180E390E00E94C10C9A9457CF1E
:101950008FEF9FEF84CFFC01059061507040011024
:10196000D8F7809590958E0F9F1F0895FC016150C8
:10197000704001900110D8F7809590958E0F9F1FB1
:1019800008950F931F93CF93DF93182F092FEB0127
:101990008B8181FD09C01FEF0FEF812F902FDF9109
:1019A000CF911F910F91089582FF14C02E813F8126
:1019B0008C819D81281739073CF4E881F981CF019A
:1019C00001969983888310838E819F8101969F83DE
:1019D0008E83E3CFE885F985812F1995892BA1F3B3
:1019E000DACFFA01AA27283051F1203181F1E894A9
:1019F0006F936E7F6E5F7F4F8F4F9F4FAF4FB1E002
:101A00003ED0B4E03CD0670F781F891F9A1FA11DFC
:101A1000680F791F8A1F911DA11D6A0F711D811DFD
:101A2000911DA11D20D009F468943F912AE0269FC2
:101A300011243019305D3193DEF6CF010895462F21
:101A40004770405D4193B3E00FD0C9F7F6CF462F02
:101A50004F70405D4A3318F0495D31FD405241936B
:101A600002D0A9F7EACFB4E0A69597958795779528
:101A70006795BA95C9F700976105710508959B01AF
:101A8000AC010A2E06945795479537952795BA9538
:101A9000C9F7620F731F841F951FA01D0895F89446
:021AA000FFCF76
:101AA20000000001000000000000B800000000007B
:101AB200000200000000A90000000000805445520E
:101AC2004D494E4154494E47205441534B3A2025EB
:101AD200640A004572726F722077697468206572B9
:101AE200726F7220636F64653A2025640A00256470
:101AF2002E53797374656D5175657565204C656EED
:101B02006774683A2025640A0025642E506572695C
:101B12006F6469635175657565204C656E6774689D
:101B22003A2025640A0025642E5252517565756566
:101B3200204C656E6774683A2025640A0025642E7D
:101B420053656C6563746564206E65772073797381
:101B520074656D207461736B3A2025640A002564F4
:101B62002E7469636B3A202564206F666673657410
:101B72003A20256420706572696F643A20256420DA
:101B82002020616E737765723A2025640A0025640D
:101B92002E53656C6563746564206E65772070658D
:101BA20072696F646963207461736B3A2025640AF9
:101BB2000025642E53656C6563746564206E6577D9
:101BC200205252207461736B3A2025640A004350FC
:101BD2003A20256420202053503A25700A002D2DEA
:101BE2002D2D2D2D2D5354415254494E47204F53E4
:101BF2002D2D2D2D2D2D2D2D0A0A0052554E4E49DB
:101C02004E47005245414459004445414400424C2C
:101C12004F434B45440025642E52454345495645A2
:101C2200522049443A202564202073746174653A35
:101C3200200025642E456E746572696E6720746992
:101C42006D657220696E746572727570742C206392
:101C5200702069643A2025642073703A2025640A52
:101C620000494E20535953323A2025640A006669CE
:101C72006E616C2072657475726E207069642025C5
:041C8200640A0A00E6
:00000001FF
