:100000000C947E000C949F000C949F000C949F0015
:100010000C949F000C949F000C949F000C949F00E4
:100020000C949F000C949F000C949F000C949F00D4
:100030000C949F000C949F000C949F000C949F00C4
:100040000C949F000C949F000C949F000C949F00B4
:100050000C949F000C949F000C949F000C949F00A4
:100060000C949F000C949F000C949F000C949F0094
:100070000C949F000C949F000C949F000C949F0084
:100080000C949F000C949F000C949F000C949F0074
:100090000C949F000C949F000C949F000C949F0064
:1000A0000C949F000C949F000C9452070C949F009A
:1000B0000C949F000C949F000C949F000C949F0044
:1000C0000C949F000C949F000C949F000C949F0034
:1000D0000C949F000C949F000C949F000C949F0024
:1000E0000C949F000C9428010C9424010C94F200B1
:1000F0000C9401010C9427010C94290111241FBEBA
:10010000CFEFD1E2DEBFCDBF00E00CBF14E0A0E036
:10011000B2E0ECECF8E100E00BBF02C007900D92FA
:10012000A031B107D9F726E1A0E1B4E001C01D92EA
:10013000A636B207E1F70E941F090C94640C0C94D8
:100140000000FC0180819181009771F0DC01A95EC3
:10015000BE4F2D913C91119731832083232B11F4B5
:10016000138212821D921C920895CF93DF93DC01BB
:100170002D913C9111972115310589F1F901E95E25
:10018000FE4F408151812617370761F411965C9329
:100190004E93118210821AC0FA01E95EFE4F9A0155
:1001A000408151814115510571F046175707A1F75C
:1001B000FB01E95EFE4F80819181295E3E4FE9019E
:1001C00099838883E6CF6115710591F38D919C9198
:1001D0001197892B21F413961C921E921297DF918E
:1001E000CF910895CF93C82F8A3019F48DE00E94E3
:1001F000F2008091C00085FFFCCFC093C600CF9174
:1002000008958091C00087FFFCCF8091C6000895BB
:10021000CF93DF93FC01C081D181209759F0FE017B
:10022000EC5FFE4F208131812130310539F4BE0170
:100230000E94B500CE01DF91CF910895C95EDE4FD7
:100240000990D881C02DE9CFF89478940895FFCF14
:10025000FFCF8091140490911504892B69F0F894D4
:10026000E0911804F0911904E85FFE4F83E090E0FC
:10027000918380830C94EB070895FC018081918128
:10028000892B51F47183608373836283695E7E4F2F
:10029000FB01118210820895A281B381A95EBE4F35
:1002A0006D937C937383628308951092C50087E6F3
:1002B0008093C400E0ECF0E080818D7F808386E055
:1002C0008093C20088E18093C1000895E0911804F2
:1002D000F0911904E55EFE4F808191810895E091CF
:1002E0001804F0911904808191810895ECE2F4E002
:1002F00030E020E0408151814817590761F443E222
:1003000051E0249FC001259F900D349F900D112432
:10031000845D9B4F08952F5F3F4FED5DFE4F203171
:10032000310541F790E080E00895F8949F938F9312
:100330008DE192E09F938F930E947F090F900F9021
:100340000F900F90FFCF0F931F93CF93DF93EC018C
:10035000888199819C01215031092031310520F09B
:1003600085E090E00E94950121E030E0FE01EC5F25
:10037000FE4F318320838E01075E1E4FF8012181DD
:100380002F9320812F939F938F93809111048F93AC
:10039000809110048F9388E392E09F938F930E9443
:1003A0007F098DB79EB708960FB6F8949EBF0FBE13
:1003B0008DBFF801808191818230910509F459C087
:1003C0008330910511F1019709F0A6C0BE0180E2CA
:1003D00094E00E943D0180911004909111040196D7
:1003E00090931104809310042091200430912104F3
:1003F00050E040E02115310509F086C05F934F932E
:100400009F938F938DED92E01DC0BE0188E294E032
:100410000E943D01809110049091110401969093E7
:10042000110480931004209128043091290450E095
:1004300040E021153105A9F45F934F939F938F936B
:100440008CE592E09F938F930E947F090F900F900D
:100450000F900F900F900F90DF91CF911F910F9100
:1004600008954F5F5F4F295E3E4FF9012081318132
:10047000E0CF8091100490911104019690931104A3
:1004800080931004209124043091250450E040E032
:100490002115310549F55F934F939F938F9386E81C
:1004A00092E09F938F930E947F0980911004909116
:1004B0001104019690931104809310042091240458
:1004C000309125040F900F900F900F900F900F9088
:1004D00050E040E02115310579F45F934F939F93ED
:1004E0008F9382EB92E0AECF4F5F5F4F295E3E4F1E
:1004F000F90120813181CCCF4F5F5F4F295E3E4FA4
:10050000F90120813181E6CF4F5F5F4F295E3E4F79
:10051000F901208131816ECF82E090E023CF5F929C
:100520006F927F928F929F92AF92BF92CF92DF9203
:10053000EF92FF920F931F93CF93DF9384E2682E85
:1005400083E0782E88E294E00E94080190931904D9
:10055000809318040097E9F1209110043091110460
:100560002F5F3F4F3093110420931004DC018D91D5
:100570009C919F938F933F932F9383E093E09F935E
:100580008F930E947F090F900F900F900F900F9004
:100590000F90E0911804F091190482819381909357
:1005A0005D1680935C16EC5FFE4F82E090E09183D5
:1005B0008083DF91CF911F910F91FF90EF90DF909B
:1005C000CF90BF90AF909F908F907F906F905F90F3
:1005D0000895C0912404D091250410E000E0F12C8E
:1005E000E12C209749F422E0E216F10408F45AC005
:1005F00081E090E00E949501209110043091110457
:100600002F5F3F4F3093110420931004E0911204A8
:10061000F09113045E01BFEDAB1ABEEFBB0AD5012A
:100620008D909C906E01B1EECB1ABEEFDB0AD60125
:100630004C9111965C90CF0188199909642F752D02
:100640000E946B099F938F935F924F939F928F921B
:10065000FF93EF933F932F937F926F920E947F09B6
:100660008091120490911304F50120813181821B45
:10067000930BD6016D917C910E946B09EDB7FEB78B
:100680003C960FB6F894FEBF0FBEEDBF892B21F448
:10069000FFEFEF1AFF0A8E01C95EDE4F0990D88185
:1006A000C02D9FCFEA94EF28F9F080E294E00E94F9
:1006B00008019093190480931804009709F442CF1D
:1006C00020911004309111042F5F3F4F309311049B
:1006D00020931004FC01808191819F938F933F931D
:1006E0002F9387E793E04BCF1093190400931804DE
:1006F00001151105D1F28091100490911104019619
:100700009093110480931004D8012D913C913F9354
:100710002F939F938F9384E593E031CFF8941092B9
:10072000A000E1EAF0E0108280818860808380810F
:100730008460808381E792E09093A9008093A80071
:10074000E2E7F0E08081826080831092A500109241
:10075000A40078940895FC01349620E031E0DF0194
:10076000A9011D9241505040E1F7E150FF4F29E2AD
:1007700031E0208331973083319710823197608345
:1007800031977083319710829C0125523F4FDC01D5
:1007900013963C932E93129738966083718332960A
:1007A0001182108232960190F081E02D1182108228
:1007B00013821282FC01E45FFE4F0190F081E02D74
:1007C0001182108213821282FC01E25FFE4F1182BD
:1007D00010823296118210823296118210823296E5
:1007E000108231961182108220911A0430911B04DC
:1007F0002F5F3F4F30931B0420931A0432961182CF
:100800001082739721E030E0318320830C94A301A0
:10081000EF92FF920F931F93CF93DF9310921B04DD
:1008200010921A04109215041092140410921704D6
:1008300010921604E0911804F091190481E190E0FF
:1008400091838083109229041092280410922B0423
:1008500010922A0410922504109224041092270466
:100860001092260410922104109220041092230466
:100870001092220410921D0410921C0410921F0466
:1008800010921E04CCE2D4E010E000E083E2E82EF7
:10089000FF24F394BE01FE01C70111920197E9F70D
:1008A000FE01EC5FFE4F118210820F5F1F4F198314
:1008B0000883CD5DDE4F7396D183C0838CE194E0D5
:1008C0000E943D010031110529F7DF91CF911F9161
:1008D0000F91FF90EF9008950F931F93CF93DF93A5
:1008E0008091140490911504892B09F071C08091B6
:1008F0001A0490911B04892B09F46AC0F89484E9C6
:1009000093E00E94930981E090E090931504809316
:1009100014040E948F02C1EBD3E00DEB13E0E091D1
:100920001804F0911904DF01A85FBE4F11961C92C4
:100930001E928281938190935D1680935C160E9433
:100940009607E0911804F091190480915C1690913B
:100950005D1693838283DF01A85FBE4F8D919C91CA
:100960008230910529F08330910539F1892B61F5A9
:10097000808191819F938F93DF93CF930E947F0912
:1009800080911804909119040E94A301E091180429
:10099000F0911904808191819F938F931F930F93FE
:1009A0000E947F090E948F028DB79EB708960FB6EE
:1009B000F8949EBF0FBE8DBFB2CFEC5FFE4F118289
:1009C00010820E948F02ABCF83E090E00E949501DD
:1009D000DF91CF911F910F910895EF92FF920F93A6
:1009E0001F93CF93DF938C017B0180911A04909128
:1009F0001B04409781F180911C0490911D04892B68
:100A000051F18091140490911504892B09F0F89408
:100A10008CE194E00E94A100EC01FC01E75EFE4F36
:100A200083E090E0918380833296F182E082B80186
:100A3000CE010E94AB038091140490911504892B80
:100A400009F0789488819981DF91CF911F910F915E
:100A5000FF90EF90089590E080E0F6CFEF92FF9244
:100A60000F931F93CF93DF938C017B0180911A0426
:100A700090911B04409781F180911C0490911D047A
:100A8000892B51F18091140490911504892B09F060
:100A9000F8948CE194E00E94A100EC01FC01E75E77
:100AA000FE4F81E090E0918380833296F182E08274
:100AB000B801CE010E94AB038091140490911504FB
:100AC000892B09F0789488819981DF91CF911F91CA
:100AD0000F91FF90EF90089590E080E0F6CF8F9215
:100AE0009F92AF92BF92CF92DF92EF92FF920F93BD
:100AF0001F93CF93DF93EC015B017A016901809131
:100B00001A0490911B04409709F446C080911C047C
:100B100090911D04892B09F43FC080911404909199
:100B20001504892B09F0F8948CE194E00E94A1004F
:100B30004C01FC01E75EFE4F82E090E091838083F0
:100B40003296B182A0823296D182C0823296F182F0
:100B5000E082329611830083BE01C4010E94AB0380
:100B6000B40184E294E00E943D01809114049091CC
:100B70001504892B09F07894F40180819181DF912B
:100B8000CF911F910F91FF90EF90DF90CF90BF908A
:100B9000AF909F908F90089590E080E0F0CF80918B
:100BA000140490911504892B69F0F894E0911804CD
:100BB000F0911904E85FFE4F82E090E0918380831A
:100BC0000C94EB070895EF92FF921F93CF93DF935E
:100BD000162F7A010E947601EC01009721F487E03C
:100BE00090E00E9495016091180470911904FC0135
:100BF000EC5FFE4F80819181049771F5DB018D914F
:100C00009C91DE01A25FBE4F8D939C93D7018D9185
:100C10009C91DE01A05FBE4F11969C938E9314961B
:100C20001C93DB01AC5FBE4F85E090E011969C9376
:100C30008E9381E090E091838083389680819181CA
:100C40000E943D01CE010E94A301DF91CF911F912F
:100C5000FF90EF900C94CF05FB01808191819F93D1
:100C60008F9388EC93E09F938F930E947F098091EC
:100C7000180490911904FC01EC5FFE4F23E030E072
:100C8000318320839F938F938DED93E09F938F9378
:100C90000E947F096091180470911904C65FDE4FAD
:100CA000888199810E943D01888199810E94A100DB
:100CB000EC018DB79EB708960FB6F8949EBF0FBE95
:100CC0008DBF209721F481EF93E00E949309DF9379
:100CD000CF938CEF93E09F938F930E947F090F90A7
:100CE0000F900F900F90B1CFFF920F931F93CF9360
:100CF000DF93EC01162F688179816115710531F45C
:100D0000DF91CF911F910F91FF900895FB01E95E54
:100D1000FE4FF080018133978081812319F4CE0149
:100D20000E94B5006F2D702FE8CF0F931F93CF93C4
:100D3000DF93682FC0911804D09119048E01065FCB
:100D40001E4FF801808191810E947406F801808114
:100D500091810E94A1008C010097A9F4CC5FDE4F25
:100D600084E090E0998388830E948F02E0911804C8
:100D7000F0911904E25FFE4F80819181DF91CF9164
:100D80001F910F910895FC01EC5FFE4F85E090E00C
:100D900091838083FE01E45FFE4F80819181B801E1
:100DA0000E943D01F80180819181FE01E25FFE4FCA
:100DB00091838083F801E05FFE4F20813181FE0145
:100DC000E05FFE4F31832083F801EC5EFE4F20810F
:100DD000CC5EDE4F2883D2CF0F931F93CF93DF9348
:100DE0008B010E947601EC01892B21F488E090E0D0
:100DF0000E949501E0911804F0911904E45FFE4F00
:100E0000A081B1818D919C91009729F4DF91CF91C0
:100E10001F910F910895C817D90721F0895E9E4F41
:100E2000DC01F0CF80819181BE010E94B500FE01FE
:100E3000EE5EFE4F11830083CC5FDE4F81E090E0D9
:100E400099838883E3CFEF92FF921F93CF93DF9331
:100E5000EC01162F7A010E947601009721F489E0B7
:100E600090E00E949501FC01EC5FFE4F20813181F2
:100E70002430310581F43A96D183C0833296F182D1
:100E8000E0828C5E9E4FFC011083DF91CF911F9119
:100E9000FF90EF900895DF91CF911F91FF90EF9019
:100EA0000C94CF051F920F920FB60F9211240BB620
:100EB0000F922F933F934F935F936F937F938F93F3
:100EC0009F93AF93BF93EF93FF9380911204909100
:100ED00013040196909313048093120480911404D8
:100EE00090911504892B79F0809118049091190440
:100EF000FC01E85FFE4F22E030E0318320830E9456
:100F0000A3010E948F02FF91EF91BF91AF919F913A
:100F10008F917F916F915F914F913F912F910F90A2
:100F20000BBE0F900FBE0F901F9018950F921F923F
:100F30002F923F924F925F926F927F928F929F92E9
:100F4000AF92BF92CF92DF92EF92FF920F931F93D7
:100F50002F933F934F935F936F937F938F939F93C1
:100F6000AF93BF93CF93DF93EF93FF930FB70F939D
:100F70000CB70F93EDB7FEB7E0935E16F0935F16D4
:100F8000E0915C16F0915D16EDBFFEBF0F910CBFB6
:100F90000F910FBFFF91EF91DF91CF91BF91AF9173
:100FA0009F918F917F916F915F914F913F912F9181
:100FB0001F910F91FF90EF90DF90CF90BF90AF9077
:100FC0009F908F907F906F905F904F903F902F9069
:100FD0001F900F9018950F921F922F923F924F9251
:100FE0005F926F927F928F929F92AF92BF92CF92B9
:100FF000DF92EF92FF920F931F932F933F934F93A4
:101000005F936F937F938F939F93AF93BF93CF9390
:10101000DF93EF93FF930FB70F930CB70F93EDB7D9
:10102000FEB7E0935C16F0935D16E0915E16F091CA
:101030005F16EDBFFEBF0F910CBF0F910FBFFF9169
:10104000EF91DF91CF91BF91AF919F918F917F9160
:101050006F915F914F913F912F911F910F91FF9051
:10106000EF90DF90CF90BF90AF909F908F907F9048
:101070006F905F904F903F902F901F900F9008952A
:10108000909102019F7E9093020187FF05C090918D
:10109000020190619093020190910201977F9093D9
:1010A000020186FF05C090910201986090930201B1
:1010B000739885FD739AA59884FDA59A8091020185
:1010C00080648093020185E08A95F1F700008091A9
:1010D00002018F7B809302010895CF93C82F8091E6
:1010E00002018F7D809302018C2F0E9440088C2F7B
:1010F0008295807F0E94400887EC90E00197F1F78D
:1011000000C00000C43030F0C03810F0C0931C02A2
:10111000CF9108958FE39FE10197F1F700C00000A0
:10112000C0E8F4CFCF93C82F8091020180628093F2
:1011300002018C2F0E9440088C2F8295807F0E9494
:10114000400887EC90E00197F1F700C00000809123
:101150001C028F5F80931C02803931F0803D31F496
:1011600080E8CF910C946D0880ECFBCFCF9108956F
:10117000CF93DF93EC018991811103C0DF91CF916F
:1011800008950E949208F7CFCF93C82FC15010F452
:10119000CF91089580E20E949208F8CF9D9A6B9AB1
:1011A000E1E0F1E0808188608083808180618083DC
:1011B000808180628083808180648083E2E0F1E0CE
:1011C00080818F7B808380818F7D80838FE59AEE05
:1011D0000197F1F700C0000080E30E9440088FE013
:1011E00090E40197F1F700C0000080E30E944008FE
:1011F0008FE891E00197F1F700C0000080E30E94C2
:10120000400887EC90E00197F1F700C0000080E211
:101210000E94400887EC90E00197F1F700C00000C1
:1012200088E20E946D0888E00E946D0881E00E94BB
:101230006D0886E00E946D088CE00C946D080F9399
:101240001F93F89483E884B90E94CE0880E80E9436
:101250006D080E9408040E945501E0E6F6E18EE068
:1012600092E09383828380E092E09183808361E0C7
:1012700070E084E291E00E94ED0461E070E087E2BA
:1012800091E00E942E0561E070E088E291E00E940A
:101290002E0510E000E021E030E044E050E061E0A5
:1012A00070E087E291E00E946F0501E010E021E02C
:1012B00030E044E050E061E070E087E291E00E94BD
:1012C0006F050E948E0378940E946C048FEF9FEF4D
:1012D0001F910F910895AA1BBB1B51E107C0AA1FC4
:1012E000BB1FA617B70710F0A61BB70B881F991FC7
:1012F0005A95A9F780959095BC01CD010895CF939B
:10130000DF93CDB7DEB7AE014A5F5F4FFA0161915F
:101310007191AF0180916216909163160E94BE098F
:10132000DF91CF9108950F931F93CF93DF93E091B7
:101330006216F09163162381EC0110E000E021FDBC
:1013400008C00FEF1FEF14C01995892B11F00FEF94
:101350001FEF89916091621670916316DB011896F8
:10136000ED91FC918111F0CF8AE01995892B49F715
:10137000C801DF91CF911F910F9108952F923F9255
:101380004F925F926F927F928F929F92AF92BF9295
:10139000CF92DF92EF92FF920F931F93CF93DF9341
:1013A00000D000D000D01F921F92CDB7DEB77C01D5
:1013B0003B018A01FC0117821682838181FFDDC116
:1013C000CE0101965C01F7019381F30193FD8591B4
:1013D00093FF81913F01882309F453C1853239F489
:1013E00093FD859193FF81913F01853229F4B701E7
:1013F00090E00E94D60BE7CF912C212C312CFFE1FD
:10140000F31538F08B3211F190F4803209F1833208
:1014100029F137FC3CC020ED280F2A3050F536FE6C
:1014200020C08AE0989E200D1124922E06C08D3295
:1014300091F0803371F7689430F8F30193FD859152
:1014400093FF81913F018111DACF21C0689431F877
:10145000689432F8F2CF689433F8EFCF689434F898
:10146000ECCFEAE02E9E200D1124222E689435F850
:10147000E4CF8E3229F436FC04C1689436F8DDCF0F
:101480008C3619F4689437F8D8CF8836B1F2982F93
:101490009F7D95549330E0F08336A1F18337C1F1FD
:1014A000833509F063C02801F2E04F0E511CF801AA
:1014B000C080D180692D70E036FC02C06FEF7FEFF5
:1014C000C6010E94C00B4C01689437F882010AC023
:1014D0000C5F1F4FFFE3F98388248394912C6501EF
:1014E000E89437F833FE2DC0522C8114910471F525
:1014F000552009F468CFB70180E290E00E94D60B36
:101500005A94F6CFF801808189830E5F1F4FE4CF94
:101510002801F2E04F0E511CF801C080D180692DE6
:1015200070E036FC02C06FEF7FEFC6010E94CB0B6C
:101530004C018201D5CFB70180E290E00E94D60B2A
:101540002A942814190409F0B0F7CECFF60137FC1D
:10155000859137FE81916F01B70190E00E94D60B13
:1015600051105A94F1E08F1A9108BFCF843619F0C8
:10157000893609F077C0F80137FE6BC06081718150
:10158000828193810C5F1F4FF32DFF763F2E97FFD3
:1015900009C090958095709561957F4F8F4F9F4FB3
:1015A000689437F82AE030E0A5010E94060CC82EA6
:1015B000CA188C2C432C36FE0CC0E89440F8C91491
:1015C00040F434FE05C032FC03C0F32DFE7E4F2EE6
:1015D000892C44FEAAC0FE01EC0DF11D80818033F0
:1015E00009F09CC0242D297E422E842D8870582E0F
:1015F00043FCAAC040FEA4C09C2C821418F42C0CFE
:10160000922C981844FEA6C0B70180E390E00E9497
:10161000D60B42FE09C088E790E041FE02C088E593
:1016200090E0B7010E94D60BC91408F49FC0CA9479
:10163000D12C9FEFC91AD90ACA0CDB1CF601829182
:101640006F01B70190E00E94D60BAC14BD04B1F756
:101650004FCF60817181072E000C880B990B0E5FB4
:101660001F4F92CFD32CE894D4F82AE030E085378E
:10167000E1F1232D297FD22E8F36A9F1F0F48835A0
:1016800051F1F701868197812B960FB6F894DEBF52
:101690000FBECDBFDF91CF911F910F91FF90EF90C3
:1016A000DF90CF90BF90AF909F908F907F906F9082
:1016B0005F904F903F902F900895803749F0883782
:1016C00001F7D4FE02C06894D2F820E130E00DC0EA
:1016D0006894D4F8F6CF34FE03C0822F8660D82EEB
:1016E00020E132E002C028E030E0F801D7FE0FC070
:1016F00060817181828193810C5F1F4FA5010E94DF
:10170000060CC82ECA183D2CE89437F852CF6081D9
:10171000718190E080E00E5F1F4FF0CF42FC02C06D
:10172000839463CF8394839460CF842D867809F467
:101730005CCFF6CFB70180E290E00E94D60B839495
:101740008214C0F3512C5ECF522C5818821408F426
:1017500059CFF8CF842D867809F466CF8BE241FE0D
:1017600080E247FC8DE2B70190E05CCFB70180E3F7
:1017700090E00E94D60B9A9457CF8FEF9FEF84CFC3
:10178000FC010590615070400110D8F7809590954C
:101790008E0F9F1F0895FC01615070400190011051
:1017A000D8F7809590958E0F9F1F08950F931F93E4
:1017B000CF93DF93182F092FEB018B8181FD09C097
:1017C0001FEF0FEF812F902FDF91CF911F910F917E
:1017D000089582FF14C02E813F818C819D8128173E
:1017E00039073CF4E881F981CF0101969983888318
:1017F00010838E819F8101969F838E83E3CFE8853E
:10180000F985812F1995892BA1F3DACFFA01AA273F
:10181000283051F1203181F1E8946F936E7F6E5F33
:101820007F4F8F4F9F4FAF4FB1E03ED0B4E03CD0E1
:10183000670F781F891F9A1FA11D680F791F8A1FC4
:10184000911DA11D6A0F711D811D911DA11D20D02B
:1018500009F468943F912AE0269F11243019305DE5
:101860003193DEF6CF010895462F4770405D4193D6
:10187000B3E00FD0C9F7F6CF462F4F70405D4A3323
:1018800018F0495D31FD4052419302D0A9F7EACFEB
:10189000B4E0A6959795879577956795BA95C9F71A
:1018A00000976105710508959B01AC010A2E06940D
:1018B0005795479537952795BA95C9F7620F731FC6
:0C18C000841F951FA01D0895F894FFCF11
:1018CC000000000100000000000001010000000009
:1018DC00000200000000F20000000000804572725F
:1018EC006F722077697468206572726F7220636FF3
:1018FC0064653A2025640A0025642E507574746959
:10190C006E67206261636B20746F2072656164790D
:10191C00513A202564203A2025640A0025642E6162
:10192C006674657220616464696E67206974656DA4
:10193C0020746F2053797374656D207175657565AE
:10194C003A2025640A0025642E6265666F72652054
:10195C00616464696E672C6974656D7320696E20AF
:10196C00506572696F642071756575653A202564E0
:10197C000A0025642E616674657220616464696E68
:10198C0067206974656D7320746F20506572696F80
:10199C00642071756575653A2025640A0025642EEE
:1019AC00616674657220616464696E672069746530
:1019BC006D20746F2052522071756575653A202523
:1019CC00640A0025642E53656C6563746564206E2F
:1019DC0065772073797374656D207461736B3A202D
:1019EC0025640A0025642E7469636B3A20256420F3
:1019FC006F66667365743A20256420706572696F32
:101A0C00643A202564202020616E737765723A2039
:101A1C0025640A0025642E53656C65637465642027
:101A2C006E657720706572696F6469632074617389
:101A3C006B3A2025640A0025642E53656C6563742B
:101A4C006564206E6577205252207461736B3A2066
:101A5C0025640A002D2D2D2D2D2D2D53544152541E
:101A6C00494E47204F532D2D2D2D2D2D2D2D0A0A4E
:101A7C00004245464F52453A2025640A00414654DF
:101A8C0045523A2025640A0053454E44494E47209E
:101A9C004D4553534147453A2025640A004245467B
:101AAC004F524520454E51554555453A2025700A13
:101ABC00004E554C4C4C4C4C4C4C4C0041465445F7
:101ACC005220444551554555453A2025700A000091
:00000001FF
