:100000000C9478000C9499000C9499000C9499002D
:100010000C9499000C9499000C9499000C949900FC
:100020000C9499000C9499000C9499000C949900EC
:100030000C9499000C9499000C9499000C949900DC
:100040000C9499000C9499000C9499000C949900CC
:100050000C9499000C9499000C9499000C949900BC
:100060000C9499000C9499000C9499000C949900AC
:100070000C9499000C9499000C9499000C9499009C
:100080000C9499000C9499000C9499000C9499008C
:100090000C9499000C9499000C9499000C9499007C
:1000A0000C9499000C9499000C94C4040C9499003D
:1000B0000C9499000C9499000C9499000C9499005C
:1000C0000C9499000C9499000C9499000C9499004C
:1000D0000C9499000C9499000C9499000C9499003C
:1000E0000C9499000C9422010C941C010C941F0197
:1000F00011241FBECFEFD1E2DEBFCDBF00E00CBFA9
:1001000012E0A0E0B2E0E6EAFDE000E00BBF02C0D2
:1001100007900D92A631B107D9F724E1A6E1B2E02C
:1001200001C01D92A836B207E1F70E94B3060C94F5
:10013000D1060C940000FC0180819181009771F040
:10014000DC01A95EBE4F2D913C9111973183208334
:10015000232B11F4138212821D921C920895CF93C7
:10016000DF93DC012D913C9111972115310589F127
:10017000F901E95EFE4F408151812617370761F48E
:1001800011965C934E93118210821AC0FA01E95EB7
:10019000FE4F9A01408151814115510571F046177A
:1001A0005707A1F7FB01E95EFE4F80819181295E2F
:1001B0003E4FE90199838883E6CF6115710591F37C
:1001C0008D919C911197892B21F413961C921E926C
:1001D0001297DF91CF910895209130023091310232
:1001E00040912C0250912D02809128029091290279
:1001F00021153105C9F080E392E00E949B009093A5
:100200001B0280931A02E0911A02F0911B02828174
:1002100093819093651480936414EC5FFE4F82E0A9
:1002200090E09183808308954115510561F700970F
:10023000F9F288E292E0E1CF81E085B9FECF82E079
:1002400085B9FECF8091160290911702892B69F033
:10025000F894E0911A02F0911B02E85FFE4F83E0F0
:1002600090E0918380830C947F050895FC01808148
:100270009181892B51F47183608373836283695EFA
:100280007E4FFB01118210820895A281B381A95E85
:10029000BE4F6D937C93738362830895BC01FC0110
:1002A000E75EFE4F808191818230910561F083305D
:1002B000910529F0019751F488E292E002C080E3B1
:1002C00092E00C9436018CE292E0FBCF0895E0912D
:1002D0001A02F0911B02E55EFE4F80819181089524
:1002E000E0911A02F0911B02808191810895E4E36C
:1002F000F2E030E020E0408151814817590761F475
:1003000043E251E0249FC001259F900D349F900D42
:1003100011248C5C9D4F08952F5F3F4FED5DFE4F84
:100320002031310541F790E080E00895F894109273
:10033000A000E1EAF0E01082808188608083808103
:100340008460808381E792E09093A9008093A80065
:10035000E2E7F0E08081826080831092A500109235
:10036000A40078940895FC01349620E031E0DF0188
:10037000A9011D9241505040E1F7E150FF4F22E2A8
:1003800031E0208331973083319710823197608339
:1003900031977083319710829C0125523F4FDC01C9
:1003A00013963C932E9312973896608371833296FE
:1003B0001182108232960190F081E02D118210821C
:1003C00013821282FC01E45FFE4F0190F081E02D68
:1003D0001182108213821282FC01E25FFE4F1182B1
:1003E00010823296118210823296118210823296D9
:1003F000108231961182108220911C0230911D02D0
:100400002F5F3F4F30931D0220931C0232961182C2
:100410001082739721E030E0318320830C944E01E9
:10042000EF92FF920F931F93CF93DF9310921D02D1
:1004300010921C02109217021092160210921902CA
:100440001092180210923102109230021092330270
:100450001092320210922D0210922C0210922F0252
:1004600010922E02109229021092280210922B0252
:1004700010922A0210922502109224021092270252
:1004800010922602C4E3D2E010E000E083E2E82EFE
:10049000FF24F394BE01FE01C70111920197E9F711
:1004A000FE01EC5FFE4F118210820F5F1F4F198318
:1004B0000883CD5DDE4F7396D183C08384E292E0E2
:1004C0000E9436010031110529F7DF91CF911F916C
:1004D0000F91FF90EF900895CF93DF9380911602D4
:1004E00090911702892B09F050C080911C029091C5
:1004F0001D02892B09F449C0F89481E090E09093A3
:100500001702809316020E94EC00C1E0D0E0E09157
:100510001A02F0911B02DF01A85FBE4F11961C92D8
:100520001E928281938190936514809364140E943B
:100530002A0580911A0290911B0220916414309137
:100540006514FC0133832283E85FFE4F20813181F3
:100550002230310529F02330310589F0232BB9F6FB
:10056000FC01EC5FFE4F208131812230310511F01A
:10057000D183C0830E944E010E94EC00C8CF8C5FE3
:100580009E4FFC0111821082F7CFDF91CF91089529
:10059000EF92FF920F931F93CF93DF938C017B0118
:1005A00080911C0290911D02409721F180912402BC
:1005B00090912502892BF1F0F89484E292E00E9458
:1005C0009B00EC01FC01E75EFE4F83E090E091832D
:1005D00080833296F182E082B801CE010E94B3019D
:1005E000789488819981DF91CF911F910F91FF902D
:1005F000EF90089590E080E0F6CFEF92FF920F9396
:100600001F93CF93DF938C017B0180911C0290910B
:100610001D02409721F18091240290912502892B9F
:10062000F1F0F89484E292E00E949B00EC01FC015E
:10063000E75EFE4F81E090E0918380833296F18205
:10064000E082B801CE010E94B3017894888199813B
:10065000DF91CF911F910F91FF90EF90089590E05F
:1006600080E0F6CF8F929F92AF92BF92CF92DF92AF
:10067000EF92FF920F931F93CF93DF93EC015B01F7
:100680007A01690180911C0290911D024097A1F1AD
:100690008091240290912502892B71F1F89484E2D3
:1006A00092E00E949B004C01FC01E75EFE4F82E05D
:1006B00090E0918380833296B182A0823296D1827B
:1006C000C0823296F182E082329611830083BE01AD
:1006D000C4010E94B3017894F40180819181DF917B
:1006E000CF911F910F91FF90EF90DF90CF90BF902F
:1006F000AF909F908F90089590E080E0F0CF809130
:10070000160290911702892B69F0F894E0911A0271
:10071000F0911B02E85FFE4F82E090E091838083BE
:100720000C947F050895EF92FF921F93CF93DF9370
:10073000162F7A010E947701EC01009709F448C056
:1007400060911A0270911B02DC01AC5FBE4F8D916B
:100750009C911197AB014C5F5E4F049769F5FB01CB
:1007600020813181CE01825F9E4FFC013183208345
:10077000F701208131810296FC01318320830496A8
:10078000FC01108385E090E0FA019183808381E091
:1007900090E08D939C93FE01E45FFE4F80819181F8
:1007A0000E943601CE010E944E01DF91CF911F9130
:1007B000FF90EF900C947F0383E090E0FA01918327
:1007C0008083C65FDE4F888199810E943601EDCF1C
:1007D000DF91CF911F91FF90EF900895FF920F93BB
:1007E0001F93CF93DF93EC01162F688179816115F8
:1007F000710531F4DF91CF911F910F91FF90089512
:10080000FB01E95EFE4FF0800181339780818123F7
:1008100019F4CE010E94AF006F2D702FE8CF0F9317
:100820001F93CF93DF93682FC0911A02D0911B02C0
:100830008E01065F1E4FF801808191810E94EE03B8
:10084000F801808191810E949B008C010097A9F49E
:10085000CC5FDE4F84E090E0998388830E94EC00B7
:10086000E0911A02F0911B02E25FFE4F80819181BC
:10087000DF91CF911F910F910895FC01EC5FFE4F26
:1008800085E090E091838083FE01E45FFE4F8081EC
:100890009181B8010E943601F80180819181FE01A9
:1008A000E25FFE4F91838083F801E05FFE4F20817D
:1008B0003181FE01E05FFE4F31832083F801EC5E61
:1008C000FE4F2081CC5EDE4F2883D2CF0F931F9343
:1008D000CF93DF938B010E947701EC01892B61F0AC
:1008E000E0911A02F0911B02E45FFE4FA081B181FA
:1008F0008D919C91009729F4DF91CF911F910F91D9
:100900000895C817D90721F0895E9E4FDC01F0CF0A
:1009100080819181BE010E94AF00FE01EE5EFE4F1C
:1009200011830083CC5FDE4F81E090E09983888360
:10093000E3CFEF92FF921F93CF93DF93EC01162F3B
:100940007A010E947701009791F0FC01EC5FFE4F65
:10095000208131812430310581F43A96D183C083DE
:100960003296F182E0828C5E9E4FFC011083DF9113
:10097000CF911F91FF90EF900895DF91CF911F913C
:10098000FF90EF900C94EC001F920F920FB60F9215
:1009900011240BB60F922F933F934F935F936F9356
:1009A0007F938F939F93AF93BF93EF93FF9315B86C
:1009B0008091000290910102892BB9F180E80E9498
:1009C000010683E092E00E944C0680EC0E94010642
:1009D00089E092E00E944C061092010210920002FF
:1009E0008091160290911702892B61F0E0911A0212
:1009F000F0911B02E85FFE4F82E090E091838083DC
:100A00000E947F05FF91EF91BF91AF919F918F91D0
:100A10007F916F915F914F913F912F910F900BBEFE
:100A20000F900FBE0F901F90189580E80E9401064E
:100A300089E092E00E944C0680EC0E9401068FE063
:100A400092E00E944C0681E090E090930102809336
:100A50000002C6CF0F921F922F923F924F925F9249
:100A60006F927F928F929F92AF92BF92CF92DF92BE
:100A7000EF92FF920F931F932F933F934F935F93A8
:100A80006F937F938F939F93AF93BF93CF93DF9396
:100A9000EF93FF930FB70F930CB70F93EDB7FEB71C
:100AA000E0936614F0936714E0916414F091651478
:100AB000EDBFFEBF0F910CBF0F910FBFFF91EF91E4
:100AC000DF91CF91BF91AF919F918F917F916F9166
:100AD0005F914F913F912F911F910F91FF90EF9058
:100AE000DF90CF90BF90AF909F908F907F906F904E
:100AF0005F904F903F902F901F900F9018950F92FE
:100B00001F922F923F924F925F926F927F928F929D
:100B10009F92AF92BF92CF92DF92EF92FF920F938C
:100B20001F932F933F934F935F936F937F938F9375
:100B30009F93AF93BF93CF93DF93EF93FF930FB741
:100B40000F930CB70F93EDB7FEB7E0936414F093D7
:100B50006514E0916614F0916714EDBFFEBF0F912C
:100B60000CBF0F910FBFFF91EF91DF91CF91BF911C
:100B7000AF919F918F917F916F915F914F913F9135
:100B80002F911F910F91FF90EF90DF90CF90BF902A
:100B9000AF909F908F907F906F905F904F903F901D
:100BA0002F901F900F900895909102019F7E909337
:100BB000020187FF05C090910201906190930201AC
:100BC00090910201977F9093020186FF05C090915A
:100BD0000201986090930201739885FD739AA5981D
:100BE00084FDA59A8091020180648093020185E0D2
:100BF0008A95F1F70000809102018F7B80930201BA
:100C00000895CF93C82F809102018F7D80930201B8
:100C10008C2F0E94D4058C2F8295807F0E94D40552
:100C200087EC90E00197F1F700C00000C43030F08D
:100C3000C03810F0C0930202CF9108958FE39FE176
:100C40000197F1F700C00000C0E8F4CFCF93C82FA0
:100C5000809102018062809302018C2F0E94D40552
:100C60008C2F8295807F0E94D40587EC90E00197BD
:100C7000F1F700C00000809102028F5F80930202B2
:100C8000803931F0803D31F480E8CF910C94010639
:100C900080ECFBCFCF910895CF93DF93EC01899146
:100CA000811103C0DF91CF9108950E942606F7CFEE
:100CB000CF93C82FC15010F4CF91089580E20E94C5
:100CC0002606F8CF9D9A6B9AE1E0F1E0808188607A
:100CD0008083808180618083808180628083808145
:100CE00080648083E2E0F1E080818F7B808380817B
:100CF0008F7D80838FE59AEE0197F1F700C00000A9
:100D000080E30E94D4058FE090E40197F1F700C0E2
:100D1000000080E30E94D4058FE891E00197F1F78D
:100D200000C0000080E30E94D40587EC90E00197AA
:100D3000F1F700C0000080E20E94D40587EC90E04B
:100D40000197F1F700C0000088E20E94010688E0E8
:100D50000E94010681E00E94010686E00E940106D1
:100D60008CE00C940106F89483E884B90E94620632
:100D700080E80E9401060E9496010E94100261E034
:100D800070E08CE191E00E94C80261E070E08FE1C8
:100D900091E00E94C80278940E946C028FEF9FEF4E
:060DA0000895F894FFCF56
:100DA6000100805441534B31002020202020005464
:060DB60041534B32000026
:00000001FF
