:100000000C9488000C94A9000C94A9000C94A900ED
:100010000C94A9000C94A9000C94A9000C94A900BC
:100020000C94A9000C94A9000C94A9000C94A900AC
:100030000C94A9000C94A9000C94A9000C94A9009C
:100040000C94A9000C94A9000C94A9000C94A9008C
:100050000C94A9000C94A9000C94A9000C94A9007C
:100060000C94A9000C94A9000C94A9000C94A9006C
:100070000C94A9000C94A9000C94A9000C94A9005C
:100080000C94A9000C94A9000C94A9000C94A9004C
:100090000C94A9000C94A9000C94A9000C94A9003C
:1000A0000C94A9000C94A9000C9456070C94A90078
:1000B0000C94A9000C94A9000C94A9000C94A9001C
:1000C0000C94A9000C94A9000C94A9000C94A9000C
:1000D0000C94A9000C94A9000C94A9000C94A900FC
:1000E0000C94A9000C94F8000C94C1000C94CC0062
:1000F0000C94AB000C940E060C94C2000C944F07A9
:100100000C94BA000C9409070C94D3070C94B9070B
:1001100011241FBECFEFD1E2DEBFCDBF00E00CBF88
:1001200013E0A0E0B2E0ECE2FAE100E00BBF02C0B5
:1001300007900D92A239B107D9F725E1A2E9B3E002
:1001400001C01D92A03FB207E1F70E94FA090C948A
:10015000140D0C940000CF93C82F8A3019F48DE051
:100160000E94AB008091C00085FFFCCFC093C60009
:10017000CF9108958091C00087FFFCCF8091C60089
:100180000895FFCF2FEF87EA91E6215080409040FD
:10019000E1F700C00000F6CF80919603909197039D
:1001A000892B29F1F894E0919A03F0919B038081C7
:1001B00091819F938F938DE192E09F938F930E9403
:1001C000290A80919A0390919B03FC01E85FFE4FFE
:1001D00023E030E0318320838C5F9E4FFC0111824D
:1001E00010820F900F900F900F900C94C6080895F6
:1001F0000C94CC008091A6039091A703009789F0FE
:10020000FC01E95EFE4F208131813093A7032093EA
:10021000A603232B21F41092A9031092A8031182A4
:1002200010820895FC0180819181892B51F47183A2
:10023000608373836283695E7E4FFB01118210824B
:100240000895A281B381A95EBE4F6D937C937383A1
:10025000628308951092C50087E68093C400E0ECA5
:10026000F0E080818D7F808386E08093C20088E10A
:100270008093C1000895E0919A03F0919B03E55E9D
:10028000FE4F808191810895E0919A03F0919B0344
:100290008081918108959C01E6EBF3E090E080E09D
:1002A000408151814217530741F00196ED5DFE4FA9
:1002B00080319105A9F78FEF9FEF0895F8949F93F0
:1002C0008F9383E392E09F938F930E94290A0F906C
:1002D0000F900F900F90FFCFBC01FC0180819181A6
:1002E0000197409720F085E090E00E945E01EC5F6E
:1002F000FE4F80819181029721F481E090E091830B
:100300008083FB01E75EFE4F808191818130910502
:1003100031F0039739F482EB93E00C9412018AEAEE
:1003200093E0FBCF0895CF93DF93FC01408151818F
:100330004115510521F48AE090E00E945E01DA0146
:10034000A95EBE4F2D913C9111974617570781F436
:10035000318320831D921C9280819181892B11F41D
:1003600013821282DF91CF910895A901292F382F8E
:100370002115310589F3D901A95EBE4F9C911196D3
:100380008C9111972617370781F7EA01C95EDE4F76
:10039000988389831D921C9282819381821793078F
:1003A000D9F653834283D8CFCF93DF93FC01C0812A
:1003B000D181209759F0FE01EC5FFE4F2081318101
:1003C0002130310539F4BE010E949301CE01DF9145
:1003D000CF910895C95EDE4F0990D881C02DE9CF35
:1003E0005F926F927F928F929F92AF92BF92CF92C5
:1003F000DF92EF92FF920F931F93CF93DF93809141
:1004000092039091930301969093930380939203A8
:100410008FE6682E82E0782E82EB93E00E94D40172
:1004200090939B0380939A030097E9F120919203A4
:10043000309193032F5F3F4F3093930320939203A8
:10044000DC018D919C919F938F933F932F938EE42A
:1004500092E09F938F930E94290A0F900F900F9024
:100460000F900F900F90E0919A03F0919B0382817F
:1004700093819093E7158093E615EC5FFE4F82E041
:1004800090E091838083DF91CF911F910F91FF9036
:10049000EF90DF90CF90BF90AF909F908F907F9024
:1004A0006F905F900895C091AE03D091AF0310E0BC
:1004B00000E0F12CE12C209749F422E0E216F1044F
:1004C00008F45EC081E090E00E945E0120919203FA
:1004D000309193032F5F3F4F309393032093920308
:1004E000E0919403F09195035E01BFEDAB1ABEEF6E
:1004F000BB0AD5018D909C906E01B1EECB1ABEEF78
:10050000DB0AD6014C9111965C90CF0188199909AC
:10051000642F752D0E94150A9F938F935F924F93BE
:100520009F928F92FF93EF9389818F9388818F930E
:100530003F932F937F926F920E94290A8091940398
:1005400090919503F50120813181821B930BD60197
:100550006D917C910E94150AEDB7FEB73E960FB6DD
:10056000F894FEBF0FBEEDBF892B21F4FFEFEF1A09
:10057000FF0A8E01C95EDE4F0990D881C02D9BCF46
:10058000EA94EF2819F110929B0310929A038AEAD9
:1005900093E00E94D40190939B0380939A03009769
:1005A00009F43ACF20919203309193032F5F3F4F8C
:1005B0003093930320939203FC01808191819F9358
:1005C0008F933F932F938FED92E043CF10939B0334
:1005D00000939A0301151105D1F280919203909135
:1005E000930301969093930380939203D8012D91E6
:1005F0003C913F932F939F938F938CEB92E029CF65
:10060000F8941092A000E1EAF0E010828081886006
:10061000808380818460808381E792E09093A90049
:100620008093A800E2E7F0E08081826080831092EE
:10063000A5001092A40078940895FC018081918116
:10064000009721F48AE090E00C943D0A895E9E4F69
:10065000F4CFFC01349620E031E0DF01A9011D92C6
:1006600041505040E1F7E150FF4F2CEC30E0208347
:10067000319730833197108231976083319770833F
:10068000319710829C0125523F4FDC0113963C9319
:100690002E9312973896608371833296118210825E
:1006A00034962EE933E031832083329722EA33E017
:1006B0003183208334961182108232961182108207
:1006C00032961182108232961082319611821082F7
:1006D00020919C0330919D032F5F3F4F30939D03EA
:1006E00020939C03329611821082739721E030E0B0
:1006F000318320830C946C01EF92FF920F931F9330
:10070000CF93DF9310929D0310929C031092970356
:10071000109296031092990310929803E0919A0315
:10072000F0919B0381E190E0918380831092B30369
:100730001092B2031092B5031092B4031092AF035B
:100740001092AE031092B1031092B0031092AB035B
:100750001092AA031092AD031092AC031092A7035B
:100760001092A6031092A9031092A803C6EBD3E03F
:1007700010E000E083E2E82EFF24F394BE01FE01C6
:10078000C70111920197E9F7FE01EC5FFE4F11825C
:1007900010820F5F1F4F19830883CD5DDE4F739664
:1007A000D183C08386EA93E00E94120100311105D3
:1007B00029F7DF91CF911F910F91FF90EF9008954E
:1007C0008091960390919703892B09F04AC08091FC
:1007D0009C0390919D03892B09F443C0F8948CEFFE
:1007E00092E00E94430A81E090E090939703809307
:1007F00096030E94F001E0919A03F0919B03DF01C0
:10080000A85FBE4F11961C921E9282819381909395
:10081000E7158093E6150E94710880919A039091E4
:100820009B032091E6153091E715FC013383228369
:10083000E85FFE4F208131812230310529F02330DD
:10084000310529F0232B49F40E946C01D2CF8C5F33
:100850009E4FFC0111821082CCCF83E090E00E9479
:100860005E010895EF92FF920F931F93CF93DF9352
:100870008C017B0180919C0390919D03409771F1C5
:100880008091A6039091A703892B41F18091960353
:1008900090919703892B09F0F8940E94FA00EC01DB
:1008A000FC01E75EFE4F83E090E091838083329607
:1008B000F182E082B801CE010E9429038091960363
:1008C00090919703892B09F0789488819981DF9121
:1008D000CF911F910F91FF90EF90089590E080E0ED
:1008E000F6CFEF92FF920F931F93CF93DF938C017C
:1008F0007B0180919C0390919D03409771F18091C1
:10090000A6039091A703892B41F1809196039091C2
:100910009703892B09F0F8940E94FA00EC01FC017E
:10092000E75EFE4F81E090E0918380833296F18212
:10093000E082B801CE010E94290380919603909134
:100940009703892B09F0789488819981DF91CF9161
:100950001F910F91FF90EF90089590E080E0F6CF07
:100960008F929F92AF92BF92CF92DF92EF92FF92BF
:100970000F931F93CF93DF93EC015B017A01690121
:1009800080919C0390919D03409709F444C080910D
:10099000A6039091A703892B09F43DC0809196038B
:1009A00090919703892B09F0F8940E94FA004C016A
:1009B000FC01E75EFE4F82E090E0918380833296F7
:1009C000B182A0823296D182C0823296F182E082D8
:1009D000329611830083BE01C4010E942903B40131
:1009E0008EEA93E00E941201809196039091970302
:1009F000892B09F07894F40180819181DF91CF9166
:100A00001F910F91FF90EF90DF90CF90BF90AF902C
:100A10009F908F90089590E080E0F0CF80919603B2
:100A200090919703892B69F0F894E0919A03F091E3
:100A30009B03E85FFE4F82E090E0918380830C94FB
:100A4000C6080895CF93DF93FC01C081D181209720
:100A500051F0DE01AC5EBE4F9C91962341F0BE0189
:100A6000CF010E949301CE01DF91CF910895C95E1D
:100A7000DE4F0990D881C02DEACFFF920F931F93CC
:100A8000CF93DF93F62E8A01AC0141505109C091FA
:100A90009A03D0919B0323E231E0429FC001439F20
:100AA000900D529F900D11248A549C4FDC01AC5F35
:100AB000BE4F2D913C911197BE016C5F7E4F24304B
:100AC000310509F059C0488159819C01225F3E4F90
:100AD000F90151834083F801408151812E5F3F4FDE
:100AE000F901518340832C5F3F4FF901F08225E0EB
:100AF00030E0FB013183208321E030E02D933C93F3
:100B0000845F9E4FBE01FC01808191810E94120191
:100B100088819981F80121812F9320812F939F93C0
:100B20008F9389E193E09F938F930E94290A0E94FB
:100B30000E05E0919A03F0919B03DF01AE5EBE4F7C
:100B40002D913C91808191813F932F939F938F931F
:100B500089E393E09F938F930E94290A8DB79EB7F4
:100B60000C960FB6F8949EBF0FBE8DBFDF91CF914C
:100B70001F910F91FF90089523E030E0FB01318336
:100B80002083865F9E4FBE01FC01808191810E947F
:100B9000120188819981FE01E25FFE4F918380837B
:100BA000F80180819181FE01E05FFE4F9183808397
:100BB0003496F082319681E090E091838083888141
:100BC0009981F80121812F9320812F939F938F93F7
:100BD00089E193E09F938F930E94290A0E940E055A
:100BE000E0919A03F0919B03DF01AE5EBE4F2D9121
:100BF0003C91808191813F932F939F938F9389E3C1
:100C000093E09F938F930E94290A8DB79EB70C960D
:100C10000FB6F8949EBF0FBE8DBFA8CFCF93DF93C2
:100C20001F921F92CDB7DEB781E390E09A8389834C
:100C3000AE014F5F5F4F61E681E090E00E943D05AD
:100C40000F900F90DF91CF9108950F931F93CF9343
:100C5000DF93682FC0919A03D0919B03FE01E65F5A
:100C6000FE4F808191810E9422058C010097C9F579
:100C7000CC5FDE4F84E090E0998388830E940E056C
:100C8000E0919A03F0919B03DF01A25FBE4F4D916B
:100C90005C91119712962D913C91808191815F9387
:100CA0004F933F932F939F938F938BE593E09F9365
:100CB0008F930E94290AE0919A03F0919B03E25FCF
:100CC000FE4F808191812DB73EB7285F3F4F0FB611
:100CD000F8943EBF0FBE2DBFDF91CF911F910F91B2
:100CE0000895FC01EC5FFE4F85E090E091838083E6
:100CF000FE01E45FFE4F80819181B8010E941201E4
:100D0000F80180819181FE01E25FFE4F9183808333
:100D1000F801E05FFE4F20813181DE01A05FBE4F10
:100D200011963C932E93D801AC5EBE4F2C91DE0100
:100D3000AC5EBE4F2C93288139819F938F93818124
:100D40008F9380818F933F932F938BE593E09F93B5
:100D50008F930E94290AF801808191812DB73EB7B7
:100D6000285F3F4F0FB6F8943EBF0FBE2DBFB4CFE4
:100D70000F931F93CF93DF93EB018C010150110967
:100D800083E291E0089FB001099F700D189F700DDC
:100D900011246A547C4FE0919A03F0919B03E45F25
:100DA000FE4FA081B1818D919C91009729F4DF9134
:100DB000CF911F910F9108956817790721F0895EEF
:100DC0009E4FDC01F0CF808191810E94930123E24C
:100DD00031E0029FC001039F900D129F900D1124DE
:100DE0008A549C4FFC01EE5EFE4FD183C083339644
:100DF00023E030E0318320838C5F9E4F21E030E0A0
:100E0000FC0131832083DF91CF911F910F910C94CE
:100E10000E05CF93DF931F921F92CDB7DEB781E00F
:100E200090E09A838983BE016F5F7F4F81E60E94C5
:100E300025066EE570E00E94B8060F900F90DF91D6
:100E4000CF910895FC01319723E231E0E29FC00188
:100E5000E39F900DF29F900D11248A549C4FFC014A
:100E6000EC5FFE4F2081318124303105B9F4A0912F
:100E70009A03B0919B032D913C91DC01A25FBE4F80
:100E800011963C932E9312964D935C938C5E9E4FDD
:100E9000DC016C9381E090E091838083089542E3CC
:100EA00050E061E681E090E00C9422071F920F92DF
:100EB0000FB60F9211240BB60F922F933F934F93BF
:100EC0005F936F937F938F939F93AF93BF93EF93B2
:100ED000FF938091940390919503019690939503CD
:100EE000809394038091960390919703892BA9F0A6
:100EF00080919A0390919B03FC01E75EFE4F208155
:100F000031812330310549F0719722E030E031839F
:100F100020830E946C010E94F001FF91EF91BF912C
:100F2000AF919F918F917F916F915F914F913F9181
:100F30002F910F900BBE0F900FBE0F901F90189522
:100F40000C94CC00CF93DF931F921F92CDB7DEB7E6
:100F500084E690E09A838983AE014F5F5F4F61E63C
:100F600082E090E00E943D050F900F90DF91CF91BD
:100F700008950E94A207FDCFCF93DF931F921F9287
:100F8000CDB7DEB71A821982BE016F5F7F4F8FEF38
:100F90000E94250664EF71E00E94B8060F900F9042
:100FA000DF91CF9108950E94BC07FDCF0F931F934F
:100FB00061E070E088EF90E00E94320461E070E050
:100FC00088EF90E00E94320410E000E021E030E081
:100FD00044E050E061E070E081EC90E00E94B004F9
:100FE00001E010E021E030E044E050E061E070E03A
:100FF00082EC90E00E94B00461E070E081EC90E04F
:101000000E94710461E070E081EC90E01F910F910B
:101010000C94710461E070E08EE096E00E9432046E
:1010200061E070E089E097E00C94320461E070E0E8
:1010300089E097E00E94320461E070E08EE096E083
:101040000C943204CF93DF93D0E0C0E0BE0181EC7A
:1010500090E00E9471042196C431D105B9F7DF9167
:10106000CF9108950F931F9310E000E021E030E04E
:1010700044E050E061E070E081EC90E00E94B00458
:1010800021E030E044E050E061E070E082EC90E08C
:101090000E94B0041F910F91089561E070E08FE409
:1010A00097E00E94320461E070E089E097E00C94E0
:1010B000320461E070E089E097E00E94320461E070
:1010C00070E08FE497E00C94320461E070E089EB0B
:1010D00097E00E94320461E070E083ED97E00C94A9
:1010E00032040F921F922F923F924F925F926F9213
:1010F0007F928F929F92AF92BF92CF92DF92EF92A8
:10110000FF920F931F932F933F934F935F936F9390
:101110007F938F939F93AF93BF93CF93DF93EF937F
:10112000FF930FB70F930CB70F93EDB7FEB7E09394
:10113000E815F093E915E091E615F091E715EDBF9C
:10114000FEBF0F910CBF0F910FBFFF91EF91DF9189
:10115000CF91BF91AF919F918F917F916F915F914F
:101160004F913F912F911F910F91FF90EF90DF9042
:10117000CF90BF90AF909F908F907F906F905F9037
:101180004F903F902F901F900F9018950F921F92A5
:101190002F923F924F925F926F927F928F929F9287
:1011A000AF92BF92CF92DF92EF92FF920F931F9375
:1011B0002F933F934F935F936F937F938F939F935F
:1011C000AF93BF93CF93DF93EF93FF930FB70F933B
:1011D0000CB70F93EDB7FEB7E093E615F093E71564
:1011E000E091E815F091E915EDBFFEBF0F910CBF3E
:1011F0000F910FBFFF91EF91DF91CF91BF91AF9111
:101200009F918F917F916F915F914F913F912F911E
:101210001F910F91FF90EF90DF90CF90BF90AF9014
:101220009F908F907F906F905F904F903F902F9006
:101230001F900F900895909102019F7E909302015C
:1012400087FF05C0909102019061909302019091F7
:101250000201977F9093020186FF05C090910201E1
:10126000986090930201739885FD739AA59884FD08
:10127000A59A8091020180648093020185E08A959D
:10128000F1F70000809102018F7B809302010895A5
:10129000CF93C82F809102018F7D809302018C2F04
:1012A0000E941B098C2F8295807F0E941B0987EC6E
:1012B00090E00197F1F700C00000C43030F0C03872
:1012C00010F0C0931C02CF9108958FE39FE1019726
:1012D000F1F700C00000C0E8F4CFCF93C82F809191
:1012E00002018062809302018C2F0E941B098C2FC7
:1012F0008295807F0E941B0987EC90E00197F1F7AF
:1013000000C0000080911C028F5F80931C02803916
:1013100031F0803D31F480E8CF910C94480980ECA5
:10132000FBCFCF910895CF93DF93EC018991811189
:1013300003C0DF91CF9108950E946D09F7CFCF933D
:10134000C82FC15010F4CF91089580E20E946D091A
:10135000F8CF9D9A6B9AE1E0F1E08081886080830C
:1013600080818061808380818062808380818064CD
:101370008083E2E0F1E080818F7B808380818F7DBC
:1013800080838FE59AEE0197F1F700C0000080E3BB
:101390000E941B098FE090E40197F1F700C0000064
:1013A00080E30E941B098FE891E00197F1F700C0EC
:1013B000000080E30E941B0987EC90E00197F1F7A1
:1013C00000C0000080E20E941B0987EC90E00197BA
:1013D000F1F700C0000088E20E94480988E00E94FE
:1013E000480981E00E94480986E00E9448098CE093
:1013F0000C9448090E942A01EAEEF5E18EE092E0A1
:101400009383828380E092E091838083F89483E8E1
:1014100084B90E947C030E9432080E9400037894E1
:101420000E94E0038FEF9FEF0895AA1BBB1B51E1C1
:1014300007C0AA1FBB1FA617B70710F0A61BB70B44
:10144000881F991F5A95A9F780959095BC01CD01E9
:101450000895CF93DF93CDB7DEB7AE014A5F5F4FFC
:10146000FA0161917191AF018091EC159091ED15A8
:101470000E946E0ADF91CF9108956091EC157091F2
:10148000ED150C94860C0F931F93CF93DF93E0918F
:10149000EC15F091ED152381EC0110E000E021FD49
:1014A00008C00FEF1FEF14C01995892B11F00FEF33
:1014B0001FEF89916091EC157091ED15DB01189685
:1014C000ED91FC918111F0CF8AE01995892B49F7B4
:1014D000C801DF91CF911F910F9108952F923F92F4
:1014E0004F925F926F927F928F929F92AF92BF9234
:1014F000CF92DF92EF92FF920F931F93CF93DF93E0
:1015000000D000D000D01F921F92CDB7DEB77C0173
:101510003B018A01FC0117821682838181FFDDC1B4
:10152000CE0101965C01F7019381F30193FD859152
:1015300093FF81913F01882309F453C1853239F427
:1015400093FD859193FF81913F01853229F4B70185
:1015500090E00E94860CE7CF912C212C312CFFE1EA
:10156000F31538F08B3211F190F4803209F18332A7
:1015700029F137FC3CC020ED280F2A3050F536FE0B
:1015800020C08AE0989E200D1124922E06C08D3234
:1015900091F0803371F7689430F8F30193FD8591F1
:1015A00093FF81913F018111DACF21C0689431F816
:1015B000689432F8F2CF689433F8EFCF689434F837
:1015C000ECCFEAE02E9E200D1124222E689435F8EF
:1015D000E4CF8E3229F436FC04C1689436F8DDCFAE
:1015E0008C3619F4689437F8D8CF8836B1F2982F32
:1015F0009F7D95549330E0F08336A1F18337C1F19C
:10160000833509F063C02801F2E04F0E511CF80148
:10161000C080D180692D70E036FC02C06FEF7FEF93
:10162000C6010E94700C4C01689437F882010AC010
:101630000C5F1F4FFFE3F98388248394912C65018D
:10164000E89437F833FE2DC0522C8114910471F5C3
:10165000552009F468CFB70180E290E00E94860C23
:101660005A94F6CFF801808189830E5F1F4FE4CF33
:101670002801F2E04F0E511CF801C080D180692D85
:1016800070E036FC02C06FEF7FEFC6010E947B0C5A
:101690004C018201D5CFB70180E290E00E94860C18
:1016A0002A942814190409F0B0F7CECFF60137FCBC
:1016B000859137FE81916F01B70190E00E94860C01
:1016C00051105A94F1E08F1A9108BFCF843619F067
:1016D000893609F077C0F80137FE6BC060817181EF
:1016E000828193810C5F1F4FF32DFF763F2E97FF72
:1016F00009C090958095709561957F4F8F4F9F4F52
:10170000689437F82AE030E0A5010E94B60CC82E94
:10171000CA188C2C432C36FE0CC0E89440F8C9142F
:1017200040F434FE05C032FC03C0F32DFE7E4F2E84
:10173000892C44FEAAC0FE01EC0DF11D808180338E
:1017400009F09CC0242D297E422E842D8870582EAD
:1017500043FCAAC040FEA4C09C2C821418F42C0C9C
:10176000922C981844FEA6C0B70180E390E00E9436
:10177000860C42FE09C088E790E041FE02C088E581
:1017800090E0B7010E94860CC91408F49FC0CA9467
:10179000D12C9FEFC91AD90ACA0CDB1CF601829121
:1017A0006F01B70190E00E94860CAC14BD04B1F744
:1017B0004FCF60817181072E000C880B990B0E5F53
:1017C0001F4F92CFD32CE894D4F82AE030E085372D
:1017D000E1F1232D297FD22E8F36A9F1F0F488353F
:1017E00051F1F701868197812B960FB6F894DEBFF1
:1017F0000FBECDBFDF91CF911F910F91FF90EF9062
:10180000DF90CF90BF90AF909F908F907F906F9020
:101810005F904F903F902F900895803749F0883720
:1018200001F7D4FE02C06894D2F820E130E00DC088
:101830006894D4F8F6CF34FE03C0822F8660D82E89
:1018400020E132E002C028E030E0F801D7FE0FC00E
:1018500060817181828193810C5F1F4FA5010E947D
:10186000B60CC82ECA183D2CE89437F852CF6081C8
:10187000718190E080E00E5F1F4FF0CF42FC02C00C
:10188000839463CF8394839460CF842D867809F406
:101890005CCFF6CFB70180E290E00E94860C839483
:1018A0008214C0F3512C5ECF522C5818821408F4C5
:1018B00059CFF8CF842D867809F466CF8BE241FEAC
:1018C00080E247FC8DE2B70190E05CCFB70180E396
:1018D00090E00E94860C9A9457CF8FEF9FEF84CFB1
:1018E000FC010590615070400110D8F780959095EB
:1018F0008E0F9F1F0895FC016150704001900110F0
:10190000D8F7809590958E0F9F1F08950F931F9382
:10191000CF93DF93182F092FEB018B8181FD09C035
:101920001FEF0FEF812F902FDF91CF911F910F911C
:10193000089582FF14C02E813F818C819D812817DC
:1019400039073CF4E881F981CF01019699838883B6
:1019500010838E819F8101969F838E83E3CFE885DC
:10196000F985812F1995892BA1F3DACFFA01AA27DE
:10197000283051F1203181F1E8946F936E7F6E5FD2
:101980007F4F8F4F9F4FAF4FB1E03ED0B4E03CD080
:10199000670F781F891F9A1FA11D680F791F8A1F63
:1019A000911DA11D6A0F711D811D911DA11D20D0CA
:1019B00009F468943F912AE0269F11243019305D84
:1019C0003193DEF6CF010895462F4770405D419375
:1019D000B3E00FD0C9F7F6CF462F4F70405D4A33C2
:1019E00018F0495D31FD4052419302D0A9F7EACF8A
:1019F000B4E0A6959795879577956795BA95C9F7B9
:101A000000976105710508959B01AC010A2E0694AB
:101A10005795479537952795BA95C9F7620F731F64
:0C1A2000841F951FA01D0895F894FFCFAF
:101A2C0000000001000000000000BA0000000000EF
:101A3C00000200000000AB00000000008054455282
:101A4C004D494E4154494E47205441534B3A202561
:101A5C00640A004572726F7220776974682065722F
:101A6C00726F7220636F64653A2025640A002564E6
:101A7C002E53656C6563746564206E65772073798D
:101A8C007374656D207461736B3A2025640A0025AC
:101A9C00642E207069643A202564207469636B3A63
:101AAC00202564206F66667365743A202564207067
:101ABC006572696F643A202564202020287469635C
:101ACC006B2D6F666673657429206D6F64202870AA
:101ADC006572696F64293A2025640A0025642E53C7
:101AEC00656C6563746564206E65772070657269DA
:101AFC006F646963207461736B3A2025640A002556
:101B0C00642E53656C6563746564206E6577205232
:101B1C0052207461736B3A2025640A002D2D2D2DF3
:101B2C002D2D2D5354415254494E47204F532D2D9A
:101B3C002D2D2D2D2D2D0A0A0053656E6465723ADC
:101B4C00202564202073656E64696E67206D657353
:101B5C00736167652025640A0053656E6465723A8B
:101B6C002025642020676F74207265706C79206D5D
:101B7C006573736167652025640A00526563656946
:101B8C007665723A2025642020207265636569763B
:101B9C006564206D6573736167653A202564202048
:101BAC002066726F6D202073656E646572202564EB
:021BBC000A001D
:00000001FF
