:100000000C9478000C9499000C9499000C9499002D
:100010000C9499000C9499000C9499000C949900FC
:100020000C9499000C9499000C9499000C949900EC
:100030000C9499000C9499000C9499000C949900DC
:100040000C9499000C9499000C9499000C949900CC
:100050000C9499000C9499000C9499000C949900BC
:100060000C9499000C9499000C9499000C949900AC
:100070000C9499000C9499000C9499000C9499009C
:100080000C9499000C9499000C9499000C9499008C
:100090000C9499000C9499000C9499000C9499007C
:1000A0000C9499000C9499000C9499000C9499006C
:1000B0000C9499000C9499000C9499000C9499005C
:1000C0000C9499000C9499000C9499000C9499004C
:1000D0000C9499000C9499000C9499000C9499003C
:1000E0000C9499000C948C030C941C010C947003D8
:1000F00011241FBECFEFD1E2DEBFCDBF00E00CBFA9
:1001000012E0A0E0B2E0E0E0FDE000E00BBF02C0E2
:1001100007900D92A431B107D9F724E1A4E1B2E030
:1001200001C01D92A636B207E1F70E9462060C9448
:100130007E060C940000FC0180819181009771F093
:10014000DC01A95EBE4F2D913C9111973183208334
:10015000232B11F4138212821D921C920895CF93C7
:10016000DF93DC012D913C9111972115310589F127
:10017000F901E95EFE4F408151812617370761F48E
:1001800011965C934E93118210821AC0FA01E95EB7
:10019000FE4F9A01408151814115510571F046177A
:1001A0005707A1F7FB01E95EFE4F80819181295E2F
:1001B0003E4FE90199838883E6CF6115710591F37C
:1001C0008D919C911197892B21F413961C921E926C
:1001D0001297DF91CF91089520912E0230912F0236
:1001E00040912A0250912B02809126029091270281
:1001F00021153105C9F08EE292E00E949B00909398
:10020000190280931802E0911802F091190282817C
:1002100093819093631480936214EC5FFE4F82E0AD
:1002200090E09183808308954115510561F700970F
:10023000F9F286E292E0E1CF8091140290911502EA
:10024000892B69F0F894E0911802F0911902E85FA7
:10025000FE4F83E090E0918380830C942E050895F7
:10026000FC0180819181892B51F4718360837383B8
:100270006283695E7E4FFB01118210820895A28124
:10028000B381A95EBE4F6D937C937383628308959F
:10029000BC01FC01E75EFE4F8081918182309105B7
:1002A00061F08330910529F0019751F486E292E0E4
:1002B00002C08EE292E00C9430018AE292E0FBCF21
:1002C0000895E0911802F0911902E55EFE4F8081D9
:1002D00091810895E0911802F09119028081918135
:1002E0000895E2E3F2E030E020E0408151814817D8
:1002F000590761F443E251E0249FC001259F900D0E
:10030000349F900D11248E5C9D4F08952F5F3F4FB9
:10031000ED5DFE4F2031310541F790E080E008951A
:10032000FC01349620E031E0DF01A9011D9241502B
:100330005040E1F7E150FF4F2CE131E0208331974D
:100340003083319710823197608331977083319772
:1003500010829C0125523F4FDC0113963C932E9353
:10036000129738966083718332961182108232968A
:100370000190F081E02D1182108213821282FC0123
:10038000E45FFE4F0190F081E02D11821082138214
:100390001282FC01E25FFE4F1182108232961182BE
:1003A000108232961182108232961082319611821A
:1003B000108220911A0230911B022F5F3F4F309321
:1003C0001B0220931A02329611821082739721E049
:1003D00030E0318320830C944801EF92FF920F9319
:1003E0001F93CF93DF9310921B0210921A02109268
:1003F0001502109214021092170210921602109217
:100400002F0210922E02109231021092300210929E
:100410002B0210922A0210922D0210922C0210929E
:10042000270210922602109229021092280210929E
:100430002302109222021092250210922402C2E39B
:10044000D2E010E000E083E2E82EFF24F394BE0146
:10045000FE01C70111920197E9F7FE01EC5FFE4F23
:10046000118210820F5F1F4F19830883CD5DDE4F0D
:100470007396D183C08382E292E00E943001003102
:10048000110529F7DF91CF911F910F91FF90EF9008
:100490000895CF93DF938091140290911502892BD8
:1004A00009F050C080911A0290911B02892B09F427
:1004B00049C0F89481E090E0909315028093140273
:1004C0000E94EC00C1E0D0E0E0911802F091190226
:1004D000DF01A85FBE4F11961C921E92828193810C
:1004E00090936314809362140E94D904809118023F
:1004F000909119022091621430916314FC013383AE
:100500002283E85FFE4F208131812230310529F0BE
:100510002330310589F0232BB9F6FC01EC5FFE4F47
:10052000208131812230310511F0D183C0830E94B6
:1005300048010E94EC00C8CF8C5F9E4FFC011182E5
:100540001082F7CFDF91CF910895EF92FF920F9332
:100550001F93CF93DF938C017B0180911A029091BE
:100560001B02409721F18091220290912302892B56
:10057000F1F0F89482E292E00E949B00EC01FC0111
:10058000E75EFE4F83E090E0918380833296F182B4
:10059000E082B801CE010E9490017894888199810F
:1005A000DF91CF911F910F91FF90EF90089590E010
:1005B00080E0F6CFEF92FF920F931F93CF93DF93DC
:1005C0008C017B0180911A0290911B02409721F1CE
:1005D0008091220290912302892BF1F0F89482E21B
:1005E00092E00E949B00EC01FC01E75EFE4F81E07F
:1005F00090E0918380833296F182E082B801CE014F
:100600000E949001789488819981DF91CF911F9108
:100610000F91FF90EF90089590E080E0F6CF8F92D9
:100620009F92AF92BF92CF92DF92EF92FF920F9381
:100630001F93CF93DF93EC015B017A0169018091F5
:100640001A0290911B024097A1F180912202909191
:100650002302892B71F1F89482E292E00E949B00C0
:100660004C01FC01E75EFE4F82E090E091838083C5
:100670003296B182A0823296D182C0823296F182C5
:10068000E082329611830083BE01C4010E94900172
:100690007894F40180819181DF91CF911F910F9126
:1006A000FF90EF90DF90CF90BF90AF909F908F9092
:1006B000089590E080E0F0CF8091140290911502AF
:1006C000892B69F0F894E0911802F0911902E85F23
:1006D000FE4F82E090E0918380830C942E05089574
:1006E000C1E0C5B980E80E94B00581E092E00E94B7
:1006F000FB0580EC0E94B00587E092E00E94FB05BC
:100700002FEF87EA91E6215080409040E1F700C04A
:1007100000000E945C03E5CFC2E0C5B980E80E94FA
:10072000B00587E092E00E94FB0580EC0E94B005D6
:100730008DE092E00E94FB052FEF87EA91E62150C1
:1007400080409040E1F700C000000E945C03E5CFCC
:10075000EF92FF921F93CF93DF93162F7A010E949F
:100760007101EC01009709F448C060911802709182
:100770001902DC01AC5FBE4F8D919C911197AB01CA
:100780004C5F5E4F049769F5FB0120813181CE01FA
:10079000825F9E4FFC0131832083F70120813181EC
:1007A0000296FC01318320830496FC01108385E0CE
:1007B00090E0FA019183808381E090E08D939C9397
:1007C000FE01E45FFE4F808191810E943001CE01E5
:1007D0000E944801DF91CF911F91FF90EF900C9400
:1007E0005C0383E090E0FA0191838083C65FDE4F73
:1007F000888199810E943001EDCFDF91CF911F91C7
:10080000FF90EF900895FF920F931F93CF93DF9384
:10081000EC01162F688179816115710531F4DF9142
:10082000CF911F910F91FF900895FB01E95EFE4F5C
:10083000F080018133978081812319F4CE010E94D9
:10084000AF006F2D702FE8CF0F931F93CF93DF93DF
:10085000682FC0911802D09119028E01065F1E4FB9
:10086000F801808191810E940304F80180819181C7
:100870000E949B008C010097A9F4CC5FDE4F84E0BE
:1008800090E0998388830E94EC00E0911802F09137
:100890001902E25FFE4F80819181DF91CF911F911C
:1008A0000F910895FC01EC5FFE4F85E090E091838D
:1008B0008083FE01E45FFE4F80819181B8010E9438
:1008C0003001F80180819181FE01E25FFE4F91834A
:1008D0008083F801E05FFE4F20813181FE01E05FFF
:1008E000FE4F31832083F801EC5EFE4F2081CC5E09
:1008F000DE4F2883D2CF0F931F93CF93DF938B01CB
:100900000E947101EC01892B61F0E0911802F091D5
:100910001902E45FFE4FA081B1818D919C910097F7
:1009200029F4DF91CF911F910F910895C817D9072E
:1009300021F0895E9E4FDC01F0CF80819181BE0164
:100940000E94AF00FE01EE5EFE4F11830083CC5F7C
:10095000DE4F81E090E099838883E3CFEF92FF92AE
:100960001F93CF93DF93EC01162F7A010E94710140
:10097000009791F0FC01EC5FFE4F20813181243023
:10098000310581F43A96D183C0833296F182E082B8
:100990008C5E9E4FFC011083DF91CF911F91FF90E1
:1009A000EF900895DF91CF911F91FF90EF900C94FD
:1009B000EC000F921F922F923F924F925F926F9294
:1009C0007F928F929F92AF92BF92CF92DF92EF92DF
:1009D000FF920F931F932F933F934F935F936F93C8
:1009E0007F938F939F93AF93BF93CF93DF93EF93B7
:1009F000FF930FB70F930CB70F93EDB7FEB7E093CC
:100A00006414F0936514E0916214F0916314EDBFE7
:100A1000FEBF0F910CBF0F910FBFFF91EF91DF91C0
:100A2000CF91BF91AF919F918F917F916F915F9186
:100A30004F913F912F911F910F91FF90EF90DF9079
:100A4000CF90BF90AF909F908F907F906F905F906E
:100A50004F903F902F901F900F9018950F921F92DC
:100A60002F923F924F925F926F927F928F929F92BE
:100A7000AF92BF92CF92DF92EF92FF920F931F93AC
:100A80002F933F934F935F936F937F938F939F9396
:100A9000AF93BF93CF93DF93EF93FF930FB70F9372
:100AA0000CB70F93EDB7FEB7E0936214F0936314A5
:100AB000E0916414F0916514EDBFFEBF0F910CBF7F
:100AC0000F910FBFFF91EF91DF91CF91BF91AF9148
:100AD0009F918F917F916F915F914F913F912F9156
:100AE0001F910F91FF90EF90DF90CF90BF90AF904C
:100AF0009F908F907F906F905F904F903F902F903E
:100B00001F900F900895909102019F7E9093020193
:100B100087FF05C09091020190619093020190912E
:100B20000201977F9093020186FF05C09091020118
:100B3000986090930201739885FD739AA59884FD3F
:100B4000A59A8091020180648093020185E08A95D4
:100B5000F1F70000809102018F7B809302010895DC
:100B6000CF93C82F809102018F7D809302018C2F3B
:100B70000E9483058C2F8295807F0E94830587ECDD
:100B800090E00197F1F700C00000C43030F0C038A9
:100B900010F0C0930002CF9108958FE39FE1019779
:100BA000F1F700C00000C0E8F4CFCF93C82F8091C8
:100BB00002018062809302018C2F0E9483058C2F9A
:100BC0008295807F0E94830587EC90E00197F1F782
:100BD00000C00000809100028F5F80930002803986
:100BE00031F0803D31F480E8CF910C94B00580EC79
:100BF000FBCFCF910895CF93DF93EC0189918111C1
:100C000003C0DF91CF9108950E94D505F7CFCF9310
:100C1000C82FC15010F4CF91089580E20E94D505ED
:100C2000F8CF9D9A6B9AE1E0F1E080818860808343
:100C30008081806180838081806280838081806404
:100C40008083E2E0F1E080818F7B808380818F7DF3
:100C500080838FE59AEE0197F1F700C0000080E3F2
:100C60000E9483058FE090E40197F1F700C0000037
:100C700080E30E9483058FE891E00197F1F700C0BF
:100C8000000080E30E94830587EC90E00197F1F774
:100C900000C0000080E20E94830587EC90E001978D
:100CA000F1F700C0000088E20E94B00588E00E94D1
:100CB000B00581E00E94B00586E00E94B0058CE09E
:100CC0000C94B005F89483E884B90E94110680E87A
:100CD0000E94B0050E94ED0161E070E080E793E0C2
:100CE0000E94A50261E070E08CE893E00E94A502FA
:100CF00078940E9449028FEF9FEF0895F894FFCFF8
:100D0000805441534B310020202020200054415377
:040D10004B32000062
:00000001FF
