:100000000C947C000C949D000C949D000C949D001D
:100010000C949D000C949D000C949D000C949D00EC
:100020000C949D000C949D000C949D000C949D00DC
:100030000C949D000C949D000C949D000C949D00CC
:100040000C949D000C949D000C949D000C949D00BC
:100050000C949D000C949D000C949D000C949D00AC
:100060000C949D000C949D000C949D000C949D009C
:100070000C949D000C949D000C949D000C949D008C
:100080000C949D000C949D000C949D000C949D007C
:100090000C949D000C949D000C949D000C949D006C
:1000A0000C949D000C949D000C9464080C949D008D
:1000B0000C949D000C949D000C949D000C949D004C
:1000C0000C949D000C949D000C949D000C949D003C
:1000D0000C949D000C949D000C949D000C949D002C
:1000E0000C949D000C945C070C9471060C94B30066
:1000F0000C94C2000C94C90011241FBECFEFD1E2B2
:10010000DEBFCDBF00E00CBF14E0A0E0B2E0EEEB3C
:10011000FAE100E00BBF02C007900D92A03AB107D0
:10012000D9F726E1A0EAB4E001C01D92A63FB207CC
:10013000E1F70E94360A0C945D0D0C940000FC015E
:1001400080819181009771F0DC01A95EBE4F2D91F5
:100150003C91119731832083232B11F41382128257
:100160001D921C920895CF93C82F8A3019F48DE008
:100170000E94B3008091C00085FFFCCFC093C600F1
:10018000CF9108958091C00087FFFCCF8091C60079
:1001900008958091A4049091A504892B69F0F894A6
:1001A000E091A804F091A904E85FFE4F83E090E09D
:1001B000918380830C9402090895FC0180819181D0
:1001C000892B51F47183608373836283695E7E4FF0
:1001D000FB01118210820895A281B381A95EBE4FF6
:1001E0006D937C937383628308951092C50087E6B4
:1001F0008093C400E0ECF0E080818D7F808386E016
:100200008093C20088E18093C1000895E091A80422
:10021000F091A904E55EFE4F808191810895E091FF
:10022000A804F091A904808191810895ECEBF4E099
:1002300030E020E0408151814817590761F443E2E2
:1002400051E0249FC001259F900D349F900D1124F3
:1002500084549B4F08952F5F3F4FED5DFE4F20313B
:10026000310541F790E080E00895F8949F938F93D3
:100270008DE192E09F938F930E94720A0F900F90EE
:100280000F900F90FFCF0F931F93CF93DF93EC014D
:1002900028813981C9010197409720F085E090E0DD
:1002A0000E9435018091A0049091A1040196909341
:1002B000A1048093A0043F932F939F938F9388E38F
:1002C00092E09F938F930E94720A0F900F900F906D
:1002D0000F900F900F908E010C5F1E4FF8018081E0
:1002E00091818130910509F48AC008F48BC002978E
:1002F00009F08BC08DE592E00E948C0AF8018081A4
:100300009181029721F481E090E09183808389813B
:100310008F9388818F938091A1048F938091A00403
:100320008F9388E792E09F938F930E94720A0F90B9
:100330000F900F900F900F900F90F8018081918196
:100340008130910509F464C008F465C0029709F092
:1003500065C08DE592E00E948C0AFE01E75EFE4FCB
:10036000808191818230910509F48FC0833091059D
:1003700009F457C0019709F0E3C08091A00490915F
:10038000A10401969093A1048093A0042091B0044D
:100390003091B10450E040E02115310509F0C0C0B2
:1003A0005F934F939F938F938CE193E09F938F93F1
:1003B0000E94720ABE0180EB94E00E94DD008091F1
:1003C000A0049091A10401969093A1048093A004AD
:1003D0002091B0043091B1040F900F900F900F90C6
:1003E0000F900F9050E040E02115310509F0A0C0BA
:1003F0005F934F939F938F9384E493E02FC085E6A0
:1004000092E07ACF8BE692E077CF80E792E074CFEC
:1004100085E692E0A0CF8BE692E09DCF80E792E068
:100420009ACFBE0188EB94E00E94DD008091A00489
:100430009091A10401969093A1048093A00420912F
:10044000B8043091B90450E040E021153105A9F419
:100450005F934F939F938F938BE992E09F938F933A
:100460000E94720A0F900F900F900F900F900F90B4
:10047000DF91CF911F910F9108954F5F5F4F295EDC
:100480003E4FF90120813181E0CF8091A00490910D
:10049000A10401969093A1048093A0042091B40438
:1004A0003091B50450E040E02115310549F55F93E6
:1004B0004F939F938F9385EC92E09F938F930E942D
:1004C000720A8091A0049091A10401969093A104D6
:1004D0008093A0042091B4043091B5040F900F9044
:1004E0000F900F900F900F9050E040E021153105D4
:1004F00079F45F934F939F938F9381EF92E0AECF08
:100500004F5F5F4F295E3E4FF90120813181CCCF93
:100510004F5F5F4F295E3E4FF90120813181E6CF69
:100520004F5F5F4F295E3E4FF9012081318134CF0B
:100530004F5F5F4F295E3E4FF9012081318154CFDB
:1005400082E090E0ADCECF93DF93DC018D919C9162
:100550001197009721F48AE090E00E943501FC0198
:10056000E95EFE4F2081318186179707B9F4119615
:100570003C932E93118210828D919C911197892B1F
:1005800021F413961C921E921297DF91CF91089539
:10059000F901E95EFE4FC901208131812115310544
:1005A000D9F026173707A1F7FB01E95EFE4F40811E
:1005B0005181EC01C95EDE4F59834883118210825C
:1005C00012964D915C91139742175307A9F6139613
:1005D0009C938E931297D0CF6115710569F69B019C
:1005E000E3CFCF93DF93FC01C081D181209759F0F5
:1005F000FE01EC5FFE4F208131812130310539F45D
:10060000BE010E94A302CE01DF91CF910895C95E81
:10061000DE4F0990D881C02DE9CF5F926F927F9213
:100620008F929F92AF92BF92CF92DF92EF92FF9202
:100630000F931F93CF93DF938BE8682E83E0782E80
:1006400088EB94E00E94F1029093A9048093A8049F
:100650000097E9F12091A0043091A1042F5F3F4F52
:100660003093A1042093A004DC018D919C919F9371
:100670008F933F932F938AE693E09F938F930E94EB
:10068000720A0F900F900F900F900F900F90E091C3
:10069000A804F091A904828193819093ED16809330
:1006A000EC16EC5FFE4F82E090E091838083DF9157
:1006B000CF911F910F91FF90EF90DF90CF90BF905F
:1006C000AF909F908F907F906F905F900895C091B2
:1006D000B404D091B50410E000E0F12CE12C209797
:1006E00049F422E0E216F10408F45AC081E090E0F7
:1006F0000E9435012091A0043091A1042F5F3F4F4B
:100700003093A1042093A004E091A204F091A304EB
:100710005E01BFEDAB1ABEEFBB0AD5018D909C9078
:100720006E01B1EECB1ABEEFDB0AD6014C911196E9
:100730005C90CF0188199909642F752D0E945E0A7B
:100740009F938F935F924F939F928F92FF93EF931C
:100750003F932F937F926F920E94720A8091A2041E
:100760009091A304F50120813181821B930BD60166
:100770006D917C910E945E0AEDB7FEB73C960FB674
:10078000F894FEBF0FBEEDBF892B21F4FFEFEF1AE7
:10079000FF0A8E01C95EDE4F0990D881C02D9FCF20
:1007A000EA94EF2819F11092A9041092A80480EBA2
:1007B00094E00E94F1029093A9048093A80400970A
:1007C00009F43ECF2091A0043091A1042F5F3F4F48
:1007D0003093A1042093A004FC01808191819F9318
:1007E0008F933F932F938EED93E047CF1093A904FF
:1007F0000093A80401151105D1F28091A0049091F5
:10080000A10401969093A1048093A004D8012D9196
:100810003C913F932F939F938F938BEB93E02DCF3E
:10082000F8941092A000E1EAF0E0108280818860E4
:10083000808380818460808381E792E09093A90027
:100840008093A800E2E7F0E08081826080831092CC
:10085000A5001092A40078940895FC0180819181F4
:10086000009721F48AE090E00C94860A895E9E4FFE
:10087000F4CFFC01349620E031E0DF01A9011D92A4
:1008800041505040E1F7E150FF4F29EC30E0208328
:10089000319730833197108231976083319770831D
:1008A000319710829C0125523F4FDC0113963C93F7
:1008B0002E9312973896608371833296118210823C
:1008C00032960190F081E02D118210821382128203
:1008D000FC01E45FFE4F0190F081E02D1182108257
:1008E00013821282FC01E25FFE4F11821082329667
:1008F00011821082329611821082329610823196C5
:10090000118210822091AA043091AB042F5F3F4FD7
:100910003093AB042093AA0432961182108273970D
:1009200021E030E0318320830C944301EF92FF9269
:100930000F931F93CF93DF931092AB041092AA04EE
:100940001092A5041092A4041092A7041092A60479
:10095000E091A804F091A90481E190E09183808363
:100960001092B9041092B8041092BB041092BA0409
:100970001092B5041092B4041092B7041092B60409
:100980001092B1041092B0041092B3041092B20409
:100990001092AD041092AC041092AF041092AE0409
:1009A000CCEBD4E010E000E083E2E82EFF24F394E7
:1009B000BE01FE01C70111920197E9F7FE01EC5F4C
:1009C000FE4F118210820F5F1F4F19830883CD5D88
:1009D000DE4F7396D183C0838CEA94E00E94DD00E1
:1009E0000031110529F7DF91CF911F910F91FF90F1
:1009F000EF9008950F931F93CF93DF938091A404FA
:100A00009091A504892B09F071C08091AA0490915E
:100A1000AB04892B09F46AC0F8948BEF93E00E9431
:100A20008C0A81E090E09093A5048093A4040E9436
:100A30000D03C8E1D4E004E214E0E091A804F091D1
:100A4000A904DF01A85FBE4F11961C921E928281FD
:100A500093819093ED168093EC160E94AD08E0917F
:100A6000A804F091A9048091EC169091ED1693835F
:100A70008283DF01A85FBE4F8D919C9182309105EA
:100A800029F08330910539F1892B61F580819181BD
:100A90009F938F93DF93CF930E94720A8091A80453
:100AA0009091A9040E944301E091A804F091A90447
:100AB000808191819F938F931F930F930E94720A5D
:100AC0000E940D038DB79EB708960FB6F8949EBF8F
:100AD0000FBE8DBFB2CFEC5FFE4F118210820E941D
:100AE0000D03ABCF83E090E00E943501DF91CF9101
:100AF0001F910F910895EF92FF920F931F93CF9341
:100B0000DF938C017B018091AA049091AB04409704
:100B100081F18091AC049091AD04892B51F18091C9
:100B2000A4049091A504892B09F0F8948CEA94E030
:100B30000E949F00EC01FC01E75EFE4F83E090E025
:100B4000918380833296F182E082B801CE010E94C7
:100B500039048091A4049091A504892B09F078941C
:100B600088819981DF91CF911F910F91FF90EF9034
:100B7000089590E080E0F6CFEF92FF920F931F93DD
:100B8000CF93DF938C017B018091AA049091AB04F9
:100B9000409781F18091AC049091AD04892B51F183
:100BA0008091A4049091A504892B09F0F8948CEA13
:100BB00094E00E949F00EC01FC01E75EFE4F81E0A3
:100BC00090E0918380833296F182E082B801CE0179
:100BD0000E9439048091A4049091A504892B09F006
:100BE000789488819981DF91CF911F910F91FF9027
:100BF000EF90089590E080E0F6CF8F929F92AF92B1
:100C0000BF92CF92DF92EF92FF920F931F93CF93F9
:100C1000DF93EC015B017A0169018091AA04909154
:100C2000AB04409709F446C08091AC049091AD04A8
:100C3000892B09F43FC08091A4049091A504892BCD
:100C400009F0F8948CEA94E00E949F004C01FC01AA
:100C5000E75EFE4F82E090E0918380833296B1821E
:100C6000A0823296D182C0823296F182E0823296A0
:100C700011830083BE01C4010E943904B40184EBD6
:100C800094E00E94DD008091A4049091A504892B3A
:100C900009F07894F40180819181DF91CF911F91C7
:100CA0000F91FF90EF90DF90CF90BF90AF909F900B
:100CB0008F90089590E080E0F0CF8091A40490910F
:100CC000A504892B69F0F894E091A804F091A90497
:100CD000E85FFE4F82E090E0918380830C940209EC
:100CE00008950E945D06FDCFDF92EF92FF920F9371
:100CF0001F93CF93DF93D62E8A0101977C018091B9
:100D0000A0049091A10401969093A1048093A00463
:100D1000E091A804F091A904208131813F932F93A1
:100D20009F938F938FE294E09F938F930E94720A18
:100D3000E091A804F091A904EC5FFE4F80819181BD
:100D40000F900F900F900F900F900F9081309105A2
:100D500009F482C008F483C0029709F083C08DE5CE
:100D600092E00E948C0A83E291E0E89EE001E99E15
:100D7000D00DF89ED00D1124C454DB4F89818F9380
:100D800088818F938091A1048F938091A0048F9389
:100D900089E494E09F938F930E94720A0F900F90C2
:100DA0000F900F900F900F90CC5FDE4F888199814C
:100DB0008130910509F459C008F45AC0029709F02E
:100DC0005AC08DE592E00E948C0A6091A80470914F
:100DD000A90483E291E0E89EE001E99ED00DF89E2F
:100DE000D00D1124C454DB4FFE01EC5FFE4F808117
:100DF0009181049709F042C0DB018D919C91DE0145
:100E0000A25FBE4F8D939C93D8018D919C91DE0182
:100E1000A05FBE4F11969C938E931496DC92DB01DB
:100E2000AC5FBE4F85E090E011969C938E9381E07D
:100E300090E0918380833896808191810E94DD00CB
:100E4000CE010E944301DF91CF911F910F91FF903E
:100E5000EF90DF900C945D0685E692E082CF8BE602
:100E600092E07FCF80E792E07CCF85E692E0ABCF47
:100E70008BE692E0A8CF80E792E0A5CFFB018081CE
:100E800091819F938F9385E694E09F938F930E9427
:100E9000720AE091A804F091A904EC5FFE4F83E090
:100EA00090E0918380838AE794E00E948C0A0F90FF
:100EB0000F900F900F90C7CFCF93DF931F921F9289
:100EC000CDB7DEB781E090E09A838983AE014F5FB2
:100ED0005F4F61E682E090E00E9474060E945D062A
:100EE000F5CFFF920F931F93CF93DF93EC01162F53
:100EF000688179816115710531F4DF91CF911F917E
:100F00000F91FF900895FB01E95EFE4FF080018193
:100F100033978081812319F4CE010E94A3026F2DA3
:100F2000702FE8CFFF920F931F93CF93DF93F82E8C
:100F3000E091A804F091A904808191819F938F93FF
:100F400088E894E09F938F930E94720AC091A8044E
:100F5000D091A9048E01065F1E4FF8018081918116
:100F60006F2D0E947107F801808191810E949F007E
:100F70008C010F900F900F900F900097B1F4CC5F01
:100F8000DE4F84E090E0998388830E940D03E09116
:100F9000A804F091A904E25FFE4F80819181DF9166
:100FA000CF911F910F91FF900895FC01EC5FFE4FD0
:100FB00085E090E091838083FE01E45FFE4F8081B5
:100FC0009181B8010E94DD00F80180819181FE01CC
:100FD000E25FFE4F91838083F801E05FFE4F208146
:100FE0003181FE01E05FFE4F31832083F801EC5E2A
:100FF000FE4F2081CC5EDE4F2883D1CF0F931F930D
:10100000CF93DF938B010E941601EC01892B21F411
:1010100088E090E00E943501E091A804F091A904D5
:10102000E45FFE4FA081B1818D919C91009729F4DE
:10103000DF91CF911F910F910895C817D90721F023
:10104000895E9E4FDC01F0CF80819181BE010E94BC
:10105000A302FE01EE5EFE4F11830083CC5FDE4FE4
:1010600081E090E099838883E3CFEF92FF921F9312
:10107000CF93DF93EC01162F7A010E94160100979F
:1010800021F489E090E00E943501FC01EC5FFE4F05
:10109000208131812430310581F43A96D183C08397
:1010A0003296F182E0828C5E9E4FFC011083DF91CC
:1010B000CF911F91FF90EF900895DF91CF911F91F5
:1010C000FF90EF900C945D061F920F920FB60F9257
:1010D00011240BB60F922F933F934F935F936F930F
:1010E0007F938F939F93AF93BF93EF93FF938091E1
:1010F000A2049091A30401969093A3048093A20468
:101100008091A4049091A504892B79F08091A80482
:101110009091A904FC01E85FFE4F22E030E03183AA
:1011200020830E9443010E940D03FF91EF91BF9124
:10113000AF919F918F917F916F915F914F913F916F
:101140002F910F900BBE0F900FBE0F901F90189510
:10115000F89478940895FFCFFFCF0F921F922F92AB
:101160003F924F925F926F927F928F929F92AF9237
:10117000BF92CF92DF92EF92FF920F931F932F9324
:101180003F934F935F936F937F938F939F93AF930F
:10119000BF93CF93DF93EF93FF930FB70F930CB7EA
:1011A0000F93EDB7FEB7E093EE16F093EF16E091D4
:1011B000EC16F091ED16EDBFFEBF0F910CBF0F9135
:1011C0000FBFFF91EF91DF91CF91BF91AF919F91B1
:1011D0008F917F916F915F914F913F912F911F91CF
:1011E0000F91FF90EF90DF90CF90BF90AF909F90C6
:1011F0008F907F906F905F904F903F902F901F90B7
:101200000F9018950F921F922F923F924F925F92DC
:101210006F927F928F929F92AF92BF92CF92DF9206
:10122000EF92FF920F931F932F933F934F935F93F0
:101230006F937F938F939F93AF93BF93CF93DF93DE
:10124000EF93FF930FB70F930CB70F93EDB7FEB764
:10125000E093EC16F093ED16E091EE16F091EF1698
:10126000EDBFFEBF0F910CBF0F910FBFFF91EF912C
:10127000DF91CF91BF91AF919F918F917F916F91AE
:101280005F914F913F912F911F910F91FF90EF90A0
:10129000DF90CF90BF90AF909F908F907F906F9096
:1012A0005F904F903F902F901F900F9008959091D6
:1012B00002019F7E9093020187FF05C09091020179
:1012C00090619093020190910201977F90930201A7
:1012D00086FF05C090910201986090930201739877
:1012E00085FD739AA59884FDA59A8091020180647A
:1012F0008093020185E08A95F1F700008091020158
:101300008F7B809302010895CF93C82F80910201B3
:101310008F7D809302018C2F0E9457098C2F82951C
:10132000807F0E94570987EC90E00197F1F700C099
:101330000000C43030F0C03810F0C0931C02CF91D0
:1013400008958FE39FE10197F1F700C00000C0E826
:10135000F4CFCF93C82F8091020180628093020165
:101360008C2F0E9457098C2F8295807F0E945709ED
:1013700087EC90E00197F1F700C0000080911C021B
:101380008F5F80931C02803931F0803D31F480E81A
:10139000CF910C94840980ECFBCFCF910895CF932B
:1013A000DF93EC018991811103C0DF91CF91089502
:1013B0000E94A909F7CFCF93C82FC15010F4CF9145
:1013C000089580E20E94A909F8CF9D9A6B9AE1E006
:1013D000F1E080818860808380818061808380816A
:1013E00080628083808180648083E2E0F1E080819C
:1013F0008F7B808380818F7D80838FE59AEE01973C
:10140000F1F700C0000080E30E9457098FE090E4EC
:101410000197F1F700C0000080E30E9457098FE8B0
:1014200091E00197F1F700C0000080E30E945709A6
:1014300087EC90E00197F1F700C0000080E20E9485
:10144000570987EC90E00197F1F700C0000088E2AF
:101450000E94840988E00E94840981E00E94840936
:1014600086E00E9484098CE00C948409F89483E857
:1014700084B90E94E50980E80E9484090E949604CC
:101480000E94F500E0EFF6E18EE092E09383828324
:1014900080E092E09183808361E070E08CE597E0EA
:1014A0000E94BC0561E070E081E796E00E94BC0507
:1014B00078940E94FA048FEF9FEF0895AA1BBB1B3C
:1014C00051E107C0AA1FBB1FA617B70710F0A61B44
:1014D000B70B881F991F5A95A9F780959095BC0165
:1014E000CD010895CF93DF93CDB7DEB7AE014A5F4C
:1014F0005F4FFA0161917191AF018091F216909165
:10150000F3160E94B70ADF91CF9108956091F21609
:101510007091F3160C94CF0C0F931F93CF93DF931E
:10152000E091F216F091F3162381EC0110E000E057
:1015300021FD08C00FEF1FEF14C01995892B11F082
:101540000FEF1FEF89916091F2167091F316DB0196
:101550001896ED91FC918111F0CF8AE01995892BB5
:1015600049F7C801DF91CF911F910F9108952F92F4
:101570003F924F925F926F927F928F929F92AF9223
:10158000BF92CF92DF92EF92FF920F931F93CF9370
:10159000DF9300D000D000D01F921F92CDB7DEB7EE
:1015A0007C013B018A01FC0117821682838181FF45
:1015B000DDC1CE0101965C01F7019381F30193FD3A
:1015C000859193FF81913F01882309F453C18532AE
:1015D00039F493FD859193FF81913F01853229F480
:1015E000B70190E00E94CF0CE7CF912C212C312C39
:1015F000FFE1F31538F08B3211F190F4803209F1EC
:10160000833229F137FC3CC020ED280F2A3050F5F9
:1016100036FE20C08AE0989E200D1124922E06C02E
:101620008D3291F0803371F7689430F8F30193FDB7
:10163000859193FF81913F018111DACF21C0689498
:1016400031F8689432F8F2CF689433F8EFCF6894A9
:1016500034F8ECCFEAE02E9E200D1124222E68945F
:1016600035F8E4CF8E3229F436FC04C1689436F89C
:10167000DDCF8C3619F4689437F8D8CF8836B1F2BC
:10168000982F9F7D95549330E0F08336A1F18337F6
:10169000C1F1833509F063C02801F2E04F0E511CFF
:1016A000F801C080D180692D70E036FC02C06FEF78
:1016B0007FEFC6010E94B90C4C01689437F8820193
:1016C0000AC00C5F1F4FFFE3F98388248394912C99
:1016D0006501E89437F833FE2DC0522C8114910433
:1016E00071F5552009F468CFB70180E290E00E94BF
:1016F000CF0C5A94F6CFF801808189830E5F1F4F7B
:10170000E4CF2801F2E04F0E511CF801C080D180D7
:10171000692D70E036FC02C06FEF7FEFC6010E94BA
:10172000C40C4C018201D5CFB70180E290E00E9449
:10173000CF0C2A942814190409F0B0F7CECFF60183
:1017400037FC859137FE81916F01B70190E00E94CF
:10175000CF0C51105A94F1E08F1A9108BFCF843604
:1017600019F0893609F077C0F80137FE6BC0608147
:101770007181828193810C5F1F4FF32DFF763F2E85
:1017800097FF09C090958095709561957F4F8F4F19
:101790009F4F689437F82AE030E0A5010E94FF0CC3
:1017A000C82ECA188C2C432C36FE0CC0E89440F886
:1017B000C91440F434FE05C032FC03C0F32DFE7E94
:1017C0004F2E892C44FEAAC0FE01EC0DF11D808134
:1017D000803309F09CC0242D297E422E842D8870F0
:1017E000582E43FCAAC040FEA4C09C2C821418F4BE
:1017F0002C0C922C981844FEA6C0B70180E390E010
:101800000E94CF0C42FE09C088E790E041FE02C072
:1018100088E590E0B7010E94CF0CC91408F49FC07E
:10182000CA94D12C9FEFC91AD90ACA0CDB1CF60145
:1018300082916F01B70190E00E94CF0CAC14BD04FF
:10184000B1F74FCF60817181072E000C880B990B87
:101850000E5F1F4F92CFD32CE894D4F82AE030E0EB
:101860008537E1F1232D297FD22E8F36A9F1F0F4AF
:10187000883551F1F701868197812B960FB6F89440
:10188000DEBF0FBECDBFDF91CF911F910F91FF90B3
:10189000EF90DF90CF90BF90AF909F908F907F9010
:1018A0006F905F904F903F902F900895803749F050
:1018B000883701F7D4FE02C06894D2F820E130E006
:1018C0000DC06894D4F8F6CF34FE03C0822F866032
:1018D000D82E20E132E002C028E030E0F801D7FE47
:1018E0000FC060817181828193810C5F1F4FA501C0
:1018F0000E94FF0CC82ECA183D2CE89437F852CF2E
:101900006081718190E080E00E5F1F4FF0CF42FC5C
:1019100002C0839463CF8394839460CF842D8678B0
:1019200009F45CCFF6CFB70180E290E00E94CF0CC3
:1019300083948214C0F3512C5ECF522C5818821419
:1019400008F459CFF8CF842D867809F466CF8BE25E
:1019500041FE80E247FC8DE2B70190E05CCFB70129
:1019600080E390E00E94CF0C9A9457CF8FEF9FEFC7
:1019700084CFFC010590615070400110D8F780952C
:1019800090958E0F9F1F0895FC016150704001904B
:101990000110D8F7809590958E0F9F1F08950F9393
:1019A0001F93CF93DF93182F092FEB018B8181FDBC
:1019B00009C01FEF0FEF812F902FDF91CF911F9163
:1019C0000F91089582FF14C02E813F818C819D81EB
:1019D000281739073CF4E881F981CF0101969983F2
:1019E000888310838E819F8101969F838E83E3CFAE
:1019F000E885F985812F1995892BA1F3DACFFA01B2
:101A0000AA27283051F1203181F1E8946F936E7F3D
:101A10006E5F7F4F8F4F9F4FAF4FB1E03ED0B4E02E
:101A20003CD0670F781F891F9A1FA11D680F791F6F
:101A30008A1F911DA11D6A0F711D811D911DA11D80
:101A400020D009F468943F912AE0269F1124301990
:101A5000305D3193DEF6CF010895462F4770405D2B
:101A60004193B3E00FD0C9F7F6CF462F4F70405DDA
:101A70004A3318F0495D31FD4052419302D0A9F735
:101A8000EACFB4E0A6959795879577956795BA952F
:101A9000C9F700976105710508959B01AC010A2EF5
:101AA00006945795479537952795BA95C9F7620FCC
:0E1AB000731F841F951FA01D0895F894FFCF8B
:101ABE0000000001000000000000C2000000000055
:101ACE00000200000000B3000000000080457272AA
:101ADE006F722077697468206572726F7220636FFF
:101AEE0064653A2025640A0025642E5055545449E5
:101AFE004E47204241434B20544F20512049443AF7
:101B0E00202564202073746174653A200052554E6E
:101B1E004E494E4700524541445900444541440008
:101B2E00424C4F434B45440025642E41465445528A
:101B3E00204241434B20544F20512049443A202506
:101B4E0064202073746174653A200025642E6166EA
:101B5E0074657220616464696E67206974656D20B6
:101B6E00746F2053797374656D2071756575653A60
:101B7E002025640A0025642E6265666F72652061F9
:101B8E006464696E672C6974656D7320696E20508C
:101B9E006572696F642071756575653A2025640AF2
:101BAE000025642E616674657220616464696E67D7
:101BBE00206974656D7320746F20506572696F644F
:101BCE002071756575653A2025640A0025642E62BC
:101BDE0065666F726520616464696E672C697465F1
:101BEE006D7320696E2052522071756575653A20AD
:101BFE0025640A0025642E61667465722061646432
:101C0E00696E67206974656D20746F205252207161
:101C1E00756575653A2025640A0025642E53656C3A
:101C2E006563746564206E65772073797374656D72
:101C3E00207461736B3A2025640A0025642E746942
:101C4E00636B3A202564206F66667365743A2025AF
:101C5E006420706572696F643A20256420202061CB
:101C6E006E737765723A2025640A0025642E5365DB
:101C7E006C6563746564206E657720706572696F3C
:101C8E00646963207461736B3A2025640A002564CD
:101C9E002E53656C6563746564206E6577205252B1
:101CAE00207461736B3A2025640A002D2D2D2D2D85
:101CBE002D2D5354415254494E47204F532D2D2D07
:101CCE002D2D2D2D2D0A0A004245464F52453A2004
:101CDE0025640A0041465445523A2025640A0025DF
:101CEE00642E53454E4445522049443A20256420E3
:101CFE002073746174653A200025642E5245434565
:101D0E00495645522049443A202564202073746177
:101D1E0074653A200053454E44494E47204D455375
:101D2E00534147453A2025640A00434845434B49F1
:101D3E004E47204845524500524543454956494E67
:101D4E0047204D4553534147453A2025640A00002C
:00000001FF
