:100000000C947C000C949D000C949D000C949D001D
:100010000C949D000C949D000C949D000C949D00EC
:100020000C949D000C949D000C949D000C949D00DC
:100030000C949D000C949D000C949D000C949D00CC
:100040000C949D000C949D000C949D000C949D00BC
:100050000C949D000C949D000C949D000C949D00AC
:100060000C949D000C949D000C949D000C949D009C
:100070000C949D000C949D000C949D000C949D008C
:100080000C949D000C949D000C949D000C949D007C
:100090000C949D000C949D000C949D000C949D006C
:1000A0000C949D000C949D000C9471050C949D0083
:1000B0000C949D000C949D000C949D000C949D004C
:1000C0000C949D000C949D000C949D000C949D003C
:1000D0000C949D000C949D000C949D000C949D002C
:1000E0000C949D000C9422010C9446010C94F00099
:1000F0000C94FF000C94340111241FBECFEFD1E209
:10010000DEBFCDBF00E00CBF12E0A0E0B2E0E0EC4B
:10011000F4E100E00BBF02C007900D92A634B107D6
:10012000D9F724E1A6E4B2E001C01D92A03AB207DB
:10013000E1F70E943B070C945E0A0C940000FC015E
:1001400080819181009771F0DC01A95EBE4F2D91F5
:100150003C91119731832083232B11F41382128257
:100160001D921C920895CF93DF93DC012D913C9159
:1001700011972115310589F1F901E95EFE4F4081A2
:1001800051812617370761F411965C934E931182C3
:1001900010821AC0FA01E95EFE4F9A014081518136
:1001A0004115510571F046175707A1F7FB01E95EAC
:1001B000FE4F80819181295E3E4FE90199838883BA
:1001C000E6CF6115710591F38D919C911197892B63
:1001D00021F413961C921E921297DF91CF910895ED
:1001E000CF93C82F8A3019F48DE00E94F0008091DF
:1001F000C00085FFFCCFC093C600CF9108958091C9
:10020000C00087FFFCCF8091C6000895CF93DF9395
:10021000FC01C081D181209759F0FE01EC5FFE4FB7
:10022000208131812130310539F4BE010E94B300B3
:10023000CE01DF91CF910895C95EDE4F0990D8813C
:10024000C02DE9CFC1E0C5B9F8948DE192E00E94DC
:100250008D0778942FEF83EC99E0215080409040F7
:10026000E1F700C00000EFCFC2E0C5B9F89484E226
:1002700092E00E948D0778942FEF83EC99E0215053
:1002800080409040E1F700C00000EFCF809148022D
:1002900090914902892B69F0F894E0914C02F09119
:1002A0004D02E85FFE4F83E090E0918380830C94E1
:1002B00007060895FC0180819181892B51F4718397
:1002C000608373836283695E7E4FFB0111821082BB
:1002D0000895A281B381A95EBE4F6D937C93738311
:1002E000628308951092C50087E68093C400E0EC15
:1002F000F0E080818D7F808386E08093C20088E17A
:100300008093C1000895E0914C02F0914D02E55EAA
:10031000FE4F808191810895E0914C02F0914D0251
:10032000808191810895E6E6F2E030E020E04081AE
:1003300051814817590761F443E251E0249FC001FD
:10034000259F900D349F900D11248A599D4F08953B
:100350002F5F3F4FED5DFE4F2031310541F790E0BB
:1003600080E00895182F092FF894CBE2D2E00F9384
:100370001F93DF93CF930E9479070F900F900F90F8
:100380000F90F5CFBC01FC01E75EFE4F80819181AB
:100390008230910561F08330910529F0019751F485
:1003A0008AE592E002C082E692E00C945A018EE562
:1003B00092E0FBCF82E090E00E94B2010F931F9386
:1003C000CF93DF9382E692E00E94060190934D0264
:1003D00080934C02892BE1F520915E0230915F02FF
:1003E0000091460210914702D0E0C0E0F0E0E0E06A
:1003F0002115310539F4E230F105E8F081E090E0B3
:100400000E94B201D901AF5DBE4F8D919C911197B1
:10041000A801481B590BCA0112976D917C910E944B
:100420006507892B11F43196E901295E3E4FD90108
:100430002D913C91DDCF319701F18AE592E00E9448
:10044000060190934D0280934C02892B09F4BACF98
:10045000E0914C02F0914D02828193819093971428
:1004600080939614EC5FFE4F82E090E0918380834E
:10047000DF91CF911F910F910895D0934D02C093BA
:100480004C02CD2BD1F2E4CFF8941092A000E1EA17
:10049000F0E0108280818860808380818460808326
:1004A00081E792E09093A9008093A800E2E7F0E052
:1004B0008081826080831092A5001092A4007894BD
:1004C0000895FC01349620E031E0DF01A9011D927E
:1004D00041505040E1F7E150FF4F26E431E02083E6
:1004E00031973083319710823197608331977083D1
:1004F000319710829C0125523F4FDC0113963C93AB
:100500002E931297389660837183329611821082EF
:1005100032960190F081E02D1182108213821282B6
:10052000FC01E45FFE4F0190F081E02D118210820A
:1005300013821282FC01E25FFE4F1182108232961A
:100540001182108232961182108232961082319678
:100550001182108220914E0230914F022F5F3F4F47
:1005600030934F0220934E0232961182108273977D
:1005700021E030E0318320830C94C201EF92FF929E
:100580000F931F93CF93DF9310924F0210924E025E
:10059000109249021092480210924B0210924A02A5
:1005A000109263021092620210926502109264022D
:1005B00010925F0210925E0210926102109260022D
:1005C00010925B0210925A0210925D0210925C022D
:1005D000109257021092560210925902109258022D
:1005E000C6E6D2E010E000E083E2E82EFF24F394B8
:1005F000BE01FE01C70111920197E9F7FE01EC5F10
:10060000FE4F118210820F5F1F4F19830883CD5D4B
:10061000DE4F7396D183C08386E592E00E945A0133
:100620000031110529F7DF91CF911F910F91FF90B4
:10063000EF900895CF93DF93809148029091490203
:10064000892B09F04FC080914E0290914F02892B67
:1006500009F448C0F89481E090E0909349028093B7
:1006600048020E94DE01C1E0D0E0E0914C02F0912E
:100670004D02DF01A85FBE4F11961C921E9282812F
:10068000938190939714809396140E94B205809161
:100690004C0290914D022091961430919714FC01D8
:1006A00033832283E85FFE4F2081318134972230EB
:1006B000310529F02330310571F0232B79F42081A5
:1006C00031812230310511F0D183C0830E94C201F3
:1006D0000E94DE01CACF11821082FACF83E090E03F
:1006E0000E94B201DF91CF910895EF92FF920F9394
:1006F0001F93CF93DF938C017B0180914E029091E9
:100700004F02409721F18091560290915702892B18
:10071000F1F0F89486E592E00E949F00EC01FC0164
:10072000E75EFE4F83E090E0918380833296F18212
:10073000E082B801CE010E9461027894888199819B
:10074000DF91CF911F910F91FF90EF90089590E06E
:1007500080E0F6CFEF92FF920F931F93CF93DF933A
:100760008C017B0180914E0290914F02409721F1C4
:100770008091560290915702892BF1F0F89486E50A
:1007800092E00E949F00EC01FC01E75EFE4F81E0D9
:1007900090E0918380833296F182E082B801CE01AD
:1007A0000E946102789488819981DF91CF911F9195
:1007B0000F91FF90EF90089590E080E0F6CF8F9238
:1007C0009F92AF92BF92CF92DF92EF92FF920F93E0
:1007D0001F93CF93DF93EC015B017A016901809154
:1007E0004E0290914F024097A1F180915602909154
:1007F0005702892B71F1F89486E592E00E949F00E0
:100800004C01FC01E75EFE4F82E090E09183808323
:100810003296B182A0823296D182C0823296F18223
:10082000E082329611830083BE01C4010E946102FE
:100830007894F40180819181DF91CF911F910F9184
:10084000FF90EF90DF90CF90BF90AF909F908F90F0
:10085000089590E080E0F0CF8091480290914902A5
:10086000892B69F0F894E0914C02F0914D02E85F19
:10087000FE4F82E090E0918380830C9407060895F8
:10088000EF92FF921F93CF93DF93162F7A010E946E
:100890009301EC01009709F448C060914C027091FB
:1008A0004D02DC01AC5FBE4F8D919C911197AB0165
:1008B0004C5F5E4F049769F5FB0120813181CE01C9
:1008C000825F9E4FFC0131832083F70120813181BB
:1008D0000296FC01318320830496FC01108385E09D
:1008E00090E0FA019183808381E090E08D939C9366
:1008F000FE01E45FFE4F808191810E945A01CE018A
:100900000E94C201DF91CF911F91FF90EF900C9454
:100910002C0483E090E0FA0191838083C65FDE4F70
:10092000888199810E945A01EDCFDF91CF911F916B
:10093000FF90EF900895FF920F931F93CF93DF9353
:10094000EC01162F688179816115710531F4DF9111
:10095000CF911F910F91FF900895FB01E95EFE4F2B
:10096000F080018133978081812319F4CE010E94A8
:10097000B3006F2D702FE8CF0F931F93CF93DF93AA
:10098000682FC0914C02D0914D028E01065F1E4F20
:10099000F801808191810E949B04F80180819181FE
:1009A0000E949F008C010097A9F4CC5FDE4F84E089
:1009B00090E0998388830E94DE01E0914C02F091DF
:1009C0004D02E25FFE4F80819181DF91CF911F91B7
:1009D0000F910895FC01EC5FFE4F85E090E091835C
:1009E0008083FE01E45FFE4F80819181B8010E9407
:1009F0005A01F80180819181FE01E25FFE4F9183EF
:100A00008083F801E05FFE4F20813181FE01E05FCD
:100A1000FE4F31832083F801EC5EFE4F2081CC5ED7
:100A2000DE4F2883D2CF0F931F93CF93DF938B0199
:100A30000E949301EC01892B61F0E0914C02F0914E
:100A40004D02E45FFE4FA081B1818D919C91009792
:100A500029F4DF91CF911F910F910895C817D907FD
:100A600021F0895E9E4FDC01F0CF80819181BE0133
:100A70000E94B300FE01EE5EFE4F11830083CC5F47
:100A8000DE4F81E090E099838883E3CFEF92FF927D
:100A90001F93CF93DF93EC01162F7A010E949301ED
:100AA000009791F0FC01EC5FFE4F208131812430F2
:100AB000310581F43A96D183C0833296F182E08287
:100AC0008C5E9E4FFC011083DF91CF911F91FF90B0
:100AD000EF900895DF91CF911F91FF90EF900C94CC
:100AE000DE011F920F920FB60F9211240BB60F92D8
:100AF0002F933F934F935F936F937F938F939F9326
:100B0000AF93BF93EF93FF9380914602909147027A
:100B100001969093470280934602809148029091FB
:100B20004902892B61F0E0914C02F0914D02E85F9F
:100B3000FE4F82E090E0918380830E940706FF9140
:100B4000EF91BF91AF919F918F917F916F915F9145
:100B50004F913F912F910F900BBE0F900FBE0F90B2
:100B60001F9018950F921F922F923F924F925F9273
:100B70006F927F928F929F92AF92BF92CF92DF92AD
:100B8000EF92FF920F931F932F933F934F935F9397
:100B90006F937F938F939F93AF93BF93CF93DF9385
:100BA000EF93FF930FB70F930CB70F93EDB7FEB70B
:100BB000E0939814F0939914E0919614F09197149F
:100BC000EDBFFEBF0F910CBF0F910FBFFF91EF91D3
:100BD000DF91CF91BF91AF919F918F917F916F9155
:100BE0005F914F913F912F911F910F91FF90EF9047
:100BF000DF90CF90BF90AF909F908F907F906F903D
:100C00005F904F903F902F901F900F9018950F92EC
:100C10001F922F923F924F925F926F927F928F928C
:100C20009F92AF92BF92CF92DF92EF92FF920F937B
:100C30001F932F933F934F935F936F937F938F9364
:100C40009F93AF93BF93CF93DF93EF93FF930FB730
:100C50000F930CB70F93EDB7FEB7E0939614F09394
:100C60009714E0919814F0919914EDBFFEBF0F9185
:100C70000CBF0F910FBFFF91EF91DF91CF91BF910B
:100C8000AF919F918F917F916F915F914F913F9124
:100C90002F911F910F91FF90EF90DF90CF90BF9019
:100CA000AF909F908F907F906F905F904F903F900C
:100CB0002F901F900F900895909102019F7E909326
:100CC000020187FF05C0909102019061909302019B
:100CD00090910201977F9093020186FF05C0909149
:100CE0000201986090930201739885FD739AA5980C
:100CF00084FDA59A8091020180648093020185E0C1
:100D00008A95F1F70000809102018F7B80930201A8
:100D10000895CF93C82F809102018F7D80930201A7
:100D20008C2F0E945C068C2F8295807F0E945C062F
:100D300087EC90E00197F1F700C00000C43030F07C
:100D4000C03810F0C0931C02CF9108958FE39FE14B
:100D50000197F1F700C00000C0E8F4CFCF93C82F8F
:100D6000809102018062809302018C2F0E945C06B8
:100D70008C2F8295807F0E945C0687EC90E0019723
:100D8000F1F700C0000080911C028F5F80931C026D
:100D9000803931F0803D31F480E8CF910C948906A0
:100DA00080ECFBCFCF910895CF93DF93EC01899135
:100DB000811103C0DF91CF9108950E94AE06F7CF55
:100DC000CF93C82FC15010F4CF91089580E20E94B4
:100DD000AE06F8CF9D9A6B9AE1E0F1E080818860E1
:100DE0008083808180618083808180628083808134
:100DF00080648083E2E0F1E080818F7B808380816A
:100E00008F7D80838FE59AEE0197F1F700C0000097
:100E100080E30E945C068FE090E40197F1F700C048
:100E2000000080E30E945C068FE891E00197F1F7F3
:100E300000C0000080E30E945C0687EC90E0019710
:100E4000F1F700C0000080E20E945C0687EC90E0B1
:100E50000197F1F700C0000088E20E94890688E04F
:100E60000E94890681E00E94890686E00E94890628
:100E70008CE00C948906F89483E884B90E94EA0611
:100E800080E80E9489060E9444020E94BE020E94DD
:100E90007201EAE9F4E18EE092E09383828380E0DC
:100EA00092E09183808361E070E082E291E00E94B1
:100EB000750361E070E084E391E00E94750378942B
:100EC0000E941A038FEF9FEF0895AA1BBB1B51E1ED
:100ED00007C0AA1FBB1FA617B70710F0A61BB70BAA
:100EE000881F991F5A95A9F780959095BC01CD014F
:100EF0000895CF93DF93CDB7DEB7AE014A5F5F4F62
:100F0000FA0161917191AF0180919C1490919D14AF
:100F10000E94B807DF91CF9108950F931F93CF934D
:100F2000DF93E0919C14F0919D142381EC0110E07B
:100F300000E021FD08C00FEF1FEF14C01995892BA9
:100F400011F00FEF1FEF899160919C1470919D1427
:100F5000DB011896ED91FC918111F0CF8AE0199593
:100F6000892B49F7C801DF91CF911F910F91089507
:100F70002F923F924F925F926F927F928F929F92A9
:100F8000AF92BF92CF92DF92EF92FF920F931F9397
:100F9000CF93DF9300D000D000D01F921F92CDB727
:100FA000DEB77C013B018A01FC0117821682838136
:100FB00081FFDDC1CE0101965C01F7019381F30150
:100FC00093FD859193FF81913F01882309F453C1DB
:100FD000853239F493FD859193FF81913F018532EC
:100FE00029F4B70190E00E94D009E7CF912C212C81
:100FF000312CFFE1F31538F08B3211F190F480328F
:1010000009F1833229F137FC3CC020ED280F2A304A
:1010100050F536FE20C08AE0989E200D1124922EB5
:1010200006C08D3291F0803371F7689430F8F30187
:1010300093FD859193FF81913F018111DACF21C00A
:10104000689431F8689432F8F2CF689433F8EFCFAF
:10105000689434F8ECCFEAE02E9E200D1124222E65
:10106000689435F8E4CF8E3229F436FC04C16894D4
:1010700036F8DDCF8C3619F4689437F8D8CF883637
:10108000B1F2982F9F7D95549330E0F08336A1F113
:101090008337C1F1833509F063C02801F2E04F0EB8
:1010A000511CF801C080D180692D70E036FC02C06F
:1010B0006FEF7FEFC6010E94BA094C01689437F8C0
:1010C00082010AC00C5F1F4FFFE3F98388248394D9
:1010D000912C6501E89437F833FE2DC0522C811411
:1010E000910471F5552009F468CFB70180E290E0D2
:1010F0000E94D0095A94F6CFF801808189830E5F4F
:101100001F4FE4CF2801F2E04F0E511CF801C080C0
:10111000D180692D70E036FC02C06FEF7FEFC60111
:101120000E94C5094C018201D5CFB70180E290E051
:101130000E94D0092A942814190409F0B0F7CECFE0
:10114000F60137FC859137FE81916F01B70190E080
:101150000E94D00951105A94F1E08F1A9108BFCF24
:10116000843619F0893609F077C0F80137FE6BC074
:1011700060817181828193810C5F1F4FF32DFF7617
:101180003F2E97FF09C090958095709561957F4F90
:101190008F4F9F4F689437F82AE030E0A5010E94F6
:1011A000000AC82ECA188C2C432C36FE0CC0E894BA
:1011B00040F8C91440F434FE05C032FC03C0F32DDE
:1011C000FE7E4F2E892C44FEAAC0FE01EC0DF11DBF
:1011D0008081803309F09CC0242D297E422E842DED
:1011E0008870582E43FCAAC040FEA4C09C2C8214D8
:1011F00018F42C0C922C981844FEA6C0B70180E37A
:1012000090E00E94D00942FE09C088E790E041FECC
:1012100002C088E590E0B7010E94D009C91408F423
:101220009FC0CA94D12C9FEFC91AD90ACA0CDB1CE3
:10123000F60182916F01B70190E00E94D009AC14D1
:10124000BD04B1F74FCF60817181072E000C880B70
:10125000990B0E5F1F4F92CFD32CE894D4F82AE05D
:1012600030E08537E1F1232D297FD22E8F36A9F189
:10127000F0F4883551F1F701868197812B960FB6EE
:10128000F894DEBF0FBECDBFDF91CF911F910F91BC
:10129000FF90EF90DF90CF90BF90AF909F908F9096
:1012A0007F906F905F904F903F902F900895803780
:1012B00049F0883701F7D4FE02C06894D2F820E1E3
:1012C00030E00DC06894D4F8F6CF34FE03C0822F0E
:1012D0008660D82E20E132E002C028E030E0F8013C
:1012E000D7FE0FC060817181828193810C5F1F4F97
:1012F000A5010E94000AC82ECA183D2CE89437F8B0
:1013000052CF6081718190E080E00E5F1F4FF0CF7F
:1013100042FC02C0839463CF8394839460CF842D76
:10132000867809F45CCFF6CFB70180E290E00E94A6
:10133000D00983948214C0F3512C5ECF522C5818DC
:10134000821408F459CFF8CF842D867809F466CF3B
:101350008BE241FE80E247FC8DE2B70190E05CCF7A
:10136000B70180E390E00E94D0099A9457CF8FEFA5
:101370009FEF84CFFC010590615070400110D8F7B9
:10138000809590958E0F9F1F0895FC0161507040CD
:1013900001900110D8F7809590958E0F9F1F0895AA
:1013A0000F931F93CF93DF93182F092FEB018B819E
:1013B00081FD09C01FEF0FEF812F902FDF91CF919B
:1013C0001F910F91089582FF14C02E813F818C815F
:1013D0009D81281739073CF4E881F981CF010196F6
:1013E0009983888310838E819F8101969F838E834A
:1013F000E3CFE885F985812F1995892BA1F3DACF01
:10140000FA01AA27283051F1203181F1E8946F9335
:101410006E7F6E5F7F4F8F4F9F4FAF4FB1E03ED0DB
:10142000B4E03CD0670F781F891F9A1FA11D680F79
:10143000791F8A1F911DA11D6A0F711D811D911DAC
:10144000A11D20D009F468943F912AE0269F112421
:101450003019305D3193DEF6CF010895462F477085
:10146000405D4193B3E00FD0C9F7F6CF462F4F70E0
:10147000405D4A3318F0495D31FD4052419302D03E
:10148000A9F7EACFB4E0A6959795879577956795E4
:10149000BA95C9F700976105710508959B01AC01E4
:1014A0000A2E06945795479537952795BA95C9F70B
:1014B000620F731F841F951FA01D0895F894FFCF1E
:1014C00000000001000000000000FF00000000001C
:1014D000000200000000F000000000008074617352
:1014E0006B5F31007461736B5F32004572726F72B3
:1014F0002077697468206572726F7220636F64650B
:061500003A2025640A00F8
:00000001FF
