:100000000C947C000C949D000C949D000C949D001D
:100010000C949D000C949D000C949D000C949D00EC
:100020000C949D000C949D000C949D000C949D00DC
:100030000C949D000C949D000C949D000C949D00CC
:100040000C949D000C949D000C949D000C949D00BC
:100050000C949D000C949D000C949D000C949D00AC
:100060000C949D000C949D000C949D000C949D009C
:100070000C949D000C949D000C949D000C949D008C
:100080000C949D000C949D000C949D000C949D007C
:100090000C949D000C949D000C949D000C949D006C
:1000A0000C949D000C949D000C94CA070C949D0028
:1000B0000C949D000C949D000C949D000C949D004C
:1000C0000C949D000C949D000C949D000C949D003C
:1000D0000C949D000C949D000C949D000C949D002C
:1000E0000C949D000C9422010C9424010C94F000BB
:1000F0000C9423010C94FF0011241FBECFEFD1E21A
:10010000DEBFCDBF00E00CBF14E0A0E0B2E0EAEC3F
:10011000F9E100E00BBF02C007900D92A838B107CB
:10012000D9F726E1A8E8B4E001C01D92AE3DB207C0
:10013000E1F70E94B0090C94E30C0C940000FC0160
:1001400080819181009771F0DC01A95EBE4F2D91F5
:100150003C91119731832083232B11F41382128257
:100160001D921C920895CF93DF93DC012D913C9159
:1001700011972115310589F1F901E95EFE4F4081A2
:1001800051812617370761F411965C934E931182C3
:1001900010821AC0FA01E95EFE4F9A014081518136
:1001A0004115510571F046175707A1F7FB01E95EAC
:1001B000FE4F80819181295E3E4FE90199838883BA
:1001C000E6CF6115710591F38D919C911197892B63
:1001D00021F413961C921E921297DF91CF910895ED
:1001E000CF93C82F8A3019F48DE00E94F0008091DF
:1001F000C00085FFFCCFC093C600CF9108958091C9
:10020000C00087FFFCCF8091C6000895CF93DF9395
:10021000FC01C081D181209759F0FE01EC5FFE4FB7
:10022000208131812130310539F4BE010E94B300B3
:10023000CE01DF91CF910895C95EDE4F0990D8813C
:10024000C02DE9CFFFCFFFCF80918C0490918D041A
:10025000892B69F0F894E0919004F0919104E85FA3
:10026000FE4F83E090E0918380830C947C08089596
:10027000FC0180819181892B51F4718360837383A8
:100280006283695E7E4FFB01118210820895A28114
:10029000B381A95EBE4F6D937C937383628308958F
:1002A0001092C50087E68093C400E0ECF0E0808106
:1002B0008D7F808386E08093C20088E18093C100B7
:1002C0000895E0919004F0919104E55EFE4F8081E5
:1002D00091810895E0919004F09191048081918141
:1002E0000895E4EAF4E030E020E0408151814817CD
:1002F000590761F443E251E0249FC001259F900D0E
:10030000349F900D11248C559B4F08952F5F3F4FC4
:10031000ED5DFE4F2031310541F790E080E008951A
:10032000F8949F938F938DE192E09F938F930E9417
:10033000FE090F900F900F900F90FFCF0F931F9318
:10034000CF93DF93EC0128813981C9010197409750
:1003500020F085E090E00E94900181E090E0FE01B5
:10036000EC5FFE4F91838083809188049091890493
:10037000019690938904809388048E01075E1E4F36
:10038000F80141814F9340814F933F932F939F9367
:100390008F9388E392E09F938F930E94FE098DB71D
:1003A0009EB708960FB6F8949EBF0FBE8DBFF8019A
:1003B0002081318180918804909189042230310517
:1003C00009F4A0C02330310509F442C021303105C1
:1003D00009F0F4C0019690938904809388042091D9
:1003E00098043091990450E040E02115310509F05E
:1003F000D5C05F934F939F938F938AE093E09F9331
:100400008F930E94FE09BE0188E994E00E943801A2
:100410008091880490918904019690938904809337
:10042000880420919804309199040F900F900F90B8
:100430000F900F900F9050E040E02115310509F02A
:10044000B5C05F934F939F938F9382E393E03BC03C
:10045000019690938904809388042091A0043091A0
:10046000A10450E040E021153105E1F55F934F9381
:100470009F938F938CE592E09F938F930E94FE0948
:10048000BE0180EA94E00E94380180918804909136
:100490008904019690938904809388042091A00494
:1004A0003091A1040F900F900F900F900F900F902C
:1004B00050E040E021153105E9F45F934F939F939D
:1004C0008F9388E892E09F938F930E94FE090F908C
:1004D0000F900F900F900F900F90DF91CF911F9181
:1004E0000F9108954F5F5F4F295E3E4FF9012081C4
:1004F0003181B9CF4F5F5F4F295E3E4FF9012081B7
:100500003181D8CF019690938904809388042091FB
:100510009C0430919D0450E040E02115310571F5B7
:100520005F934F939F938F9383EB92E09F938F936F
:100530000E94FE09BE018CE994E00E94380180917E
:10054000880490918904019690938904809388048B
:1005500020919C0430919D040F900F900F900F906C
:100560000F900F9050E040E02115310579F45F9332
:100570004F939F938F938FED92E0A5CF4F5F5F4F87
:10058000295E3E4FF90120813181C7CF4F5F5F4F18
:10059000295E3E4FF90120813181E6CF4F5F5F4FE9
:1005A000295E3E4FF901208131811FCF4F5F5F4FA0
:1005B000295E3E4FF901208131813FCF82E090E0FA
:1005C000CACE5F926F927F928F929F92AF92BF92AC
:1005D000CF92DF92EF92FF920F931F93CF93DF930F
:1005E00083E7682E83E0782E80EA94E00E9406017B
:1005F00090939104809390040097E9F120918804EE
:10060000309189042F5F3F4F3093890420938804F1
:10061000DC018D919C919F938F933F932F9389E55C
:1006200093E09F938F930E94FE090F900F900F907D
:100630000F900F900F90E0919004F09191048281BF
:1006400093819093D5168093D416EC5FFE4F82E091
:1006500090E091838083DF91CF911F910F91FF9064
:10066000EF90DF90CF90BF90AF909F908F907F9052
:100670006F905F900895C0919C04D0919D0410E00C
:1006800000E0F12CE12C209749F422E0E216F1047D
:1006900008F45AC081E090E00E9490012091880403
:1006A000309189042F5F3F4F309389042093880451
:1006B000E0918A04F0918B045E01BFEDAB1ABEEFAE
:1006C000BB0AD5018D909C906E01B1EECB1ABEEFA6
:1006D000DB0AD6014C9111965C90CF0188199909DB
:1006E000642F752D0E94EA099F938F935F924F9319
:1006F0009F928F92FF93EF933F932F937F926F92EE
:100700000E94FE0980918A0490918B04F50120815A
:100710003181821B930BD6016D917C910E94EA0975
:10072000EDB7FEB73C960FB6F894FEBF0FBEEDBF17
:10073000892B21F4FFEFEF1AFF0A8E01C95EDE4F0D
:100740000990D881C02D9FCFEA94EF28F9F088E96D
:1007500094E00E9406019093910480939004009786
:1007600009F442CF20918804309189042F5F3F4FD4
:100770003093890420938804FC01808191819F93A8
:100780008F933F932F938FEB93E04BCFB8018CE97E
:1007900094E00E94B300109391040093900401151B
:1007A0001105A9F280918804909189040196909393
:1007B000890480938804D8012D913C913F932F9315
:1007C0009F938F9383EA93E02CCFF8941092A0002C
:1007D000E1EAF0E01082808188608083808184601B
:1007E000808381E792E09093A9008093A800E2E7DC
:1007F000F0E08081826080831092A5001092A400B6
:1008000078940895FC01349620E031E0DF01A901DD
:100810001D9241505040E1F7E150FF4F24E231E09A
:1008200020833197308331971082319760833197DD
:100830007083319710829C0125523F4FDC01139643
:100840003C932E931297389660837183329611826F
:10085000108232960190F081E02D11821082138275
:100860001282FC01E45FFE4F0190F081E02D1182C5
:10087000108213821282FC01E25FFE4F118210820D
:100880003296118210823296118210823296108234
:1008900031961182108220919204309193042F5F3F
:1008A0003F4F30939304209392043296118210822A
:1008B000739721E030E0318320830C949E01EF9206
:1008C000FF920F931F93CF93DF9310929304109294
:1008D000920410928D0410928C0410928F04109246
:1008E0008E04E0919004F091910481E190E0918375
:1008F00080831092A1041092A0041092A30410927D
:10090000A20410929D0410929C0410929F041092D5
:100910009E04109299041092980410929B041092D5
:100920009A041092950410929404109297041092D5
:100930009604C4EAD4E010E000E083E2E82EFF244D
:10094000F394BE01FE01C70111920197E9F7FE0180
:10095000EC5FFE4F118210820F5F1F4F19830883D7
:10096000CD5DDE4F7396D183C08384E994E00E940D
:1009700038010031110529F7DF91CF911F910F91B7
:10098000FF90EF900895EF92FF920F931F93CF93F4
:10099000DF9380918C0490918D04892B09F099C08C
:1009A0008091920490919304892B09F492C0F89459
:1009B00085ED93E00E94120A81E090E090938D040F
:1009C00080938C040E94E102C1EED3E000E114E0C8
:1009D0008CE1E82E84E0F82EE0919004F0919104EF
:1009E000DF01A85FBE4F11961C921E9282819381F7
:1009F0009093D5168093D4160E942708809188047E
:100A00009091890401969093890480938804E091E1
:100A10009004F091910442815381208131815F9350
:100A20004F933F932F939F938F93DF93CF930E9486
:100A3000FE09E0919004F09191048091D416909178
:100A4000D51693838283DF01A85FBE4F8D919C9161
:100A50002DB73EB7285F3F4F0FB6F8943EBF0FBE8D
:100A60002DBF8230910529F08330910539F1892B12
:100A700061F5808191819F938F931F930F930E94C3
:100A8000FE0980919004909191040E949E01E09152
:100A90009004F0919104808191819F938F93FF92B4
:100AA000EF920E94FE090E94E1028DB79EB7089660
:100AB0000FB6F8949EBF0FBE8DBF8ECFEC5FFE4F7A
:100AC000118210820E94E10287CF83E090E00E94B1
:100AD0009001DF91CF911F910F91FF90EF900895BA
:100AE000EF92FF920F931F93CF93DF938C017B01C3
:100AF0008091920490919304409781F180919404A5
:100B000090919504892B51F180918C0490918D04E2
:100B1000892B09F0F89484E994E00E949F00EC018D
:100B2000FC01E75EFE4F83E090E091838083329684
:100B3000F182E082B801CE010E94020480918C040F
:100B400090918D04892B09F0789488819981DF91A7
:100B5000CF911F910F91FF90EF90089590E080E06A
:100B6000F6CFEF92FF920F931F93CF93DF938C01F9
:100B70007B018091920490919304409781F1809140
:100B8000940490919504892B51F180918C0490915B
:100B90008D04892B09F0F89484E994E00E949F0069
:100BA000EC01FC01E75EFE4F81E090E091838083E1
:100BB0003296F182E082B801CE010E940204809157
:100BC0008C0490918D04892B09F078948881998107
:100BD000DF91CF911F910F91FF90EF90089590E0DA
:100BE00080E0F6CF8F929F92AF92BF92CF92DF922A
:100BF000EF92FF920F931F93CF93DF93EC015B0172
:100C00007A0169018091920490919304409709F4CC
:100C100040C08091940490919504892BD1F18091EA
:100C20008C0490918D04892B09F0F89484E994E068
:100C30000E949F004C01FC01E75EFE4F82E090E0C5
:100C4000918380833296B182A0823296D182C08213
:100C50003296F182E082329611830083BE01C40194
:100C60000E94020480918C0490918D04892B09F0DC
:100C70007894F40180819181DF91CF911F910F9140
:100C8000FF90EF90DF90CF90BF90AF909F908F90AC
:100C9000089590E080E0F0CF80918C0490918D04D5
:100CA000892B69F0F894E0919004F0919104E85F49
:100CB000FE4F82E090E0918380830C947C0808953D
:100CC000EF92FF921F93CF93DF93162F7A010E942A
:100CD0007101EC01009709F481C06091900470915A
:100CE0009104FC01EC5FFE4F80819181049771F5C6
:100CF000DB018D919C91DE01A25FBE4F8D939C9391
:100D0000D7018D919C91DE01A05FBE4F11969C93FF
:100D10008E9314961C93DB01AC5FBE4F85E090E090
:100D200011969C938E9381E090E091838083389616
:100D3000808191810E943801CE010E949E01DF9145
:100D4000CF911F91FF90EF900C944C06FB01808196
:100D500091819F938F9387E294E09F938F930E945A
:100D6000FE098091900490919104FC01EC5FFE4F8C
:100D700023E030E0318320839F938F938CE394E0D2
:100D80009F938F930E94FE0960919004709191044B
:100D9000C65FDE4F888199810E94380188819981E0
:100DA0000E949F00EC018DB79EB708960FB6F8948D
:100DB0009EBF0FBE8DBF209721F480E594E00E9476
:100DC000120ADF93CF938BE594E09F938F930E9459
:100DD000FE090F900F900F900F90B1CFDF91CF9140
:100DE0001F91FF90EF900895FF920F931F93CF9361
:100DF000DF93EC01162F688179816115710531F45B
:100E0000DF91CF911F910F91FF900895FB01E95E53
:100E1000FE4FF080018133978081812319F4CE0148
:100E20000E94B3006F2D702FE8CF0F931F93CF93C5
:100E3000DF93682FC0919004D09191048E01065FDA
:100E40001E4FF801808191810E94F406F801808193
:100E500091810E949F008C010097A9F4CC5FDE4F26
:100E600084E090E0998388830E94E102E0919004FD
:100E7000F0919104E25FFE4F80819181DF91CF91EB
:100E80001F910F910895FC01EC5FFE4F85E090E00B
:100E900091838083FE01E45FFE4F80819181B801E0
:100EA0000E943801F80180819181FE01E25FFE4FCE
:100EB00091838083F801E05FFE4F20813181FE0144
:100EC000E05FFE4F31832083F801EC5EFE4F20810E
:100ED000CC5EDE4F2883D2CF0F931F93CF93DF9347
:100EE0008B010E947101EC01892B61F0E09190046B
:100EF000F0919104E45FFE4FA081B1818D919C91AE
:100F0000009729F4DF91CF911F910F910895C81791
:100F1000D90721F0895E9E4FDC01F0CF808191815D
:100F2000BE010E94B300FE01EE5EFE4F11830083FE
:100F3000CC5FDE4F81E090E099838883E3CFEF922E
:100F4000FF921F93CF93DF93EC01162F7A010E943B
:100F50007101009791F0FC01EC5FFE4F208131811F
:100F60002430310581F43A96D183C0833296F182E0
:100F7000E0828C5E9E4FFC011083DF91CF911F9128
:100F8000FF90EF900895DF91CF911F91FF90EF9028
:100F90000C94E1021F920F920FB60F9211240BB620
:100FA0000F922F933F934F935F936F937F938F9302
:100FB0009F93AF93BF93EF93FF9380918A04909197
:100FC0008B04019690938B0480938A04E0919004A3
:100FD000F0919104828193812281338101969F93C4
:100FE0008F933F932F938EE694E09F938F930E946D
:100FF000FE0980918C0490918D040F900F900F90BA
:101000000F900F900F90892B79F080919004909120
:101010009104FC01E85FFE4F22E030E03183208341
:101020000E949E010E94E102FF91EF91BF91AF915A
:101030009F918F917F916F915F914F913F912F91F0
:101040000F900BBE0F900FBE0F901F9018950F9230
:101050001F922F923F924F925F926F927F928F9248
:101060009F92AF92BF92CF92DF92EF92FF920F9337
:101070001F932F933F934F935F936F937F938F9320
:101080009F93AF93BF93CF93DF93EF93FF930FB7EC
:101090000F930CB70F93EDB7FEB7E093D616F0930E
:1010A000D716E091D416F091D516EDBFFEBF0F9183
:1010B0000CBF0F910FBFFF91EF91DF91CF91BF91C7
:1010C000AF919F918F917F916F915F914F913F91E0
:1010D0002F911F910F91FF90EF90DF90CF90BF90D5
:1010E000AF909F908F907F906F905F904F903F90C8
:1010F0002F901F900F9018950F921F922F923F9252
:101100004F925F926F927F928F929F92AF92BF9217
:10111000CF92DF92EF92FF920F931F932F933F9303
:101120004F935F936F937F938F939F93AF93BF93EF
:10113000CF93DF93EF93FF930FB70F930CB70F93FA
:10114000EDB7FEB7E093D416F093D516E091D6161E
:10115000F091D716EDBFFEBF0F910CBF0F910FBFDF
:10116000FF91EF91DF91CF91BF91AF919F918F91BF
:101170007F916F915F914F913F912F911F910F91AF
:10118000FF90EF90DF90CF90BF90AF909F908F90A7
:101190007F906F905F904F903F902F901F900F9097
:1011A0000895909102019F7E9093020187FF05C0F0
:1011B0009091020190619093020190910201977FBA
:1011C0009093020186FF05C0909102019860909370
:1011D0000201739885FD739AA59884FDA59A809164
:1011E000020180648093020185E08A95F1F7000096
:1011F000809102018F7B809302010895CF93C82FC5
:10120000809102018F7D809302018C2F0E94D10872
:101210008C2F8295807F0E94D10887EC90E0019707
:10122000F1F700C00000C43030F0C03810F0C093B7
:101230001C02CF9108958FE39FE10197F1F700C061
:101240000000C0E8F4CFCF93C82F809102018062E4
:10125000809302018C2F0E94D1088C2F8295807F71
:101260000E94D10887EC90E00197F1F700C00000E0
:1012700080911C028F5F80931C02803931F0803D89
:1012800031F480E8CF910C94FE0880ECFBCFCF9135
:101290000895CF93DF93EC018991811103C0DF9111
:1012A000CF9108950E942309F7CFCF93C82FC15043
:1012B00010F4CF91089580E20E942309F8CF9D9AFF
:1012C0006B9AE1E0F1E080818860808380818061B9
:1012D0008083808180628083808180648083E2E07B
:1012E000F1E080818F7B808380818F7D80838FE59B
:1012F0009AEE0197F1F700C0000080E30E94D10848
:101300008FE090E40197F1F700C0000080E30E94B5
:10131000D1088FE891E00197F1F700C0000080E369
:101320000E94D10887EC90E00197F1F700C000001F
:1013300080E20E94D10887EC90E00197F1F700C0AD
:10134000000088E20E94FE0888E00E94FE0881E01A
:101350000E94FE0886E00E94FE088CE00C94FE08C5
:101360000F931F93F89483E884B90E945F0980E883
:101370000E94FE080E945F040E945001E8EDF6E121
:101380008EE092E09383828380E092E09183808379
:1013900061E070E082E291E00E94B10561E070E0FE
:1013A00083E291E00E94B10510E000E021E030E02E
:1013B00044E050E061E070E082E291E00E94F205DA
:1013C0000E94E50378940E94C3048FEF9FEF1F9162
:1013D0000F910895AA1BBB1B51E107C0AA1FBB1F99
:1013E000A617B70710F0A61BB70B881F991F5A95B1
:1013F000A9F780959095BC01CD010895CF93DF9317
:10140000CDB7DEB7AE014A5F5F4FFA0161917191CE
:10141000AF018091DA169091DB160E943D0ADF91B0
:10142000CF9108950F931F93CF93DF93E091DA1636
:10143000F091DB162381EC0110E000E021FD08C0F3
:101440000FEF1FEF14C01995892B11F00FEF1FEF4D
:1014500089916091DA167091DB16DB011896ED9197
:10146000FC918111F0CF8AE01995892B49F7C801C9
:10147000DF91CF911F910F9108952F923F924F923C
:101480005F926F927F928F929F92AF92BF92CF9214
:10149000DF92EF92FF920F931F93CF93DF9300D0D1
:1014A00000D000D01F921F92CDB7DEB77C013B0168
:1014B0008A01FC0117821682838181FFDDC1CE0182
:1014C00001965C01F7019381F30193FD859193FFF0
:1014D00081913F01882309F453C1853239F493FD8A
:1014E000859193FF81913F01853229F4B70190E006
:1014F0000E94550CE7CF912C212C312CFFE1F315E4
:1015000038F08B3211F190F4803209F1833229F1F5
:1015100037FC3CC020ED280F2A3050F536FE20C0A5
:101520008AE0989E200D1124922E06C08D3291F0F3
:10153000803371F7689430F8F30193FD859193FF40
:1015400081913F018111DACF21C0689431F868940C
:1015500032F8F2CF689433F8EFCF689434F8ECCFD8
:10156000EAE02E9E200D1124222E689435F8E4CF57
:101570008E3229F436FC04C1689436F8DDCF8C36FF
:1015800019F4689437F8D8CF8836B1F2982F9F7D38
:1015900095549330E0F08336A1F18337C1F1833560
:1015A00009F063C02801F2E04F0E511CF801C08021
:1015B000D180692D70E036FC02C06FEF7FEFC6016D
:1015C0000E943F0C4C01689437F882010AC00C5FFE
:1015D0001F4FFFE3F98388248394912C6501E894DD
:1015E00037F833FE2DC0522C8114910471F555202B
:1015F00009F468CFB70180E290E00E94550C5A943C
:10160000F6CFF801808189830E5F1F4FE4CF280158
:10161000F2E04F0E511CF801C080D180692D70E0BE
:1016200036FC02C06FEF7FEFC6010E944A0C4C01EE
:101630008201D5CFB70180E290E00E94550C2A9438
:101640002814190409F0B0F7CECFF60137FC8591C4
:1016500037FE81916F01B70190E00E94550C511047
:101660005A94F1E08F1A9108BFCF843619F0893669
:1016700009F077C0F80137FE6BC06081718182810B
:1016800093810C5F1F4FF32DFF763F2E97FF09C00C
:1016900090958095709561957F4F8F4F9F4F68947F
:1016A00037F82AE030E0A5010E94850CC82ECA1840
:1016B0008C2C432C36FE0CC0E89440F8C91440F43E
:1016C00034FE05C032FC03C0F32DFE7E4F2E892C64
:1016D00044FEAAC0FE01EC0DF11D8081803309F0AB
:1016E0009CC0242D297E422E842D8870582E43FCC8
:1016F000AAC040FEA4C09C2C821418F42C0C922C7E
:10170000981844FEA6C0B70180E390E00E94550CF3
:1017100042FE09C088E790E041FE02C088E590E003
:10172000B7010E94550CC91408F49FC0CA94D12C6B
:101730009FEFC91AD90ACA0CDB1CF60182916F010E
:10174000B70190E00E94550CAC14BD04B1F74FCF27
:1017500060817181072E000C880B990B0E5F1F4F63
:1017600092CFD32CE894D4F82AE030E08537E1F129
:10177000232D297FD22E8F36A9F1F0F4883551F12F
:10178000F701868197812B960FB6F894DEBF0FBEC6
:10179000CDBFDF91CF911F910F91FF90EF90DF9020
:1017A000CF90BF90AF909F908F907F906F905F9001
:1017B0004F903F902F900895803749F0883701F778
:1017C000D4FE02C06894D2F820E130E00DC06894E5
:1017D000D4F8F6CF34FE03C0822F8660D82E20E1E5
:1017E00032E002C028E030E0F801D7FE0FC060818F
:1017F0007181828193810C5F1F4FA5010E94850C2E
:10180000C82ECA183D2CE89437F852CF60817181F8
:1018100090E080E00E5F1F4FF0CF42FC02C0839447
:1018200063CF8394839460CF842D867809F45CCF52
:10183000F6CFB70180E290E00E94550C83948214A9
:10184000C0F3512C5ECF522C5818821408F459CF93
:10185000F8CF842D867809F466CF8BE241FE80E2D2
:1018600047FC8DE2B70190E05CCFB70180E390E0E8
:101870000E94550C9A9457CF8FEF9FEF84CFFC01B5
:101880000590615070400110D8F7809590958E0FAB
:101890009F1F0895FC016150704001900110D8F71E
:1018A000809590958E0F9F1F08950F931F93CF9350
:1018B000DF93182F092FEB018B8181FD09C01FEFEA
:1018C0000FEF812F902FDF91CF911F910F910895EE
:1018D00082FF14C02E813F818C819D81281739079A
:1018E0003CF4E881F981CF010196998388831083C4
:1018F0008E819F8101969F838E83E3CFE885F98552
:10190000812F1995892BA1F3DACFFA01AA27283064
:1019100051F1203181F1E8946F936E7F6E5F7F4FBC
:101920008F4F9F4FAF4FB1E03ED0B4E03CD0670F38
:10193000781F891F9A1FA11D680F791F8A1F911D8B
:10194000A11D6A0F711D811D911DA11D20D009F4DB
:1019500068943F912AE0269F11243019305D31931D
:10196000DEF6CF010895462F4770405D4193B3E006
:101970000FD0C9F7F6CF462F4F70405D4A3318F0AD
:10198000495D31FD4052419302D0A9F7EACFB4E05E
:10199000A6959795879577956795BA95C9F7009716
:1019A0006105710508959B01AC010A2E06945795B7
:1019B000479537952795BA95C9F7620F731F841F0E
:0A19C000951FA01D0895F894FFCFB5
:1019CA0000000001000000000000FF00000000000D
:1019DA00000200000000F000000000008045727262
:1019EA006F722077697468206572726F7220636FF4
:1019FA0064653A2025640A0025642E50757474695A
:101A0A006E67206261636B20746F2072656164790E
:101A1A00513A202564203A2025640A0025642E6262
:101A2A0065666F726520616464696E672C697465A6
:101A3A006D7320696E2053797374656D20717565B5
:101A4A0075653A2025640A0025642E6166746572FC
:101A5A0020616464696E672C6974656D7320696EB0
:101A6A002053797374656D2071756575653A202503
:101A7A00640A0025642E6265666F7265206164647B
:101A8A00696E672C6974656D7320696E2050657282
:101A9A00696F642071756575653A2025640A0025A9
:101AAA00642E616674657220616464696E672C696C
:101ABA0074656D7320696E20506572696F64207158
:101ACA00756575653A2025640A0025642E62656687
:101ADA006F726520616464696E672C6974656D73E1
:101AEA0020696E2052522071756575653A20256409
:101AFA000A0025642E616674657220616464696EE9
:101B0A00672C6974656D7320696E20525220717555
:101B1A006575653A2025640A0025642E466F756E40
:101B2A00642073797374656D207461736B3A202530
:101B3A00640A0025642E7469636B3A202564206F59
:101B4A0066667365743A20256420706572696F64ED
:101B5A003A202564202020616E737765723A202529
:101B6A00640A0025642E466F756E6420706572697A
:101B7A006F646963207461736B3A2025640A0025D7
:101B8A00642E466F756E64205252207461736B3AEC
:101B9A002025640A005354415254494E47204F535A
:101BAA000025642E456E746572696E672074696DCE
:101BBA00657220696E746572727570742C20637018
:101BCA002069643A2025642073703A2025640A004B
:101BDA004245464F52453A2025640A00414654453B
:101BEA00523A2025640A0053454E44494E47204D37
:101BFA004553534147453A2025640A004245464F1A
:101C0A00524520454E51554555453A2025700A0002
:101C1A004E554C4C4C4C4C4C4C4C00414654455245
:101C2A0020444551554555453A2025700A00494EEC
:101C3A005349444520494E54455252555054205315
:081C4A00503A257025700A00D4
:00000001FF
