:100000000C9484000C94A5000C94A5000C94A500FD
:100010000C94A5000C94A5000C94A5000C94A500CC
:100020000C94A5000C94A5000C94A5000C94A500BC
:100030000C94A5000C94A5000C94A5000C94A500AC
:100040000C94A5000C94A5000C94A5000C94A5009C
:100050000C94A5000C94A5000C94A5000C94A5008C
:100060000C94A5000C94A5000C94A5000C94A5007C
:100070000C94A5000C94A5000C94A5000C94A5006C
:100080000C94A5000C94A5000C94A5000C94A5005C
:100090000C94A5000C94A5000C94A5000C94A5004C
:1000A0000C94A5000C94A5000C949B080C94A5003E
:1000B0000C94A5000C94A5000C94A5000C94A5002C
:1000C0000C94A5000C94A5000C94A5000C94A5001C
:1000D0000C94A5000C94A5000C94A5000C94A5000C
:1000E0000C94A5000C94F7080C94BD000C945E08C9
:1000F0000C94D0000C94A7000C9419090C94BE0029
:100100000C94B6000C94730711241FBECFEFD1E2FC
:10011000DEBFCDBF00E00CBF15E0A0E0B2E0EEEE28
:10012000FBE100E00BBF02C007900D92A630B107C3
:10013000D9F727E1A6E0B5E001C01D92A436B207C9
:10014000E1F70E94D30A0C94F50D0C940000CF93B4
:10015000C82F8A3019F48DE00E94A7008091C0005A
:1001600085FFFCCFC093C600CF9108958091C00059
:1001700087FFFCCF8091C6000895FFCFCDE1D2E08C
:10018000DF93CF930E940A0B9FEF27EA81E69150FD
:1001900020408040E1F700C000000F900F90F0CFAA
:1001A00080910A0590910B05892B69F0F894E091F4
:1001B0000E05F0910F05E85FFE4F83E090E091831C
:1001C00080830C949F09089580911A0590911B05D6
:1001D000009789F0FC01E95EFE4F20813181309368
:1001E0001B0520931A05232B21F410921D05109254
:1001F0001C05118210820895FC0180819181892B58
:1002000051F47183608373836283695E7E4FFB0167
:10021000118210820895A281B381A95EBE4F6D93B1
:100220007C937383628308951092C50087E6809360
:10023000C400E0ECF0E080818D7F808386E08093D5
:10024000C20088E18093C1000895E0910E05F0910D
:100250000F05E55EFE4F808191810895E0910E05C6
:10026000F0910F058081918108959C01EAE2F5E00B
:1002700090E080E0408151814217530741F00196A0
:10028000ED5DFE4F80319105A9F78FEF9FEF089547
:10029000F8949F938F9383E292E09F938F930E94B1
:1002A0000A0B0F900F900F900F90FFCF0F931F939B
:1002B000CF93DF93EC0128813981C90101974097E1
:1002C00020F085E090E00E94480180910605909121
:1002D0000705019690930705809306053F932F939A
:1002E0009F938F938EE392E09F938F930E940A0BCC
:1002F0000F900F900F900F900F900F908E010C5F4A
:100300001E4FF801808191818130910509F48AC0E6
:1003100008F48BC0029709F08BC083E692E00E943C
:10032000240BF80180819181029721F481E090E013
:100330009183808389818F9388818F938091070532
:100340008F93809106058F938EE792E09F938F9312
:100350000E940A0B0F900F900F900F900F900F902C
:10036000F801808191818130910509F464C008F41D
:1003700065C0029709F065C083E692E00E94240BF5
:10038000FE01E75EFE4F808191818230910509F484
:100390008FC08330910509F457C0019709F07BC0E5
:1003A000809106059091070501969093070580932B
:1003B000060520911E0530911F0550E040E02115F3
:1003C000310509F0C0C05F934F939F938F9382E2F2
:1003D00093E09F938F930E940A0BBE018EE195E0FC
:1003E0000E94FC008091060590910705019690936C
:1003F00007058093060520911E0530911F050F907B
:100400000F900F900F900F900F9050E040E021154B
:10041000310509F0A0C05F934F939F938F938AE4B7
:1004200093E02FC08BE692E07ACF81E792E077CF1E
:1004300086E792E074CF8BE692E0A0CF81E792E06E
:100440009DCF86E792E09ACFBE0186E295E00E94BA
:10045000FC00809106059091070501969093070591
:1004600080930605209126053091270550E040E055
:1004700021153105A9F45F934F939F938F9381EAE0
:1004800092E09F938F930E940A0B0F900F900F9012
:100490000F900F900F90DF91CF911F910F910895C2
:1004A0004F5F5F4F295E3E4FF90120813181E0CFE0
:1004B000809106059091070501969093070580931A
:1004C0000605209122053091230550E040E02115DA
:1004D000310549F55F934F939F938F938BEC92E097
:1004E0009F938F930E940A0B8091060590910705B8
:1004F000019690930705809306052091220530917F
:1005000023050F900F900F900F900F900F9050E0D9
:1005100040E02115310579F45F934F939F938F93BA
:1005200087EF92E0AECF4F5F5F4F295E3E4FF901FC
:1005300020813181CCCF4F5F5F4F295E3E4FF90163
:1005400020813181E6CF4F5F5F4F295E3E4FF90139
:100550002081318134CF4F5F5F4F295E3E4FF901DB
:100560002081318154CFCF93DF93FC0140815181B1
:100570004115510521F48AE090E00E944801DA011A
:10058000A95EBE4F2D913C9111974617570781F4F4
:10059000318320831D921C9280819181892B11F4DB
:1005A00013821282DF91CF910895A901292F382F4C
:1005B0002115310589F3D901A95EBE4F9C91119691
:1005C0008C9111972617370781F7EA01C95EDE4F34
:1005D000988389831D921C9282819381821793074D
:1005E000D9F653834283D8CFCF93DF93FC01C081E8
:1005F000D181209759F0FE01EC5FFE4F20813181BF
:100600002130310539F4BE010E94B302CE01DF91E1
:10061000CF910895C95EDE4F0990D881C02DE9CFF2
:100620005F926F927F928F929F92AF92BF92CF9282
:10063000DF92EF92FF920F931F93CF93DF9381E9A5
:10064000682E83E0782E86E295E00E94F402909373
:100650000F0580930E050097E9F120910605309172
:1006600007052F5F3F4F3093070520930605DC01F8
:100670008D919C919F938F933F932F9380E793E06D
:100680009F938F930E940A0B0F900F900F900F90E3
:100690000F900F90E0910E05F0910F0582819381EC
:1006A00090935B1780935A17EC5FFE4F82E090E0C7
:1006B00091838083DF91CF911F910F91FF90EF90F5
:1006C000DF90CF90BF90AF909F908F907F906F9072
:1006D0005F900895C0912205D091230510E000E0BD
:1006E000F12CE12C209749F422E0E216F10408F401
:1006F0005AC081E090E00E944801209106053091A7
:1007000007052F5F3F4F3093070520930605E091C3
:100710000805F09109055E01BFEDAB1ABEEFBB0AFB
:10072000D5018D909C906E01B1EECB1ABEEFDB0A25
:10073000D6014C9111965C90CF0188199909642FCC
:10074000752D0E94F60A9F938F935F924F939F920D
:100750008F92FF93EF933F932F937F926F920E941C
:100760000A0B8091080590910905F50120813181DE
:10077000821B930BD6016D917C910E94F60AEDB716
:10078000FEB73C960FB6F894FEBF0FBEEDBF892BA7
:1007900021F4FFEFEF1AFF0A8E01C95EDE4F0990C8
:1007A000D881C02D9FCFEA94EF2819F110920F0540
:1007B00010920E058EE195E00E94F40290930F05D1
:1007C00080930E05009709F43ECF209106053091E5
:1007D00007052F5F3F4F3093070520930605FC0167
:1007E000808191819F938F933F932F9384EE93E029
:1007F00047CF10930F0500930E0501151105D1F297
:1008000080910605909107050196909307058093C6
:100810000605D8012D913C913F932F939F938F9381
:1008200081EC93E02DCFF8941092A000E1EAF0E083
:10083000108280818860808380818460808381E7EA
:1008400092E09093A9008093A800E2E7F0E0808115
:10085000826080831092A5001092A400789408957D
:10086000FC0180819181009721F48AE090E00C9452
:100870001E0B895E9E4FF4CFFC01349620E031E0E0
:10088000DF01A9011D9241505040E1F7E150FF4FB7
:1008900020ED30E0208331973083319710823197FB
:1008A000608331977083319710829C0125523F4FAE
:1008B000DC0113963C932E931297389660837183D4
:1008C000329611821082349622E135E03183208302
:1008D000329726E135E031832083349611821082ED
:1008E00032961182108232961182108232961082D4
:1008F00031961182108220911005309111052F5FE1
:100900003F4F3093110520931005329611821082CB
:10091000739721E030E0318320830C945601EF92ED
:10092000FF920F931F93CF93DF93109211051092B4
:10093000100510920B0510920A0510920D051092E9
:100940000C05E0910E05F0910F0581E190E0918397
:100950008083109227051092260510922905109287
:100960002805109223051092220510922505109259
:10097000240510921F0510921E0510922105109259
:10098000200510921B0510921A0510921D05109259
:100990001C05CAE2D5E010E000E083E2E82EFF2467
:1009A000F394BE01FE01C70111920197E9F7FE0120
:1009B000EC5FFE4F118210820F5F1F4F1983088377
:1009C000CD5DDE4F7396D183C0838AE195E00E94AE
:1009D000FC000031110529F7DF91CF911F910F9194
:1009E000FF90EF90089580910A0590910B05892B57
:1009F00009F04AC08091100590911105892B09F4E6
:100A000043C0F89481E094E00E94240B81E090E0E0
:100A100090930B0580930A050E941003E0910E0548
:100A2000F0910F05DF01A85FBE4F11961C921E9238
:100A30008281938190935B1780935A170E944A0991
:100A400080910E0590910F0520915A1730915B17F8
:100A5000FC0133832283E85FFE4F20813181223005
:100A6000310529F02330310529F0232B49F40E9468
:100A70005601D2CF8C5F9E4FFC0111821082CCCFE9
:100A800083E090E00E9448010895EF92FF920F9357
:100A90001F93CF93DF938C017B0180911005909180
:100AA0001105409771F180911A0590911B05892BD2
:100AB00041F180910A0590910B05892B09F0F8947A
:100AC0000E94E400EC01FC01E75EFE4F83E090E051
:100AD000918380833296F182E082B801CE010E9438
:100AE0003C0480910A0590910B05892B09F07894BC
:100AF00088819981DF91CF911F910F91FF90EF90A5
:100B0000089590E080E0F6CFEF92FF920F931F934D
:100B1000CF93DF938C017B0180911005909111059B
:100B2000409771F180911A0590911B05892B41F135
:100B300080910A0590910B05892B09F0F8940E9489
:100B4000E400EC01FC01E75EFE4F81E090E0918360
:100B500080833296F182E082B801CE010E943C048B
:100B600080910A0590910B05892B09F07894888172
:100B70009981DF91CF911F910F91FF90EF90089590
:100B800090E080E0F6CF8F929F92AF92BF92CF928B
:100B9000DF92EF92FF920F931F93CF93DF93EC01BD
:100BA0005B017A01690180911005909111054097D0
:100BB00009F444C080911A0590911B05892B09F412
:100BC0003DC080910A0590910B05892B09F0F8949E
:100BD0000E94E4004C01FC01E75EFE4F82E090E0E1
:100BE000918380833296B182A0823296D182C08274
:100BF0003296F182E082329611830083BE01C401F5
:100C00000E943C04B40182E295E00E94FC008091C5
:100C10000A0590910B05892B09F07894F4018081E5
:100C20009181DF91CF911F910F91FF90EF90DF9015
:100C3000CF90BF90AF909F908F90089590E080E00C
:100C4000F0CF80910A0590910B05892B69F0F894FB
:100C5000E0910E05F0910F05E85FFE4F82E090E015
:100C6000918380830C949F090895CF93DF93FC01B7
:100C7000C081D181209751F0DE01AC5EBE4F9C91C6
:100C8000962341F0BE01CF010E94B302CE01DF9155
:100C9000CF910895C95EDE4F0990D881C02DEACF6B
:100CA000DF92EF92FF920F931F93CF93DF93D62E95
:100CB0007A018C0101501109809106059091070578
:100CC00001969093070580930605E0910E05F0913B
:100CD0000F05208131813F932F939F938F938EE156
:100CE00094E09F938F930E940A0BE0910E05F09180
:100CF0000F05EC5FFE4F808191810F900F900F9058
:100D00000F900F900F908130910509F486C008F480
:100D100087C0029709F087C083E692E00E94240B07
:100D200083E291E0089FE001099FD00D189FD00D4C
:100D30001124C65DDA4F89818F9388818F938091CA
:100D400007058F93809106058F9388E394E09F9326
:100D50008F930E940A0B0F900F900F900F900F909F
:100D60000F90CC5FDE4F888199818130910509F425
:100D70005DC008F45EC0029709F05EC083E692E0B1
:100D80000E94240B83E291E0089FE001099FD00DAF
:100D9000189FD00D1124C65DDA4F8E010C5F1E4FD7
:100DA000F80180819181049709F049C084E594E0BD
:100DB0000E94240B60910E0570910F05FB0180814C
:100DC0009181FE01E25FFE4F91838083F701808174
:100DD0009181FE01E05FFE4F918380833496D08243
:100DE000FB01EC5FFE4F85E090E09183808381E022
:100DF00090E0F801918380833896808191810E94F0
:100E0000FC00CE010E945601DF91CF911F910F91FE
:100E1000FF90EF90DF900C9421068BE692E07ECF5E
:100E200081E792E07BCF86E792E078CF8BE692E095
:100E3000A7CF81E792E0A4CF86E792E0A1CF82E638
:100E400094E00E94240B00910E0510910F05F8010B
:100E5000EC5FFE4F83E090E091838083C65FDE4FBE
:100E6000B801888199810E94FC00F80180819181FC
:100E7000E25FFE4F91838083F70180819181F801C9
:100E8000E05FFE4F918380833496D082319681E07B
:100E900090E0918380830E94210680910E059091BD
:100EA0000F05FC01EB5EFE4F208131818E5E9E4F6F
:100EB000FC01808191813F932F939F938F938FE6C5
:100EC00094E09F938F930E940A0B0F900F900F90C6
:100ED0000F900F900F90DF91CF911F910F91FF9086
:100EE000EF90DF900895CF93DF931F921F92CDB7BD
:100EF000DEB781E390E09A838983AE014F5F5F4F55
:100F000061E682E090E00E9450060F900F90DF9122
:100F1000CF9108950F931F93CF93DF93682FE091A4
:100F20000E05F0910F05E65FFE4F808191810E94D2
:100F30003506EC0189818F9388818F9386E994E04F
:100F40009F938F930E940A0B0F900F900F900F901A
:100F50002097E9F484EB94E00E94240BE0910E05C5
:100F6000F0910F05EC5FFE4F84E090E09183808369
:100F70000E942106E0910E05F0910F05E25FFE4F01
:100F800080819181DF91CF911F910F910895FE0192
:100F9000EC5FFE4F85E090E09183808300910E0529
:100FA00010910F05F801E45FFE4F80819181BE0131
:100FB0000E94FC0088819981F801E25FFE4F9183D5
:100FC0008083DE01A05FBE4F2D913C911197329638
:100FD00031832083FE01EC5EFE4F2081F801EC5E40
:100FE000FE4F208311962C9111972F932C912F93C4
:100FF0009F938F938EEB94E09F938F930E940A0BA5
:10100000888199810F900F900F900F900F900F9003
:10101000B9CF0F931F93CF93DF93EB018C01015056
:10102000110983E291E0089FB001099F700D189F9C
:10103000700D1124665D7A4FE0910E05F0910F0559
:10104000E45FFE4FA081B1818D919C91009729F4BE
:10105000DF91CF911F910F9108956817790721F0C3
:10106000895E9E4FDC01F0CF808191810E94B302A6
:1010700023E231E0029FC001039F900D129F900D6B
:101080001124865D9A4FFC01EE5EFE4FD183C08332
:10109000339623E030E0318320838C5F9E4F21E044
:1010A00030E0FC01318320830E94210684EE94E02D
:1010B000DF91CF911F910F910C94240BCF93DF936D
:1010C0001F921F92CDB7DEB781E090E09A838983AB
:1010D000BE016F5F7F4F81E60E948A076EE570E078
:1010E0000E9409080F900F90DF91CF910895DC01C5
:1010F0001197E3E2F1E0AE9F9001AF9F300DBE9FEC
:10110000300D1124265D3A4FF901EC5FFE4F01903E
:10111000F081E02D349769F4F901E25FFE4F91838D
:1011200080833296518340832C5E3E4FF901608369
:1011300008950C9421061F920F920FB60F9211245E
:101140000BB60F922F933F934F935F936F937F93C1
:101150008F939F93AF93BF93EF93FF938091080575
:101160009091090501969093090580930805809157
:101170000A0590910B05892B79F080910E059091CD
:101180000F05FC01E85FFE4F22E030E03183208351
:101190000E9456010E941003FF91EF91BF91AF9101
:1011A0009F918F917F916F915F914F913F912F917F
:1011B0000F900BBE0F900FBE0F901F901895F894D4
:1011C00078940895CF93DF931F921F92CDB7DEB727
:1011D0001A821982AE014F5F5F4F61E082E090E0BA
:1011E0000E9450060F900F90DF91CF9108950E94BA
:1011F000E208FDCFCF93DF931F921F92CDB7DEB7EA
:101200001A821982BE016F5F7F4F8FEF0E948A079B
:101210009F938F938FEE94E09F938F930E940A0B7E
:101220000F900F900F900F900F900F90DF91CF9134
:1012300008950E94FA08FDCF61E070E08DEB90E028
:101240000E94450561E070E08EEB90E00C9445054E
:1012500061E070E08DEB90E00C948405CF93DF9318
:10126000D0E0C0E0BE018DEB90E00E9484052196A5
:10127000C431D105B9F7DF91CF91089561E070E0F5
:1012800087EF98E00E94450561E070E089E199E010
:101290000C9445050F921F922F923F924F925F92AE
:1012A0006F927F928F929F92AF92BF92CF92DF9276
:1012B000EF92FF920F931F932F933F934F935F9360
:1012C0006F937F938F939F93AF93BF93CF93DF934E
:1012D000EF93FF930FB70F930CB70F93EDB7FEB7D4
:1012E000E0935C17F0935D17E0915A17F0915B174C
:1012F000EDBFFEBF0F910CBF0F910FBFFF91EF919C
:10130000DF91CF91BF91AF919F918F917F916F911D
:101310005F914F913F912F911F910F91FF90EF900F
:10132000DF90CF90BF90AF909F908F907F906F9005
:101330005F904F903F902F901F900F9018950F92B5
:101340001F922F923F924F925F926F927F928F9255
:101350009F92AF92BF92CF92DF92EF92FF920F9344
:101360001F932F933F934F935F936F937F938F932D
:101370009F93AF93BF93CF93DF93EF93FF930FB7F9
:101380000F930CB70F93EDB7FEB7E0935A17F09396
:101390005B17E0915C17F0915D17EDBFFEBF0F91F9
:1013A0000CBF0F910FBFFF91EF91DF91CF91BF91D4
:1013B000AF919F918F917F916F915F914F913F91ED
:1013C0002F911F910F91FF90EF90DF90CF90BF90E2
:1013D000AF909F908F907F906F905F904F903F90D5
:1013E0002F901F900F900895909102019F7E9093EF
:1013F000020187FF05C09091020190619093020164
:1014000090910201977F9093020186FF05C0909111
:101410000201986090930201739885FD739AA598D4
:1014200084FDA59A8091020180648093020185E089
:101430008A95F1F70000809102018F7B8093020171
:101440000895CF93C82F809102018F7D8093020170
:101450008C2F0E94F4098C2F8295807F0E94F409C2
:1014600087EC90E00197F1F700C00000C43030F045
:10147000C03810F0C0931C02CF9108958FE39FE114
:101480000197F1F700C00000C0E8F4CFCF93C82F58
:10149000809102018062809302018C2F0E94F409E6
:1014A0008C2F8295807F0E94F40987EC90E0019751
:1014B000F1F700C0000080911C028F5F80931C0236
:1014C000803931F0803D31F480E8CF910C94210ACD
:1014D00080ECFBCFCF910895CF93DF93EC018991FE
:1014E000811103C0DF91CF9108950E94460AF7CF82
:1014F000CF93C82FC15010F4CF91089580E20E947D
:10150000460AF8CF9D9A6B9AE1E0F1E0808188600D
:1015100080838081806180838081806280838081FC
:1015200080648083E2E0F1E080818F7B8083808132
:101530008F7D80838FE59AEE0197F1F700C0000060
:1015400080E30E94F4098FE090E40197F1F700C076
:10155000000080E30E94F4098FE891E00197F1F721
:1015600000C0000080E30E94F40987EC90E001973E
:10157000F1F700C0000080E20E94F40987EC90E0DF
:101580000197F1F700C0000088E20E94210A88E07C
:101590000E94210A81E00E94210A86E00E94210A1D
:1015A0008CE00C94210A0E941401EEE5F7E18EE034
:1015B00092E09383828380E092E091838083F89429
:1015C00083E884B90E948F0461E070E083E797E0CC
:1015D0000E94450561E070E08EE598E00E944505B7
:1015E00078940E94F3048FEF9FEF0895AA1BBB1B12
:1015F00051E107C0AA1FBB1FA617B70710F0A61B13
:10160000B70B881F991F5A95A9F780959095BC0133
:10161000CD010895CF93DF93CDB7DEB7AE014A5F1A
:101620005F4FFA0161917191AF01809160179091C4
:1016300061170E944F0BDF91CF9108956091601761
:10164000709161170C94670D0F931F93CF93DF93E5
:10165000E0916017F09161172381EC0110E000E048
:1016600021FD08C00FEF1FEF14C01995892B11F051
:101670000FEF1FEF89916091601770916117DB0187
:101680001896ED91FC918111F0CF8AE01995892B84
:1016900049F7C801DF91CF911F910F9108952F92C3
:1016A0003F924F925F926F927F928F929F92AF92F2
:1016B000BF92CF92DF92EF92FF920F931F93CF933F
:1016C000DF9300D000D000D01F921F92CDB7DEB7BD
:1016D0007C013B018A01FC0117821682838181FF14
:1016E000DDC1CE0101965C01F7019381F30193FD09
:1016F000859193FF81913F01882309F453C185327D
:1017000039F493FD859193FF81913F01853229F44E
:10171000B70190E00E94670DE7CF912C212C312C6E
:10172000FFE1F31538F08B3211F190F4803209F1BA
:10173000833229F137FC3CC020ED280F2A3050F5C8
:1017400036FE20C08AE0989E200D1124922E06C0FD
:101750008D3291F0803371F7689430F8F30193FD86
:10176000859193FF81913F018111DACF21C0689467
:1017700031F8689432F8F2CF689433F8EFCF689478
:1017800034F8ECCFEAE02E9E200D1124222E68942E
:1017900035F8E4CF8E3229F436FC04C1689436F86B
:1017A000DDCF8C3619F4689437F8D8CF8836B1F28B
:1017B000982F9F7D95549330E0F08336A1F18337C5
:1017C000C1F1833509F063C02801F2E04F0E511CCE
:1017D000F801C080D180692D70E036FC02C06FEF47
:1017E0007FEFC6010E94510D4C01689437F88201C9
:1017F0000AC00C5F1F4FFFE3F98388248394912C68
:101800006501E89437F833FE2DC0522C8114910401
:1018100071F5552009F468CFB70180E290E00E948D
:10182000670D5A94F6CFF801808189830E5F1F4FB0
:10183000E4CF2801F2E04F0E511CF801C080D180A6
:10184000692D70E036FC02C06FEF7FEFC6010E9489
:101850005C0D4C018201D5CFB70180E290E00E947F
:10186000670D2A942814190409F0B0F7CECFF601B9
:1018700037FC859137FE81916F01B70190E00E949E
:10188000670D51105A94F1E08F1A9108BFCF84363A
:1018900019F0893609F077C0F80137FE6BC0608116
:1018A0007181828193810C5F1F4FF32DFF763F2E54
:1018B00097FF09C090958095709561957F4F8F4FE8
:1018C0009F4F689437F82AE030E0A5010E94970DF9
:1018D000C82ECA188C2C432C36FE0CC0E89440F855
:1018E000C91440F434FE05C032FC03C0F32DFE7E63
:1018F0004F2E892C44FEAAC0FE01EC0DF11D808103
:10190000803309F09CC0242D297E422E842D8870BE
:10191000582E43FCAAC040FEA4C09C2C821418F48C
:101920002C0C922C981844FEA6C0B70180E390E0DE
:101930000E94670D42FE09C088E790E041FE02C0A8
:1019400088E590E0B7010E94670DC91408F49FC0B4
:10195000CA94D12C9FEFC91AD90ACA0CDB1CF60114
:1019600082916F01B70190E00E94670DAC14BD0435
:10197000B1F74FCF60817181072E000C880B990B56
:101980000E5F1F4F92CFD32CE894D4F82AE030E0BA
:101990008537E1F1232D297FD22E8F36A9F1F0F47E
:1019A000883551F1F701868197812B960FB6F8940F
:1019B000DEBF0FBECDBFDF91CF911F910F91FF9082
:1019C000EF90DF90CF90BF90AF909F908F907F90DF
:1019D0006F905F904F903F902F900895803749F01F
:1019E000883701F7D4FE02C06894D2F820E130E0D5
:1019F0000DC06894D4F8F6CF34FE03C0822F866001
:101A0000D82E20E132E002C028E030E0F801D7FE15
:101A10000FC060817181828193810C5F1F4FA5018E
:101A20000E94970DC82ECA183D2CE89437F852CF63
:101A30006081718190E080E00E5F1F4FF0CF42FC2B
:101A400002C0839463CF8394839460CF842D86787F
:101A500009F45CCFF6CFB70180E290E00E94670DF9
:101A600083948214C0F3512C5ECF522C58188214E8
:101A700008F459CFF8CF842D867809F466CF8BE22D
:101A800041FE80E247FC8DE2B70190E05CCFB701F8
:101A900080E390E00E94670D9A9457CF8FEF9FEFFD
:101AA00084CFFC010590615070400110D8F78095FB
:101AB00090958E0F9F1F0895FC016150704001901A
:101AC0000110D8F7809590958E0F9F1F08950F9362
:101AD0001F93CF93DF93182F092FEB018B8181FD8B
:101AE00009C01FEF0FEF812F902FDF91CF911F9132
:101AF0000F91089582FF14C02E813F818C819D81BA
:101B0000281739073CF4E881F981CF0101969983C0
:101B1000888310838E819F8101969F838E83E3CF7C
:101B2000E885F985812F1995892BA1F3DACFFA0180
:101B3000AA27283051F1203181F1E8946F936E7F0C
:101B40006E5F7F4F8F4F9F4FAF4FB1E03ED0B4E0FD
:101B50003CD0670F781F891F9A1FA11D680F791F3E
:101B60008A1F911DA11D6A0F711D811D911DA11D4F
:101B700020D009F468943F912AE0269F112430195F
:101B8000305D3193DEF6CF010895462F4770405DFA
:101B90004193B3E00FD0C9F7F6CF462F4F70405DA9
:101BA0004A3318F0495D31FD4052419302D0A9F704
:101BB000EACFB4E0A6959795879577956795BA95FE
:101BC000C9F700976105710508959B01AC010A2EC4
:101BD00006945795479537952795BA95C9F7620F9B
:0E1BE000731F841F951FA01D0895F894FFCF5A
:101BEE0000000001000000000000B6000000000030
:101BFE00000200000000A700000000008074617366
:101C0E006B32004572726F7220776974682065724C
:101C1E00726F7220636F64653A2025640A00256432
:101C2E002E50555454494E47204241434B20544F59
:101C3E0020512049443A2025642020737461746534
:101C4E003A200052554E4E494E4700524541445996
:101C5E00004445414400424C4F434B4544002564EB
:101C6E002E4146544552204241434B20544F205161
:101C7E002049443A202564202073746174653A200B
:101C8E000025642E616674657220616464696E67F6
:101C9E00206974656D20746F2053797374656D209F
:101CAE0071756575653A2025640A0025642E626596
:101CBE00666F726520616464696E672C6974656D08
:101CCE007320696E20506572696F64207175657539
:101CDE00653A2025640A0025642E616674657220BB
:101CEE00616464696E67206974656D7320746F201A
:101CFE00506572696F642071756575653A2025644B
:101D0E000A0025642E6265666F72652061646469DF
:101D1E006E672C6974656D7320696E205252207146
:101D2E00756575653A2025640A0025642E61667412
:101D3E00657220616464696E67206974656D2074D4
:101D4E006F2052522071756575653A2025640A0020
:101D5E0025642E53656C6563746564206E6577200B
:101D6E0073797374656D207461736B3A2025640A00
:101D7E000025642E7469636B3A202564206F6666B5
:101D8E007365743A20256420706572696F643A2019
:101D9E002564202020616E737765723A2025640ACF
:101DAE000025642E53656C6563746564206E6577DB
:101DBE0020706572696F646963207461736B3A2079
:101DCE0025640A0025642E53656C65637465642072
:101DDE006E6577205252207461736B3A2025640A27
:101DEE00002D2D2D2D2D2D2D5354415254494E473E
:101DFE00204F532D2D2D2D2D2D2D2D0A0A0025640E
:101E0E002E53454E4445522049443A202564202005
:101E1E0073746174653A200025642E52454345491A
:101E2E005645522049443A2025642020737461742B
:101E3E00653A20007265636569766520626C6F6332
:101E4E006B0073656E64657220626C6F636B004924
:101E5E004D204241434B20207265706C792020202A
:101E6E0020723A20256420202020737461747573CB
:101E7E003A2025640A0073656E646572207175657B
:101E8E007565207069642061742052454356202583
:101E9E00640A0A006E6F2073656E646572005245A7
:101EAE00434945564544204D53473A2073656E6469
:101EBE0065723A2025642020202020763A202020AA
:101ECE0025640A005245504C5920444F4E45006639
:101EDE00696E616C2072657475726E207069642013
:061EEE0025640A0A000051
:00000001FF
