:100000000C9480000C94A1000C94A1000C94A1000D
:100010000C94A1000C94A1000C94A1000C94A100DC
:100020000C94A1000C94A1000C94A1000C94A100CC
:100030000C94A1000C94A1000C94A1000C94A100BC
:100040000C94A1000C94A1000C94A1000C94A100AC
:100050000C94A1000C94A1000C94A1000C94A1009C
:100060000C94A1000C94A1000C94A1000C94A1008C
:100070000C94A1000C94A1000C94A1000C94A1007C
:100080000C94A1000C94A1000C94A1000C94A1006C
:100090000C94A1000C94A1000C94A1000C94A1005C
:1000A0000C94A1000C94A1000C944A050C94A1009E
:1000B0000C94A1000C94A1000C94A1000C94A1003C
:1000C0000C94A1000C94A1000C94A1000C94A1002C
:1000D0000C94A1000C94A1000C94A1000C94A1001C
:1000E0000C94A1000C9497050C941C010C940A012B
:1000F0000C94AD050C94F4000C9403010C942E01A7
:1001000011241FBECFEFD1E2DEBFCDBF00E00CBF98
:1001100012E0A0E0B2E0E0E9F6E100E00BBF02C0CF
:1001200007900D92A83EB107D9F725E1A8EEB2E0FD
:1001300001C01D92A434B207E1F70E9434080C9468
:10014000460B0C940000FC0180819181009771F0B6
:10015000DC01A95EBE4F2D913C9111973183208324
:10016000232B11F4138212821D921C920895CF93B7
:10017000DF93DC012D913C9111972115310589F117
:10018000F901E95EFE4F408151812617370761F47E
:1001900011965C934E93118210821AC0FA01E95EA7
:1001A000FE4F9A01408151814115510571F046176A
:1001B0005707A1F7FB01E95EFE4F80819181295E1F
:1001C0003E4FE90199838883E6CF6115710591F36C
:1001D0008D919C911197892B21F413961C921E925C
:1001E0001297DF91CF910895CF93C82F8A3019F4D9
:1001F0008DE00E94F4008091C00085FFFCCFC09389
:10020000C600CF9108958091C00087FFFCCF8091F8
:10021000C6000895CDE1D2E0DF93CF930E9461083C
:100220009FEF27EA81E6915020408040E1F700C02F
:1002300000000F900F90F0CFC3E2D2E0DF93CF9396
:100240000E9461089FEF27EA81E69150204080409C
:10025000E1F700C000000F900F90F0CF8091EC020A
:100260009091ED02892B69F0F894E091F002F09101
:10027000F102E85FFE4F83E090E0918380830C946D
:1002800033060895FC0180819181892B51F471839B
:10029000608373836283695E7E4FFB0111821082EB
:1002A0000895A281B381A95EBE4F6D937C93738341
:1002B00062830895BC01FC01EC5FFE4F81E090E099
:1002C000918380838091E8029091E9029C012F5FE5
:1002D0003F4F3093E9022093E802759620813181E7
:1002E00022303105E1F02330310531F02130310584
:1002F000D1F48EEF92E015C002969093E9028093BC
:10030000E80286E093E00E9442018091E802909129
:10031000E90201969093E9028093E802089582E051
:1003200093E00C94420108951092C50087E68093F3
:10033000C400E0ECF0E080818D7F808386E08093D4
:10034000C20088E18093C1000895E091F002F0912D
:10035000F102E55EFE4F808191810895E091F00207
:10036000F091F1028081918108959C01EAE0F3E02F
:1003700090E080E0408151814217530741F001969F
:10038000ED5DFE4F80319105A9F78FEF9FEF089546
:10039000182F092FF894C9E2D2E00F931F93DF932F
:1003A000CF930E9461080F900F900F900F90F5CFA0
:1003B000F8941092A000E1EAF0E010828081886059
:1003C000808380818460808381E792E09093A9009C
:1003D0008093A800E2E7F0E0808182608083109241
:1003E000A5001092A40078940895FC01349620E0B2
:1003F00031E0DF01A9011D9241505040E1F7E15089
:10040000FF4F2EE231E02083319730833197108205
:100410003197608331977083319710829C01255208
:100420003F4FDC0113963C932E93129738966083CE
:10043000718332961182108232960190F081E02D04
:100440001182108213821282FC01E45FFE4F019040
:10045000F081E02D1182108213821282FC01E25F92
:10046000FE4F1182108232961182108232961182D2
:100470001082329610823196118210822091F202FF
:100480003091F3022F5F3F4F3093F3022093F2023B
:10049000329611821082739721E030E031832083FD
:1004A0000C945A01EF92FF920F931F93CF93DF9317
:1004B0001092F3021092F2021092ED021092EC02EE
:1004C0001092EF021092EE021092070310920603B0
:1004D0001092090310920803109203031092020372
:1004E00010920503109204031092FF021092FE0274
:1004F00010920103109200031092FB021092FA0274
:100500001092FD021092FC02CAE0D3E010E000E07D
:1005100083E2E82EFF24F394BE01FE01C70111928D
:100520000197E9F7FE01EC5FFE4F118210820F5F29
:100530001F4F19830883CD5DDE4F7396D183C0832F
:100540008AEF92E00E9442010031110529F7DF9104
:10055000CF911F910F91FF90EF9008958091EC0241
:100560009091ED02892B09F067C08091F202909181
:10057000F302892B09F460C0F89481E090E0909335
:10058000ED028093EC020E948307E091F002F0916B
:10059000F102DF01A85FBE4F11961C921E9282816C
:1005A000938190933B1580933A150E94DE05E0916C
:1005B000F002F091F10280913A1590913B159383EE
:1005C0008283DF01A85FBE4F8D919C91EC5FFE4F4F
:1005D0008230910529F08330910539F1892B41F55D
:1005E0008091E8029091E90201969093E90280934C
:1005F000E802808191818130910571F080F002974D
:1006000089F480E992E00E9475088091F00290914F
:10061000F1020E945A01B7CF88E992E0F4CF8EE947
:1006200092E0F1CF83EA92E0EECF11821082ABCF5D
:1006300083E090E00E94C8010895EF92FF920F932B
:100640001F93CF93DF938C017B018091F2029091F5
:10065000F302409721F18091FA029091FB02892BDD
:10066000F1F0F8948AEF92E00E94A300EC01FC0103
:10067000E75EFE4F83E090E0918380833296F182C3
:10068000E082B801CE010E94F501789488819981B9
:10069000DF91CF911F910F91FF90EF90089590E01F
:1006A00080E0F6CFEF92FF920F931F93CF93DF93EB
:1006B0008C017B018091F2029091F302409721F12D
:1006C0008091FA029091FB02892BF1F0F8948AEF65
:1006D00092E00E94A300EC01FC01E75EFE4F81E086
:1006E00090E0918380833296F182E082B801CE015E
:1006F0000E94F501789488819981DF91CF911F91B3
:100700000F91FF90EF90089590E080E0F6CF8F92E8
:100710009F92AF92BF92CF92DF92EF92FF920F9390
:100720001F93CF93DF93EC015B017A016901809104
:10073000F2029091F3024097A1F18091FA02909118
:10074000FB02892B71F1F8948AEF92E00E94A300DA
:100750004C01FC01E75EFE4F82E090E091838083D4
:100760003296B182A0823296D182C0823296F182D4
:10077000E082329611830083BE01C4010E94F5011C
:100780007894F40180819181DF91CF911F910F9135
:10079000FF90EF90DF90CF90BF90AF909F908F90A1
:1007A000089590E080E0F0CF8091EC029091ED020E
:1007B000892B69F0F894E091F002F091F102E85F82
:1007C000FE4F82E090E0918380830C94330608957D
:1007D000CF92DF92FF920F931F93CF93DF93F62E6A
:1007E0006A010E94B501009709F460C023E231E07C
:1007F000829FE001839FD00D929FD00D1124C65F90
:10080000DC4F8E010C5F1E4FF801808191810497AF
:10081000B9F58BEA92E00E9475086091F002709140
:10082000F102FB0180819181FE01E25FFE4F918325
:100830008083F60180819181FE01E05FFE4F91830C
:1008400080833496F082FB01EC5FFE4F85E090E000
:100850009183808381E090E0F801918380833896D2
:10086000808191810E944201CE010E945A01DF9154
:10087000CF911F910F91FF90DF90CF900C94D403F4
:1008800089EB92E00E9475086091F0027091F1028C
:10089000FB01EC5FFE4F83E090E091838083C65FB5
:1008A000DE4F888199810E944201E1CFDF91CF9193
:1008B0001F910F91FF90DF90CF900895FF920F93BB
:1008C0001F93CF93DF93EC01162F68817981611517
:1008D000710531F4DF91CF911F910F91FF90089531
:1008E000FB01E95EFE4FF080018133978081812317
:1008F00019F4CE010E94B7006F2D702FE8CF0F932F
:100900001F93CF93DF93E091F002F091F102E65F45
:10091000FE4F808191810E94A300EC010097E9F4D1
:1009200086EC92E00E947508E091F002F091F102ED
:10093000EC5FFE4F84E090E0918380830E94D403BB
:10094000E091F002F091F102E25FFE4F808191812F
:10095000DF91CF911F910F910895FC01EC5FFE4F45
:1009600085E090E09183808380ED92E00E9475089D
:100970000091F0021091F102F801E45FFE4F8081D6
:100980009181BE010E94420188819981F801E25F54
:10099000FE4F91838083FE01E05FFE4F2081318115
:1009A000F801E05FFE4F31832083FE01EC5EFE4FD5
:1009B0002081F801EC5EFE4F20839F938F938DED95
:1009C00092E09F938F930E946108888199810F9094
:1009D0000F900F900F90BCCF0F931F93CF93DF9387
:1009E0008B010E94B501EC01892B61F0E091F002CE
:1009F000F091F102E45FFE4FA081B1818D919C9155
:100A0000009729F4DF91CF911F910F910895C81796
:100A1000D90721F0895E9E4FDC01F0CF8081918162
:100A2000BE010E94B700FE01EE5EFE4F11830083FF
:100A3000CC5FDE4F81E090E099838883E3CFEF9233
:100A4000FF921F93CF93DF93EC01162F7A010E9440
:100A5000B501009791F0FC01EC5FFE4F20813181E0
:100A60002430310581F43A96D183C0833296F182E5
:100A7000E0828C5E9E4FFC011083DF91CF911F912D
:100A8000FF90EF900895DF91CF911F91FF90EF902D
:100A90000C94D4031F920F920FB60F9211240BB631
:100AA0000F922F933F934F935F936F937F938F9307
:100AB0009F93AF93BF93EF93FF938091EC0290913C
:100AC000ED02892B61F0E091F002F091F102E85F14
:100AD000FE4F82E090E0918380830E943306FF9175
:100AE000EF91BF91AF919F918F917F916F915F91A6
:100AF0004F913F912F910F900BBE0F900FBE0F9013
:100B00001F901895CF93DF931F921F92CDB7DEB73A
:100B10001A821982AE014F5F5F4F61E082E090E080
:100B20000E94E8030F900F90DF91CF9108950E94EB
:100B30008205FDCFCF93DF931F921F92CDB7DEB713
:100B40001A821982BE016F5F7F4F8FEF0E947F0470
:100B50000F900F90DF91CF9108950E949A05FDCFDD
:100B600061E070E08AE091E00E941D0361E070E0C6
:100B70008CE191E00C941D0361E070E08AE091E06B
:100B80000C945203CF93DF93D0E0C0E0BE018AE023
:100B900091E00E9452032196C431D105B9F7DF914B
:100BA000CF91089561E070E087E995E00E941D0310
:100BB00061E070E08DEA95E00C941D030F921F92A6
:100BC0002F923F924F925F926F927F928F929F925D
:100BD000AF92BF92CF92DF92EF92FF920F931F934B
:100BE0002F933F934F935F936F937F938F939F9335
:100BF000AF93BF93CF93DF93EF93FF930FB70F9311
:100C00000CB70F93EDB7FEB7E0933C15F0933D158D
:100C1000E0913A15F0913B15EDBFFEBF0F910CBF6F
:100C20000F910FBFFF91EF91DF91CF91BF91AF91E6
:100C30009F918F917F916F915F914F913F912F91F4
:100C40001F910F91FF90EF90DF90CF90BF90AF90EA
:100C50009F908F907F906F905F904F903F902F90DC
:100C60001F900F9018950F921F922F923F924F92C4
:100C70005F926F927F928F929F92AF92BF92CF922C
:100C8000DF92EF92FF920F931F932F933F934F9317
:100C90005F936F937F938F939F93AF93BF93CF9304
:100CA000DF93EF93FF930FB70F930CB70F93EDB74D
:100CB000FEB7E0933A15F0933B15E0913C15F091A7
:100CC0003D15EDBFFEBF0F910CBF0F910FBFFF9100
:100CD000EF91DF91CF91BF91AF919F918F917F91D4
:100CE0006F915F914F913F912F911F910F91FF90C5
:100CF000EF90DF90CF90BF90AF909F908F907F90BC
:100D00006F905F904F903F902F901F900F9008959D
:100D1000909102019F7E9093020187FF05C0909100
:100D2000020190619093020190910201977F90934C
:100D3000020186FF05C09091020198609093020124
:100D4000739885FD739AA59884FDA59A80910201F8
:100D500080648093020185E08A95F1F7000080911C
:100D600002018F7B809302010895CF93C82F809159
:100D700002018F7D809302018C2F0E9488068C2FA8
:100D80008295807F0E94880687EC90E00197F1F7BA
:100D900000C00000C43030F0C03810F0C0931C0216
:100DA000CF9108958FE39FE10197F1F700C0000014
:100DB000C0E8F4CFCF93C82F809102018062809366
:100DC00002018C2F0E9488068C2F8295807F0E94C2
:100DD000880687EC90E00197F1F700C00000809151
:100DE0001C028F5F80931C02803931F0803D31F40A
:100DF00080E8CF910C94B50680ECFBCFCF9108959D
:100E0000CF93DF93EC018991811103C0DF91CF91E2
:100E100008950E94DA06F7CFCF93C82FC15010F47F
:100E2000CF91089580E20E94DA06F8CF9D9A6B9ADE
:100E3000E1E0F1E08081886080838081806180834F
:100E4000808180628083808180648083E2E0F1E041
:100E500080818F7B808380818F7D80838FE59AEE78
:100E60000197F1F700C0000080E30E9488068FE040
:100E700090E40197F1F700C0000080E30E9488062B
:100E80008FE891E00197F1F700C0000080E30E9435
:100E9000880687EC90E00197F1F700C0000080E23F
:100EA0000E94880687EC90E00197F1F700C00000EF
:100EB00088E20E94B50688E00E94B50681E00E94A3
:100EC000B50686E00E94B5068CE00C94B506CF937B
:100ED000DF93FC01C081D181209759F0FE01EC5FC6
:100EE000FE4F208131812130310539F4BE010E944D
:100EF000B700CE01DF91CF910895C95EDE4F099012
:100F0000D881C02DE9CF0F931F93CF93DF938091AA
:100F1000E8029091E90201969093E9028093E80239
:100F200086E093E00E9467079093F1028093F002BD
:100F3000009791F12091E8023091E9022F5F3F4F35
:100F40003093E9022093E802DC018D919C919F93FC
:100F50008F933F932F9384E492E09F938F930E940B
:100F600061080F900F900F900F900F900F90E091ED
:100F7000F002F091F1028281938190933B1580936E
:100F80003A15EC5FFE4F82E090E091838083DF9121
:100F9000CF911F910F910895209102033091030387
:100FA0000091EA021091EB02F0E0E0E0D0E0C0E056
:100FB0002115310539F4C230D105E8F081E090E027
:100FC0000E94C801D901AF5DBE4F8D919C911197D0
:100FD000A801481B590BCA0112976D917C910E9480
:100FE0004D08892B11F42196F901295E3E4FD90154
:100FF0002D913C91DDCF2197F9F08EEF92E00E9488
:1010000067079093F1028093F002009709F47FCF75
:101010002091E8023091E9022F5F3F4F3093E902BF
:101020002093E802FC01808191819F938F933F93ED
:101030002F938AE792E091CFF093F102E093F002D0
:101040003097D9F28091E8029091E902019690934D
:10105000E9028093E802208131813F932F939F938F
:101060008F938EE592E079CF0E949401EEE3F5E153
:101070008EE092E09383828380E092E0918380838C
:10108000F89483E884B90E9452020E94D2057894B1
:101090000E94AE028FEF9FEF0895AA1BBB1B51E188
:1010A00007C0AA1FBB1FA617B70710F0A61BB70BD8
:1010B000881F991F5A95A9F780959095BC01CD017D
:1010C0000895CF93DF93CDB7DEB7AE014A5F5F4F90
:1010D000FA0161917191AF01809140159091411594
:1010E0000E94A008DF91CF9108950F931F93CF9393
:1010F000DF93E0914015F09141152381EC0110E060
:1011000000E021FD08C00FEF1FEF14C01995892BD7
:1011100011F00FEF1FEF899160914015709141150B
:10112000DB011896ED91FC918111F0CF8AE01995C1
:10113000892B49F7C801DF91CF911F910F91089535
:101140002F923F924F925F926F927F928F929F92D7
:10115000AF92BF92CF92DF92EF92FF920F931F93C5
:10116000CF93DF9300D000D000D01F921F92CDB755
:10117000DEB77C013B018A01FC0117821682838164
:1011800081FFDDC1CE0101965C01F7019381F3017E
:1011900093FD859193FF81913F01882309F453C109
:1011A000853239F493FD859193FF81913F0185321A
:1011B00029F4B70190E00E94B80AE7CF912C212CC6
:1011C000312CFFE1F31538F08B3211F190F48032BD
:1011D00009F1833229F137FC3CC020ED280F2A3079
:1011E00050F536FE20C08AE0989E200D1124922EE4
:1011F00006C08D3291F0803371F7689430F8F301B6
:1012000093FD859193FF81913F018111DACF21C038
:10121000689431F8689432F8F2CF689433F8EFCFDD
:10122000689434F8ECCFEAE02E9E200D1124222E93
:10123000689435F8E4CF8E3229F436FC04C1689402
:1012400036F8DDCF8C3619F4689437F8D8CF883665
:10125000B1F2982F9F7D95549330E0F08336A1F141
:101260008337C1F1833509F063C02801F2E04F0EE6
:10127000511CF801C080D180692D70E036FC02C09D
:101280006FEF7FEFC6010E94A20A4C01689437F805
:1012900082010AC00C5F1F4FFFE3F9838824839407
:1012A000912C6501E89437F833FE2DC0522C81143F
:1012B000910471F5552009F468CFB70180E290E000
:1012C0000E94B80A5A94F6CFF801808189830E5F94
:1012D0001F4FE4CF2801F2E04F0E511CF801C080EF
:1012E000D180692D70E036FC02C06FEF7FEFC60140
:1012F0000E94AD0A4C018201D5CFB70180E290E097
:101300000E94B80A2A942814190409F0B0F7CECF25
:10131000F60137FC859137FE81916F01B70190E0AE
:101320000E94B80A51105A94F1E08F1A9108BFCF69
:10133000843619F0893609F077C0F80137FE6BC0A2
:1013400060817181828193810C5F1F4FF32DFF7645
:101350003F2E97FF09C090958095709561957F4FBE
:101360008F4F9F4F689437F82AE030E0A5010E9424
:10137000E80AC82ECA188C2C432C36FE0CC0E89400
:1013800040F8C91440F434FE05C032FC03C0F32D0C
:10139000FE7E4F2E892C44FEAAC0FE01EC0DF11DED
:1013A0008081803309F09CC0242D297E422E842D1B
:1013B0008870582E43FCAAC040FEA4C09C2C821406
:1013C00018F42C0C922C981844FEA6C0B70180E3A8
:1013D00090E00E94B80A42FE09C088E790E041FE12
:1013E00002C088E590E0B7010E94B80AC91408F469
:1013F0009FC0CA94D12C9FEFC91AD90ACA0CDB1C12
:10140000F60182916F01B70190E00E94B80AAC1416
:10141000BD04B1F74FCF60817181072E000C880B9E
:10142000990B0E5F1F4F92CFD32CE894D4F82AE08B
:1014300030E08537E1F1232D297FD22E8F36A9F1B7
:10144000F0F4883551F1F701868197812B960FB61C
:10145000F894DEBF0FBECDBFDF91CF911F910F91EA
:10146000FF90EF90DF90CF90BF90AF909F908F90C4
:101470007F906F905F904F903F902F9008958037AE
:1014800049F0883701F7D4FE02C06894D2F820E111
:1014900030E00DC06894D4F8F6CF34FE03C0822F3C
:1014A0008660D82E20E132E002C028E030E0F8016A
:1014B000D7FE0FC060817181828193810C5F1F4FC5
:1014C000A5010E94E80AC82ECA183D2CE89437F8F6
:1014D00052CF6081718190E080E00E5F1F4FF0CFAE
:1014E00042FC02C0839463CF8394839460CF842DA5
:1014F000867809F45CCFF6CFB70180E290E00E94D5
:10150000B80A83948214C0F3512C5ECF522C581821
:10151000821408F459CFF8CF842D867809F466CF69
:101520008BE241FE80E247FC8DE2B70190E05CCFA8
:10153000B70180E390E00E94B80A9A9457CF8FEFEA
:101540009FEF84CFFC010590615070400110D8F7E7
:10155000809590958E0F9F1F0895FC0161507040FB
:1015600001900110D8F7809590958E0F9F1F0895D8
:101570000F931F93CF93DF93182F092FEB018B81CC
:1015800081FD09C01FEF0FEF812F902FDF91CF91C9
:101590001F910F91089582FF14C02E813F818C818D
:1015A0009D81281739073CF4E881F981CF01019624
:1015B0009983888310838E819F8101969F838E8378
:1015C000E3CFE885F985812F1995892BA1F3DACF2F
:1015D000FA01AA27283051F1203181F1E8946F9364
:1015E0006E7F6E5F7F4F8F4F9F4FAF4FB1E03ED00A
:1015F000B4E03CD0670F781F891F9A1FA11D680FA8
:10160000791F8A1F911DA11D6A0F711D811D911DDA
:10161000A11D20D009F468943F912AE0269F11244F
:101620003019305D3193DEF6CF010895462F4770B3
:10163000405D4193B3E00FD0C9F7F6CF462F4F700E
:10164000405D4A3318F0495D31FD4052419302D06C
:10165000A9F7EACFB4E0A695979587957795679512
:10166000BA95C9F700976105710508959B01AC0112
:101670000A2E06945795479537952795BA95C9F739
:10168000620F731F841F951FA01D0895F894FFCF4C
:101690000000000100000000000003010000000045
:1016A000000200000000F40000000000807461737C
:1016B0006B31007461736B32004572726F72207708
:1016C000697468206572726F7220636F64653A2076
:1016D00025640A0025642E466F756E642073797345
:1016E00074656D207461736B3A2025640A0025646B
:1016F0002E466F756E6420706572696F6469632031
:101700007461736B3A2025640A0025642E466F7558
:101710006E64205252207461736B3A2025640A0073
:1017200052554E4E494E470052454144590044459A
:10173000414400424C4F434B454400726563656928
:10174000766520626C6F636B0073656E64657220F2
:10175000626C6F636B006E6F2073656E6465720000
:101760006D65737361676520636F7079007069647C
:081770006464642025640A0092
:00000001FF
