:100000000C947C000C949D000C949D000C949D001D
:100010000C949D000C949D000C949D000C949D00EC
:100020000C949D000C949D000C949D000C949D00DC
:100030000C949D000C949D000C949D000C949D00CC
:100040000C949D000C949D000C949D000C949D00BC
:100050000C949D000C949D000C949D000C949D00AC
:100060000C949D000C949D000C949D000C949D009C
:100070000C949D000C949D000C949D000C949D008C
:100080000C949D000C949D000C949D000C949D007C
:100090000C949D000C949D000C949D000C949D006C
:1000A0000C949D000C949D000C9406050C949D00EE
:1000B0000C949D000C949D000C949D000C949D004C
:1000C0000C949D000C949D000C949D000C949D003C
:1000D0000C949D000C949D000C949D000C949D002C
:1000E0000C949D000C9453010C94F0000C9441016D
:1000F0000C94FF000C942F0111241FBECFEFD1E20E
:10010000DEBFCDBF00E00CBF12E0A0E0B2E0ECE348
:10011000FEE000E00BBF02C007900D92AC32B107C9
:10012000D9F724E1ACE2B2E001C01D92A638B207D3
:10013000E1F70E94C7060C941C070C940000FC0118
:1001400080819181009771F0DC01A95EBE4F2D91F5
:100150003C91119731832083232B11F41382128257
:100160001D921C920895CF93DF93DC012D913C9159
:1001700011972115310589F1F901E95EFE4F4081A2
:1001800051812617370761F411965C934E931182C3
:1001900010821AC0FA01E95EFE4F9A014081518136
:1001A0004115510571F046175707A1F7FB01E95EAC
:1001B000FE4F80819181295E3E4FE90199838883BA
:1001C000E6CF6115710591F38D919C911197892B63
:1001D00021F413961C921E921297DF91CF910895ED
:1001E000CF93C82F8A3019F48DE00E94F0008091DF
:1001F000C00085FFFCCFC093C600CF9108958091C9
:10020000C00087FFFCCF8091C6000895209148026E
:1002100030914902809140029091410221153105AF
:10022000C9F088E492E00E949F009093330280938B
:100230003202E0913202F0913302828193819093F5
:100240007D1480937C14EC5FFE4F82E090E09183FC
:1002500080830895009711F380E492E0E4CFC1E039
:10026000C5B9F8948DE192E00E94F10678942FEFE1
:1002700083EC99E0215080409040E1F700C00000FD
:10028000EFCFC2E0C5B9F89484E292E00E94F10693
:1002900078942FEF83EC99E0215080409040E1F773
:1002A00000C00000EFCF80912E0290912F02892B89
:1002B00069F0F894E0913202F0913302E85FFE4F6A
:1002C00083E090E0918380830C9493050895FC0172
:1002D00080819181892B51F4718360837383628360
:1002E000695E7E4FFB01118210820895A281B38165
:1002F000A95EBE4F6D937C93738362830895BC01A6
:10030000FC01E75EFE4F808191818230910561F0B2
:100310008330910529F0019751F480E492E002C006
:1003200088E492E00C94670184E492E0FBCF0895A6
:100330001092C50087E68093C400E0ECF0E0808175
:100340008D7F808386E08093C20088E18093C10026
:100350000895E0913202F0913302E55EFE4F808114
:1003600091810895E0913202F09133028081918170
:100370000895ECE4F2E030E020E04081518148173C
:10038000590761F443E251E0249FC001259F900D7D
:10039000349F900D1124845B9D4F08952F5F3F4F34
:1003A000ED5DFE4F2031310541F790E080E008958A
:1003B000F8941092A000E1EAF0E010828081886059
:1003C000808380818460808381E792E09093A9009C
:1003D0008093A800E2E7F0E0808182608083109241
:1003E000A5001092A40078940895FC01349620E0B2
:1003F00031E0DF01A9011D9241505040E1F7E15089
:10040000FF4F23E531E0208331973083319710820D
:100410003197608331977083319710829C01255208
:100420003F4FDC0113963C932E93129738966083CE
:10043000718332961182108232960190F081E02D04
:100440001182108213821282FC01E45FFE4F019040
:10045000F081E02D1182108213821282FC01E25F92
:10046000FE4F1182108232961182108232961182D2
:1004700010823296108231961182108220913402BD
:10048000309135022F5F3F4F309335022093340275
:10049000329611821082739721E030E031832083FD
:1004A0000C947F01EF92FF920F931F93CF93DF93F2
:1004B000109235021092340210922F0210922E02E6
:1004C00010923102109230021092490210924802AA
:1004D00010924B0210924A0210924502109244026E
:1004E000109247021092460210924102109240026E
:1004F000109243021092420210923D0210923C026E
:1005000010923F0210923E02CCE4D2E010E000E0F4
:1005100083E2E82EFF24F394BE01FE01C70111928D
:100520000197E9F7FE01EC5FFE4F118210820F5F29
:100530001F4F19830883CD5DDE4F7396D183C0832F
:100540008CE392E00E9467010031110529F7DF91E9
:10055000CF911F910F91FF90EF900895CF93DF936C
:1005600080912E0290912F02892B09F050C080912A
:10057000340290913502892B09F449C0F89481E046
:1005800090E090932F0280932E020E940601C1E01A
:10059000D0E0E0913202F0913302DF01A85FBE4F5C
:1005A00011961C921E928281938190937D14809368
:1005B0007C140E943E05809132029091330220917A
:1005C0007C1430917D14FC0133832283E85FFE4F5D
:1005D000208131812230310529F02330310589F025
:1005E000232BB9F6FC01EC5FFE4F208131812230D4
:1005F000310511F0D183C0830E947F010E94060162
:10060000C8CF8C5F9E4FFC0111821082F7CFDF9123
:10061000CF910895EF92FF920F931F93CF93DF93A3
:100620008C017B018091340290913502409721F139
:1006300080913C0290913D02892BF1F0F8948CE37B
:1006400092E00E949F00EC01FC01E75EFE4F83E018
:1006500090E0918380833296F182E082B801CE01EE
:100660000E94F501789488819981DF91CF911F9143
:100670000F91FF90EF90089590E080E0F6CFEF9219
:10068000FF920F931F93CF93DF938C017B01809197
:10069000340290913502409721F180913C02909173
:1006A0003D02892BF1F0F8948CE392E00E949F00C8
:1006B000EC01FC01E75EFE4F81E090E091838083D6
:1006C0003296F182E082B801CE010E94F501789461
:1006D00088819981DF91CF911F910F91FF90EF90C9
:1006E000089590E080E0F6CF8F929F92AF92BF92F4
:1006F000CF92DF92EF92FF920F931F93CF93DF93EE
:10070000EC015B017A01690180913402909135021C
:100710004097A1F180913C0290913D02892B71F1AB
:10072000F8948CE392E00E949F004C01FC01E75E8C
:10073000FE4F82E090E0918380833296B182A08266
:100740003296D182C0823296F182E0823296118353
:100750000083BE01C4010E94F5017894F4018081F8
:100760009181DF91CF911F910F91FF90EF90DF90DA
:10077000CF90BF90AF909F908F90089590E080E0D1
:10078000F0CF80912E0290912F02892B69F0F8947E
:10079000E0913202F0913302E85FFE4F82E090E098
:1007A000918380830C9493050895EF92FF921F9399
:1007B000CF93DF93162F7A010E94B901EC010097C5
:1007C00009F448C06091320270913302DC01AC5FE1
:1007D000BE4F8D919C911197AB014C5F5E4F04977A
:1007E00069F5FB0120813181CE01825F9E4FFC01C2
:1007F00031832083F701208131810296FC0131830E
:1008000020830496FC01108385E090E0FA01918337
:10081000808381E090E08D939C93FE01E45FFE4F26
:10082000808191810E946701CE010E947F01DF914A
:10083000CF911F91FF90EF900C94C10383E090E063
:10084000FA0191838083C65FDE4F888199810E947F
:100850006701EDCFDF91CF911F91FF90EF90089549
:10086000FF920F931F93CF93DF93EC01162F6881B4
:1008700079816115710531F4DF91CF911F910F914D
:10088000FF900895FB01E95EFE4FF08001813397F0
:100890008081812319F4CE010E94B3006F2D702F47
:1008A000E8CF0F931F93CF93DF93682FC09132024D
:1008B000D09133028E01065F1E4FF8018081918135
:1008C0000E943004F801808191810E949F008C0178
:1008D0000097A9F4CC5FDE4F84E090E09983888391
:1008E0000E940601E0913202F0913302E25FFE4F76
:1008F00080819181DF91CF911F910F910895FC012B
:10090000EC5FFE4F85E090E091838083FE01E45F21
:10091000FE4F80819181B8010E946701F8018081BA
:100920009181FE01E25FFE4F91838083F801E05FD9
:10093000FE4F20813181FE01E05FFE4F3183208335
:10094000F801EC5EFE4F2081CC5EDE4F2883D2CFD3
:100950000F931F93CF93DF938B010E94B901EC019A
:10096000892B61F0E0913202F0913302E45FFE4F97
:10097000A081B1818D919C91009729F4DF91CF9155
:100980001F910F910895C817D90721F0895E9E4FD6
:10099000DC01F0CF80819181BE010E94B300FE0195
:1009A000EE5EFE4F11830083CC5FDE4F81E090E06E
:1009B00099838883E3CFEF92FF921F93CF93DF93C6
:1009C000EC01162F7A010E94B901009791F0FC0109
:1009D000EC5FFE4F208131812430310581F43A965D
:1009E000D183C0833296F182E0828C5E9E4FFC01FF
:1009F0001083DF91CF911F91FF90EF900895DF91C9
:100A0000CF911F91FF90EF900C9406011F920F92CF
:100A10000FB60F9211240BB60F922F933F934F9363
:100A20005F936F937F938F939F93AF93BF93EF9356
:100A3000FF9380912E0290912F02892B61F0E0911B
:100A40003202F0913302E85FFE4F82E090E0918342
:100A500080830E949305FF91EF91BF91AF919F9189
:100A60008F917F916F915F914F913F912F910F9057
:100A70000BBE0F900FBE0F901F9018950F921F92F4
:100A80002F923F924F925F926F927F928F929F929E
:100A9000AF92BF92CF92DF92EF92FF920F931F938C
:100AA0002F933F934F935F936F937F938F939F9376
:100AB000AF93BF93CF93DF93EF93FF930FB70F9352
:100AC0000CB70F93EDB7FEB7E0937E14F0937F144D
:100AD000E0917C14F0917D14EDBFFEBF0F910CBF2F
:100AE0000F910FBFFF91EF91DF91CF91BF91AF9128
:100AF0009F918F917F916F915F914F913F912F9136
:100B00001F910F91FF90EF90DF90CF90BF90AF902B
:100B10009F908F907F906F905F904F903F902F901D
:100B20001F900F9018950F921F922F923F924F9205
:100B30005F926F927F928F929F92AF92BF92CF926D
:100B4000DF92EF92FF920F931F932F933F934F9358
:100B50005F936F937F938F939F93AF93BF93CF9345
:100B6000DF93EF93FF930FB70F930CB70F93EDB78E
:100B7000FEB7E0937C14F0937D14E0917E14F09125
:100B80007F14EDBFFEBF0F910CBF0F910FBFFF9100
:100B9000EF91DF91CF91BF91AF919F918F917F9115
:100BA0006F915F914F913F912F911F910F91FF9006
:100BB000EF90DF90CF90BF90AF909F908F907F90FD
:100BC0006F905F904F903F902F901F900F900895DF
:100BD000909102019F7E9093020187FF05C0909142
:100BE000020190619093020190910201977F90938E
:100BF000020186FF05C09091020198609093020166
:100C0000739885FD739AA59884FDA59A8091020139
:100C100080648093020185E08A95F1F7000080915D
:100C200002018F7B809302010895CF93C82F80919A
:100C300002018F7D809302018C2F0E94E8058C2F8A
:100C40008295807F0E94E80587EC90E00197F1F79C
:100C500000C00000C43030F0C03810F0C0931C0257
:100C6000CF9108958FE39FE10197F1F700C0000055
:100C7000C0E8F4CFCF93C82F8091020180628093A7
:100C800002018C2F0E94E8058C2F8295807F0E94A4
:100C9000E80587EC90E00197F1F700C00000809133
:100CA0001C028F5F80931C02803931F0803D31F44B
:100CB00080E8CF910C94150680ECFBCFCF9108957E
:100CC000CF93DF93EC018991811103C0DF91CF9124
:100CD00008950E943A06F7CFCF93C82FC15010F461
:100CE000CF91089580E20E943A06F8CF9D9A6B9AC0
:100CF000E1E0F1E080818860808380818061808391
:100D0000808180628083808180648083E2E0F1E082
:100D100080818F7B808380818F7D80838FE59AEEB9
:100D20000197F1F700C0000080E30E94E8058FE022
:100D300090E40197F1F700C0000080E30E94E8050D
:100D40008FE891E00197F1F700C0000080E30E9476
:100D5000E80587EC90E00197F1F700C0000080E221
:100D60000E94E80587EC90E00197F1F700C00000D1
:100D700088E20E94150688E00E94150681E00E9424
:100D8000150686E00E9415068CE00C941506F89472
:100D900083E884B90E94760680E80E9415060E94C6
:100DA000D8010E9452020E949801E0E8F4E18EE02E
:100DB00092E09383828380E092E09183808361E07C
:100DC00070E08FE291E00E940A0361E070E081E44C
:100DD00091E00E940A0378940E94AE028FEF9FEF89
:100DE00008950F931F93CF93DF93E0918214F091B6
:100DF00083142381EC0110E000E021FD08C00FEF17
:100E00001FEF14C01995892B11F00FEF1FEF899177
:100E10006091821470918314DB011896ED91FC911E
:100E20008111F0CF8AE01995892B49F7C801DF912C
:0C0E3000CF911F910F910895F894FFCF0F
:100E3C0000000001000000000000FF0000000000A6
:100E4C00000200000000F0000000000080746173DC
:0C0E5C006B5F31007461736B5F3200004B
:00000001FF
