:100000000C9488000C94A9000C94A9000C94A900ED
:100010000C94A9000C94A9000C94A9000C94A900BC
:100020000C94A9000C94A9000C94A9000C94A900AC
:100030000C94A9000C94A9000C94A9000C94A9009C
:100040000C94A9000C94A9000C94A9000C94A9008C
:100050000C94A9000C94A9000C94A9000C94A9007C
:100060000C94A9000C94A9000C94A9000C94A9006C
:100070000C94A9000C94A9000C94A9000C94A9005C
:100080000C94A9000C94A9000C94A9000C94A9004C
:100090000C94DB000C94A9000C94A9000C94A9000A
:1000A0000C94A9000C94A9000C9471080C94A9005C
:1000B0000C94A9000C94A9000C94A9000C94A9001C
:1000C0000C94A9000C94A9000C94A9000C94A9000C
:1000D0000C94A9000C94A9000C94A9000C94A900FC
:1000E0000C94A9000C9491020C945A020C94D4081C
:1000F0000C949B090C9429070C9424080C945B0223
:100100000C9465020C946A080C948C090C94EE080B
:1001100011241FBECFEFD1E2DEBFCDBF00E00CBF88
:1001200012E0A0E0B2E0E8E8F1E200E00BBF02C0BC
:1001300007900D92A03EB107D9F725E1A0EEB2E0FD
:1001400001C01D92A837B207E1F70E94370C0C944A
:10015000C2100C9400001092C50028E92093C10041
:1001600026E02093C20022E02093C0008130910558
:1001700029F010F0029731F087E601C083E3809305
:10018000C400089582E2FBCF9091C00095FFFCCFA0
:100190008093C6000895803291052CF48F519D4FB5
:1001A000FC018081089580E008958091E002089527
:1001B0001092E00208951F920F920FB60F92112431
:1001C0000BB60F928F939F93EF93FF938091C8008C
:1001D00087FFFCCFE091E002F0E08091CE00EF518C
:1001E000FD4F80838091E00290E001968F71992706
:1001F0008093E002FF91EF919F918F910F900BBE42
:100200000F900FBE0F901F901895EF92FF920F93D3
:100210001F93CF938C017B01C0E08C2F90E08E1553
:100220009F0534F4800F911FFC018081811106C06D
:10023000CF911F910F91FF90EF9008950E94C400FD
:10024000CF5FEBCF88E98093C90086E08093CA0036
:10025000E8ECF0E080818D7F80831092CD0089E111
:100260008093CC0008959091C80095FFFCCF8093B7
:10027000CE0008958091C80087FFFCCF8091CE000A
:10028000089590E080E00E94AB0080E80E94C400E6
:100290002FEF83EC99E0215080409040E1F700C0BF
:1002A000000083E80E94C4002FEF83EC99E0215006
:1002B00080409040E1F700C0000008950F931F9325
:1002C000CF93DF93182F092FEB0189E80E94C40018
:1002D000802F0E94C400812F0E94C4008D2F0E9495
:1002E000C4008C2FDF91CF911F910F910C94C4000B
:1002F0000F931F93CF93DF938C01EB018EE890E077
:100300000E948C09C8010E948C090230110509F471
:1003100043C00330110509F462C001301105B1F585
:100320000E94D5008A30E1F790E080E00E94CB0087
:10033000888381E090E00E94CB00898382E090E096
:100340000E94CB008A8383E090E00E94CB008B83E5
:1003500084E090E00E94CB008C8385E090E00E94D6
:10036000CB008D8386E090E00E94CB008E8387E0F7
:1003700090E00E94CB008F8388E090E00E94CB0049
:10038000888789E090E00E94CB008987DF91CF9138
:100390001F910F910C94D8000E94D5008630E1F790
:1003A00090E080E00E94CB008A8781E090E00E948C
:1003B000CB008B8782E090E00E94CB008D8783E0AA
:1003C00090E00E94CB008C8784E090E00E94CB00FC
:1003D0008F8785E090E00E94CB008E87D7CF0E9468
:1003E000D5008A30E1F790E080E00E94CB00888B56
:1003F00081E090E00E94CB008A8B82E090E00E9436
:10040000CB00898B83E090E00E94CB008C8B84E052
:1004100090E00E94CB008B8B85E090E00E94CB00A7
:100420008D8B86E090E00E94CB008F8B87E090E080
:100430000E94CB008E8B88E090E00E94CB00898FD9
:1004400089E090E00E94CB00888FA0CFCF93DF930C
:10045000EC0181309105F9F4809100029091010244
:100460000097A1F482E890E00E948C09D0930102E9
:10047000C09300022FEF89EF90E021508040904020
:10048000E1F700C00000DF91CF910895029771F766
:1004900083E890E0E9CF8230910539F481E090E083
:1004A0000E94260284E890E0DFCF892B61F785E87F
:1004B00090E0DACFFFCF2FEF87EA91E6215080401E
:1004C0009040E1F700C00000F6CF809110039091BA
:1004D0001103892B29F1F894E0911403F09115038D
:1004E000808191819F938F9383E292E09F938F937A
:1004F0000E94020E8091140390911503FC01E85FA5
:10050000FE4F23E030E0318320838C5F9E4FFC015F
:10051000118210820F900F900F900F900C94E20BAD
:1005200008950C9465028091200390912103009717
:1005300089F0FC01E95EFE4F208131813093210377
:1005400020932003232B21F41092230310922203E3
:10055000118210820895FC0180819181892B51F4D0
:100560007183608373836283695E7E4FFB011182B6
:1005700010820895A281B381A95EBE4F6D937C93D2
:10058000738362830895E0911403F0911503E55E8F
:10059000FE4F808191810895E0911403F09115033D
:1005A0008081918108959C01E0E3F3E090E080E098
:1005B000408151814217530741F00196ED5DFE4F96
:1005C00080319105A9F78FEF9FEF0895F8949F93DD
:1005D0008F9389E392E09F938F930E94020E0F9076
:1005E0000F900F900F90FFCFBC01FC018081918193
:1005F0000197409720F085E090E00E94E602EC5FD2
:10060000FE4F80819181029721F481E090E09183F7
:100610008083FB01E75EFE4F8081918182309105EE
:1006200079F08330910529F0019739F484E293E061
:1006300002C08CE293E00C94AB0282E090E0DDCF4C
:100640000895CF93DF93FC014081518141155105FD
:1006500021F48AE090E00E94E602DA01A95EBE4F32
:100660002D913C9111974617570781F431832083D0
:100670001D921C9280819181892B11F41382128228
:10068000DF91CF910895A901292F382F2115310528
:1006900089F3D901A95EBE4F9C9111968C91119757
:1006A0002617370781F7EA01C95EDE4F98838983F1
:1006B0001D921C928281938182179307D9F65383EE
:1006C0004283D8CFCF93DF93FC01C081D1812097A3
:1006D00059F0FE01EC5FFE4F208131812130310560
:1006E00039F4BE010E942103CE01DF91CF9108951C
:1006F000C95EDE4F0990D881C02DE9CFEF92FF92FD
:100700000F931F93CF93DF9380910C0390910D0370
:10071000019690930D0380930C038CE293E00E946A
:100720006203909315038093140320910C0330917E
:100730000D03892BE9F02F5F3F4F30930D0320937A
:100740000C03E0911403F09115038281938190933F
:100750006F1580936E15EC5FFE4F82E090E0918301
:100760008083DF91CF911F910F91FF90EF900895BB
:10077000E0912803F0912903E0900E03F0900F031D
:1007800010E000E0D0E0C0E0309759F430930D0362
:1007900020930C03C230D105F8F081E090E00E9474
:1007A000E602DF01AF5DBE4F8D919C911197A701CD
:1007B000481B590BCA0112976D917C910E94570CEE
:1007C000892B11F421968F01E95EFE4F0190F08193
:1007D000E02D2F5F3F4FD8CF2197C9F0109215031E
:1007E0001092140384E293E00E9462039093150335
:1007F00080931403892B09F490CF80910C0390917E
:100800000D03019690930D0380930C039ACF1093E0
:10081000150300931403012B29F38DCF80910E0350
:1008200090910F03089580910E0390910F032AE099
:10083000AC01249FC001259F900D11240895F894C8
:100840001092A000E1EAF0E010828081886080834D
:1008500080818460808381E792E09093A9008093F7
:10086000A800E2E7F0E08081826080831092A5001A
:100870001092A40078940895FC01808191810097E2
:1008800021F48AE090E00C94160E895E9E4FF4CF1E
:10089000FC01349620E031E0DF01A9011D924150B6
:1008A0005040E1F7E150FF4F25E632E020833197D9
:1008B00030833197108231976083319770833197FD
:1008C00010829C0125523F4FDC0113963C932E93DE
:1008D0001297389660837183329611821082349613
:1008E00028E133E03183208332972CE133E03183F8
:1008F00020833496118210823296118210823296B1
:1009000011821082329610823196118210822091CB
:100910001603309117032F5F3F4F30931703209337
:100920001603329611821082739721E030E03183F2
:1009300020830C94F402EF92FF920F931F93CF93B6
:10094000DF93109217031092160310921103109266
:1009500010031092130310921203E0911403F0910C
:10096000150381E190E09183808310922D03109212
:100970002C0310922F0310922E0310922903109231
:10098000280310922B0310922A0310922503109231
:100990002403109227031092260310922103109231
:1009A00020031092230310922203C0E3D3E010E04F
:1009B00000E083E2E82EFF24F394BE01FE01C701AC
:1009C00011920197E9F7FE01EC5FFE4F1182108250
:1009D0000F5F1F4F19830883CD5DDE4F7396D18360
:1009E000C08380E293E00E94AB020031110529F739
:1009F000DF91CF911F910F91FF90EF90089580911B
:100A0000100390911103892B09F046C080911603C1
:100A100090911703892B09F43FC0F89481E090E08E
:100A200090931103809310030E947E03E0911403BE
:100A3000F0911503DF01A85FBE4F11961C921E9224
:100A40008281938190936F1580936E150E948D0B18
:100A5000809114039091150320916E1530916F15BC
:100A6000FC0133832283E85FFE4F208131812230F5
:100A7000310529F02330310529F0232B49F40E9458
:100A8000F402D2CF8C5F9E4FFC0111821082CCCF3A
:100A900083E090E00E94E6020895EF92FF920F93A8
:100AA0001F93CF93DF938C017B018091160390916C
:100AB0001703409771F18091200390912103892BB6
:100AC00041F18091100390911103892B09F0F89462
:100AD0000E949302EC01FC01E75EFE4F83E090E090
:100AE000918380833296F182E082B801CE010E9428
:100AF00048048091100390911103892B09F0789498
:100B000088819981DF91CF911F910F91FF90EF9094
:100B1000089590E080E0F6CFEF92FF920F931F933D
:100B2000CF93DF938C017B01809116039091170383
:100B3000409771F18091200390912103892B41F11D
:100B40008091100390911103892B09F0F8940E9471
:100B50009302EC01FC01E75EFE4F81E090E091839F
:100B600080833296F182E082B801CE010E9448046F
:100B70008091100390911103892B09F0789488815A
:100B80009981DF91CF911F910F91FF90EF90089580
:100B900090E080E0F6CF8F929F92AF92BF92CF927B
:100BA000DF92EF92FF920F931F93CF93DF93EC01AD
:100BB0005B017A01690180911603909117034097B8
:100BC00009F444C08091200390912103892B09F4FA
:100BD0003DC08091100390911103892B09F0F89486
:100BE0000E9493024C01FC01E75EFE4F82E090E020
:100BF000918380833296B182A0823296D182C08264
:100C00003296F182E082329611830083BE01C401E4
:100C10000E944804B40188E293E00E94AB028091F4
:100C2000100390911103892B09F07894F4018081CD
:100C30009181DF91CF911F910F91FF90EF90DF9005
:100C4000CF90BF90AF909F908F90089590E080E0FC
:100C5000F0CF8091100390911103892B69F0F894E3
:100C6000E0911403F0911503E85FFE4F82E090E0FD
:100C7000918380830C94E20B0895CF93DF93FC0162
:100C8000C081D181209751F0DE01AC5EBE4F9C91B6
:100C9000962341F0BE01CF010E942103CE01DF91D6
:100CA000CF910895C95EDE4F0990D881C02DEACF5B
:100CB000FF920F931F93CF93DF93F62E8A01AC011F
:100CC00041505109C0911403D091150323E231E042
:100CD000429FC001439F900D529F900D1124805D53
:100CE0009C4FDC01AC5FBE4F2D913C911197BE0132
:100CF0006C5F7E4F2430310509F059C0488159811D
:100D00009C01225F3E4FF90151834083F8014081ED
:100D100051812E5F3F4FF901518340832C5F3F4F3C
:100D2000F901F08225E030E0FB013183208321E0EE
:100D300030E02D933C93845F9E4FBE01FC01808187
:100D400091810E94AB0288819981F80121812F93C2
:100D500020812F939F938F9384E592E09F938F93AD
:100D60000E94020E0E942906E0911403F0911503DF
:100D7000DF01AE5EBE4F2D913C91808191813F930A
:100D80002F939F938F9384E792E09F938F930E947A
:100D9000020E8DB79EB70C960FB6F8949EBF0FBE8D
:100DA0008DBFDF91CF911F910F91FF90089523E0A8
:100DB00030E0FB0131832083865F9E4FBE01FC0142
:100DC000808191810E94AB0288819981FE01E25F5E
:100DD000FE4F91838083F80180819181FE01E05F65
:100DE000FE4F918380833496F082319681E090E0CB
:100DF0009183808388819981F80121812F932081BB
:100E00002F939F938F9384E592E09F938F930E94FB
:100E1000020E0E942906E0911403F0911503DF01F0
:100E2000AE5EBE4F2D913C91808191813F932F9377
:100E30009F938F9384E792E09F938F930E94020E7B
:100E40008DB79EB70C960FB6F8949EBF0FBE8DBFA0
:100E5000A8CFCF93DF931F921F92CDB7DEB781E368
:100E600090E09A838983AE014F5F5F4F61E681E036
:100E700090E00E9458060F900F90DF91CF91089557
:100E80000F931F93CF93DF93682FC0911403D091DA
:100E90001503FE01E65FFE4F808191810E943D06B1
:100EA0008C010097C9F5CC5FDE4F84E090E0998318
:100EB00088830E942906E0911403F0911503DF0155
:100EC000A25FBE4F4D915C91119712962D913C916E
:100ED000808191815F934F933F932F939F938F9343
:100EE00086E992E09F938F930E94020EE091140393
:100EF000F0911503E25FFE4F808191812DB73EB7DF
:100F0000285F3F4F0FB6F8943EBF0FBE2DBFDF9155
:100F1000CF911F910F910895FC01EC5FFE4F85E08A
:100F200090E091838083FE01E45FFE4F8081918198
:100F3000B8010E94AB02F80180819181FE01E25F5D
:100F4000FE4F91838083F801E05FFE4F2081318165
:100F5000DE01A05FBE4F11963C932E93D801AC5E8C
:100F6000BE4F2C91DE01AC5EBE4F2C93288139819F
:100F70009F938F9381818F9380818F933F932F9342
:100F800086E992E09F938F930E94020EF801808180
:100F900091812DB73EB7285F3F4F0FB6F8943EBF03
:100FA0000FBE2DBFB4CF0F931F93CF93DF93EB01F1
:100FB0008C010150110983E291E0089FB001099F63
:100FC000700D189F700D1124605D7C4FE09114032B
:100FD000F0911503E45FFE4FA081B1818D919C914A
:100FE000009729F4DF91CF911F910F910895681711
:100FF000790721F0895E9E4FDC01F0CF80819181DD
:101000000E94210323E231E0029FC001039F900D63
:10101000129F900D1124805D9C4FFC01EE5EFE4FEF
:10102000D183C083339623E030E0318320838C5F0B
:101030009E4F21E030E0FC0131832083DF91CF918E
:101040001F910F910C942906CF93DF931F921F924B
:10105000CDB7DEB781E090E09A838983BE016F5FF0
:101060007F4F81E60E9440076EE570E00E94D30743
:101070000F900F90DF91CF910895FC01319723E2FB
:1010800031E0E29FC001E39F900DF29F900D11248B
:10109000805D9C4FFC01EC5FFE4F2081318124304C
:1010A0003105B9F4A0911403B09115032D913C9131
:1010B000DC01A25FBE4F11963C932E9312964D9386
:1010C0005C938C5E9E4FDC016C9381E090E0918399
:1010D0008083089542E350E061E681E090E00C9463
:1010E0003D081F920F920FB60F9211240BB60F926C
:1010F0002F933F934F935F936F937F938F939F9320
:10110000AF93BF93EF93FF9380910E0390910F03E2
:10111000019690930F0380930E038091100390919A
:101120001103892BA9F08091140390911503FC0100
:10113000E75EFE4F208131812330310549F0719700
:1011400022E030E0318320830E94F4020E947E037B
:10115000FF91EF91BF91AF919F918F917F916F918F
:101160005F914F913F912F910F900BBE0F900FBE4B
:101170000F901F9018950C946502CF93DF931F92E8
:101180001F92CDB7DEB784E690E09A838983AE01E3
:101190004F5F5F4F61E682E090E00E9458060F903B
:1011A0000F90DF91CF9108950E94BD08FDCFCF939E
:1011B000DF931F921F92CDB7DEB71A821982BE014C
:1011C0006F5F7F4F8FEF0E94400764EF71E00E94D6
:1011D000D3070F900F90DF91CF9108950E94D70809
:1011E000FDCF0F931F9361E070E081E992E00E94D0
:1011F0004D0561E070E081E992E00E944D0510E04C
:1012000000E021E030E044E050E061E070E08AE599
:1012100092E00E94CB0501E010E021E030E044E0E4
:1012200050E061E070E08BE592E00E94CB0561E068
:1012300070E08AE592E00E948C0561E070E08AE54A
:1012400092E01F910F910C948C0561E070E089E2AF
:1012500097E00E944D0561E070E084E298E00C9414
:101260004D0561E070E084E298E00E944D0561E088
:1012700070E089E297E00C944D05CF93DF93D0E0C6
:10128000C0E0BE018AE592E00E948C052196C4313F
:10129000D105B9F7DF91CF9108950F931F9310E017
:1012A00000E021E030E044E050E061E070E08AE5F9
:1012B00092E00E94CB0521E030E044E050E061E0A4
:1012C00070E08BE592E00E94CB051F910F9108958D
:1012D00061E070E08AE698E00E944D0561E070E010
:1012E00084E298E00C944D0561E070E084E298E0BF
:1012F0000E944D0561E070E08AE698E00C944D058F
:1013000061E070E084ED98E00E944D0561E070E0DE
:101310008EEE98E00C944D05CF93C82F8A3019F4C7
:101320008DE00E948C098091C00085FFFCCFC093A6
:10133000C600CF9108958091C00087FFFCCF8091B7
:10134000C60008951092C50083E38093C400E0ECCA
:10135000F0E080818D7F808386E08093C20088E109
:101360008093C100089561E070E088EC90E00C94F7
:101370005E01EAE7F0E0808187608083ACE7B0E05F
:101380008C9180648C938081806880830895E7E0ED
:10139000F1E080818E7F80830C94B90990917C006C
:1013A000907E282F2770922B90937C0090917B0049
:1013B000977F8870892B80937B0080917A0080646E
:1013C00080937A0080917A0086FDFCCF609178004E
:1013D0007091790090E080E00E94070D2AEF3EE7CF
:1013E0004AEE5EE30E94950D20E030E04CE053E4CD
:1013F0000E946C0C0E94D80C709379006093780066
:101400008091780090917900089580916015909175
:101410006115892B39F481E090E0909361158093F8
:101420006015089510926115109260150895EAE014
:10143000F1E0808180628083808180618083E0E24E
:10144000F1E0808183608083A1E2B1E08C918C9394
:101450008081886080838081806280838C918460B9
:101460008C9380E190E090932D0180932C0181E397
:1014700090E090932B0180932A010895009781F4C6
:1014800080912A0190912B01899748F080912A013F
:1014900090912B01019790932B0180932A0108953D
:1014A0000197E9F780912A0190912B01CA97B8F72B
:1014B00080912A0190912B010196EDCF009781F444
:1014C00080912C0190912D01419748F080912C0141
:1014D00090912D01019790932D0180932C010895F7
:1014E0000197E9F780912C0190912D014E97B8F763
:1014F00080912C0190912D010196EDCFFFCF0E949C
:101500000E04909369158093681520916C153091A5
:101510006D152130310581F52091661530916715E3
:1015200040916A1550916B15241B350B820F931F48
:10153000209105023091060228173907E8F412B805
:1015400010926D1510926C152091681530916915E7
:101550008091661590916715820F931F40916A15CF
:1015600050916B15841B950B9093671580936615AE
:1015700030936B1520936A15209168153091691589
:101580006091030270910402C9010E94570CC29736
:1015900080F44091621550916315C901885E9340B3
:1015A0004817590730F430936315209362150C9453
:1015B000050A0895C1E00E947F0A0E943A01209125
:1015C000601530916115232B09F0A4C08C3609F405
:1015D00059C008F040C0823609F45EC0A0F58133DE
:1015E00051F70E940E04909369158093681520911D
:1015F0006C1530916D152115310509F05FC02091F2
:101600006A1530916B152C5E3F4F2817390798F6F5
:101610002091661530916715809105029091060220
:101620002817390740F6C2B981E090E090936D1514
:1016300080936C15809168159091691590936B1546
:1016400080936A15B8CF863601F1883609F0B3CF9A
:1016500090E080E030C0833721F150F4813749F1C8
:101660006FEF7FEF823709F0A6CF82E390E011C0E1
:101670008937E1F08A3709F09ECF81E090E00E943F
:101680003E0A99CF61E070E0F0CF60E070E884E658
:1016900090E00E945E018FCF60E070E88CE99FEFE0
:1016A000F8CF70E060E090E080E0F3CF90E080E081
:1016B000E6CF81E090E00E945E0A7DCF21303105C7
:1016C00009F079CF20916A1530916B152C5E3F4F50
:1016D0002817390708F06FCF12B810926D151092C5
:1016E0006C1520916815309169158091661590915F
:1016F0006715820F931F40916A1550916B15841BDB
:10170000950B909367158093661530936B15209316
:101710006A1551CF0E94B3094ECF0F921F922F929C
:101720003F924F925F926F927F928F929F92AF9271
:10173000BF92CF92DF92EF92FF920F931F932F935E
:101740003F934F935F936F937F938F939F93AF9349
:10175000BF93CF93DF93EF93FF930FB70F930CB724
:101760000F93EDB7FEB7E0937015F0937115E0910C
:101770006E15F0916F15EDBFFEBF0F910CBF0F916D
:101780000FBFFF91EF91DF91CF91BF91AF919F91EB
:101790008F917F916F915F914F913F912F911F9109
:1017A0000F91FF90EF90DF90CF90BF90AF909F9000
:1017B0008F907F906F905F904F903F902F901F90F1
:1017C0000F9018950F921F922F923F924F925F9217
:1017D0006F927F928F929F92AF92BF92CF92DF9241
:1017E000EF92FF920F931F932F933F934F935F932B
:1017F0006F937F938F939F93AF93BF93CF93DF9319
:10180000EF93FF930FB70F930CB70F93EDB7FEB79E
:10181000E0936E15F0936F15E0917015F0917115CE
:10182000EDBFFEBF0F910CBF0F910FBFFF91EF9166
:10183000DF91CF91BF91AF919F918F917F916F91E8
:101840005F914F913F912F911F910F91FF90EF90DA
:10185000DF90CF90BF90AF909F908F907F906F90D0
:101860005F904F903F902F901F900F9008950E948F
:10187000A20985E192E0909375158093741587E035
:1018800092E090937315809372150E94C709CDEC76
:10189000D2E088E00E94CE099F938F93DF93CF938D
:1018A0000E94020E0F900F900F900F90F2CFAA1B84
:1018B000BB1B51E107C0AA1FBB1FA617B70710F03B
:1018C000A61BB70B881F991F5A95A9F7809590956D
:1018D000BC01CD0108955058BB27AA270E94830C54
:1018E0000C945B0D0E944D0D38F00E94540D20F0B9
:1018F00039F49F3F19F426F40C944A0D0EF4E09548
:10190000E7FB0C94440DE92F0E946C0D58F3BA17B5
:10191000620773078407950720F079F4A6F50C9405
:101920008E0D0EF4E0950B2EBA2FA02D0B01B901F0
:1019300090010C01CA01A0011124FF27591B99F045
:10194000593F50F4503E68F11A16F040A22F232F51
:10195000342F4427585FF3CF469537952795A795A1
:10196000F0405395C9F77EF41F16BA0B620B730B48
:10197000840BBAF09150A1F0FF0FBB1F661F771FB9
:10198000881FC2F70EC0BA0F621F731F841F48F46E
:10199000879577956795B795F7959E3F08F0B0CFF7
:1019A0009395880F08F09927EE0F979587950895DE
:1019B0000E94740D88F09F5798F0B92F9927B7515E
:1019C000B0F0E1F0660F771F881F991F1AF0BA95E3
:1019D000C9F714C0B13091F00E948E0DB1E00895A6
:1019E0000C948E0D672F782F8827B85F39F0B93F98
:1019F000CCF3869577956795B395D9F73EF4909596
:101A00008095709561957F4F8F4F9F4F0895E89413
:101A100009C097FB3EF490958095709561957F4F36
:101A20008F4F9F4F9923A9F0F92F96E9BB279395E4
:101A3000F695879577956795B795F111F8CFFAF4F4
:101A4000BB0F11F460FF1BC06F5F7F4F8F4F9F4F25
:101A500016C0882311F096E911C0772321F09EE883
:101A6000872F762F05C0662371F096E8862F70E0E9
:101A700060E02AF09A95660F771F881FDAF7880FC3
:101A80009695879597F9089597F99F6780E870E094
:101A900060E008959FEF80EC089500240A941616E4
:101AA000170618060906089500240A94121613064C
:101AB000140605060895092E0394000C11F48823DA
:101AC00052F0BB0F40F4BF2B11F460FF04C06F5FF6
:101AD0007F4F8F4F9F4F089557FD9058440F551FCC
:101AE00059F05F3F71F04795880F97FB991F61F0A0
:101AF0009F3F79F087950895121613061406551F17
:101B0000F2CF4695F1DF08C0161617061806991F82
:101B1000F1CF86957105610508940895E894BB2777
:101B200066277727CB0197F908950E94A80D0C949A
:101B30005B0D0E944D0D38F00E94540D20F095234E
:101B400011F00C94440D0C944A0D11240C948F0D3B
:101B50000E946C0D70F3959FC1F3950F50E0551FD7
:101B6000629FF001729FBB27F00DB11D639FAA27F2
:101B7000F00DB11DAA1F649F6627B00DA11D661F41
:101B8000829F2227B00DA11D621F739FB00DA11D62
:101B9000621F839FA00D611D221F749F3327A00D1C
:101BA000611D231F849F600D211D822F762F6A2FB8
:101BB00011249F5750409AF0F1F088234AF0EE0F1D
:101BC000FF1FBB1F661F771F881F91505040A9F74A
:101BD0009E3F510580F00C94440D0C948F0D5F3F97
:101BE000E4F3983ED4F3869577956795B795F79586
:101BF000E7959F5FC1F7FE2B880F911D96958795FE
:101C000097F90895CF93DF93CDB7DEB7AE014A5F62
:101C10005F4FFA0161917191AF01809174159091BC
:101C200075150E941C0EDF91CF9108956091741577
:101C3000709175150C9434102F923F924F925F92D1
:101C40006F927F928F929F92AF92BF92CF92DF92CC
:101C5000EF92FF920F931F93CF93DF9300D000D0AA
:101C600000D01F921F92CDB7DEB77C013B018A01E5
:101C7000FC0117821682838181FFDDC1CE010196AE
:101C80005C01F7019381F30193FD859193FF8191AD
:101C90003F01882309F453C1853239F493FD8591BE
:101CA00093FF81913F01853229F4B70190E00E94B2
:101CB0003410E7CF912C212C312CFFE1F31538F0B3
:101CC0008B3211F190F4803209F1833229F137FC23
:101CD0003CC020ED280F2A3050F536FE20C08AE0A7
:101CE000989E200D1124922E06C08D3291F08033E3
:101CF00071F7689430F8F30193FD859193FF81911A
:101D00003F018111DACF21C0689431F8689432F82C
:101D1000F2CF689433F8EFCF689434F8ECCFEAE070
:101D20002E9E200D1124222E689435F8E4CF8E3299
:101D300029F436FC04C1689436F8DDCF8C3619F4EA
:101D4000689437F8D8CF8836B1F2982F9F7D955494
:101D50009330E0F08336A1F18337C1F1833509F088
:101D600063C02801F2E04F0E511CF801C080D18001
:101D7000692D70E036FC02C06FEF7FEFC6010E9454
:101D80001E104C01689437F882010AC00C5F1F4F87
:101D9000FFE3F98388248394912C6501E89437F854
:101DA00033FE2DC0522C8114910471F5552009F495
:101DB00068CFB70180E290E00E9434105A94F6CFC9
:101DC000F801808189830E5F1F4FE4CF2801F2E084
:101DD0004F0E511CF801C080D180692D70E036FC97
:101DE00002C06FEF7FEFC6010E9429104C018201F3
:101DF000D5CFB70180E290E00E9434102A942814D5
:101E0000190409F0B0F7CECFF60137FC859137FE03
:101E100081916F01B70190E00E94341051105A94E3
:101E2000F1E08F1A9108BFCF843619F0893609F096
:101E300077C0F80137FE6BC0608171818281938128
:101E40000C5F1F4FF32DFF763F2E97FF09C0909533
:101E50008095709561957F4F8F4F9F4F689437F8AD
:101E60002AE030E0A5010E946410C82ECA188C2C0C
:101E7000432C36FE0CC0E89440F8C91440F434FEFC
:101E800005C032FC03C0F32DFE7E4F2E892C44FE8C
:101E9000AAC0FE01EC0DF11D8081803309F09CC0C9
:101EA000242D297E422E842D8870582E43FCAAC0F2
:101EB00040FEA4C09C2C821418F42C0C922C981870
:101EC00044FEA6C0B70180E390E00E94341042FEB9
:101ED00009C088E790E041FE02C088E590E0B701C4
:101EE0000E943410C91408F49FC0CA94D12C9FEFEB
:101EF000C91AD90ACA0CDB1CF60182916F01B7011D
:101F000090E00E943410AC14BD04B1F74FCF608153
:101F10007181072E000C880B990B0E5F1F4F92CF1B
:101F2000D32CE894D4F82AE030E08537E1F1232D72
:101F3000297FD22E8F36A9F1F0F4883551F1F701BF
:101F4000868197812B960FB6F894DEBF0FBECDBF6A
:101F5000DF91CF911F910F91FF90EF90DF90CF9085
:101F6000BF90AF909F908F907F906F905F904F90B9
:101F70003F902F900895803749F0883701F7D4FEBD
:101F800002C06894D2F820E130E00DC06894D4F823
:101F9000F6CF34FE03C0822F8660D82E20E132E0D7
:101FA00002C028E030E0F801D7FE0FC060817181E7
:101FB000828193810C5F1F4FA5010E946410C82E7F
:101FC000CA183D2CE89437F852CF6081718190E0B7
:101FD00080E00E5F1F4FF0CF42FC02C0839463CFBE
:101FE0008394839460CF842D867809F45CCFF6CFF8
:101FF000B70180E290E00E94341083948214C0F311
:10200000512C5ECF522C5818821408F459CFF8CFB7
:10201000842D867809F466CF8BE241FE80E247FC8E
:102020008DE2B70190E05CCFB70180E390E00E94C1
:1020300034109A9457CF8FEF9FEF84CFFC01059017
:10204000615070400110D8F7809590958E0F9F1FBA
:102050000895FC016150704001900110D8F78095FF
:1020600090958E0F9F1F08950F931F93CF93DF932B
:10207000182F092FEB018B8181FD09C01FEF0FEF96
:10208000812F902FDF91CF911F910F91089582FFA3
:1020900014C02E813F818C819D81281739073CF423
:1020A000E881F981CF0101969983888310838E811D
:1020B0009F8101969F838E83E3CFE885F985812FE9
:1020C0001995892BA1F3DACFFA01AA27283051F10B
:1020D000203181F1E8946F936E7F6E5F7F4F8F4F59
:1020E0009F4FAF4FB1E03ED0B4E03CD0670F781FB8
:1020F000891F9A1FA11D680F791F8A1F911DA11D9D
:102100006A0F711D811D911DA11D20D009F46894D5
:102110003F912AE0269F11243019305D3193DEF67D
:10212000CF010895462F4770405D4193B3E00FD033
:10213000C9F7F6CF462F4F70405D4A3318F0495D1E
:1021400031FD4052419302D0A9F7EACFB4E0A69501
:102150009795879577956795BA95C9F70097610523
:10216000710508959B01AC010A2E06945795479579
:1021700037952795BA95C9F7620F731F841F951F6E
:08218000A01D0895F894FFCFA3
:102188000100FFE803B80B00000001000000000098
:10219800009B09000000000002000000008C0900FC
:1021A8000000005445524D494E4154494E47205471
:1021B80041534B3A2025640A004572726F722077AA
:1021C800697468206572726F7220636F64653A2063
:1021D80025640A0053656E6465723A2025642020E0
:1021E80073656E64696E67206D65737361676520DA
:1021F80025640A0053656E6465723A2025642020C0
:10220800676F74207265706C79206D657373616790
:10221800652025640A0052656365697665723A200F
:1022280025642020207265636569766564206D6584
:1022380073736167653A20256420202066726F6D8C
:10224800202073656E6465722025640A0073656ECC
:10225800736F722076616C75653A2025640A0000F8
:00000001FF
