:100000000C9484000C94A5000C94A5000C94A500FD
:100010000C94A5000C94A5000C94A5000C94A500CC
:100020000C94A5000C94A5000C94A5000C94A500BC
:100030000C94A5000C94A5000C94A5000C94A500AC
:100040000C94A5000C94A5000C94A5000C94A5009C
:100050000C94A5000C94A5000C94A5000C94A5008C
:100060000C94A5000C94A5000C94A5000C94A5007C
:100070000C94A5000C94A5000C94A5000C94A5006C
:100080000C94A5000C94A5000C94A5000C94A5005C
:100090000C94CD000C94A5000C94A5000C94A50024
:1000A0000C94A5000C94A5000C94F4070C94A500E6
:1000B0000C94A5000C94A5000C94A5000C94A5002C
:1000C0000C94A5000C94A5000C94A5000C94A5001C
:1000D0000C94A5000C94A5000C94A5000C94A5000C
:1000E0000C94A5000C94A7070C94A1010C9457083C
:1000F0000C946A010C9471080C946B010C947501BA
:100100000C94ED070C94AC0611241FBECFEFD1E286
:10011000DEBFCDBF00E00CBF13E0A0E0B2E0EEE137
:10012000FAE100E00BBF02C007900D92A837B107BB
:10013000D9F726E1A8E7B3E001C01D92A230B207CB
:10014000E1F70E94080A0C940D0D0C940000109227
:10015000C50088E98093C10086E08093C20082E0F8
:100160008093C00087E68093C40008959091C000FA
:1001700095FFFCCF8093C6000895803291052CF442
:1001800087589C4FFC018081089580E008958091FC
:10019000780308951092780308951F920F920FB676
:1001A0000F9211240BB60F928F939F93EF93FF93AF
:1001B0008091C80087FFFCCFE0917803F0E0809148
:1001C000CE00E758FC4F80838091780390E0019641
:1001D0008F71992780937803FF91EF919F918F9171
:1001E0000F900BBE0F900FBE0F901F901895EF92BF
:1001F000FF920F931F93CF938C017B01C0E08C2F54
:1002000090E08E159F0534F4800F911FFC018081D2
:10021000811106C0CF911F910F91FF90EF9008952B
:100220000E94B600CF5FEBCF88E98093C90086E0DB
:100230008093CA00E8ECF0E080818D7F808310928B
:10024000CD0087E68093CC0008959091C80095FF7B
:10025000FCCF8093CE0008958091C80087FFFCCF2B
:100260008091CE00089590E080E00E94A70080E891
:100270000E94B6002FEF83EC99E02150804090401F
:10028000E1F700C0000083E80E94B6002FEF83EC86
:1002900099E0215080409040E1F700C000000895AF
:1002A0000F931F93CF93DF93182F092FEB0189E84A
:1002B0000E94B600802F0E94B600812F0E94B600D7
:1002C0008D2F0E94B6008C2FDF91CF911F910F913F
:1002D0000C94B600FFCF2FEF87EA91E621508040C3
:1002E0009040E1F700C00000F6CF8091A803909104
:1002F000A903892B29F1F894E091AC03F091AD03A7
:10030000808191819F938F9383E092E09F938F935D
:100310000E94220A8091AC039091AD03FC01E85F3A
:10032000FE4F23E030E0318320838C5F9E4FFC0141
:10033000118210820F900F900F900F900C94B309C0
:1003400008950C9475018091B8039091B9030097BA
:1003500089F0FC01E95EFE4F208131813093B903C1
:100360002093B803232B21F41092BB031092BA03FD
:10037000118210820895FC0180819181892B51F4B2
:100380007183608373836283695E7E4FFB01118298
:1003900010820895A281B381A95EBE4F6D937C93B4
:1003A000738362830895E091AC03F091AD03E55E41
:1003B000FE4F808191810895E091AC03F091AD03EF
:1003C0008081918108959C01E8ECF3E090E080E069
:1003D000408151814217530741F00196ED5DFE4F78
:1003E00080319105A9F78FEF9FEF0895F8949F93BF
:1003F0008F9389E192E09F938F930E94220A0F903E
:100400000F900F900F90FFCFBC01FC018081918174
:100410000197409720F085E090E00E94F601EC5FA4
:10042000FE4F80819181029721F481E090E09183D9
:100430008083FB01E75EFE4F8081918182309105D0
:1004400079F08330910529F0019739F48CEB93E032
:1004500002C084EC93E00C94BB0182E090E0DDCF1D
:100460000895CF93DF93FC014081518141155105DF
:1004700021F48AE090E00E94F601DA01A95EBE4F05
:100480002D913C9111974617570781F431832083B2
:100490001D921C9280819181892B11F4138212820A
:1004A000DF91CF910895A901292F382F211531050A
:1004B00089F3D901A95EBE4F9C9111968C91119739
:1004C0002617370781F7EA01C95EDE4F98838983D3
:1004D0001D921C928281938182179307D9F65383D0
:1004E0004283D8CFCF93DF93FC01C081D181209785
:1004F00059F0FE01EC5FFE4F208131812130310542
:1005000039F4BE010E943102CE01DF91CF910895EE
:10051000C95EDE4F0990D881C02DE9CF5F926F92FE
:100520007F928F929F92AF92BF92CF92DF92EF9283
:10053000FF920F931F93CF93DF938091A403909129
:10054000A50301969093A5038093A40385E5682EE7
:1005500082E0782E84EC93E00E9472029093AD03C7
:100560008093AC030097E9F12091A4033091A50397
:100570002F5F3F4F3093A5032093A403DC018D919F
:100580009C919F938F933F932F9384E392E09F934B
:100590008F930E94220A0F900F900F900F900F9050
:1005A0000F90E091AC03F091AD0382819381909321
:1005B000F9158093F815EC5FFE4F82E090E091838F
:1005C0008083DF91CF911F910F91FF90EF90DF908B
:1005D000CF90BF90AF909F908F907F906F905F90E3
:1005E0000895C091C003D091C10310E000E0F12C48
:1005F000E12C209749F422E0E216F10408F45EC0F1
:1006000081E090E00E94F6012091A4033091A503BF
:100610002F5F3F4F3093A5032093A403E091A603DF
:10062000F091A7035E01BFEDAB1ABEEFBB0AD50187
:100630008D909C906E01B1EECB1ABEEFDB0AD60115
:100640004C9111965C90CF0188199909642F752DF2
:100650000E940E0A9F938F935F924F939F928F9267
:10066000FF93EF9389818F9388818F933F932F938B
:100670007F926F920E94220A8091A6039091A70315
:10068000F50120813181821B930BD6016D917C9104
:100690000E940E0AEDB7FEB73E960FB6F894FEBF65
:1006A0000FBEEDBF892B21F4FFEFEF1AFF0A8E0179
:1006B000C95EDE4F0990D881C02D9BCFEA94EF2808
:1006C00019F11092AD031092AC038CEB93E00E94F1
:1006D00072029093AD038093AC03009709F43ACF74
:1006E0002091A4033091A5032F5F3F4F3093A503C2
:1006F0002093A403FC01808191819F938F933F936A
:100700002F9385EC92E043CF1093AD030093AC039D
:1007100001151105D1F28091A4039091A5030196D2
:100720009093A5038093A403D8012D913C913F930E
:100730002F939F938F9382EA92E029CFF89410929F
:10074000A000E1EAF0E010828081886080838081EF
:100750008460808381E792E09093A9008093A80051
:10076000E2E7F0E08081826080831092A500109221
:10077000A40078940895FC0180819181009721F470
:100780008AE090E00C94360A895E9E4FF4CFFC011B
:10079000349620E031E0DF01A9011D924150504024
:1007A000E1F7E150FF4F25E731E0208331973083B7
:1007B000319710823197608331977083319710821F
:1007C0009C0125523F4FDC0113963C932E931297C8
:1007D000389660837183329611821082349620EBB2
:1007E00033E031832083329724EB33E0318320835D
:1007F00034961182108232961182108232961182C2
:100800001082329610823196118210822091AE03AE
:100810003091AF032F5F3F4F3093AF032093AE0370
:10082000329611821082739721E030E03183208369
:100830000C940402EF92FF920F931F93CF93DF93D8
:100840001092AF031092AE031092A9031092A80366
:100850001092AB031092AA03E091AC03F091AD03A8
:1008600081E190E0918380831092C5031092C403CC
:100870001092C7031092C6031092C1031092C003D6
:100880001092C3031092C2031092BD031092BC03D6
:100890001092BF031092BE031092B9031092B803D6
:1008A0001092BB031092BA03C8ECD3E010E000E052
:1008B00083E2E82EFF24F394BE01FE01C7011192EA
:1008C0000197E9F7FE01EC5FFE4F118210820F5F86
:1008D0001F4F19830883CD5DDE4F7396D183C0838C
:1008E00088EB93E00E94BB010031110529F7DF91ED
:1008F000CF911F910F91FF90EF9008958091A803E1
:100900009091A903892B09F04AC08091AE03909180
:10091000AF03892B09F443C0F89482EE92E00E9461
:100920003C0A81E090E09093A9038093A8030E9481
:100930008E02E091AC03F091AD03DF01A85FBE4FE2
:1009400011961C921E92828193819093F915809347
:10095000F8150E945E098091AC039091AD0320913F
:10096000F8153091F915FC0133832283E85FFE4FBF
:10097000208131812230310529F02330310529F0E1
:10098000232B49F40E940402D2CF8C5F9E4FFC01BE
:1009900011821082CCCF83E090E00E94F60108958E
:1009A000EF92FF920F931F93CF93DF938C017B0104
:1009B0008091AE039091AF03409771F18091B8039D
:1009C0009091B903892B41F18091A8039091A903DB
:1009D000892B09F0F8940E94A301EC01FC01E75E69
:1009E000FE4F83E090E0918380833296F182E08233
:1009F000B801CE010E94C7038091A8039091A9037A
:100A0000892B09F0789488819981DF91CF911F918A
:100A10000F91FF90EF90089590E080E0F6CFEF9275
:100A2000FF920F931F93CF93DF938C017B018091F3
:100A3000AE039091AF03409771F18091B80390910C
:100A4000B903892B41F18091A8039091A903892BC7
:100A500009F0F8940E94A301EC01FC01E75EFE4F4F
:100A600081E090E0918380833296F182E082B80148
:100A7000CE010E94C7038091A8039091A903892BFE
:100A800009F0789488819981DF91CF911F910F911E
:100A9000FF90EF90089590E080E0F6CF8F929F92C4
:100AA000AF92BF92CF92DF92EF92FF920F931F937C
:100AB000CF93DF93EC015B017A0169018091AE0372
:100AC0009091AF03409709F444C08091B80390918E
:100AD000B903892B09F43DC08091A8039091A90323
:100AE000892B09F0F8940E94A3014C01FC01E75EF8
:100AF000FE4F82E090E0918380833296B182A082A3
:100B00003296D182C0823296F182E082329611838F
:100B10000083BE01C4010E94C703B40180EC93E0CE
:100B20000E94BB018091A8039091A903892B09F031
:100B30007894F40180819181DF91CF911F910F9181
:100B4000FF90EF90DF90CF90BF90AF909F908F90ED
:100B5000089590E080E0F0CF8091A8039091A903E0
:100B6000892B69F0F894E091AC03F091AD03E85F54
:100B7000FE4F82E090E0918380830C94B309089546
:100B8000CF93DF93FC01C081D181209751F0DE012A
:100B9000AC5EBE4F9C91962341F0BE01CF010E94F6
:100BA0003102CE01DF91CF910895C95EDE4F0990E9
:100BB000D881C02DEACFFF920F931F93CF93DF937D
:100BC000F62E8A01AC0141505109C091AC03D0917D
:100BD000AD0323E231E0429FC001439F900D529F3D
:100BE000900D112488539C4FDC01AC5FBE4F2D91BA
:100BF0003C911197BE016C5F7E4F2430310509F0A6
:100C000059C0488159819C01225F3E4FF9015183AF
:100C10004083F801408151812E5F3F4FF90151839C
:100C200040832C5F3F4FF901F08225E030E0FB016B
:100C30003183208321E030E02D933C93845F9E4FED
:100C4000BE01FC01808191810E94BB018881998154
:100C5000F80121812F9320812F939F938F938FEF02
:100C600092E09F938F930E94220A0E94AC05E0912C
:100C7000AC03F091AD03DF01AE5EBE4F2D913C9110
:100C8000808191813F932F939F938F938FE193E086
:100C90009F938F930E94220A8DB79EB70C960FB632
:100CA000F8949EBF0FBE8DBFDF91CF911F910F9122
:100CB000FF90089523E030E0FB0131832083865FBD
:100CC0009E4FBE01FC01808191810E94BB01888101
:100CD0009981FE01E25FFE4F91838083F80180815C
:100CE0009181FE01E05FFE4F918380833496F08214
:100CF000319681E090E09183808388819981F80129
:100D000021812F9320812F939F938F938FEF92E0D8
:100D10009F938F930E94220A0E94AC05E091AC033E
:100D2000F091AD03DF01AE5EBE4F2D913C9180810D
:100D300091813F932F939F938F938FE193E09F93A4
:100D40008F930E94220A8DB79EB70C960FB6F89427
:100D50009EBF0FBE8DBFA8CFCF93DF931F921F9270
:100D6000CDB7DEB781E390E09A838983AE014F5F10
:100D70005F4F61E681E090E00E94DB050F900F90ED
:100D8000DF91CF9108950F931F93CF93DF93682F37
:100D9000C091AC03D091AD03FE01E65FFE4F8081B0
:100DA00091810E94C0058C010097C9F5CC5FDE4F90
:100DB00084E090E0998388830E94AC05E091AC03C5
:100DC000F091AD03DF01A25FBE4F4D915C91119791
:100DD00012962D913C91808191815F934F933F9327
:100DE0002F939F938F9381E493E09F938F930E941F
:100DF000220AE091AC03F091AD03E25FFE4F8081E7
:100E000091812DB73EB7285F3F4F0FB6F8943EBF94
:100E10000FBE2DBFDF91CF911F910F910895FC015F
:100E2000EC5FFE4F85E090E091838083FE01E45FFC
:100E3000FE4F80819181B8010E94BB01F801808141
:100E40009181FE01E25FFE4F91838083F801E05FB4
:100E5000FE4F20813181DE01A05FBE4F11963C9391
:100E60002E93D801AC5EBE4F2C91DE01AC5EBE4F1E
:100E70002C93288139819F938F9381818F938081D7
:100E80008F933F932F9381E493E09F938F930E94DE
:100E9000220AF801808191812DB73EB7285F3F4F2C
:100EA0000FB6F8943EBF0FBE2DBFB4CF0F931F9364
:100EB000CF93DF93EB018C010150110983E291E0A4
:100EC000089FB001099F700D189F700D1124685381
:100ED0007C4FE091AC03F091AD03E45FFE4FA08145
:100EE000B1818D919C91009729F4DF91CF911F9151
:100EF0000F9108956817790721F0895E9E4FDC01F4
:100F0000F0CF808191810E94310223E231E0029F83
:100F1000C001039F900D129F900D112488539C4F88
:100F2000FC01EE5EFE4FD183C083339623E030E0B8
:100F3000318320838C5F9E4F21E030E0FC013183C0
:100F40002083DF91CF911F910F910C94AC05CF932B
:100F5000DF931F921F92CDB7DEB781E090E09A83B6
:100F60008983BE016F5F7F4F81E60E94C3066EE5F5
:100F700070E00E9456070F900F90DF91CF91089577
:100F8000FC01319723E231E0E29FC001E39F900D25
:100F9000F29F900D112488539C4FFC01EC5FFE4F93
:100FA0002081318124303105B9F4A091AC03B09196
:100FB000AD032D913C91DC01A25FBE4F11963C9395
:100FC0002E9312964D935C938C5E9E4FDC016C9336
:100FD00081E090E091838083089542E350E061E6F0
:100FE00081E090E00C94C0071F920F920FB60F9211
:100FF00011240BB60F922F933F934F935F936F93F0
:101000007F938F939F93AF93BF93EF93FF938091C1
:10101000A6039091A70301969093A7038093A6033C
:101020008091A8039091A903892BA9F08091AC032A
:101030009091AD03FC01E75EFE4F208131812330AA
:10104000310549F0719722E030E0318320830E941E
:1010500004020E948E02FF91EF91BF91AF919F9188
:101060008F917F916F915F914F913F912F910F9051
:101070000BBE0F900FBE0F901F9018950C9475012A
:10108000CF93DF931F921F92CDB7DEB784E690E037
:101090009A838983AE014F5F5F4F61E682E090E003
:1010A0000E94DB050F900F90DF91CF9108950E9471
:1010B0004008FDCFCF93DF931F921F92CDB7DEB7CD
:1010C0001A821982BE016F5F7F4F8FEF0E94C306A5
:1010D00064EF71E00E9456070F900F90DF91CF915F
:1010E00008950E945A08FDCF0F931F9361E070E0AE
:1010F00081EA91E00E94D00461E070E081EA91E031
:101100000E94D00410E000E021E030E044E050E034
:1011100061E070E08AE691E00E944E0501E010E097
:1011200021E030E044E050E061E070E08BE691E0E7
:101130000E944E0561E070E08AE691E00E940F0592
:1011400061E070E08AE691E01F910F910C940F0529
:1011500061E070E08CEA96E00E94D00461E070E00B
:1011600087EA97E00C94D00461E070E087EA97E0AA
:101170000E94D00461E070E08CEA96E00C94D00408
:10118000CF93DF93D0E0C0E0BE018AE691E00E94F9
:101190000F052196C431D105B9F7DF91CF9108959C
:1011A0000F931F9310E000E021E030E044E050E0B6
:1011B00061E070E08AE691E00E944E0521E030E0B7
:1011C00044E050E061E070E08BE691E00E944E0563
:1011D0001F910F91089561E070E08DEE97E00E94FD
:1011E000D00461E070E087EA97E00C94D00461E0FD
:1011F00070E087EA97E00E94D00461E070E08DEE35
:1012000097E00C94D00461E070E087E598E00E94DC
:10121000D00461E070E081E798E00C94D0048FEF97
:1012200081B912B81092A5001092A40082EA8093AE
:10123000A000E1EAF0E080818B61808387E893E1A0
:101240009093A7008093A60087E791E09093A90070
:101250008093A80008950E942C01893839F1A8F4E0
:101260008C3221F148F48932B1F760E070E88CE902
:101270009FEF0E945001EFCF8E32E9F08C3659F784
:1012800061E070E082E390E0F4CF893CA1F048F4A3
:101290008B38B1F38E3AF9F670E060E090E080E0D0
:1012A000E8CF8D3CC9F3893F01F3D5CF60E070E80A
:1012B00084E690E0DECF6FEF7FEFE4CF0F921F92D6
:1012C0002F923F924F925F926F927F928F929F9256
:1012D000AF92BF92CF92DF92EF92FF920F931F9344
:1012E0002F933F934F935F936F937F938F939F932E
:1012F000AF93BF93CF93DF93EF93FF930FB70F930A
:101300000CB70F93EDB7FEB7E093FA15F093FB150A
:10131000E091F815F091F915EDBFFEBF0F910CBFEC
:101320000F910FBFFF91EF91DF91CF91BF91AF91DF
:101330009F918F917F916F915F914F913F912F91ED
:101340001F910F91FF90EF90DF90CF90BF90AF90E3
:101350009F908F907F906F905F904F903F902F90D5
:101360001F900F9018950F921F922F923F924F92BD
:101370005F926F927F928F929F92AF92BF92CF9225
:10138000DF92EF92FF920F931F932F933F934F9310
:101390005F936F937F938F939F93AF93BF93CF93FD
:1013A000DF93EF93FF930FB70F930CB70F93EDB746
:1013B000FEB7E093F815F093F915E091FA15F09166
:1013C000FB15EDBFFEBF0F910CBF0F910FBFFF913B
:1013D000EF91DF91CF91BF91AF919F918F917F91CD
:1013E0006F915F914F913F912F911F910F91FF90BE
:1013F000EF90DF90CF90BF90AF909F908F907F90B5
:101400006F905F904F903F902F901F900F90089596
:101410000E9433010E9414010E942B09AA1BBB1BCE
:1014200051E107C0AA1FBB1FA617B70710F0A61BE4
:10143000B70B881F991F5A95A9F780959095BC0105
:10144000CD010895CF93DF93CDB7DEB7AE014A5FEC
:101450005F4FFA0161917191AF018091FE159091FA
:10146000FF150E94670ADF91CF9108956091FE15E4
:101470007091FF150C947F0C0F931F93CF93DF9304
:10148000E091FE15F091FF152381EC0110E000E0E2
:1014900021FD08C00FEF1FEF14C01995892B11F023
:1014A0000FEF1FEF89916091FE157091FF15DB0121
:1014B0001896ED91FC918111F0CF8AE01995892B56
:1014C00049F7C801DF91CF911F910F9108952F9295
:1014D0003F924F925F926F927F928F929F92AF92C4
:1014E000BF92CF92DF92EF92FF920F931F93CF9311
:1014F000DF9300D000D000D01F921F92CDB7DEB78F
:101500007C013B018A01FC0117821682838181FFE5
:10151000DDC1CE0101965C01F7019381F30193FDDA
:10152000859193FF81913F01882309F453C185324E
:1015300039F493FD859193FF81913F01853229F420
:10154000B70190E00E947F0CE7CF912C212C312C29
:10155000FFE1F31538F08B3211F190F4803209F18C
:10156000833229F137FC3CC020ED280F2A3050F59A
:1015700036FE20C08AE0989E200D1124922E06C0CF
:101580008D3291F0803371F7689430F8F30193FD58
:10159000859193FF81913F018111DACF21C0689439
:1015A00031F8689432F8F2CF689433F8EFCF68944A
:1015B00034F8ECCFEAE02E9E200D1124222E689400
:1015C00035F8E4CF8E3229F436FC04C1689436F83D
:1015D000DDCF8C3619F4689437F8D8CF8836B1F25D
:1015E000982F9F7D95549330E0F08336A1F1833797
:1015F000C1F1833509F063C02801F2E04F0E511CA0
:10160000F801C080D180692D70E036FC02C06FEF18
:101610007FEFC6010E94690C4C01689437F8820183
:101620000AC00C5F1F4FFFE3F98388248394912C39
:101630006501E89437F833FE2DC0522C81149104D3
:1016400071F5552009F468CFB70180E290E00E945F
:101650007F0C5A94F6CFF801808189830E5F1F4F6B
:10166000E4CF2801F2E04F0E511CF801C080D18078
:10167000692D70E036FC02C06FEF7FEFC6010E945B
:10168000740C4C018201D5CFB70180E290E00E943A
:101690007F0C2A942814190409F0B0F7CECFF60174
:1016A00037FC859137FE81916F01B70190E00E9470
:1016B0007F0C51105A94F1E08F1A9108BFCF8436F5
:1016C00019F0893609F077C0F80137FE6BC06081E8
:1016D0007181828193810C5F1F4FF32DFF763F2E26
:1016E00097FF09C090958095709561957F4F8F4FBA
:1016F0009F4F689437F82AE030E0A5010E94AF0CB4
:10170000C82ECA188C2C432C36FE0CC0E89440F826
:10171000C91440F434FE05C032FC03C0F32DFE7E34
:101720004F2E892C44FEAAC0FE01EC0DF11D8081D4
:10173000803309F09CC0242D297E422E842D887090
:10174000582E43FCAAC040FEA4C09C2C821418F45E
:101750002C0C922C981844FEA6C0B70180E390E0B0
:101760000E947F0C42FE09C088E790E041FE02C063
:1017700088E590E0B7010E947F0CC91408F49FC06F
:10178000CA94D12C9FEFC91AD90ACA0CDB1CF601E6
:1017900082916F01B70190E00E947F0CAC14BD04F0
:1017A000B1F74FCF60817181072E000C880B990B28
:1017B0000E5F1F4F92CFD32CE894D4F82AE030E08C
:1017C0008537E1F1232D297FD22E8F36A9F1F0F450
:1017D000883551F1F701868197812B960FB6F894E1
:1017E000DEBF0FBECDBFDF91CF911F910F91FF9054
:1017F000EF90DF90CF90BF90AF909F908F907F90B1
:101800006F905F904F903F902F900895803749F0F0
:10181000883701F7D4FE02C06894D2F820E130E0A6
:101820000DC06894D4F8F6CF34FE03C0822F8660D2
:10183000D82E20E132E002C028E030E0F801D7FEE7
:101840000FC060817181828193810C5F1F4FA50160
:101850000E94AF0CC82ECA183D2CE89437F852CF1E
:101860006081718190E080E00E5F1F4FF0CF42FCFD
:1018700002C0839463CF8394839460CF842D867851
:1018800009F45CCFF6CFB70180E290E00E947F0CB4
:1018900083948214C0F3512C5ECF522C58188214BA
:1018A00008F459CFF8CF842D867809F466CF8BE2FF
:1018B00041FE80E247FC8DE2B70190E05CCFB701CA
:1018C00080E390E00E947F0C9A9457CF8FEF9FEFB8
:1018D00084CFFC010590615070400110D8F78095CD
:1018E00090958E0F9F1F0895FC01615070400190EC
:1018F0000110D8F7809590958E0F9F1F08950F9334
:101900001F93CF93DF93182F092FEB018B8181FD5C
:1019100009C01FEF0FEF812F902FDF91CF911F9103
:101920000F91089582FF14C02E813F818C819D818B
:10193000281739073CF4E881F981CF010196998392
:10194000888310838E819F8101969F838E83E3CF4E
:10195000E885F985812F1995892BA1F3DACFFA0152
:10196000AA27283051F1203181F1E8946F936E7FDE
:101970006E5F7F4F8F4F9F4FAF4FB1E03ED0B4E0CF
:101980003CD0670F781F891F9A1FA11D680F791F10
:101990008A1F911DA11D6A0F711D811D911DA11D21
:1019A00020D009F468943F912AE0269F1124301931
:1019B000305D3193DEF6CF010895462F4770405DCC
:1019C0004193B3E00FD0C9F7F6CF462F4F70405D7B
:1019D0004A3318F0495D31FD4052419302D0A9F7D6
:1019E000EACFB4E0A6959795879577956795BA95D0
:1019F000C9F700976105710508959B01AC010A2E96
:101A000006945795479537952795BA95C9F7620F6C
:0E1A1000731F841F951FA01D0895F894FFCF2B
:101A1E000100FF5445524D494E4154494E47205402
:101A2E0041534B3A2025640A004572726F7220773B
:101A3E00697468206572726F7220636F64653A20F4
:101A4E0025640A0025642E53656C656374656420F5
:101A5E006E65772073797374656D207461736B3A5C
:101A6E002025640A0025642E207069643A202564BE
:101A7E00207469636B3A202564206F666673657403
:101A8E003A20256420706572696F643A20256420BF
:101A9E002020287469636B2D6F6666736574292028
:101AAE006D6F642028706572696F64293A20256411
:101ABE000A0025642E53656C6563746564206E653B
:101ACE007720706572696F646963207461736B3A15
:101ADE002025640A0025642E53656C656374656465
:101AEE00206E6577205252207461736B3A20256404
:101AFE000A002D2D2D2D2D2D2D5354415254494E6E
:101B0E0047204F532D2D2D2D2D2D2D2D0A0A0053EF
:101B1E00656E6465723A202564202073656E646973
:101B2E006E67206D6573736167652025640A0053C7
:101B3E00656E6465723A2025642020676F7420728A
:101B4E0065706C79206D6573736167652025640A15
:101B5E000052656365697665723A202564202020FF
:101B6E007265636569766564206D6573736167651B
:101B7E003A20256420202066726F6D202073656EDA
:081B8E006465722025640A0061
:00000001FF
