:100000000C949C000C94BD000C94BD000C94BD009D
:100010000C94BD000C94BD000C94BD000C94BD006C
:100020000C94BD000C94BD000C94BD000C94BD005C
:100030000C94BD000C94BD000C94BD000C94BD004C
:100040000C94BD000C94BD000C94BD000C94BD003C
:100050000C94BD000C94BD000C94BD000C94BD002C
:100060000C94BD000C94BD000C94BD000C94BD001C
:100070000C94BD000C94BD000C94BD000C94BD000C
:100080000C94BD000C94BD000C94BD000C94BD00FC
:100090000C94EF000C94BD000C94BD000C94BD00BA
:1000A0000C94BD000C94BD000C9496070C94BD00FC
:1000B0000C94BD000C94BD000C94BD000C94BD00CC
:1000C0000C94BD000C94BD000C94BD000C94BD00BC
:1000D0000C94BD000C94BD000C94BD000C94BD00AC
:1000E0000C94BD000C9482090C94C3010C948709F4
:1000F0000C9497090C94F9070C9413080C94760946
:100100000C948A090C9449070C948C010C947B097B
:100110000C948F090C948F070C94C0080C949C09C4
:100120000C944E060C948D010C9497010C94940938
:100130000C9445090C94B10811241FBECFEFD1E2F5
:10014000DEBFCDBF00E00CBF12E0A0E0B2E0EEECFD
:10015000FAE100E00BBF02C007900D92AA3FB10781
:10016000D9F725E1AAEFB2E001C01D92A438B20789
:10017000E1F70E944A0A0C94650D0C94000010925D
:10018000C50028E92093C10026E02093C20022E0A8
:100190002093C0008130910529F010F0029731F0D2
:1001A00087E601C083E38093C400089582E2FBCF19
:1001B0009091C00095FFFCCF8093C60008958032D7
:1001C00091052CF485509D4FFC018081089580E0BD
:1001D00008958091FA0208951092FA0208951F92EC
:1001E0000F920FB60F9211240BB60F928F939F931D
:1001F000EF93FF938091C80087FFFCCFE091FA0254
:10020000F0E08091CE00E550FD4F80838091FA02AE
:1002100090E001968F7199278093FA02FF91EF91F8
:100220009F918F910F900BBE0F900FBE0F901F905C
:100230001895EF92FF920F931F93CF938C017B0140
:10024000C0E08C2F90E08E159F0534F4800F911F35
:10025000FC018081811106C0CF911F910F91FF9009
:10026000EF9008950E94D800CF5FEBCF88E980938C
:10027000C90086E08093CA00E8ECF0E080818D7FC1
:1002800080831092CD0089E18093CC0008959091F5
:10029000C80095FFFCCF8093CE0008958091C800E0
:1002A00087FFFCCF8091CE00089590E080E00E940F
:1002B000BF0080E80E94D8002FEF83EC99E0215026
:1002C00080409040E1F700C0000083E80E94D80021
:1002D0002FEF83EC99E0215080409040E1F700C07F
:1002E000000008950F931F93CF93DF93182F092FCA
:1002F000EB0189E80E94D800802F0E94D800812F4E
:100300000E94D8008D2F0E94D8008C2FDF91CF91B2
:100310001F910F910C94D800FFCF2FEF87EA91E641
:10032000215080409040E1F700C00000F6CF80915E
:100330002A0390912B03892B29F1F894E0912E0345
:10034000F0912F03808191819F938F938FE192E0B1
:100350009F938F930E947A0A80912E0390912F038E
:10036000FC01E85FFE4F23E030E0318320838C5FA7
:100370009E4FFC01118210820F900F900F900F90F2
:100380000C94F50908950C94970180913A0390918B
:100390003B03009789F0FC01E95EFE4F208131812B
:1003A00030933B0320933A03232B21F410923D0317
:1003B00010923C03118210820895FC01808191818A
:1003C000892B51F47183608373836283695E7E4FEE
:1003D000FB01118210820895A281B381A95EBE4FF4
:1003E0006D937C93738362830895E0912E03F09163
:1003F0002F03E55EFE4F808191810895E0912E03E9
:10040000F0912F038081918108959C01EAE4F3E04B
:1004100090E080E0408151814217530741F00196FE
:10042000ED5DFE4F80319105A9F78FEF9FEF0895A5
:10043000F8949F938F9385E392E09F938F930E940C
:100440007A0A0F900F900F900F90FFCFBC01FC0124
:10045000808191810197409720F085E090E00E9493
:100460001802EC5FFE4F80819181029721F481E0B8
:1004700090E091838083FB01E75EFE4F8081918154
:100480008230910579F08330910529F0019739F494
:100490008EE393E002C086E493E00C94DD0182E0F9
:1004A00090E0DDCF0895CF93DF93FC01408151812F
:1004B0004115510521F48AE090E00E941802DA010A
:1004C000A95EBE4F2D913C9111974617570781F4B5
:1004D000318320831D921C9280819181892B11F49C
:1004E00013821282DF91CF910895A901292F382F0D
:1004F0002115310589F3D901A95EBE4F9C91119652
:100500008C9111972617370781F7EA01C95EDE4FF4
:10051000988389831D921C9282819381821793070D
:10052000D9F653834283D8CFCF93DF93FC01C081A8
:10053000D181209759F0FE01EC5FFE4F208131817F
:100540002130310539F4BE010E945302CE01DF9102
:10055000CF910895C95EDE4F0990D881C02DE9CFB3
:10056000EF92FF920F931F93CF93DF938091260317
:10057000909127030196909327038093260386E4A6
:1005800093E00E94940290932F0380932E03209176
:10059000260330912703892BE9F02F5F3F4F3093DB
:1005A000270320932603E0912E03F0912F038281ED
:1005B000938190937B1580937A15EC5FFE4F82E0D8
:1005C00090E091838083DF91CF911F910F91FF90F5
:1005D000EF900895E0914203F0914303E0902803E7
:1005E000F090290310E000E0D0E0C0E0309759F42B
:1005F0003093270320932603C230D105F8F081E021
:1006000090E00E941802DF01AF5DBE4F8D919C917A
:100610001197A701481B590BCA0112976D917C9144
:100620000E945E0A892B11F421968F01E95EFE4F2C
:100630000190F081E02D2F5F3F4FD8CF2197C9F077
:1006400010922F0310922E038EE393E00E949402E7
:1006500090932F0380932E03892B09F490CF8091E0
:1006600026039091270301969093270380932603F6
:100670009ACF10932F0300932E03012B29F38DCFD4
:10068000F8941092A000E1EAF0E010828081886086
:10069000808380818460808381E792E09093A900C9
:1006A0008093A800E2E7F0E080818260808310926E
:1006B000A5001092A40078940895FC018081918196
:1006C000009721F48AE090E00C948E0A895E9E4F98
:1006D000F4CFFC01349620E031E0DF01A9011D9246
:1006E00041505040E1F7E150FF4F27E931E02083CE
:1006F00031973083319710823197608331977083BF
:10070000319710829C0125523F4FDC0113963C9398
:100710002E931297389660837183329611821082DD
:10072000349622E333E031832083329726E333E0AB
:100730003183208334961182108232961182108286
:100740003296118210823296108231961182108276
:1007500020913003309131032F5F3F4F30933103AD
:1007600020933003329611821082739721E030E09B
:10077000318320830C942602EF92FF920F931F93F4
:10078000CF93DF93109231031092300310922B031A
:1007900010922A0310922D0310922C03E0912E0345
:1007A000F0912F0381E190E09183808310924703C1
:1007B000109246031092490310924803109243038B
:1007C00010924203109245031092440310923F038B
:1007D00010923E03109241031092400310923B038B
:1007E00010923A0310923D0310923C03CAE4D3E006
:1007F00010E000E083E2E82EFF24F394BE01FE0146
:10080000C70111920197E9F7FE01EC5FFE4F1182DB
:1008100010820F5F1F4F19830883CD5DDE4F7396E3
:10082000D183C0838AE393E00E94DD01003111058A
:1008300029F7DF91CF911F910F91FF90EF900895CD
:1008400080912A0390912B03892B09F04AC0809153
:10085000300390913103892B09F443C0F89480E56B
:1008600092E00E94940A81E090E090932B038093A1
:100870002A030E94B002E0912E03F0912F03DF01C2
:10088000A85FBE4F11961C921E9282819381909315
:100890007B1580937A150E94A00980912E03909178
:1008A0002F0320917A1530917B15FC01338322832D
:1008B000E85FFE4F208131812230310529F023305D
:1008C000310529F0232B49F40E942602D2CF8C5FF8
:1008D0009E4FFC0111821082CCCF83E090E00E94F9
:1008E00018020895EF92FF920F931F93CF93DF9317
:1008F0008C017B018091300390913103409771F11D
:1009000080913A0390913B03892B41F180912A0316
:1009100090912B03892B09F0F8940E94C501EC01FA
:10092000FC01E75EFE4F83E090E091838083329686
:10093000F182E082B801CE010E94690380912A030E
:1009400090912B03892B09F0789488819981DF910C
:10095000CF911F910F91FF90EF90089590E080E06C
:10096000F6CFEF92FF920F931F93CF93DF938C01FB
:100970007B018091300390913103409771F1809118
:100980003A0390913B03892B41F180912A03909186
:100990002B03892B09F0F8940E94C501EC01FC019E
:1009A000E75EFE4F81E090E0918380833296F18292
:1009B000E082B801CE010E94690380912A039091E0
:1009C0002B03892B09F0789488819981DF91CF914D
:1009D0001F910F91FF90EF90089590E080E0F6CF87
:1009E0008F929F92AF92BF92CF92DF92EF92FF923F
:1009F0000F931F93CF93DF93EC015B017A016901A1
:100A00008091300390913103409709F444C0809164
:100A10003A0390913B03892B09F43DC080912A034E
:100A200090912B03892B09F0F8940E94C5014C0189
:100A3000FC01E75EFE4F82E090E091838083329676
:100A4000B182A0823296D182C0823296F182E08257
:100A5000329611830083BE01C4010E946903B40170
:100A600082E493E00E94DD0180912A0390912B03A0
:100A7000892B09F07894F40180819181DF91CF91E5
:100A80001F910F91FF90EF90DF90CF90BF90AF90AC
:100A90009F908F90089590E080E0F0CF80912A039E
:100AA00090912B03892B69F0F894E0912E03F0913B
:100AB0002F03E85FFE4F82E090E0918380830C94E7
:100AC000F5090895CF93DF93FC01C081D181209770
:100AD00051F0DE01AC5EBE4F9C91962341F0BE0109
:100AE000CF010E945302CE01DF91CF910895C95EDC
:100AF000DE4F0990D881C02DEACFFF920F931F934C
:100B0000CF93DF93F62E8A01AC0141505109C09179
:100B10002E03D0912F0323E231E0429FC001439F77
:100B2000900D529F900D1124865B9C4FDC01AC5FB1
:100B3000BE4F2D913C911197BE016C5F7E4F2430CA
:100B4000310509F059C0488159819C01225F3E4F0F
:100B5000F90151834083F801408151812E5F3F4F5D
:100B6000F901518340832C5F3F4FF901F08225E06A
:100B700030E0FB013183208321E030E02D933C9372
:100B8000845F9E4FBE01FC01808191810E94DD0146
:100B900088819981F80121812F9320812F939F9340
:100BA0008F938DE692E09F938F930E947A0A0E9422
:100BB0004E05E0912E03F0912F03DF01AE5EBE4F94
:100BC0002D913C91808191813F932F939F938F939F
:100BD0008DE892E09F938F930E947A0A8DB79EB71B
:100BE0000C960FB6F8949EBF0FBE8DBFDF91CF91CC
:100BF0001F910F91FF90089523E030E0FB013183B6
:100C00002083865F9E4FBE01FC01808191810E94FE
:100C1000DD0188819981FE01E25FFE4F918380832F
:100C2000F80180819181FE01E05FFE4F9183808316
:100C30003496F082319681E090E0918380838881C0
:100C40009981F80121812F9320812F939F938F9376
:100C50008DE692E09F938F930E947A0A0E944E0540
:100C6000E0912E03F0912F03DF01AE5EBE4F2D9178
:100C70003C91808191813F932F939F938F938DE837
:100C800092E09F938F930E947A0A8DB79EB70C963D
:100C90000FB6F8949EBF0FBE8DBFA8CFCF93DF9342
:100CA0001F921F92CDB7DEB781E390E09A838983CC
:100CB000AE014F5F5F4F61E681E090E00E947D05ED
:100CC0000F900F90DF91CF9108950F931F93CF93C3
:100CD000DF93682FC0912E03D0912F03FE01E65FB2
:100CE000FE4F808191810E9462058C010097C9F5B9
:100CF000CC5FDE4F84E090E0998388830E944E05AC
:100D0000E0912E03F0912F03DF01A25FBE4F4D91C2
:100D10005C91119712962D913C91808191815F9306
:100D20004F933F932F939F938F938FEA92E09F93DC
:100D30008F930E947A0AE0912E03F0912F03E25FD5
:100D4000FE4F808191812DB73EB7285F3F4F0FB690
:100D5000F8943EBF0FBE2DBFDF91CF911F910F9131
:100D60000895FC01EC5FFE4F85E090E09183808365
:100D7000FE01E45FFE4F80819181B8010E94DD0198
:100D8000F80180819181FE01E25FFE4F91838083B3
:100D9000F801E05FFE4F20813181DE01A05FBE4F90
:100DA00011963C932E93D801AC5EBE4F2C91DE0180
:100DB000AC5EBE4F2C93288139819F938F938181A4
:100DC0008F9380818F933F932F938FEA92E09F932D
:100DD0008F930E947A0AF801808191812DB73EB7E6
:100DE000285F3F4F0FB6F8943EBF0FBE2DBFB4CF64
:100DF0000F931F93CF93DF93EB018C0101501109E7
:100E000083E291E0089FB001099F700D189F700D5B
:100E10001124665B7C4FE0912E03F0912F03E45F79
:100E2000FE4FA081B1818D919C91009729F4DF91B3
:100E3000CF911F910F9108956817790721F0895E6E
:100E40009E4FDC01F0CF808191810E94530223E20A
:100E500031E0029FC001039F900D129F900D11245D
:100E6000865B9C4FFC01EE5EFE4FD183C0833396C0
:100E700023E030E0318320838C5F9E4F21E030E01F
:100E8000FC0131832083DF91CF911F910F910C944E
:100E90004E05CF93DF931F921F92CDB7DEB781E04F
:100EA00090E09A838983BE016F5F7F4F81E60E9445
:100EB00065066EE570E00E94F8060F900F90DF91D6
:100EC000CF910895FC01319723E231E0E29FC00108
:100ED000E39F900DF29F900D1124865B9C4FFC01C7
:100EE000EC5FFE4F2081318124303105B9F4A091AF
:100EF0002E03B0912F032D913C91DC01A25FBE4FD8
:100F000011963C932E9312964D935C938C5E9E4F5C
:100F1000DC016C9381E090E091838083089542E34B
:100F200050E061E681E090E00C9462071F920F921E
:100F30000FB60F9211240BB60F922F933F934F933E
:100F40005F936F937F938F939F93AF93BF93EF9331
:100F5000FF93809128039091290301969093290390
:100F60008093280380912A0390912B03892BA9F069
:100F700080912E0390912F03FC01E75EFE4F2081AC
:100F800031812330310549F0719722E030E031831F
:100F900020830E9426020E94B002FF91EF91BF9130
:100FA000AF919F918F917F916F915F914F913F9101
:100FB0002F910F900BBE0F900FBE0F901F901895A2
:100FC0000C949701CF93DF931F921F92CDB7DEB79A
:100FD00084E690E09A838983AE014F5F5F4F61E6BC
:100FE00082E090E00E947D050F900F90DF91CF91FD
:100FF00008950E94E207FDCFCF93DF931F921F92C7
:10100000CDB7DEB71A821982BE016F5F7F4F8FEFB7
:101010000E94650664EF71E00E94F8060F900F9041
:10102000DF91CF9108950E94FC07FDCF0F931F938E
:1010300061E070E083EC91E00E94720461E070E096
:1010400083EC91E00E94720410E000E021E030E0C7
:1010500044E050E061E070E08CE891E00E94F00430
:1010600001E010E021E030E044E050E061E070E0B9
:101070008DE891E00E94F00461E070E08CE891E07E
:101080000E94B10461E070E08CE891E01F910F9143
:101090000C94B10461E070E08EE496E00E9472046A
:1010A00061E070E089E497E00C94720461E070E024
:1010B00089E497E00E94720461E070E08EE496E0BB
:1010C0000C947204CF93DF93D0E0C0E0BE018CE8B3
:1010D00091E00E94B1042196C431D105B9F7DF91A6
:1010E000CF9108950F931F9310E000E021E030E0CE
:1010F00044E050E061E070E08CE891E00E94F00490
:1011000021E030E044E050E061E070E08DE891E003
:101110000E94F0041F910F91089561E070E08FE844
:1011200097E00E94720461E070E089E497E00C941B
:10113000720461E070E089E497E00E94720461E06B
:1011400070E08FE897E00C94720461E070E089EF42
:1011500097E00E94720461E070E083E198E00C94F3
:101160007204CF93C82F8A3019F48DE00E94B10821
:101170008091C00085FFFCCFC093C600CF91089539
:101180008091C00087FFFCCF8091C6000895109227
:10119000C50083E38093C400E0ECF0E080818D7FA4
:1011A000808386E08093C20088E18093C100089527
:1011B000EAE0F1E0808180628083808180618083C9
:1011C000E0E2F1E0808183608083A1E2B1E08C9174
:1011D0008C938081886080838081806280838C9101
:1011E00084608C9380E190E090932D0180932C019A
:1011F00081E390E090932B0180932A01089500975A
:1012000081F480912A0190912B01899748F0809177
:101210002A0190912B01019790932B0180932A0131
:1012200008950197E9F780912A0190912B01CA97BF
:10123000B8F780912A0190912B010196EDCF00978C
:1012400081F480912C0190912D01419748F080917B
:101250002C0190912D01019790932D0180932C01E9
:1012600008950197E9F780912C0190912D014E97F7
:10127000B8F780912C0190912D010196EDCF86EE6B
:1012800092E00E94940A0CEE12E00E944E01C82FD8
:101290001F928F931F930F930E947A0A0F900F90C3
:1012A0000F900F90C256C93180F7EC2FF0E08827DD
:1012B000E35AF64F8F4F0C94720A8209450945098B
:1012C00045097B0945099C094509450945097609F0
:1012D0004509450945094509970987098A094509C5
:1012E000450945094509450994098F0961E070E000
:1012F00082E390E004C060E070E88CE99FEF0E9418
:101300007201C3CF60E070E884E690E0F8CF6FEF41
:101310007FEFEECF70E060E090E080E0F0CF81E022
:1013200090E00E94FF08B1CF90E080E0FACF81E02A
:1013300090E00E941F09A9CF90E080E0FACFFFCF94
:101340000F921F922F923F924F925F926F927F92D5
:101350008F929F92AF92BF92CF92DF92EF92FF92C5
:101360000F931F932F933F934F935F936F937F93AD
:101370008F939F93AF93BF93CF93DF93EF93FF939D
:101380000FB70F930CB70F93EDB7FEB7E0937C1533
:10139000F0937D15E0917A15F0917B15EDBFFEBFBE
:1013A0000F910CBF0F910FBFFF91EF91DF91CF9184
:1013B000BF91AF919F918F917F916F915F914F916D
:1013C0003F912F911F910F91FF90EF90DF90CF9061
:1013D000BF90AF909F908F907F906F905F904F9055
:1013E0003F902F901F900F9018950F921F922F9261
:1013F0003F924F925F926F927F928F929F92AF92A5
:10140000BF92CF92DF92EF92FF920F931F932F9391
:101410003F934F935F936F937F938F939F93AF937C
:10142000BF93CF93DF93EF93FF930FB70F930CB757
:101430000F93EDB7FEB7E0937A15F0937B15E0912B
:101440007C15F0917D15EDBFFEBF0F910CBF0F9184
:101450000FBFFF91EF91DF91CF91BF91AF919F911E
:101460008F917F916F915F914F913F912F911F913C
:101470000F91FF90EF90DF90CF90BF90AF909F9033
:101480008F907F906F905F904F903F902F901F9024
:101490000F9008950E9455010E9436010E94D808BD
:1014A0000E94C708EEE7F5E181E192E09383828331
:1014B00083E092E0918380830E943F09AA1BBB1BBB
:1014C00051E107C0AA1FBB1FA617B70710F0A61B44
:1014D000B70B881F991F5A95A9F780959095BC0165
:1014E000CD010895EE0FFF1F881F8BBF0790F69167
:1014F000E02D1994CF93DF93CDB7DEB7AE014A5FED
:101500005F4FFA0161917191AF01809180159091C7
:1015100081150E94BF0ADF91CF91089560918015D7
:10152000709181150C94D70C0F931F93CF93DF9379
:10153000E0918015F09181152381EC0110E000E02D
:1015400021FD08C00FEF1FEF14C01995892B11F072
:101550000FEF1FEF89916091801570918115DB016C
:101560001896ED91FC918111F0CF8AE01995892BA5
:1015700049F7C801DF91CF911F910F9108952F92E4
:101580003F924F925F926F927F928F929F92AF9213
:10159000BF92CF92DF92EF92FF920F931F93CF9360
:1015A000DF9300D000D000D01F921F92CDB7DEB7DE
:1015B0007C013B018A01FC0117821682838181FF35
:1015C000DDC1CE0101965C01F7019381F30193FD2A
:1015D000859193FF81913F01882309F453C185329E
:1015E00039F493FD859193FF81913F01853229F470
:1015F000B70190E00E94D70CE7CF912C212C312C21
:10160000FFE1F31538F08B3211F190F4803209F1DB
:10161000833229F137FC3CC020ED280F2A3050F5E9
:1016200036FE20C08AE0989E200D1124922E06C01E
:101630008D3291F0803371F7689430F8F30193FDA7
:10164000859193FF81913F018111DACF21C0689488
:1016500031F8689432F8F2CF689433F8EFCF689499
:1016600034F8ECCFEAE02E9E200D1124222E68944F
:1016700035F8E4CF8E3229F436FC04C1689436F88C
:10168000DDCF8C3619F4689437F8D8CF8836B1F2AC
:10169000982F9F7D95549330E0F08336A1F18337E6
:1016A000C1F1833509F063C02801F2E04F0E511CEF
:1016B000F801C080D180692D70E036FC02C06FEF68
:1016C0007FEFC6010E94C10C4C01689437F882017B
:1016D0000AC00C5F1F4FFFE3F98388248394912C89
:1016E0006501E89437F833FE2DC0522C8114910423
:1016F00071F5552009F468CFB70180E290E00E94AF
:10170000D70C5A94F6CFF801808189830E5F1F4F62
:10171000E4CF2801F2E04F0E511CF801C080D180C7
:10172000692D70E036FC02C06FEF7FEFC6010E94AA
:10173000CC0C4C018201D5CFB70180E290E00E9431
:10174000D70C2A942814190409F0B0F7CECFF6016B
:1017500037FC859137FE81916F01B70190E00E94BF
:10176000D70C51105A94F1E08F1A9108BFCF8436EC
:1017700019F0893609F077C0F80137FE6BC0608137
:101780007181828193810C5F1F4FF32DFF763F2E75
:1017900097FF09C090958095709561957F4F8F4F09
:1017A0009F4F689437F82AE030E0A5010E94070DAA
:1017B000C82ECA188C2C432C36FE0CC0E89440F876
:1017C000C91440F434FE05C032FC03C0F32DFE7E84
:1017D0004F2E892C44FEAAC0FE01EC0DF11D808124
:1017E000803309F09CC0242D297E422E842D8870E0
:1017F000582E43FCAAC040FEA4C09C2C821418F4AE
:101800002C0C922C981844FEA6C0B70180E390E0FF
:101810000E94D70C42FE09C088E790E041FE02C05A
:1018200088E590E0B7010E94D70CC91408F49FC066
:10183000CA94D12C9FEFC91AD90ACA0CDB1CF60135
:1018400082916F01B70190E00E94D70CAC14BD04E7
:10185000B1F74FCF60817181072E000C880B990B77
:101860000E5F1F4F92CFD32CE894D4F82AE030E0DB
:101870008537E1F1232D297FD22E8F36A9F1F0F49F
:10188000883551F1F701868197812B960FB6F89430
:10189000DEBF0FBECDBFDF91CF911F910F91FF90A3
:1018A000EF90DF90CF90BF90AF909F908F907F9000
:1018B0006F905F904F903F902F900895803749F040
:1018C000883701F7D4FE02C06894D2F820E130E0F6
:1018D0000DC06894D4F8F6CF34FE03C0822F866022
:1018E000D82E20E132E002C028E030E0F801D7FE37
:1018F0000FC060817181828193810C5F1F4FA501B0
:101900000E94070DC82ECA183D2CE89437F852CF14
:101910006081718190E080E00E5F1F4FF0CF42FC4C
:1019200002C0839463CF8394839460CF842D8678A0
:1019300009F45CCFF6CFB70180E290E00E94D70CAB
:1019400083948214C0F3512C5ECF522C5818821409
:1019500008F459CFF8CF842D867809F466CF8BE24E
:1019600041FE80E247FC8DE2B70190E05CCFB70119
:1019700080E390E00E94D70C9A9457CF8FEF9FEFAF
:1019800084CFFC010590615070400110D8F780951C
:1019900090958E0F9F1F0895FC016150704001903B
:1019A0000110D8F7809590958E0F9F1F08950F9383
:1019B0001F93CF93DF93182F092FEB018B8181FDAC
:1019C00009C01FEF0FEF812F902FDF91CF911F9153
:1019D0000F91089582FF14C02E813F818C819D81DB
:1019E000281739073CF4E881F981CF0101969983E2
:1019F000888310838E819F8101969F838E83E3CF9E
:101A0000E885F985812F1995892BA1F3DACFFA01A1
:101A1000AA27283051F1203181F1E8946F936E7F2D
:101A20006E5F7F4F8F4F9F4FAF4FB1E03ED0B4E01E
:101A30003CD0670F781F891F9A1FA11D680F791F5F
:101A40008A1F911DA11D6A0F711D811D911DA11D70
:101A500020D009F468943F912AE0269F1124301980
:101A6000305D3193DEF6CF010895462F4770405D1B
:101A70004193B3E00FD0C9F7F6CF462F4F70405DCA
:101A80004A3318F0495D31FD4052419302D0A9F725
:101A9000EACFB4E0A6959795879577956795BA951F
:101AA000C9F700976105710508959B01AC010A2EE5
:101AB00006945795479537952795BA95C9F7620FBC
:0E1AC000731F841F951FA01D0895F894FFCF7B
:101ACE000100FF00000001000000000000C008003F
:101ADE00000000000200000000B1080000000054E9
:101AEE0045524D494E4154494E47205441534B3A6D
:101AFE002025640A004572726F722077697468201F
:101B0E006572726F7220636F64653A2025640A00F5
:101B1E002D2D2D2D2D2D2D5354415254494E4720F0
:101B2E004F532D2D2D2D2D2D2D2D0A0A0053656E63
:101B3E006465723A202564202073656E64696E6751
:101B4E00206D6573736167652025640A0053656EA9
:101B5E006465723A2025642020676F742072657068
:101B6E006C79206D6573736167652025640A005278
:101B7E00656365697665723A20256420202072655A
:101B8E00636569766564206D6573736167653A2078
:101B9E00256420202066726F6D202073656E64654B
:101BAE00722025640A007374617274007265636535
:0A1BBE00697665643A2025630A0089
:00000001FF
