:100000000C9488000C94A9000C94A9000C94A900ED
:100010000C94A9000C94A9000C94A9000C94A900BC
:100020000C94A9000C94A9000C94A9000C94A900AC
:100030000C94A9000C94A9000C94A9000C94A9009C
:100040000C94A9000C94A9000C94A9000C94A9008C
:100050000C94A9000C94A9000C94A9000C94A9007C
:100060000C94A9000C94CE000C94A9000C94A90047
:100070000C94A9000C94A9000C94A9000C94A9005C
:100080000C94A9000C94A9000C94A9000C94A9004C
:100090000C94A9000C94A9000C94A9000C94A9003C
:1000A0000C94A9000C94A9000C94D6070C94A900F8
:1000B0000C94A9000C94A9000C94A9000C94A9001C
:1000C0000C94A9000C94A9000C94A9000C94A9000C
:1000D0000C94A9000C94A9000C94A9000C94A900FC
:1000E0000C94A9000C9489070C9483010C94390892
:1000F0000C944C010C9453080C9400090C944D0181
:100100000C9457010C94CF070C948E060C94F108B4
:1001100011241FBECFEFD1E2DEBFCDBF00E00CBF88
:1001200013E0A0E0B2E0E0E3FAE100E00BBF02C0C0
:1001300007900D92AC3BB107D9F726E1ACEBB3E0E9
:1001400001C01D92A634B207E1F70E94040A0C9484
:10015000160D0C9400001092C50088E98093C10030
:1001600086E08093C20082E08093C0000895909161
:10017000C00095FFFCCF8093C600089580329105A2
:100180002CF483549C4FFC018081089580E00895F5
:100190008091BC0308951092BC0308951F920F92A2
:1001A0000FB60F9211240BB60F928F939F93EF937C
:1001B000FF938091C00087FFFCCFE091BC03F0E08B
:1001C0008091C600E354FC4F80838091BC0390E093
:1001D00001968F7199278093BC03FF91EF919F91B6
:1001E0008F910F900BBE0F900FBE0F901F90189520
:1001F000EF92FF920F931F93CF938C017B01C0E08E
:100200008C2F90E08E159F0534F4800F911FFC0118
:100210008081811106C0CF911F910F91FF90EF90C7
:1002200008950E94B700CF5FEBCF88E18093C900AB
:1002300086E08093CA00E8ECF0E080818D7F8083C7
:1002400008959091C80095FFFCCF8093CE0008954B
:100250008091C80087FFFCCF8091CE00089590E088
:1002600080E00E94AB0080E80E94B7002FEF83EC93
:1002700099E0215080409040E1F700C0000083E801
:100280000E94B7002FEF83EC99E02150804090400E
:10029000E1F700C000000895FFCF2FEF87EA91E655
:1002A000215080409040E1F700C00000F6CF8091DF
:1002B000EC039091ED03892B29F1F894E091F00380
:1002C000F091F103808191819F938F938FE192E070
:1002D0009F938F930E942B0A8091F0039091F103DA
:1002E000FC01E85FFE4F23E030E0318320838C5F28
:1002F0009E4FFC01118210820F900F900F900F9073
:100300000C94AF0908950C9457018091FC039091CF
:10031000FD03009789F0FC01E95EFE4F20813181E9
:100320003093FD032093FC03232B21F41092FF0351
:100330001092FE03118210820895FC018081918148
:10034000892B51F47183608373836283695E7E4F6E
:10035000FB01118210820895A281B381A95EBE4F74
:100360006D937C93738362830895E091F003F09121
:10037000F103E55EFE4F808191810895E091F003E5
:10038000F091F1038081918108959C01ECE0F4E00B
:1003900090E080E0408151814217530741F001967F
:1003A000ED5DFE4F80319105A9F78FEF9FEF089526
:1003B000F8949F938F9385E392E09F938F930E948D
:1003C0002B0A0F900F900F900F90FFCFBC01FC01F4
:1003D000808191810197409720F085E090E00E9414
:1003E000D801EC5FFE4F80819181029721F481E07A
:1003F00090E091838083FB01E75EFE4F80819181D5
:100400008230910579F08330910529F0019739F414
:1004100080E094E002C088E094E00C949D0182E0CA
:1004200090E0DDCF0895CF93DF93FC0140815181AF
:100430004115510521F48AE090E00E94D801DA01CB
:10044000A95EBE4F2D913C9111974617570781F435
:10045000318320831D921C9280819181892B11F41C
:1004600013821282DF91CF910895A901292F382F8D
:100470002115310589F3D901A95EBE4F9C911196D2
:100480008C9111972617370781F7EA01C95EDE4F75
:10049000988389831D921C9282819381821793078E
:1004A000D9F653834283D8CFCF93DF93FC01C08129
:1004B000D181209759F0FE01EC5FFE4F2081318100
:1004C0002130310539F4BE010E941302CE01DF91C3
:1004D000CF910895C95EDE4F0990D881C02DE9CF34
:1004E0005F926F927F928F929F92AF92BF92CF92C4
:1004F000DF92EF92FF920F931F93CF93DF93809140
:10050000E8039091E90301969093E9038093E8034F
:1005100081E7682E82E0782E88E094E00E94540201
:100520009093F1038093F0030097E9F12091E803A1
:100530003091E9032F5F3F4F3093E9032093E803A5
:10054000DC018D919C919F938F933F932F9380E536
:1005500092E09F938F930E942B0A0F900F900F9021
:100560000F900F900F90E091F003F091F1038281D2
:10057000938190933D1680933C16EC5FFE4F82E092
:1005800090E091838083DF91CF911F910F91FF9035
:10059000EF90DF90CF90BF90AF909F908F907F9023
:1005A0006F905F900895C0910404D091050410E00D
:1005B00000E0F12CE12C209749F422E0E216F1044E
:1005C00008F45EC081E090E00E94D8012091E80329
:1005D0003091E9032F5F3F4F3093E9032093E80305
:1005E000E091EA03F091EB035E01BFEDAB1ABEEFC1
:1005F000BB0AD5018D909C906E01B1EECB1ABEEF77
:10060000DB0AD6014C9111965C90CF0188199909AB
:10061000642F752D0E94170A9F938F935F924F93BB
:100620009F928F92FF93EF9389818F9388818F930D
:100630003F932F937F926F920E942B0A8091EA033F
:100640009091EB03F50120813181821B930BD60140
:100650006D917C910E94170AEDB7FEB73E960FB6DA
:10066000F894FEBF0FBEEDBF892B21F4FFEFEF1A08
:10067000FF0A8E01C95EDE4F0990D881C02D9BCF45
:10068000EA94EF2819F11092F1031092F00380E040
:1006900094E00E9454029093F1038093F00300973A
:1006A00009F43ACF2091E8033091E9032F5F3F4FDF
:1006B0003093E9032093E803FC01808191819F93AB
:1006C0008F933F932F9381EE92E043CF1093F103EA
:1006D0000093F00301151105D1F28091E803909188
:1006E000E90301969093E9038093E803D8012D91E3
:1006F0003C913F932F939F938F938EEB92E029CF62
:10070000F8941092A000E1EAF0E010828081886005
:10071000808380818460808381E792E09093A90048
:100720008093A800E2E7F0E08081826080831092ED
:10073000A5001092A40078940895FC018081918115
:10074000009721F48AE090E00C943F0A895E9E4F66
:10075000F4CFFC01349620E031E0DF01A9011D92C5
:1007600041505040E1F7E150FF4F27E531E0208351
:10077000319730833197108231976083319770833E
:10078000319710829C0125523F4FDC0113963C9318
:100790002E9312973896608371833296118210825D
:1007A000349624EF33E031832083329728EF33E00F
:1007B0003183208334961182108232961182108206
:1007C00032961182108232961082319611821082F6
:1007D0002091F2033091F3032F5F3F4F3093F303E7
:1007E0002093F203329611821082739721E030E059
:1007F000318320830C94E601EF92FF920F931F93B5
:10080000CF93DF931092F3031092F2031092ED0353
:100810001092EC031092EF031092EE03E091F003BC
:10082000F091F10381E190E09183808310920904BB
:100830001092080410920B0410920A0410920504FE
:1008400010920404109207041092060410920104FE
:100850001092000410920304109202041092FD03FF
:100860001092FC031092FF031092FE03CCE0D4E040
:1008700010E000E083E2E82EFF24F394BE01FE01C5
:10088000C70111920197E9F7FE01EC5FFE4F11825B
:1008900010820F5F1F4F19830883CD5DDE4F739663
:1008A000D183C0838CEF93E00E949D01003111053C
:1008B00029F7DF91CF911F910F91FF90EF9008954D
:1008C0008091EC039091ED03892B09F04AC080914F
:1008D000F2039091F303892B09F443C0F8948EEF4F
:1008E00092E00E94450A81E090E09093ED038093AE
:1008F000EC030E947002E091F003F091F103DF013C
:10090000A85FBE4F11961C921E9282819381909394
:100910003D1680933C160E945A098091F0039091F5
:10092000F10320913C1630913D16FC013383228364
:10093000E85FFE4F208131812230310529F02330DC
:10094000310529F0232B49F40E94E601D2CF8C5FB8
:100950009E4FFC0111821082CCCF83E090E00E9478
:10096000D8010895EF92FF920F931F93CF93DF93D7
:100970008C017B018091F2039091F303409771F118
:100980008091FC039091FD03892B41F18091EC0350
:100990009091ED03892B09F0F8940E948501EC01F8
:1009A000FC01E75EFE4F83E090E091838083329606
:1009B000F182E082B801CE010E94A9038091EC038C
:1009C0009091ED03892B09F0789488819981DF91CA
:1009D000CF911F910F91FF90EF90089590E080E0EC
:1009E000F6CFEF92FF920F931F93CF93DF938C017B
:1009F0007B018091F2039091F303409771F1809114
:100A0000FC039091FD03892B41F18091EC039091BF
:100A1000ED03892B09F0F8940E948501EC01FC019B
:100A2000E75EFE4F81E090E0918380833296F18211
:100A3000E082B801CE010E94A9038091EC0390915D
:100A4000ED03892B09F0789488819981DF91CF910A
:100A50001F910F91FF90EF90089590E080E0F6CF06
:100A60008F929F92AF92BF92CF92DF92EF92FF92BE
:100A70000F931F93CF93DF93EC015B017A01690120
:100A80008091F2039091F303409709F444C0809160
:100A9000FC039091FD03892B09F43DC08091EC0388
:100AA0009091ED03892B09F0F8940E9485014C0187
:100AB000FC01E75EFE4F82E090E0918380833296F6
:100AC000B182A0823296D182C0823296F182E082D7
:100AD000329611830083BE01C4010E94A903B401B0
:100AE00084E094E00E949D018091EC039091ED03DD
:100AF000892B09F07894F40180819181DF91CF9165
:100B00001F910F91FF90EF90DF90CF90BF90AF902B
:100B10009F908F90089590E080E0F0CF8091EC035B
:100B20009091ED03892B69F0F894E091F003F09136
:100B3000F103E85FFE4F82E090E0918380830C94A4
:100B4000AF090895CF93DF93FC01C081D181209735
:100B500051F0DE01AC5EBE4F9C91962341F0BE0188
:100B6000CF010E941302CE01DF91CF910895C95E9B
:100B7000DE4F0990D881C02DEACFFF920F931F93CB
:100B8000CF93DF93F62E8A01AC0141505109C091F9
:100B9000F003D091F10323E231E0429FC001439F73
:100BA000900D529F900D1124845F9B4FDC01AC5F30
:100BB000BE4F2D913C911197BE016C5F7E4F24304A
:100BC000310509F059C0488159819C01225F3E4F8F
:100BD000F90151834083F801408151812E5F3F4FDD
:100BE000F901518340832C5F3F4FF901F08225E0EA
:100BF00030E0FB013183208321E030E02D933C93F2
:100C0000845F9E4FBE01FC01808191810E949D0105
:100C100088819981F80121812F9320812F939F93BF
:100C20008F938BE193E09F938F930E942B0A0E94F6
:100C30008E05E091F003F091F103DF01AE5EBE4F4F
:100C40002D913C91808191813F932F939F938F931E
:100C50008BE393E09F938F930E942B0A8DB79EB7EF
:100C60000C960FB6F8949EBF0FBE8DBFDF91CF914B
:100C70001F910F91FF90089523E030E0FB01318335
:100C80002083865F9E4FBE01FC01808191810E947E
:100C90009D0188819981FE01E25FFE4F91838083EF
:100CA000F80180819181FE01E05FFE4F9183808396
:100CB0003496F082319681E090E091838083888140
:100CC0009981F80121812F9320812F939F938F93F6
:100CD0008BE193E09F938F930E942B0A0E948E05D5
:100CE000E091F003F091F103DF01AE5EBE4F2D9174
:100CF0003C91808191813F932F939F938F938BE3BE
:100D000093E09F938F930E942B0A8DB79EB70C960A
:100D10000FB6F8949EBF0FBE8DBFA8CFCF93DF93C1
:100D20001F921F92CDB7DEB781E390E09A8389834B
:100D3000AE014F5F5F4F61E681E090E00E94BD052C
:100D40000F900F90DF91CF9108950F931F93CF9342
:100D5000DF93682FC091F003D091F103FE01E65FAD
:100D6000FE4F808191810E94A2058C010097C9F5F8
:100D7000CC5FDE4F84E090E0998388830E948E05EB
:100D8000E091F003F091F103DF01A25FBE4F4D91BE
:100D90005C91119712962D913C91808191815F9386
:100DA0004F933F932F939F938F938DE593E09F9362
:100DB0008F930E942B0AE091F003F091F103E25F20
:100DC000FE4F808191812DB73EB7285F3F4F0FB610
:100DD000F8943EBF0FBE2DBFDF91CF911F910F91B1
:100DE0000895FC01EC5FFE4F85E090E091838083E5
:100DF000FE01E45FFE4F80819181B8010E949D0158
:100E0000F80180819181FE01E25FFE4F9183808332
:100E1000F801E05FFE4F20813181DE01A05FBE4F0F
:100E200011963C932E93D801AC5EBE4F2C91DE01FF
:100E3000AC5EBE4F2C93288139819F938F93818123
:100E40008F9380818F933F932F938DE593E09F93B2
:100E50008F930E942B0AF801808191812DB73EB7B4
:100E6000285F3F4F0FB6F8943EBF0FBE2DBFB4CFE3
:100E70000F931F93CF93DF93EB018C010150110966
:100E800083E291E0089FB001099F700D189F700DDB
:100E90001124645F7B4FE091F003F091F103E45F74
:100EA000FE4FA081B1818D919C91009729F4DF9133
:100EB000CF911F910F9108956817790721F0895EEE
:100EC0009E4FDC01F0CF808191810E94130223E2CA
:100ED00031E0029FC001039F900D129F900D1124DD
:100EE000845F9B4FFC01EE5EFE4FD183C08333963F
:100EF00023E030E0318320838C5F9E4F21E030E09F
:100F0000FC0131832083DF91CF911F910F910C94CD
:100F10008E05CF93DF931F921F92CDB7DEB781E08E
:100F200090E09A838983BE016F5F7F4F81E60E94C4
:100F3000A5066EE570E00E9438070F900F90DF91D4
:100F4000CF910895FC01319723E231E0E29FC00187
:100F5000E39F900DF29F900D1124845F9B4FFC0145
:100F6000EC5FFE4F2081318124303105B9F4A0912E
:100F7000F003B091F1032D913C91DC01A25FBE4FD3
:100F800011963C932E9312964D935C938C5E9E4FDC
:100F9000DC016C9381E090E091838083089542E3CB
:100FA00050E061E681E090E00C94A2071F920F925E
:100FB0000FB60F9211240BB60F922F933F934F93BE
:100FC0005F936F937F938F939F93AF93BF93EF93B1
:100FD000FF938091EA039091EB0301969093EB03CA
:100FE0008093EA038091EC039091ED03892BA9F0A3
:100FF0008091F0039091F103FC01E75EFE4F2081A8
:1010000031812330310549F0719722E030E031839E
:1010100020830E94E6010E947002FF91EF91BF9130
:10102000AF919F918F917F916F915F914F913F9180
:101030002F910F900BBE0F900FBE0F901F90189521
:101040000C945701CF93DF931F921F92CDB7DEB759
:1010500084E690E09A838983AE014F5F5F4F61E63B
:1010600082E090E00E94BD050F900F90DF91CF913C
:1010700008950E942208FDCFCF93DF931F921F9205
:10108000CDB7DEB71A821982BE016F5F7F4F8FEF37
:101090000E94A50664EF71E00E9438070F900F9040
:1010A000DF91CF9108950E943C08FDCF0F931F93CD
:1010B00061E070E083E891E00E94B20461E070E0DA
:1010C00083E891E00E94B20410E000E021E030E00B
:1010D00044E050E061E070E08CE491E00E94300573
:1010E00001E010E021E030E044E050E061E070E039
:1010F0008DE491E00E94300561E070E08CE491E0C5
:101100000E94F10461E070E08CE491E01F910F9186
:101110000C94F10461E070E08EE896E00E94B20465
:1011200061E070E089E897E00C94B20461E070E05F
:1011300089E897E00E94B20461E070E08EE896E0F2
:101140000C94B204CF93DF93D0E0C0E0BE018CE4F6
:1011500091E00E94F1042196C431D105B9F7DF91E5
:10116000CF9108950F931F9310E000E021E030E04D
:1011700044E050E061E070E08CE491E00E943005D2
:1011800021E030E044E050E061E070E08DE491E087
:101190000E9430051F910F91089561E070E08FEC7F
:1011A00097E00E94B20461E070E089E897E00C9457
:1011B000B20461E070E089E897E00E94B20461E067
:1011C00070E08FEC97E00C94B20461E070E089E38A
:1011D00098E00E94B20461E070E083E598E00C942E
:1011E000B204CF93C82F8A3019F48DE00E94F10821
:1011F0008091C00085FFFCCFC093C600CF910895B9
:101200008091C00087FFFCCF8091C60008951092A6
:10121000C50083E38093C400E0ECF0E080818D7F23
:10122000808386E08093C20088E18093C1000895A6
:101230008FEF81B912B81092A5001092A40082EA33
:101240008093A000E1EAF0E080818B61808387E8F1
:1012500093E19093A7008093A60087E791E0909395
:10126000A9008093A800089504E913E0C6EAD3E03A
:101270000E9428011F928F931F930F930E942B0AA5
:101280002FEF83ED90E3215080409040E1F700C0C4
:1012900000000E9428011F928F93DF93CF930E943A
:1012A0002B0A8DB79EB708960FB6F8949EBF0FBE57
:1012B0008DBFDECF0F921F922F923F924F925F927F
:1012C0006F927F928F929F92AF92BF92CF92DF9256
:1012D000EF92FF920F931F932F933F934F935F9340
:1012E0006F937F938F939F93AF93BF93CF93DF932E
:1012F000EF93FF930FB70F930CB70F93EDB7FEB7B4
:10130000E0933E16F0933F16E0913C16F0913D16A7
:10131000EDBFFEBF0F910CBF0F910FBFFF91EF917B
:10132000DF91CF91BF91AF919F918F917F916F91FD
:101330005F914F913F912F911F910F91FF90EF90EF
:10134000DF90CF90BF90AF909F908F907F906F90E5
:101350005F904F903F902F901F900F9018950F9295
:101360001F922F923F924F925F926F927F928F9235
:101370009F92AF92BF92CF92DF92EF92FF920F9324
:101380001F932F933F934F935F936F937F938F930D
:101390009F93AF93BF93CF93DF93EF93FF930FB7D9
:1013A0000F930CB70F93EDB7FEB7E0933C16F09395
:1013B0003D16E0913E16F0913F16EDBFFEBF0F9136
:1013C0000CBF0F910FBFFF91EF91DF91CF91BF91B4
:1013D000AF919F918F917F916F915F914F913F91CD
:1013E0002F911F910F91FF90EF90DF90CF90BF90C2
:1013F000AF909F908F907F906F905F904F903F90B5
:101400002F901F900F9008950E940709E0E4F6E1E5
:1014100081E192E09383828383E092E091838083F1
:1014200088EB93E00E94450A8FEF9FEF0895AA1B77
:10143000BB1B51E107C0AA1FBB1FA617B70710F0BF
:10144000A61BB70B881F991F5A95A9F780959095F1
:10145000BC01CD010895CF93DF93CDB7DEB7AE01C8
:101460004A5F5F4FFA0161917191AF01809142161D
:10147000909143160E94700ADF91CF910895609178
:101480004216709143160C94880C0F931F93CF93C0
:10149000DF93E0914216F09143162381EC0110E0B6
:1014A00000E021FD08C00FEF1FEF14C01995892B34
:1014B00011F00FEF1FEF8991609142167091431662
:1014C000DB011896ED91FC918111F0CF8AE019951E
:1014D000892B49F7C801DF91CF911F910F91089592
:1014E0002F923F924F925F926F927F928F929F9234
:1014F000AF92BF92CF92DF92EF92FF920F931F9322
:10150000CF93DF9300D000D000D01F921F92CDB7B1
:10151000DEB77C013B018A01FC01178216828381C0
:1015200081FFDDC1CE0101965C01F7019381F301DA
:1015300093FD859193FF81913F01882309F453C165
:10154000853239F493FD859193FF81913F01853276
:1015500029F4B70190E00E94880CE7CF912C212C50
:10156000312CFFE1F31538F08B3211F190F4803219
:1015700009F1833229F137FC3CC020ED280F2A30D5
:1015800050F536FE20C08AE0989E200D1124922E40
:1015900006C08D3291F0803371F7689430F8F30112
:1015A00093FD859193FF81913F018111DACF21C095
:1015B000689431F8689432F8F2CF689433F8EFCF3A
:1015C000689434F8ECCFEAE02E9E200D1124222EF0
:1015D000689435F8E4CF8E3229F436FC04C168945F
:1015E00036F8DDCF8C3619F4689437F8D8CF8836C2
:1015F000B1F2982F9F7D95549330E0F08336A1F19E
:101600008337C1F1833509F063C02801F2E04F0E42
:10161000511CF801C080D180692D70E036FC02C0F9
:101620006FEF7FEFC6010E94720C4C01689437F88F
:1016300082010AC00C5F1F4FFFE3F9838824839463
:10164000912C6501E89437F833FE2DC0522C81149B
:10165000910471F5552009F468CFB70180E290E05C
:101660000E94880C5A94F6CFF801808189830E5F1E
:101670001F4FE4CF2801F2E04F0E511CF801C0804B
:10168000D180692D70E036FC02C06FEF7FEFC6019C
:101690000E947D0C4C018201D5CFB70180E290E021
:1016A0000E94880C2A942814190409F0B0F7CECFB0
:1016B000F60137FC859137FE81916F01B70190E00B
:1016C0000E94880C51105A94F1E08F1A9108BFCFF4
:1016D000843619F0893609F077C0F80137FE6BC0FF
:1016E00060817181828193810C5F1F4FF32DFF76A2
:1016F0003F2E97FF09C090958095709561957F4F1B
:101700008F4F9F4F689437F82AE030E0A5010E9480
:10171000B80CC82ECA188C2C432C36FE0CC0E8948A
:1017200040F8C91440F434FE05C032FC03C0F32D68
:10173000FE7E4F2E892C44FEAAC0FE01EC0DF11D49
:101740008081803309F09CC0242D297E422E842D77
:101750008870582E43FCAAC040FEA4C09C2C821462
:1017600018F42C0C922C981844FEA6C0B70180E304
:1017700090E00E94880C42FE09C088E790E041FE9C
:1017800002C088E590E0B7010E94880CC91408F4F3
:101790009FC0CA94D12C9FEFC91AD90ACA0CDB1C6E
:1017A000F60182916F01B70190E00E94880CAC14A1
:1017B000BD04B1F74FCF60817181072E000C880BFB
:1017C000990B0E5F1F4F92CFD32CE894D4F82AE0E8
:1017D00030E08537E1F1232D297FD22E8F36A9F114
:1017E000F0F4883551F1F701868197812B960FB679
:1017F000F894DEBF0FBECDBFDF91CF911F910F9147
:10180000FF90EF90DF90CF90BF90AF909F908F9020
:101810007F906F905F904F903F902F90089580370A
:1018200049F0883701F7D4FE02C06894D2F820E16D
:1018300030E00DC06894D4F8F6CF34FE03C0822F98
:101840008660D82E20E132E002C028E030E0F801C6
:10185000D7FE0FC060817181828193810C5F1F4F21
:10186000A5010E94B80CC82ECA183D2CE89437F880
:1018700052CF6081718190E080E00E5F1F4FF0CF0A
:1018800042FC02C0839463CF8394839460CF842D01
:10189000867809F45CCFF6CFB70180E290E00E9431
:1018A000880C83948214C0F3512C5ECF522C5818AC
:1018B000821408F459CFF8CF842D867809F466CFC6
:1018C0008BE241FE80E247FC8DE2B70190E05CCF05
:1018D000B70180E390E00E94880C9A9457CF8FEF75
:1018E0009FEF84CFFC010590615070400110D8F744
:1018F000809590958E0F9F1F0895FC016150704058
:1019000001900110D8F7809590958E0F9F1F089534
:101910000F931F93CF93DF93182F092FEB018B8128
:1019200081FD09C01FEF0FEF812F902FDF91CF9125
:101930001F910F91089582FF14C02E813F818C81E9
:101940009D81281739073CF4E881F981CF01019680
:101950009983888310838E819F8101969F838E83D4
:10196000E3CFE885F985812F1995892BA1F3DACF8B
:10197000FA01AA27283051F1203181F1E8946F93C0
:101980006E7F6E5F7F4F8F4F9F4FAF4FB1E03ED066
:10199000B4E03CD0670F781F891F9A1FA11D680F04
:1019A000791F8A1F911DA11D6A0F711D811D911D37
:1019B000A11D20D009F468943F912AE0269F1124AC
:1019C0003019305D3193DEF6CF010895462F477010
:1019D000405D4193B3E00FD0C9F7F6CF462F4F706B
:1019E000405D4A3318F0495D31FD4052419302D0C9
:1019F000A9F7EACFB4E0A69597958795779567956F
:101A0000BA95C9F700976105710508959B01AC016E
:101A10000A2E06945795479537952795BA95C9F795
:101A2000620F731F841F951FA01D0895F894FFCFA8
:101A30000100FF000000010000000000000009009C
:101A4000000000000200000000F108000000005447
:101A500045524D494E4154494E47205441534B3A0B
:101A60002025640A004572726F72207769746820BD
:101A70006572726F7220636F64653A2025640A0094
:101A800025642E53656C6563746564206E657720EC
:101A900073797374656D207461736B3A2025640AE1
:101AA0000025642E207069643A20256420746963DF
:101AB0006B3A202564206F66667365743A2025644E
:101AC00020706572696F643A202564202020287494
:101AD00069636B2D6F666673657429206D6F642072
:101AE00028706572696F64293A2025640A002564AC
:101AF0002E53656C6563746564206E657720706530
:101B000072696F646963207461736B3A2025640A9B
:101B10000025642E53656C6563746564206E65777B
:101B2000205252207461736B3A2025640A002D2DD7
:101B30002D2D2D2D2D5354415254494E47204F5396
:101B40002D2D2D2D2D2D2D2D0A0A0053656E64652A
:101B5000723A202564202073656E64696E67206D7B
:101B60006573736167652025640A0053656E64655B
:101B7000723A2025642020676F74207265706C793A
:101B8000206D6573736167652025640A0052656383
:101B900065697665723A2025642020207265636548
:101BA00069766564206D6573736167653A202564A5
:101BB00020202066726F6D202073656E6465722030
:101BC00025640A00726F6D6D62612064617461202A
:101BD000782025640A00726F6D6D62612064617403
:0C1BE0006120792025640A00686900007B
:00000001FF
