:100000000C9484000C94A5000C94A5000C94A500FD
:100010000C94A5000C94A5000C94A5000C94A500CC
:100020000C94A5000C94A5000C94A5000C94A500BC
:100030000C94A5000C94A5000C94A5000C94A500AC
:100040000C94A5000C94A5000C94A5000C94A5009C
:100050000C94A5000C94A5000C94A5000C94A5008C
:100060000C94A5000C940E010C94A5000C94A50012
:100070000C94A5000C94A5000C94A5000C94A5006C
:100080000C94A5000C94A5000C94A5000C94A5005C
:100090000C94A5000C94A5000C94A5000C94A5004C
:1000A0000C94A5000C94A5000C94F9070C94A500E1
:1000B0000C94A5000C94A5000C94A5000C94A5002C
:1000C0000C94A5000C94A5000C94A5000C94A5001C
:1000D0000C94A5000C94A5000C94A5000C94A5000C
:1000E0000C94A5000C94AC070C94A6010C945C082D
:1000F0000C946F010C9476080C9470010C947A01A6
:100100000C94F2070C94B10611241FBECFEFD1E27C
:10011000DEBFCDBF00E00CBF13E0A0E0B2E0E0EC3A
:10012000FFE100E00BBF02C007900D92A038B107BD
:10013000D9F726E1A0E8B3E001C01D92AE30B207C6
:10014000E1F70E94420B0C94DE0F0C94000090E04B
:1001500080E00E94DE0080E80E94F7002FEF83EC31
:1001600099E0215080409040E1F700C0000083E812
:100170000E94F7002FEF83ED90E3215080409040E4
:10018000E1F700C0000008950F931F93CF93DF9312
:10019000182F092FEB0189E80E94F700802F0E9499
:1001A000F700812F0E94F7008D2F0E94F7008C2FFF
:1001B000DF91CF911F910F910C94F7001092C50021
:1001C00028E92093C10026E02093C20022E020937A
:1001D000C0008130910529F010F0029731F087E6D8
:1001E00001C083E38093C400089582E2FBCF909125
:1001F000C00095FFFCCF8093C60008958032910522
:100200002CF484579C4FFC018081089580E0089570
:1002100080918B03089510928B0308951F920F9283
:100220000FB60F9211240BB60F928F939F93EF93FB
:10023000FF938091C00087FFFCCFE0918B03F0E03B
:100240008091C600E457FC4F808380918B0390E03F
:1002500001968F71992780938B03FF91EF919F9166
:100260008F910F900BBE0F900FBE0F901F9018959F
:10027000EF92FF920F931F93CF938C017B01C0E00D
:100280008C2F90E08E159F0534F4800F911FFC0198
:100290008081811106C0CF911F910F91FF90EF9047
:1002A00008950E94F700CF5FEBCF88E18093C900EB
:1002B00086E08093CA00E8ECF0E080818D7F808347
:1002C00008959091C80095FFFCCF8093CE000895CB
:1002D0008091C80087FFFCCF8091CE000895FFCFAA
:1002E0002FEF87EA91E6215080409040E1F700C06F
:1002F0000000F6CF8091B0039091B103892B29F1D2
:10030000F894E091B403F091B503808191819F93BB
:100310008F938AE092E09F938F930E94F30C8091D9
:10032000B4039091B503FC01E85FFE4F23E030E099
:10033000318320838C5F9E4FFC01118210820F90CD
:100340000F900F900F900C940E0A08950C947A0160
:100350008091C0039091C103009789F0FC01E95E90
:10036000FE4F208131813093C1032093C003232BA2
:1003700021F41092C3031092C203118210820895D7
:10038000FC0180819181892B51F471836083738397
:100390006283695E7E4FFB01118210820895A28103
:1003A000B381A95EBE4F6D937C937383628308957E
:1003B000E091B403F091B503E55EFE4F8081918139
:1003C0000895E091B403F091B5038081918108957F
:1003D0009C01E0EDF3E090E080E040815181421724
:1003E000530741F00196ED5DFE4F80319105A9F76D
:1003F0008FEF9FEF0895F8949F938F9380E292E0A0
:100400009F938F930E94F30C0F900F900F900F907B
:10041000FFCFBC01FC01808191810197409720F0C2
:1004200085E090E00E94FB01EC5FFE4F80819181AE
:10043000029721F481E090E091838083FB01E75EE5
:10044000FE4F808191818230910579F08330910552
:1004500029F0019739F484EC93E002C08CEC93E02E
:100460000C94C00182E090E0DDCF0895CF93DF933C
:10047000FC01408151814115510521F48AE090E051
:100480000E94FB01DA01A95EBE4F2D913C911197AC
:100490004617570781F4318320831D921C92808177
:1004A0009181892B11F413821282DF91CF910895EB
:1004B000A901292F382F2115310589F3D901A95E0A
:1004C000BE4F9C9111968C9111972617370781F793
:1004D000EA01C95EDE4F988389831D921C92828156
:1004E000938182179307D9F653834283D8CFCF9352
:1004F000DF93FC01C081D181209759F0FE01EC5FB0
:10050000FE4F208131812130310539F4BE010E9436
:100510003602CE01DF91CF910895C95EDE4F09907A
:10052000D881C02DE9CF5F926F927F928F929F9278
:10053000AF92BF92CF92DF92EF92FF920F931F93F1
:10054000CF93DF938091AC039091AD03019690938C
:10055000AD038093AC038CE5682E82E0782E8CECA2
:1005600093E00E9477029093B5038093B4030097C1
:10057000E9F12091AC033091AD032F5F3F4F3093F1
:10058000AD032093AC03DC018D919C919F938F93DD
:100590003F932F938BE392E09F938F930E94F30CF2
:1005A0000F900F900F900F900F900F90E091B40369
:1005B000F091B50382819381909305168093041680
:1005C000EC5FFE4F82E090E091838083DF91CF91DA
:1005D0001F910F91FF90EF90DF90CF90BF90AF9061
:1005E0009F908F907F906F905F900895C091C80307
:1005F000D091C90310E000E0F12CE12C209749F4E0
:1006000022E0E216F10408F45EC081E090E00E946E
:10061000FB012091AC033091AD032F5F3F4F30932E
:10062000AD032093AC03E091AE03F091AF035E0104
:10063000BFEDAB1ABEEFBB0AD5018D909C906E0149
:10064000B1EECB1ABEEFDB0AD6014C9111965C904D
:10065000CF0188199909642F752D0E94480B9F932B
:100660008F935F924F939F928F92FF93EF93898125
:100670008F9388818F933F932F937F926F920E94E5
:10068000F30C8091AE039091AF03F501208131818D
:10069000821B930BD6016D917C910E94480BEDB7A4
:1006A000FEB73E960FB6F894FEBF0FBEEDBF892B86
:1006B00021F4FFEFEF1AFF0A8E01C95EDE4F0990A9
:1006C000D881C02D9BCFEA94EF2819F11092B50381
:1006D0001092B40384EC93E00E9477029093B503E8
:1006E0008093B403009709F43ACF2091AC03309182
:1006F000AD032F5F3F4F3093AD032093AC03FC015C
:10070000808191819F938F933F932F938CEC92E004
:1007100043CF1093B5030093B40301151105D1F233
:100720008091AC039091AD0301969093AD038093BB
:10073000AC03D8012D913C913F932F939F938F93BE
:1007400089EA92E029CFF8941092A000E1EAF0E063
:10075000108280818860808380818460808381E7CB
:1007600092E09093A9008093A800E2E7F0E08081F6
:10077000826080831092A5001092A400789408955E
:10078000FC0180819181009721F48AE090E00C9433
:10079000070D895E9E4FF4CFFC01349620E031E0D6
:1007A000DF01A9011D9241505040E1F7E150FF4F98
:1007B0002AE731E0208331973083319710823197D7
:1007C000608331977083319710829C0125523F4F8F
:1007D000DC0113963C932E931297389660837183B5
:1007E000329611821082349628EB33E031832083D5
:1007F00032972CEB33E031832083349611821082C0
:1008000032961182108232961182108232961082B4
:100810003196118210822091B6033091B7032F5F79
:100820003F4F3093B7032093B60332961182108264
:10083000739721E030E0318320830C940902EF921A
:10084000FF920F931F93CF93DF931092B7031092F1
:10085000B6031092B1031092B0031092B30310923A
:10086000B203E091B403F091B50381E190E091838C
:1008700080831092CD031092CC031092CF0310927C
:10088000CE031092C9031092C8031092CB031092AA
:10089000CA031092C5031092C4031092C7031092AA
:1008A000C6031092C1031092C0031092C3031092AA
:1008B000C203C0EDD3E010E000E083E2E82EFF24A5
:1008C000F394BE01FE01C70111920197E9F7FE0101
:1008D000EC5FFE4F118210820F5F1F4F1983088358
:1008E000CD5DDE4F7396D183C08380EC93E00E9490
:1008F000C0010031110529F7DF91CF911F910F91B0
:10090000FF90EF9008958091B0039091B103892BEF
:1009100009F04AC08091B6039091B703892B09F47E
:1009200043C0F89489EE92E00E940D0D81E090E0C2
:100930009093B1038093B0030E949302E091B403BB
:10094000F091B503DF01A85FBE4F11961C921E9275
:100950008281938190930516809304160E94B909B1
:100960008091B4039091B50320910416309105163F
:10097000FC0133832283E85FFE4F208131812230E6
:10098000310529F02330310529F0232B49F40E9449
:100990000902D2CF8C5F9E4FFC0111821082CCCF16
:1009A00083E090E00E94FB010895EF92FF920F9385
:1009B0001F93CF93DF938C017B018091B6039091BD
:1009C000B703409771F18091C0039091C103892BC7
:1009D00041F18091B0039091B103892B09F0F89413
:1009E0000E94A801EC01FC01E75EFE4F83E090E06D
:1009F000918380833296F182E082B801CE010E9419
:100A0000CC038091B0039091B103892B09F07894C5
:100A100088819981DF91CF911F910F91FF90EF9085
:100A2000089590E080E0F6CFEF92FF920F931F932E
:100A3000CF93DF938C017B018091B6039091B70334
:100A4000409771F18091C0039091C103892B41F1CE
:100A50008091B0039091B103892B09F0F8940E9422
:100A6000A801EC01FC01E75EFE4F81E090E091837C
:100A700080833296F182E082B801CE010E94CC03DD
:100A80008091B0039091B103892B09F0789488810B
:100A90009981DF91CF911F910F91FF90EF90089571
:100AA00090E080E0F6CF8F929F92AF92BF92CF926C
:100AB000DF92EF92FF920F931F93CF93DF93EC019E
:100AC0005B017A0169018091B6039091B703409769
:100AD00009F444C08091C0039091C103892B09F4AB
:100AE0003DC08091B0039091B103892B09F0F89437
:100AF0000E94A8014C01FC01E75EFE4F82E090E0FD
:100B0000918380833296B182A0823296D182C08254
:100B10003296F182E082329611830083BE01C401D5
:100B20000E94CC03B40188EC93E00E94C001809144
:100B3000B0039091B103892B09F07894F40180817E
:100B40009181DF91CF911F910F91FF90EF90DF90F6
:100B5000CF90BF90AF909F908F90089590E080E0ED
:100B6000F0CF8091B0039091B103892B69F0F89494
:100B7000E091B403F091B503E85FFE4F82E090E0AE
:100B8000918380830C940E0A0895CF93DF93FC0128
:100B9000C081D181209751F0DE01AC5EBE4F9C91A7
:100BA000962341F0BE01CF010E943602CE01DF91B3
:100BB000CF910895C95EDE4F0990D881C02DEACF4C
:100BC000FF920F931F93CF93DF93F62E8A01AC0110
:100BD00041505109C091B403D091B50323E231E0F3
:100BE000429FC001439F900D529F900D112480534E
:100BF0009C4FDC01AC5FBE4F2D913C911197BE0123
:100C00006C5F7E4F2430310509F059C0488159810D
:100C10009C01225F3E4FF90151834083F8014081DE
:100C200051812E5F3F4FF901518340832C5F3F4F2D
:100C3000F901F08225E030E0FB013183208321E0DF
:100C400030E02D933C93845F9E4FBE01FC01808178
:100C500091810E94C00188819981F80121812F939F
:100C600020812F939F938F9386E093E09F938F93A0
:100C70000E94F30C0E94B105E091B403F091B5031A
:100C8000DF01AE5EBE4F2D913C91808191813F93FB
:100C90002F939F938F9386E293E09F938F930E946D
:100CA000F30C8DB79EB70C960FB6F8949EBF0FBE8F
:100CB0008DBFDF91CF911F910F91FF90089523E099
:100CC00030E0FB0131832083865F9E4FBE01FC0133
:100CD000808191810E94C00188819981FE01E25F3B
:100CE000FE4F91838083F80180819181FE01E05F56
:100CF000FE4F918380833496F082319681E090E0BC
:100D00009183808388819981F80121812F932081AB
:100D10002F939F938F9386E093E09F938F930E94EE
:100D2000F30C0E94B105E091B403F091B503DF012B
:100D3000AE5EBE4F2D913C91808191813F932F9368
:100D40009F938F9386E293E09F938F930E94F30C7F
:100D50008DB79EB70C960FB6F8949EBF0FBE8DBF91
:100D6000A8CFCF93DF931F921F92CDB7DEB781E359
:100D700090E09A838983AE014F5F5F4F61E681E027
:100D800090E00E94E0050F900F90DF91CF910895C1
:100D90000F931F93CF93DF93682FC091B403D0912B
:100DA000B503FE01E65FFE4F808191810E94C5057B
:100DB0008C010097C9F5CC5FDE4F84E090E0998309
:100DC00088830E94B105E091B403F091B503DF017F
:100DD000A25FBE4F4D915C91119712962D913C915F
:100DE000808191815F934F933F932F939F938F9334
:100DF00088E493E09F938F930E94F30CE091B403F7
:100E0000F091B503E25FFE4F808191812DB73EB72F
:100E1000285F3F4F0FB6F8943EBF0FBE2DBFDF9146
:100E2000CF911F910F910895FC01EC5FFE4F85E07B
:100E300090E091838083FE01E45FFE4F8081918189
:100E4000B8010E94C001F80180819181FE01E25F3A
:100E5000FE4F91838083F801E05FFE4F2081318156
:100E6000DE01A05FBE4F11963C932E93D801AC5E7D
:100E7000BE4F2C91DE01AC5EBE4F2C932881398190
:100E80009F938F9381818F9380818F933F932F9333
:100E900088E493E09F938F930E94F30CF801808184
:100EA00091812DB73EB7285F3F4F0FB6F8943EBFF4
:100EB0000FBE2DBFB4CF0F931F93CF93DF93EB01E2
:100EC0008C010150110983E291E0089FB001099F54
:100ED000700D189F700D112460537C4FE091B40386
:100EE000F091B503E45FFE4FA081B1818D919C919B
:100EF000009729F4DF91CF911F910F910895681702
:100F0000790721F0895E9E4FDC01F0CF80819181CD
:100F10000E94360223E231E0029FC001039F900D40
:100F2000129F900D112480539C4FFC01EE5EFE4FEA
:100F3000D183C083339623E030E0318320838C5FFC
:100F40009E4F21E030E0FC0131832083DF91CF917F
:100F50001F910F910C94B105CF93DF931F921F92B5
:100F6000CDB7DEB781E090E09A838983BE016F5FE1
:100F70007F4F81E60E94C8066EE570E00E945B0725
:100F80000F900F90DF91CF910895FC01319723E2EC
:100F900031E0E29FC001E39F900DF29F900D11247C
:100FA00080539C4FFC01EC5FFE4F20813181243047
:100FB0003105B9F4A091B403B091B5032D913C91E2
:100FC000DC01A25FBE4F11963C932E9312964D9377
:100FD0005C938C5E9E4FDC016C9381E090E091838A
:100FE0008083089542E350E061E681E090E00C9454
:100FF000C5071F920F920FB60F9211240BB60F92D6
:101000002F933F934F935F936F937F938F939F9310
:10101000AF93BF93EF93FF938091AE039091AF0393
:1010200001969093AF038093AE038091B0039091AB
:10103000B103892BA9F08091B4039091B503FC0111
:10104000E75EFE4F208131812330310549F07197F1
:1010500022E030E0318320830E9409020E94930243
:10106000FF91EF91BF91AF919F918F917F916F9180
:101070005F914F913F912F910F900BBE0F900FBE3C
:101080000F901F9018950C947A01CF93DF931F92C5
:101090001F92CDB7DEB784E690E09A838983AE01D4
:1010A0004F5F5F4F61E682E090E00E94E0050F90A5
:1010B0000F90DF91CF9108950E944508FDCFCF9307
:1010C000DF931F921F92CDB7DEB71A821982BE013D
:1010D0006F5F7F4F8FEF0E94C80664EF71E00E9440
:1010E0005B070F900F90DF91CF9108950E945F08EA
:1010F000FDCF0F931F9361E070E086EA91E00E94BC
:10110000D50461E070E086EA91E00E94D50410E029
:1011100000E021E030E044E050E061E070E08FE684
:1011200091E00E94530501E010E021E030E044E04E
:1011300050E061E070E080E791E00E94530561E0DB
:1011400070E08FE691E00E94140561E070E08FE6A8
:1011500091E01F910F910C94140561E070E081EB18
:1011600096E00E94D50461E070E08CEA97E00C9470
:10117000D50461E070E08CEA97E00E94D50461E05C
:1011800070E081EB96E00C94D504CF93DF93D0E030
:10119000C0E0BE018FE691E00E9414052196C431A3
:1011A000D105B9F7DF91CF9108950F931F9310E008
:1011B00000E021E030E044E050E061E070E08FE6E4
:1011C00091E00E94530521E030E044E050E061E00E
:1011D00070E080E791E00E9453051F910F91089500
:1011E00061E070E082EF97E00E94D50461E070E07A
:1011F0008CEA97E00C94D50461E070E08CEA97E00B
:101200000E94D50461E070E082EF97E00C94D50471
:1012100061E070E08CE598E00E94D50461E070E048
:1012200086E798E00C94D504EAE7F0E080818760D7
:101230008083ACE7B0E08C9180648C93808180687F
:1012400080830895E7E0F1E080818B7F8083808157
:10125000877F80835F980C94140990917C00907E26
:10126000282F2770922B90937C0090917B00977F82
:101270008870892B80937B0080917A0080648093B2
:101280007A0080917A0086FDFCCF609178007091A1
:10129000790090E080E00E94F80B2AEF3EE74AEEEA
:1012A0005EE30E94860C20E030E04CE053E40E94B4
:1012B0005D0B0E94C90B7093790060937800809158
:1012C0007800909179000895809108020E942D097C
:1012D0009093031680930216809107020E942D09B5
:1012E00090930116809300162091021630910316F8
:1012F000A901445E514047325105A0F4865F9140F8
:101300008797F8F481E90E94F70080E00E94F700D7
:1013100080E00E94F70080E00E94F70080E00E94D9
:10132000F700D2CF61E070E02C3281E038072CF07A
:101330002D3B324034F06FEF7FEF82E390E00E946C
:10134000C4008091001690910116813223E092072B
:101350003CF060E070E884E690E00E94C400B4CF06
:101360008C3291400CF0B0CF60E070E88CE99FEFD8
:10137000F4CF0F921F922F923F924F925F926F92F3
:101380007F928F929F92AF92BF92CF92DF92EF9215
:10139000FF920F931F932F933F934F935F936F93FE
:1013A0007F938F939F93AF93BF93CF93DF93EF93ED
:1013B000FF930FB70F930CB70F93EDB7FEB7E09302
:1013C0000616F0930716E0910416F0910516EDBF8E
:1013D000FEBF0F910CBF0F910FBFFF91EF91DF91F7
:1013E000CF91BF91AF919F918F917F916F915F91BD
:1013F0004F913F912F911F910F91FF90EF90DF90B0
:10140000CF90BF90AF909F908F907F906F905F90A4
:101410004F903F902F901F900F9018950F921F9212
:101420002F923F924F925F926F927F928F929F92F4
:10143000AF92BF92CF92DF92EF92FF920F931F93E2
:101440002F933F934F935F936F937F938F939F93CC
:10145000AF93BF93CF93DF93EF93FF930FB70F93A8
:101460000CB70F93EDB7FEB7E0930416F093051693
:10147000E0910616F0910716EDBFFEBF0F910CBF6D
:101480000F910FBFFF91EF91DF91CF91BF91AF917E
:101490009F918F917F916F915F914F913F912F918C
:1014A0001F910F91FF90EF90DF90CF90BF90AF9082
:1014B0009F908F907F906F905F904F903F902F9074
:1014C0001F900F900895909102019F7E90930201CA
:1014D00087FF05C090910201906190930201909165
:1014E0000201977F9093020186FF05C0909102014F
:1014F000986090930201739885FD739AA59884FD76
:10150000A59A8091020180648093020185E08A950A
:10151000F1F70000809102018F7B80930201089512
:10152000CF93C82F809102018F7D809302018C2F71
:101530000E94630A8C2F8295807F0E94630A87EC49
:1015400090E00197F1F700C00000C43030F0C038DF
:1015500010F0C0930902CF9108958FE39FE10197A6
:10156000F1F700C00000C0E8F4CFCF93C82F8091FE
:1015700002018062809302018C2F0E94630A8C2FEB
:101580008295807F0E94630A87EC90E00197F1F7D3
:1015900000C00000809109028F5F809309028039AA
:1015A00031F0803D31F480E8CF910C94900A80ECCA
:1015B000FBCFCF910895CF93DF93EC0189918111F7
:1015C00003C0DF91CF9108950E94B50AF7CFCF9362
:1015D000C82FC15010F4CF91089580E20E94B50A3F
:1015E000F8CF9D9A6B9AE1E0F1E08081886080837A
:1015F000808180618083808180628083808180643B
:101600008083E2E0F1E080818F7B808380818F7D29
:1016100080838FE59AEE0197F1F700C0000080E328
:101620000E94630A8FE090E40197F1F700C0000088
:1016300080E30E94630A8FE891E00197F1F700C010
:10164000000080E30E94630A87EC90E00197F1F7C5
:1016500000C0000080E20E94630A87EC90E00197DE
:10166000F1F700C0000088E20E94900A88E00E9422
:10167000900A81E00E94900A86E00E94900A8CE025
:101680000C94900A0E94A7000E9422090E946409FB
:10169000AA1BBB1B51E107C0AA1FBB1FA617B70798
:1016A00010F0A61BB70B881F991F5A95A9F78095B4
:1016B0009095BC01CD0108955058BB27AA270E94E0
:1016C000740B0C944C0C0E943E0C38F00E94450C9C
:1016D00020F039F49F3F19F426F40C943B0C0EF4DF
:1016E000E095E7FB0C94350CE92F0E945D0C58F354
:1016F000BA17620773078407950720F079F4A6F5F7
:101700000C947F0C0EF4E0950B2EBA2FA02D0B013C
:10171000B90190010C01CA01A0011124FF27591B36
:1017200099F0593F50F4503E68F11A16F040A22F3C
:10173000232F342F4427585FF3CF469537952795AD
:10174000A795F0405395C9F77EF41F16BA0B620BAC
:10175000730B840BBAF09150A1F0FF0FBB1F661FF3
:10176000771F881FC2F70EC0BA0F621F731F841F36
:1017700048F4879577956795B795F7959E3F08F05C
:10178000B0CF9395880F08F09927EE0F979587951E
:1017900008950E94650C88F09F5798F0B92F9927FB
:1017A000B751B0F0E1F0660F771F881F991F1AF04C
:1017B000BA95C9F714C0B13091F00E947F0CB1E026
:1017C00008950C947F0C672F782F8827B85F39F025
:1017D000B93FCCF3869577956795B395D9F73EF4E5
:1017E00090958095709561957F4F8F4F9F4F08958D
:1017F000E89409C097FB3EF49095809570956195AB
:101800007F4F8F4F9F4F9923A9F0F92F96E9BB2760
:101810009395F695879577956795B795F111F8CFDC
:10182000FAF4BB0F11F460FF1BC06F5F7F4F8F4F47
:101830009F4F16C0882311F096E911C0772321F03D
:101840009EE8872F762F05C0662371F096E8862FD5
:1018500070E060E02AF09A95660F771F881FDAF72C
:10186000880F9695879597F9089597F99F6780E86F
:1018700070E060E008959FEF80EC089500240A94E2
:101880001616170618060906089500240A9412165B
:101890001306140605060895092E0394000C11F48E
:1018A000882352F0BB0F40F4BF2B11F460FF04C03B
:1018B0006F5F7F4F8F4F9F4F089557FD9058440F94
:1018C000551F59F05F3F71F04795880F97FB991F9F
:1018D00061F09F3F79F0879508951216130614065C
:1018E000551FF2CF4695F1DF08C0161617061806E9
:1018F000991FF1CF86957105610508940895E894C4
:10190000BB2766277727CB0197F908950E94990C8A
:101910000C944C0C0E943E0C38F00E94450C20F0B8
:10192000952311F00C94350C0C943B0C11240C9461
:10193000800C0E945D0C70F3959FC1F3950F50E0F1
:10194000551F629FF001729FBB27F00DB11D639F71
:10195000AA27F00DB11DAA1F649F6627B00DA11D17
:10196000661F829F2227B00DA11D621F739FB00DBD
:10197000A11D621F839FA00D611D221F749F33272D
:10198000A00D611D231F849F600D211D822F762FC6
:101990006A2F11249F5750409AF0F1F088234AF0A3
:1019A000EE0FFF1FBB1F661F771F881F915050400F
:1019B000A9F79E3F510580F00C94350C0C94800CD7
:1019C0005F3FE4F3983ED4F3869577956795B79596
:1019D000F795E7959F5FC1F7FE2B880F911D9695B0
:1019E000879597F90895CF93DF93CDB7DEB7AE0112
:1019F0004A5F5F4FFA0161917191AF0180910A16C0
:101A000090910B160E94380DDF91CF91089560914F
:101A10000A1670910B160C94500F0F931F93CF93CF
:101A2000DF93E0910A16F0910B162381EC0110E090
:101A300000E021FD08C00FEF1FEF14C01995892B9E
:101A400011F00FEF1FEF899160910A1670910B163C
:101A5000DB011896ED91FC918111F0CF8AE0199588
:101A6000892B49F7C801DF91CF911F910F910895FC
:101A70002F923F924F925F926F927F928F929F929E
:101A8000AF92BF92CF92DF92EF92FF920F931F938C
:101A9000CF93DF9300D000D000D01F921F92CDB71C
:101AA000DEB77C013B018A01FC011782168283812B
:101AB00081FFDDC1CE0101965C01F7019381F30145
:101AC00093FD859193FF81913F01882309F453C1D0
:101AD000853239F493FD859193FF81913F018532E1
:101AE00029F4B70190E00E94500FE7CF912C212CF0
:101AF000312CFFE1F31538F08B3211F190F4803284
:101B000009F1833229F137FC3CC020ED280F2A303F
:101B100050F536FE20C08AE0989E200D1124922EAA
:101B200006C08D3291F0803371F7689430F8F3017C
:101B300093FD859193FF81913F018111DACF21C0FF
:101B4000689431F8689432F8F2CF689433F8EFCFA4
:101B5000689434F8ECCFEAE02E9E200D1124222E5A
:101B6000689435F8E4CF8E3229F436FC04C16894C9
:101B700036F8DDCF8C3619F4689437F8D8CF88362C
:101B8000B1F2982F9F7D95549330E0F08336A1F108
:101B90008337C1F1833509F063C02801F2E04F0EAD
:101BA000511CF801C080D180692D70E036FC02C064
:101BB0006FEF7FEFC6010E943A0F4C01689437F82F
:101BC00082010AC00C5F1F4FFFE3F98388248394CE
:101BD000912C6501E89437F833FE2DC0522C811406
:101BE000910471F5552009F468CFB70180E290E0C7
:101BF0000E94500F5A94F6CFF801808189830E5FBE
:101C00001F4FE4CF2801F2E04F0E511CF801C080B5
:101C1000D180692D70E036FC02C06FEF7FEFC60106
:101C20000E94450F4C018201D5CFB70180E290E0C0
:101C30000E94500F2A942814190409F0B0F7CECF4F
:101C4000F60137FC859137FE81916F01B70190E075
:101C50000E94500F51105A94F1E08F1A9108BFCF93
:101C6000843619F0893609F077C0F80137FE6BC069
:101C700060817181828193810C5F1F4FF32DFF760C
:101C80003F2E97FF09C090958095709561957F4F85
:101C90008F4F9F4F689437F82AE030E0A5010E94EB
:101CA000800FC82ECA188C2C432C36FE0CC0E8942A
:101CB00040F8C91440F434FE05C032FC03C0F32DD3
:101CC000FE7E4F2E892C44FEAAC0FE01EC0DF11DB4
:101CD0008081803309F09CC0242D297E422E842DE2
:101CE0008870582E43FCAAC040FEA4C09C2C8214CD
:101CF00018F42C0C922C981844FEA6C0B70180E36F
:101D000090E00E94500F42FE09C088E790E041FE3B
:101D100002C088E590E0B7010E94500FC91408F492
:101D20009FC0CA94D12C9FEFC91AD90ACA0CDB1CD8
:101D3000F60182916F01B70190E00E94500FAC1440
:101D4000BD04B1F74FCF60817181072E000C880B65
:101D5000990B0E5F1F4F92CFD32CE894D4F82AE052
:101D600030E08537E1F1232D297FD22E8F36A9F17E
:101D7000F0F4883551F1F701868197812B960FB6E3
:101D8000F894DEBF0FBECDBFDF91CF911F910F91B1
:101D9000FF90EF90DF90CF90BF90AF909F908F908B
:101DA0007F906F905F904F903F902F900895803775
:101DB00049F0883701F7D4FE02C06894D2F820E1D8
:101DC00030E00DC06894D4F8F6CF34FE03C0822F03
:101DD0008660D82E20E132E002C028E030E0F80131
:101DE000D7FE0FC060817181828193810C5F1F4F8C
:101DF000A5010E94800FC82ECA183D2CE89437F820
:101E000052CF6081718190E080E00E5F1F4FF0CF74
:101E100042FC02C0839463CF8394839460CF842D6B
:101E2000867809F45CCFF6CFB70180E290E00E949B
:101E3000500F83948214C0F3512C5ECF522C58184B
:101E4000821408F459CFF8CF842D867809F466CF30
:101E50008BE241FE80E247FC8DE2B70190E05CCF6F
:101E6000B70180E390E00E94500F9A9457CF8FEF14
:101E70009FEF84CFFC010590615070400110D8F7AE
:101E8000809590958E0F9F1F0895FC0161507040C2
:101E900001900110D8F7809590958E0F9F1F08959F
:101EA0000F931F93CF93DF93182F092FEB018B8193
:101EB00081FD09C01FEF0FEF812F902FDF91CF9190
:101EC0001F910F91089582FF14C02E813F818C8154
:101ED0009D81281739073CF4E881F981CF010196EB
:101EE0009983888310838E819F8101969F838E833F
:101EF000E3CFE885F985812F1995892BA1F3DACFF6
:101F0000FA01AA27283051F1203181F1E8946F932A
:101F10006E7F6E5F7F4F8F4F9F4FAF4FB1E03ED0D0
:101F2000B4E03CD0670F781F891F9A1FA11D680F6E
:101F3000791F8A1F911DA11D6A0F711D811D911DA1
:101F4000A11D20D009F468943F912AE0269F112416
:101F50003019305D3193DEF6CF010895462F47707A
:101F6000405D4193B3E00FD0C9F7F6CF462F4F70D5
:101F7000405D4A3318F0495D31FD4052419302D033
:101F8000A9F7EACFB4E0A6959795879577956795D9
:101F9000BA95C9F700976105710508959B01AC01D9
:101FA0000A2E06945795479537952795BA95C9F700
:101FB000620F731F841F951FA01D0895F894FFCF13
:101FC0000100FF040177010A0B805445524D494E30
:101FD0004154494E47205441534B3A2025640A004E
:101FE0004572726F722077697468206572726F72C1
:101FF00020636F64653A2025640A0025642E5365CA
:102000006C6563746564206E65772073797374659D
:102010006D207461736B3A2025640A0025642E20BC
:102020007069643A202564207469636B3A202564E2
:10203000206F66667365743A202564207065726946
:102040006F643A202564202020287469636B2D6F0B
:10205000666673657429206D6F64202870657269E7
:102060006F64293A2025640A0025642E53656C6547
:1020700063746564206E657720706572696F64694A
:1020800063207461736B3A2025640A0025642E5323
:10209000656C6563746564206E65772052522074A8
:1020A00061736B3A2025640A002D2D2D2D2D2D2DC9
:1020B0005354415254494E47204F532D2D2D2D2D11
:1020C0002D2D2D0A0A0053656E6465723A20256431
:1020D000202073656E64696E67206D657373616738
:1020E000652025640A0053656E6465723A20256494
:1020F0002020676F74207265706C79206D65737332
:102100006167652025640A005265636569766572BA
:102110003A20256420202072656365697665642015
:102120006D6573736167653A2025642020206672AF
:102130006F6D202073656E6465722025640A00004F
:00000001FF
