:100000000C9488000C94A9000C94A9000C94A900ED
:100010000C94A9000C94A9000C94A9000C94A900BC
:100020000C94A9000C94A9000C94A9000C94A900AC
:100030000C94A9000C94A9000C94A9000C94A9009C
:100040000C94A9000C94A9000C94A9000C94A9008C
:100050000C94A9000C94A9000C94A9000C94A9007C
:100060000C94A9000C9412010C94A9000C94A90002
:100070000C94A9000C94A9000C94A9000C94A9005C
:100080000C94A9000C94A9000C94A9000C94A9004C
:100090000C94A9000C94A9000C94A9000C94A9003C
:1000A0000C94A9000C94A9000C9402080C94A900CB
:1000B0000C94A9000C94A9000C94A9000C94A9001C
:1000C0000C94A9000C94A9000C94A9000C94A9000C
:1000D0000C94A9000C94A9000C94A9000C94A900FC
:1000E0000C94A9000C94B5070C94AF010C94780102
:1000F0000C944D090C94A0080C9479010C94830184
:100100000C94FB070C94BA060C943E090C948608D8
:1001100011241FBECFEFD1E2DEBFCDBF00E00CBF88
:1001200013E0A0E0B2E0E2ECF0E200E00BBF02C0BE
:1001300007900D92AC3CB107D9F726E1ACECB3E0E7
:1001400001C01D92A036B207E1F70E94C30B0C94C8
:100150005F100C94000090E080E00E94E20080E8D4
:100160000E94FB002FEF83EC99E0215080409040EB
:10017000E1F700C0000083E80E94FB002FEF83ED51
:1001800090E3215080409040E1F700C000000895C6
:100190000F931F93CF93DF93182F092FEB0189E85B
:1001A0000E94FB00802F0E94FB00812F0E94FB0019
:1001B0008D2F0E94FB008C2FDF91CF911F910F910B
:1001C0000C94FB001092C50028E92093C10026E0A2
:1001D0002093C20022E02093C0008130910529F0D5
:1001E00010F0029731F087E601C083E38093C400EA
:1001F000089582E2FBCF9091C00095FFFCCF8093E1
:10020000C6000895803291052CF488529C4FFC0161
:100210008081089580E008958091D7030895109219
:10022000D70308951F920F920FB60F9211240BB6A9
:100230000F928F939F93EF93FF938091C00087FF5E
:10024000FCCFE091D703F0E08091C600E852FC4F6C
:1002500080838091D70390E001968F7199278093D6
:10026000D703FF91EF919F918F910F900BBE0F904D
:100270000FBE0F901F901895EF92FF920F931F9350
:10028000CF938C017B01C0E08C2F90E08E159F05F1
:1002900034F4800F911FFC018081811106C0CF9141
:1002A0001F910F91FF90EF9008950E94FB00CF5F88
:1002B000EBCF88E98093C90086E08093CA00E8EC20
:1002C000F0E080818D7F80831092CD0089E1809362
:1002D000CC0008959091C80095FFFCCF8093CE008C
:1002E00008958091C80087FFFCCF8091CE000895CB
:1002F000FFCF2FEF87EA91E6215080409040E1F751
:1003000000C00000F6CF8091FC039091FD03892B83
:1003100029F1F894E0910004F09101048081918129
:100320009F938F9388E292E09F938F930E94740D26
:100330008091000490910104FC01E85FFE4F23E0EE
:1003400030E0318320838C5F9E4FFC01118210824C
:100350000F900F900F900F900C948F0A08950C94AB
:10036000830180910C0490910D04009789F0FC01A9
:10037000E95EFE4F2081318130930D0420930C04FF
:10038000232B21F410920F0410920E04118210827C
:100390000895FC0180819181892B51F471836083E0
:1003A00073836283695E7E4FFB0111821082089520
:1003B000A281B381A95EBE4F6D937C9373836283E8
:1003C0000895E0910004F0910104E55EFE4F808104
:1003D00091810895E0910004F09101048081918160
:1003E00008959C01ECE1F4E090E080E040815181CF
:1003F0004217530741F00196ED5DFE4F80319105A4
:10040000A9F78FEF9FEF0895F8949F938F938EE352
:1004100092E09F938F930E94740D0F900F900F9016
:100420000F90FFCFBC01FC01808191810197409723
:1004300020F085E090E00E940402EC5FFE4F808196
:100440009181029721F481E090E091838083FB0108
:10045000E75EFE4F808191818230910579F0833093
:10046000910529F0019739F480E194E002C088E118
:1004700094E00C94C90182E090E0DDCF0895CF9321
:10048000DF93FC01408151814115510521F48AE03F
:1004900090E00E940402DA01A95EBE4F2D913C91CA
:1004A00011974617570781F4318320831D921C92C0
:1004B00080819181892B11F413821282DF91CF9177
:1004C0000895A901292F382F2115310589F3D90164
:1004D000A95EBE4F9C9111968C91119726173707F4
:1004E00081F7EA01C95EDE4F988389831D921C92D1
:1004F0008281938182179307D9F653834283D8CFA1
:10050000CF93DF93FC01C081D181209759F0FE0188
:10051000EC5FFE4F208131812130310539F4BE017D
:100520000E943F02CE01DF91CF910895C95EDE4F58
:100530000990D881C02DE9CF5F926F927F928F9200
:100540009F92AF92BF92CF92DF92EF92FF920F9362
:100550001F93CF93DF938091F8039091F903019655
:100560009093F9038093F8038AE7682E82E0782E4F
:1005700088E194E00E94800290930104809300043B
:100580000097E9F12091F8033091F9032F5F3F4F75
:100590003093F9032093F803DC018D919C919F9394
:1005A0008F933F932F9389E592E09F938F930E94BF
:1005B000740D0F900F900F900F900F900F90E0918F
:1005C0000004F091010482819381909357168093E7
:1005D0005616EC5FFE4F82E090E091838083DF91BE
:1005E000CF911F910F91FF90EF90DF90CF90BF9030
:1005F000AF909F908F907F906F905F900895C09183
:100600001404D091150410E000E0F12CE12C2097A7
:1006100049F422E0E216F10408F45EC081E090E0C3
:100620000E9404022091F8033091F9032F5F3F4F9D
:100630003093F9032093F803E091FA03F091FB0360
:100640005E01BFEDAB1ABEEFBB0AD5018D909C9049
:100650006E01B1EECB1ABEEFDB0AD6014C911196BA
:100660005C90CF0188199909642F752D0E94C90BE0
:100670009F938F935F924F939F928F92FF93EF93ED
:1006800089818F9388818F933F932F937F926F926D
:100690000E94740D8091FA039091FB03F501208173
:1006A0003181821B930BD6016D917C910E94C90B05
:1006B000EDB7FEB73E960FB6F894FEBF0FBEEDBF86
:1006C000892B21F4FFEFEF1AFF0A8E01C95EDE4F7E
:1006D0000990D881C02D9BCFEA94EF2819F1109290
:1006E00001041092000480E194E00E948002909343
:1006F000010480930004009709F43ACF2091F80395
:100700003091F9032F5F3F4F3093F9032093F803A3
:10071000FC01808191819F938F933F932F938AEE69
:1007200092E043CF109301040093000401151105DA
:10073000D1F28091F8039091F90301969093F90317
:100740008093F803D8012D913C913F932F939F9371
:100750008F9387EC92E029CFF8941092A000E1EA01
:10076000F0E0108280818860808380818460808353
:1007700081E792E09093A9008093A800E2E7F0E07F
:100780008081826080831092A5001092A4007894EA
:100790000895FC0180819181009721F48AE090E026
:1007A0000C94880D895E9E4FF4CFFC01349620E0B6
:1007B00031E0DF01A9011D9241505040E1F7E150C5
:1007C000FF4F23E831E02083319730833197108247
:1007D0003197608331977083319710829C01255245
:1007E0003F4FDC0113963C932E931297389660830B
:1007F0007183329611821082349624E034E0318382
:100800002083329728E034E03183208334961182AC
:1008100010823296118210823296118210823296A4
:1008200010823196118210822091020430910304CB
:100830002F5F3F4F309303042093020432961182BE
:100840001082739721E030E0318320830C941202F0
:10085000EF92FF920F931F93CF93DF9310920304B5
:10086000109202041092FD031092FC031092FF03F9
:100870001092FE03E0910004F091010481E190E008
:1008800091838083109219041092180410921B0413
:1008900010921A0410921504109214041092170466
:1008A0001092160410921104109210041092130466
:1008B0001092120410920D0410920C0410920F0466
:1008C00010920E04CCE1D4E010E000E083E2E82EC8
:1008D000FF24F394BE01FE01C70111920197E9F7CD
:1008E000FE01EC5FFE4F118210820F5F1F4F1983D4
:1008F0000883CD5DDE4F7396D183C0838CE094E096
:100900000E94C9010031110529F7DF91CF911F9194
:100910000F91FF90EF9008958091FC039091FD035B
:10092000892B09F04AC08091020490910304892B1D
:1009300009F443C0F89487E093E00E948E0D81E0B3
:1009400090E09093FD038093FC030E949C02E09151
:100950000004F0910104DF01A85FBE4F11961C92C4
:100960001E928281938190935716809356160E940F
:100970003A0A80910004909101042091561630911A
:100980005716FC0133832283E85FFE4F20813181BB
:100990002230310529F02330310529F0232B49F489
:1009A0000E941202D2CF8C5F9E4FFC0111821082F6
:1009B000CCCF83E090E00E9404020895EF92FF9272
:1009C0000F931F93CF93DF938C017B0180910204DF
:1009D00090910304409771F180910C0490910D0463
:1009E000892B41F18091FC039091FD03892B09F043
:1009F000F8940E94B101EC01FC01E75EFE4F83E038
:100A000090E0918380833296F182E082B801CE013A
:100A10000E94D5038091FC039091FD03892B09F07E
:100A2000789488819981DF91CF911F910F91FF90E8
:100A3000EF90089590E080E0F6CFEF92FF920F9351
:100A40001F93CF93DF938C017B01809102049091DF
:100A50000304409771F180910C0490910D04892B4F
:100A600041F18091FC039091FD03892B09F0F894EA
:100A70000E94B101EC01FC01E75EFE4F81E090E0D5
:100A8000918380833296F182E082B801CE010E9488
:100A9000D5038091FC039091FD03892B09F0789494
:100AA00088819981DF91CF911F910F91FF90EF90F5
:100AB000089590E080E0F6CF8F929F92AF92BF9220
:100AC000CF92DF92EF92FF920F931F93CF93DF931A
:100AD000EC015B017A0169018091020490910304A9
:100AE000409709F444C080910C0490910D04892B27
:100AF00009F43DC08091FC039091FD03892B09F01E
:100B0000F8940E94B1014C01FC01E75EFE4F82E0C7
:100B100090E0918380833296B182A0823296D18216
:100B2000C0823296F182E082329611830083BE0148
:100B3000C4010E94D503B40184E194E00E94C9017C
:100B40008091FC039091FD03892B09F07894F401C6
:100B500080819181DF91CF911F910F91FF90EF9054
:100B6000DF90CF90BF90AF909F908F90089590E0CE
:100B700080E0F0CF8091FC039091FD03892B69F018
:100B8000F894E0910004F0910104E85FFE4F82E0E8
:100B900090E0918380830C948F0A0895CF93DF9324
:100BA000FC01C081D181209751F0DE01AC5EBE4FC7
:100BB0009C91962341F0BE01CF010E943F02CE01DD
:100BC000DF91CF910895C95EDE4F0990D881C02D85
:100BD000EACFFF920F931F93CF93DF93F62E8A01F4
:100BE000AC0141505109C0910004D091010423E2AD
:100BF00031E0429FC001439F900D529F900D112400
:100C0000845E9B4FDC01AC5FBE4F2D913C911197F0
:100C1000BE016C5F7E4F2430310509F059C0488118
:100C200059819C01225F3E4FF90151834083F801B5
:100C3000408151812E5F3F4FF901518340832C5FEA
:100C40003F4FF901F08225E030E0FB013183208342
:100C500021E030E02D933C93845F9E4FBE01FC0168
:100C6000808191810E94C90188819981F801218147
:100C70002F9320812F939F938F9384E293E09F93F0
:100C80008F930E94740D0E94BA05E0910004F091C8
:100C90000104DF01AE5EBE4F2D913C9180819181B8
:100CA0003F932F939F938F9384E493E09F938F932D
:100CB0000E94740D8DB79EB70C960FB6F8949EBF28
:100CC0000FBE8DBFDF91CF911F910F91FF900895BF
:100CD00023E030E0FB0131832083865F9E4FBE011D
:100CE000FC01808191810E94C90188819981FE0166
:100CF000E25FFE4F91838083F80180819181FE0144
:100D0000E05FFE4F918380833496F082319681E0DC
:100D100090E09183808388819981F80121812F93CC
:100D200020812F939F938F9384E293E09F938F93DF
:100D30000E94740D0E94BA05E0910004F091010434
:100D4000DF01AE5EBE4F2D913C91808191813F933A
:100D50002F939F938F9384E493E09F938F930E94AC
:100D6000740D8DB79EB70C960FB6F8949EBF0FBE4C
:100D70008DBFA8CFCF93DF931F921F92CDB7DEB761
:100D800081E390E09A838983AE014F5F5F4F61E614
:100D900081E090E00E94E9050F900F90DF91CF91E4
:100DA00008950F931F93CF93DF93682FC091000492
:100DB000D0910104FE01E65FFE4F808191810E9487
:100DC000CE058C010097C9F5CC5FDE4F84E090E042
:100DD000998388830E94BA05E0910004F091010490
:100DE000DF01A25FBE4F4D915C91119712962D913C
:100DF0003C91808191815F934F933F932F939F9379
:100E00008F9386E693E09F938F930E94740DE091F9
:100E10000004F0910104E25FFE4F808191812DB7C3
:100E20003EB7285F3F4F0FB6F8943EBF0FBE2DBFB1
:100E3000DF91CF911F910F910895FC01EC5FFE4F60
:100E400085E090E091838083FE01E45FFE4F808126
:100E50009181B8010E94C901F80180819181FE0150
:100E6000E25FFE4F91838083F801E05FFE4F2081B7
:100E70003181DE01A05FBE4F11963C932E93D801C5
:100E8000AC5EBE4F2C91DE01AC5EBE4F2C93288130
:100E900039819F938F9381818F9380818F933F932B
:100EA0002F9386E693E09F938F930E94740DF80131
:100EB000808191812DB73EB7285F3F4F0FB6F894E0
:100EC0003EBF0FBE2DBFB4CF0F931F93CF93DF93C1
:100ED000EB018C010150110983E291E0089FB00100
:100EE000099F700D189F700D1124645E7B4FE09177
:100EF0000004F0910104E45FFE4FA081B1818D9167
:100F00009C91009729F4DF91CF911F910F91089543
:100F10006817790721F0895E9E4FDC01F0CF808150
:100F200091810E943F0223E231E0029FC001039FB2
:100F3000900D129F900D1124845E9B4FFC01EE5E7C
:100F4000FE4FD183C083339623E030E0318320838A
:100F50008C5F9E4F21E030E0FC0131832083DF91E4
:100F6000CF911F910F910C94BA05CF93DF931F92ED
:100F70001F92CDB7DEB781E090E09A838983BE01EE
:100F80006F5F7F4F81E60E94D1066EE570E00E94A0
:100F900064070F900F90DF91CF910895FC01319776
:100FA00023E231E0E29FC001E39F900DF29F900D9C
:100FB0001124845E9B4FFC01EC5FFE4F2081318148
:100FC00024303105B9F4A0910004B09101042D91B1
:100FD0003C91DC01A25FBE4F11963C932E9312967A
:100FE0004D935C938C5E9E4FDC016C9381E090E0AE
:100FF00091838083089542E350E061E681E090E0D0
:101000000C94CE071F920F920FB60F9211240BB6BD
:101010000F922F933F934F935F936F937F938F9391
:101020009F93AF93BF93EF93FF938091FA039091B7
:10103000FB0301969093FB038093FA03E091000475
:10104000F091010422813381808191813F932F931C
:101050009F938F938091F9038F938091F8038F93DF
:101060008DE993E09F938F930E94740D8091FC0310
:101070009091FD032DB73EB7285F3F4F0FB6F89410
:101080003EBF0FBE2DBF892BA9F080910004909127
:101090000104FC01E75EFE4F2081318123303105E0
:1010A00049F0719722E030E0318320830E941202E0
:1010B0000E949C02FF91EF91BF91AF919F918F9100
:1010C0007F916F915F914F913F912F910F900BBE48
:1010D0000F900FBE0F901F9018950C948301CF9323
:1010E000DF931F921F92CDB7DEB784E690E09A831C
:1010F0008983AE014F5F5F4F61E682E090E00E941E
:10110000E9050F900F90DF91CF9108950E946F082D
:10111000FDCFCF93DF931F921F92CDB7DEB71A8218
:101120001982BE016F5F7F4F8FEF0E94D10664EF7F
:1011300071E00E9464070F900F90DF91CF910895A6
:101140000E948908FDCF0F931F9361E070E08FEA42
:1011500091E00E94DE0461E070E08FEA91E00E947D
:10116000DE0410E000E021E030E044E050E061E027
:1011700070E088E791E00E945C0501E010E021E06A
:1011800030E044E050E061E070E089E791E00E94E7
:101190005C0561E070E088E791E00E941D0561E078
:1011A00070E088E791E01F910F910C941D0561E0BC
:1011B00070E08AEB96E00E94DE0461E070E085EB6F
:1011C00097E00C94DE0461E070E085EB97E00E940C
:1011D000DE0461E070E08AEB96E00C94DE04CF93CD
:1011E000DF93D0E0C0E0BE0188E791E00E941D05DA
:1011F0002196C431D105B9F7DF91CF9108950F93AE
:101200001F9310E000E021E030E044E050E061E0B6
:1012100070E088E791E00E945C0521E030E044E066
:1012200050E061E070E089E791E00E945C051F9169
:101230000F91089561E070E08BEF97E00E94DE046B
:1012400061E070E085EB97E00C94DE0461E070E013
:1012500085EB97E00E94DE0461E070E08BEF97E0A1
:101260000C94DE0461E070E086E898E00E94DE0401
:1012700061E070E080EA98E00C94DE04CF93C82F20
:101280008A3019F48DE00E943E098091C00085FFEC
:10129000FCCFC093C600CF9108958091C00087FF16
:1012A000FCCF8091C60008951092C50087E6809318
:1012B000C400E0ECF0E080818D7F808386E0809345
:1012C000C20088E18093C1000895EAE7F0E08081E0
:1012D00087608083ACE7B0E08C9180648C938081E0
:1012E000806880830895E7E0F1E080818B7F8083D0
:1012F0008081877F808380818F7E808380818F7DC6
:10130000808384B184B92B9A0C94650990917C00F8
:10131000907E282F2770922B90937C0090917B00D9
:10132000977F8870892B80937B0080917A008064FE
:1013300080937A0080917A0086FDFCCF60917800DE
:101340007091790090E080E00E94790C2AEF3EE7EE
:101350004AEE5EE30E94070D20E030E04CE053E4EB
:101360000E94DE0B0E944A0C709379006093780013
:1013700080917800909179000895809126020E94D2
:1013800086099093551680935416809125020E94E9
:1013900086099093531680935216809124020E94DE
:1013A00086099093511680935016809123020E94D3
:1013B000860990934F1680934E1680915416909103
:1013C00055169C01245E31402732310558F5809135
:1013D000521690915316865F9140879750F583E798
:1013E0000E946A0180915016909151168C3221E032
:1013F00092079CF58AE70E946A0180914E169091AF
:101400004F16813223E092076CF188E60E946A0150
:101410001B992DC081E380934C1610924D160E94AB
:101420006A01ABCF8C3221E092076CF48CE60E940B
:101430006A018091521690915316813223E09207EF
:101440003CF082E6CDCF8D3B92409CF382E7EFCF1C
:101450008C3291403CF686E6C3CF8D3B92406CF2D5
:1014600089E7C9CF8C3291409CF681E7CFCF80E3EA
:10147000D2CFFFCF0F921F922F923F924F925F9247
:101480006F927F928F929F92AF92BF92CF92DF9294
:10149000EF92FF920F931F932F933F934F935F937E
:1014A0006F937F938F939F93AF93BF93CF93DF936C
:1014B000EF93FF930FB70F930CB70F93EDB7FEB7F2
:1014C000E0935816F0935916E0915616F09157167E
:1014D000EDBFFEBF0F910CBF0F910FBFFF91EF91BA
:1014E000DF91CF91BF91AF919F918F917F916F913C
:1014F0005F914F913F912F911F910F91FF90EF902E
:10150000DF90CF90BF90AF909F908F907F906F9023
:101510005F904F903F902F901F900F9018950F92D3
:101520001F922F923F924F925F926F927F928F9273
:101530009F92AF92BF92CF92DF92EF92FF920F9362
:101540001F932F933F934F935F936F937F938F934B
:101550009F93AF93BF93CF93DF93EF93FF930FB717
:101560000F930CB70F93EDB7FEB7E0935616F093B9
:101570005716E0915816F0915916EDBFFEBF0F9126
:101580000CBF0F910FBFFF91EF91DF91CF91BF91F2
:10159000AF919F918F917F916F915F914F913F910B
:1015A0002F911F910F91FF90EF90DF90CF90BF9000
:1015B000AF909F908F907F906F905F904F903F90F3
:1015C0002F901F900F900895909102019F7E90930D
:1015D000020187FF05C09091020190619093020182
:1015E00090910201977F9093020186FF05C0909130
:1015F0000201986090930201739885FD739AA598F3
:1016000084FDA59A8091020180648093020185E0A7
:101610008A95F1F70000809102018F7B809302018F
:101620000895CF93C82F809102018F7D809302018E
:101630008C2F0E94E40A8C2F8295807F0E94E40AFE
:1016400087EC90E00197F1F700C00000C43030F063
:10165000C03810F0C0932702CF9108958FE39FE127
:101660000197F1F700C00000C0E8F4CFCF93C82F76
:10167000809102018062809302018C2F0E94E40A13
:101680008C2F8295807F0E94E40A87EC90E001977E
:10169000F1F700C00000809127028F5F809327023E
:1016A000803931F0803D31F480E8CF910C94110BFA
:1016B00080ECFBCFCF910895CF93DF93EC0189911C
:1016C000811103C0DF91CF9108950E94360BF7CFAF
:1016D000CF93C82FC15010F4CF91089580E20E949B
:1016E000360BF8CF9D9A6B9AE1E0F1E0808188603B
:1016F000808380818061808380818062808380811B
:1017000080648083E2E0F1E080818F7B8083808150
:101710008F7D80838FE59AEE0197F1F700C000007E
:1017200080E30E94E40A8FE090E40197F1F700C0A3
:10173000000080E30E94E40A8FE891E00197F1F74E
:1017400000C0000080E30E94E40A87EC90E001976B
:10175000F1F700C0000080E20E94E40A87EC90E00C
:101760000197F1F700C0000088E20E94110B88E0A9
:101770000E94110B81E00E94110B86E00E94110B68
:101780008CE00C94110B0E9459010E9473090E9475
:10179000BD09AA1BBB1B51E107C0AA1FBB1FA6178F
:1017A000B70710F0A61BB70B881F991F5A95A9F70A
:1017B00080959095BC01CD0108955058BB27AA276C
:1017C0000E94F50B0C94CD0C0E94BF0C38F00E94C7
:1017D000C60C20F039F49F3F19F426F40C94BC0C8D
:1017E0000EF4E095E7FB0C94B60CE92F0E94DE0C9A
:1017F00058F3BA17620773078407950720F079F446
:10180000A6F50C94000D0EF4E0950B2EBA2FA02D2A
:101810000B01B90190010C01CA01A0011124FF279D
:10182000591B99F0593F50F4503E68F11A16F04098
:10183000A22F232F342F4427585FF3CF4695379597
:101840002795A795F0405395C9F77EF41F16BA0B5C
:10185000620B730B840BBAF09150A1F0FF0FBB1F0A
:10186000661F771F881FC2F70EC0BA0F621F731F53
:10187000841F48F4879577956795B795F7959E3FB0
:1018800008F0B0CF9395880F08F09927EE0F979541
:10189000879508950E94E60C88F09F5798F0B92F1D
:1018A0009927B751B0F0E1F0660F771F881F991F95
:1018B0001AF0BA95C9F714C0B13091F00E94000D2A
:1018C000B1E008950C94000D672F782F8827B85F3A
:1018D00039F0B93FCCF3869577956795B395D9F7ED
:1018E0003EF490958095709561957F4F8F4F9F4FF7
:1018F0000895E89409C097FB3EF490958095709503
:1019000061957F4F8F4F9F4F9923A9F0F92F96E94B
:10191000BB279395F695879577956795B795F111C0
:10192000F8CFFAF4BB0F11F460FF1BC06F5F7F4F5D
:101930008F4F9F4F16C0882311F096E911C077236F
:1019400021F09EE8872F762F05C0662371F096E878
:10195000862F70E060E02AF09A95660F771F881F47
:10196000DAF7880F9695879597F9089597F99F6705
:1019700080E870E060E008959FEF80EC0895002417
:101980000A941616170618060906089500240A94E4
:1019900012161306140605060895092E0394000C6A
:1019A00011F4882352F0BB0F40F4BF2B11F460FFF9
:1019B00004C06F5F7F4F8F4F9F4F089557FD905822
:1019C000440F551F59F05F3F71F04795880F97FB03
:1019D000991F61F09F3F79F08795089512161306BD
:1019E0001406551FF2CF4695F1DF08C016161706EC
:1019F0001806991FF1CF8695710561050894089521
:101A0000E894BB2766277727CB0197F908950E94B2
:101A10001A0D0C94CD0C0E94BF0C38F00E94C60C1D
:101A200020F0952311F00C94B60C0C94BC0C1124EE
:101A30000C94010D0E94DE0C70F3959FC1F3950F7D
:101A400050E0551F629FF001729FBB27F00DB11D42
:101A5000639FAA27F00DB11DAA1F649F6627B00DD2
:101A6000A11D661F829F2227B00DA11D621F739FBB
:101A7000B00DA11D621F839FA00D611D221F749FC9
:101A80003327A00D611D231F849F600D211D822F10
:101A9000762F6A2F11249F5750409AF0F1F0882337
:101AA0004AF0EE0FFF1FBB1F661F771F881F915064
:101AB0005040A9F79E3F510580F00C94B60C0C9451
:101AC000010D5F3FE4F3983ED4F3869577956795D3
:101AD000B795F795E7959F5FC1F7FE2B880F911D8E
:101AE0009695879597F90895CF93DF93CDB7DEB795
:101AF000AE014A5F5F4FFA0161917191AF01809130
:101B00005C1690915D160E94B90DDF91CF910895FA
:101B100060915C1670915D160C94D10F0F931F931A
:101B2000CF93DF93E0915C16F0915D162381EC0179
:101B300010E000E021FD08C00FEF1FEF14C0199561
:101B4000892B11F00FEF1FEF899160915C16709156
:101B50005D16DB011896ED91FC918111F0CF8AE0C2
:101B60001995892B49F7C801DF91CF911F910F91EA
:101B700008952F923F924F925F926F927F928F9231
:101B80009F92AF92BF92CF92DF92EF92FF920F930C
:101B90001F93CF93DF9300D000D000D01F921F92ED
:101BA000CDB7DEB77C013B018A01FC0117821682AA
:101BB000838181FFDDC1CE0101965C01F701938134
:101BC000F30193FD859193FF81913F01882309F4EF
:101BD00053C1853239F493FD859193FF81913F0183
:101BE000853229F4B70190E00E94D10FE7CF912C04
:101BF000212C312CFFE1F31538F08B3211F190F4E8
:101C0000803209F1833229F137FC3CC020ED280FE6
:101C10002A3050F536FE20C08AE0989E200D11240F
:101C2000922E06C08D3291F0803371F7689430F8AF
:101C3000F30193FD859193FF81913F018111DACFEB
:101C400021C0689431F8689432F8F2CF689433F880
:101C5000EFCF689434F8ECCFEAE02E9E200D1124EB
:101C6000222E689435F8E4CF8E3229F436FC04C174
:101C7000689436F8DDCF8C3619F4689437F8D8CFED
:101C80008836B1F2982F9F7D95549330E0F08336DB
:101C9000A1F18337C1F1833509F063C02801F2E077
:101CA0004F0E511CF801C080D180692D70E036FCC8
:101CB00002C06FEF7FEFC6010E94BB0F4C0168941A
:101CC00037F882010AC00C5F1F4FFFE3F9838824B5
:101CD0008394912C6501E89437F833FE2DC0522C83
:101CE0008114910471F5552009F468CFB70180E2A1
:101CF00090E00E94D10F5A94F6CFF8018081898339
:101D00000E5F1F4FE4CF2801F2E04F0E511CF80187
:101D1000C080D180692D70E036FC02C06FEF7FEF8C
:101D2000C6010E94C60F4C018201D5CFB70180E2E7
:101D300090E00E94D10F2A942814190409F0B0F7FA
:101D4000CECFF60137FC859137FE81916F01B70147
:101D500090E00E94D10F51105A94F1E08F1A91082F
:101D6000BFCF843619F0893609F077C0F80137FE05
:101D70006BC060817181828193810C5F1F4FF32D55
:101D8000FF763F2E97FF09C09095809570956195DD
:101D90007F4F8F4F9F4F689437F82AE030E0A501BE
:101DA0000E940110C82ECA188C2C432C36FE0CC081
:101DB000E89440F8C91440F434FE05C032FC03C076
:101DC000F32DFE7E4F2E892C44FEAAC0FE01EC0DA1
:101DD000F11D8081803309F09CC0242D297E422E84
:101DE000842D8870582E43FCAAC040FEA4C09C2CB1
:101DF000821418F42C0C922C981844FEA6C0B7013B
:101E000080E390E00E94D10F42FE09C088E790E095
:101E100041FE02C088E590E0B7010E94D10FC914CD
:101E200008F49FC0CA94D12C9FEFC91AD90ACA0CD2
:101E3000DB1CF60182916F01B70190E00E94D10F87
:101E4000AC14BD04B1F74FCF60817181072E000C37
:101E5000880B990B0E5F1F4F92CFD32CE894D4F8C8
:101E60002AE030E08537E1F1232D297FD22E8F360D
:101E7000A9F1F0F4883551F1F701868197812B960D
:101E80000FB6F894DEBF0FBECDBFDF91CF911F918B
:101E90000F91FF90EF90DF90CF90BF90AF909F9009
:101EA0008F907F906F905F904F903F902F9008950C
:101EB000803749F0883701F7D4FE02C06894D2F821
:101EC00020E130E00DC06894D4F8F6CF34FE03C0B2
:101ED000822F8660D82E20E132E002C028E030E078
:101EE000F801D7FE0FC060817181828193810C5F00
:101EF0001F4FA5010E940110C82ECA183D2CE8945E
:101F000037F852CF6081718190E080E00E5F1F4F03
:101F1000F0CF42FC02C0839463CF8394839460CF5C
:101F2000842D867809F45CCFF6CFB70180E290E08B
:101F30000E94D10F83948214C0F3512C5ECF522C97
:101F40005818821408F459CFF8CF842D867809F4F4
:101F500066CF8BE241FE80E247FC8DE2B70190E064
:101F60005CCFB70180E390E00E94D10F9A9457CFE5
:101F70008FEF9FEF84CFFC010590615070400110FE
:101F8000D8F7809590958E0F9F1F0895FC016150A2
:101F9000704001900110D8F7809590958E0F9F1F8B
:101FA00008950F931F93CF93DF93182F092FEB0101
:101FB0008B8181FD09C01FEF0FEF812F902FDF91E3
:101FC000CF911F910F91089582FF14C02E813F8100
:101FD0008C819D81281739073CF4E881F981CF0174
:101FE00001969983888310838E819F8101969F83B8
:101FF0008E83E3CFE885F985812F1995892BA1F38D
:10200000DACFFA01AA27283051F1203181F1E89482
:102010006F936E7F6E5F7F4F8F4F9F4FAF4FB1E0DB
:102020003ED0B4E03CD0670F781F891F9A1FA11DD6
:10203000680F791F8A1F911DA11D6A0F711D811DD7
:10204000911DA11D20D009F468943F912AE0269F9C
:1020500011243019305D3193DEF6CF010895462FFB
:102060004770405D4193B3E00FD0C9F7F6CF462FDC
:102070004F70405D4A3318F0495D31FD4052419345
:1020800002D0A9F7EACFB4E0A69597958795779502
:102090006795BA95C9F700976105710508959B0189
:1020A000AC010A2E06945795479537952795BA9512
:1020B000C9F7620F731F841F951FA01D0895F89420
:0220C000FFCF50
:1020C2000100FF0401770100000001000000000090
:1020D200004D09000000000002000000003E09005F
:1020E2000000000C0D0A0B805445524D494E4154DC
:1020F200494E47205441534B3A2025640A00457209
:10210200726F722077697468206572726F722063D1
:102112006F64653A2025640A0025642E53656C6558
:1021220063746564206E65772073797374656D20BE
:102132007461736B3A2025640A0025642E2070694D
:10214200643A202564207469636B3A202564206F09
:1021520066667365743A20256420706572696F64DF
:102162003A202564202020287469636B2D6F6666EF
:1021720073657429206D6F642028706572696F64BD
:10218200293A2025640A0025642E53656C65637420
:102192006564206E657720706572696F646963207B
:1021A2007461736B3A2025640A0025642E53656CB2
:1021B2006563746564206E65772052522074617382
:1021C2006B3A2025640A002D2D2D2D2D2D2D5354D3
:1021D200415254494E47204F532D2D2D2D2D2D2D3B
:1021E2002D0A0A0053656E6465723A202564202028
:1021F20073656E64696E67206D65737361676520D0
:1022020025640A0053656E6465723A2025642020B5
:10221200676F74207265706C79206D657373616786
:10222200652025640A0052656365697665723A2005
:1022320025642020207265636569766564206D657A
:1022420073736167653A20256420202066726F6D82
:10225200202073656E6465722025640A0025642E51
:10226200456E746572696E672074696D6572206966
:102272006E746572727570742C2063702069643A92
:0C2282002025642073703A2025640A00B7
:00000001FF
